:020000040800F2
:10000000008001209DD30008EDD30008EDD3000847
:10001000EDD30008EDD30008EDD300080000000088
:10002000000000000000000000000000EDD3000808
:10003000EDD3000800000000EDD30008B57C0008F7
:10004000EDD30008EDD30008EDD30008EDD3000890
:10005000EDD30008EDD30008B59400089194000892
:100060006D9400084994000825940008EDD3000819
:10007000EDD30008EDD30008EDD30008EDD3000860
:10008000EDD30008EDD30008EDD300080000000018
:10009000000000000000000000000000D5930008F0
:1000A000857900089979000881790008EDD3000866
:1000B00095790008917900088D7900081979000870
:1000C0000D79000801790008F5780008EDD30008E3
:1000D000EDD300086D4600085546000800000000FA
:1000E0007D930008ED790008EDD3000800000000C2
:1000F000000000000000000000000000EDD3000838
:1001000000000000EDD3000889790008EDD3000855
:1001100000000000000000000000000000000000DF
:10012000EDD30008EDD30008EDD30008EDD30008AF
:10013000EDD30008000000000000000000000000F7
:10014000000000000000000000000000EDD30008E7
:10015000EDD30008EDD30008EDD300083D460008BC
:10016000E9780008AD46000800000000000000002B
:10017000000000000000000000000000000000007F
:1001800000000000EDD300080000000000000000A7
:04019000EDD30008A3
:1001940010B5054C237833B9044B13B10448AFF3BD
:1001A40000800123237010BD4C02002000000000D9
:1001B400440F01080C4B43B10C480D4910B5AFF383
:1001C40000800C48036823B910BD0A48036833B99A
:1001D4007047094B002BF7D0BDE810401847064B79
:1001E400002BF5D0184700BF00000000440F0108A1
:1001F400500200204C020020000000002DE9F04FC6
:10020400AD4D95F9EC0000234FF416510622461C1F
:1002140097B0C5F8DC1085F80021C5F8E830C5F8BA
:10022400E430C5F8E0300FD0022800F05C85A34B21
:1002340002E0904200F03C8293F90C20541C1946D1
:1002440003F10C03F5D1002395F9ED40621C0ED0A7
:10025400032C01F034869A4A02E08C4200F0318388
:1002640092F90C104F1C164602F10C02F5D1954B75
:10027400029395F8D84053F8242092F8393092F834
:100284003A20134303F02203222B23D08E4A8F4BB0
:100294008F4942F824108F4E95F9EE0043F82460FC
:1002A4000122002104F092F995F9EE30002B07DBCE
:1002B40003F01F0001225B098749824041F8232093
:1002C400029A95F8D83052F8233093F83A20202A2D
:1002D40001F0DA85002008F083FD45F208439842D6
:1002E400064600F0E38145F22043984200F0DE81A7
:1002F40048F68913984241F0E58541F2892426465F
:1003040016AB1F46754806F015F83A46002302F866
:10031400043D0392934604F00F0202F1300302F10C
:100324003701092A88BF0B4624090BF8013DF2D195
:10033400584609F093FEDFF8BC81D5F8F820DFF8C1
:1003440098A10494DE468344B5F8FC000127DE45F9
:1003540022D0441C1EF801CB2F7404F03F04B5F8DE
:10036400FE1089B28C42FAD002F800C0029A95F8C5
:10037400D810A0B252F82140A5F8FC0094F8392016
:1003840094F83AC042EA0C0202F02102212A36D142
:10039400DE45D5F8F820DCD1514CDFF84CA1DFF86C
:1003A40054C1DFF834E101274FF000094FF0210B6D
:1003B400411C14F8018B2F7401F03F01B5F8FE3095
:1003C4009BB29942FAD002F80080029B95F8D800BB
:1003D400A5F8FC1053F8202092F8393092F83A101E
:1003E4000B4303F02103212B40F086803D4B9C42BC
:1003F40000F0D180B5F8FC00D5F8F820D8E7D8F89B
:100404000CC0394B394A43F82120CCF3022909F1B5
:10041400040C374B2F4A43F82120BCF1060F95F901
:10042400EE103ED9A9F1030207FA02F2013A02F0F2
:10043400020200294FEA021237DB0AEB010901F03C
:100444001F0C490907FA0CFC89F800234AF821C05B
:10045400B5F8FE1094F839C0D5F8F820BCF1200F97
:1004640089B27FF474AF51183FF471AF94F838C077
:10047400BCF1010F3FF46BAF049B84F83830E78480
:100484002068E3634FF0210384F83930C2682162A5
:1004940042F08002A784C260B5F8FC00D5F8F820C9
:1004A40055E700294FF00002C7DA01F00F010439C3
:1004B40041440A76CCE700BFF00400209C2A0108DE
:1004C400E42A0108380300200C030020E402002081
:1004D400454800088405002000E100E06832010876
:1004E400A0310108A231010860030020B5460008CC
:1004F4008803002000ED00E0DCF80C30A8494AF83D
:100504002010C3F3022303F10408A6490493B8F1AD
:10051400060FA54B41F8203095F9EE1040F2BB8050
:10052400049B033B07FA03F3013B03F00203002996
:100534004FEA0313C0F2B4800EEB010801F01F0070
:10054400490907FA00F088F800334EF82100B5F89D
:10055400FE3092F8391020299BB27FF447AFD5F8CA
:10056400F810C9183FF442AF92F83830012B3FF429
:100574003DAF1068D78482F83890C2F83C9082F876
:1005840039B0C368116243F080039784C360874B1A
:100594009C427FF42FAF01211E2007F0C7FB0121ED
:1005A4001F2007F0C3FB01211E2007F093FB00214D
:1005B4001F2007F08FFB0021212007F0B7FB7C4CA4
:1005C40005F082F848F2573200239642A684238429
:1005D40001F050846ED844F23552964201F0EC8317
:1005E40001F2CC83B6F5A95F01F0AB8341F29383AA
:1005F40041F281539E4201F0578541F2488541F210
:1006040002639E4201F0888442F253039E4241F009
:100614007F8441F21743674E63840327012301203B
:10062400DFF89881E3847F284FF00009DFF890B168
:100634004FF0090A08F1020E27D0F046B9F1000F75
:100644000BD0002318F8011B16AA1A44A8EB0E03BA
:10065400DBB24B4502F8241CF4DB4FFA89F10DAAF6
:1006640007F0FCFC1FFA89F9AAF1020AAAEB090AAD
:100674000FFA8AFABAF1000F3ADD98F8000098F8F8
:1006840001907F2808F1020ED7D1B9F1000F40F094
:100694002581F046E8E700294FF00003BFF64CAF90
:1006A40001F00F01043961440B7650E7344627E624
:1006B4000B69C9E549F23832964201F04F8401F2E0
:1006C400338449F22732964201F0B8847AD849F249
:1006D4000232964201F0028400F2018249F2900350
:1006E4009E4241F0158441F21343638401F0C5BB7B
:1006F400DFF8CC80B946B64677781EF8020B7F281F
:1007040000F0C88076465FB1002316F8011B16AAD4
:100714001A44A6EB0E03DBB2BB4202F8241CF4DB42
:1007240079B20DAA07F09AFCBFB2A9F10209A9EBAC
:1007340007070FFA87F9B9F1000FDCDC1E4EDFF86A
:10074400809011207F284FF000074FF0060806F133
:10075400020E21D076465FB1002316F8011B16AABB
:100764001A44A6EB0E03DBB29F4202F8241CF4DC0D
:1007740079B20DAA07F072FCBFB2A8F10208A8EB87
:1007840007080FFA88F8B8F1000F36DD307877786B
:100794007F2806F1020EDDD1002F7ED17646ECE7EC
:1007A400B54600088803002084050020A231010812
:1007B400200900208C1001086C0F0108600F01084B
:1007C400240D002049F229339E4200F05D86C0F0DA
:1007D400908149F231339E4204D049F235339E422E
:1007E40041F096834FF480536384CC21C34805F0D1
:1007F40021FA638CC3F30033E3840021C04807F07B
:10080400C5FE0021BE4805F0ABF9A28C49F288432D
:100814009A4202F0B381BA48002107F0B7FEB94BFF
:100824001E6840F257439E4201F0B885912E01F0B4
:10083400158742F295039E4201F0D587012E02F0FE
:100844000681022E00F06486172E00F0FF86032E28
:1008540000F0AF87042E01F0EA802D2E01F07D8197
:10086400052E00F06781092E00F0B78140F2DF33D6
:100874009E4202F0CE815B2E00F08085152E00F0A2
:10088400E884162E00F0F883DC2E00F0BE8317B047
:10089400BDE8F08F5FB9764647E7D9F80020D9F86C
:1008A40000309B1A9F42FAD87646002765E7D8F8AD
:1008B4000020D8F800309B1A9F42FAD876460027C9
:1008C40033E73269002A3FF4D2AC002B3FF4CFACBB
:1008D40093420ED00023C5F89430C8E4DBF800201E
:1008E400DBF800309B1A9945FAD8F0464FF000091E
:1008F400BAE6854AC5F89430934200F06C83834A83
:10090400934200F04D83824A934200F0EB82814B84
:10091400814902931F4607F0B9F9804995F9ED0022
:1009240007F0B4F995F8D8207D49D5F8DC60D5F8FE
:10093400E00047F8221095F8D130D5F8E420D5F836
:100944009440C5F89C60C5F8A000D5F8E860C5F8E7
:10095400A4200C200022C5F8984003F0FF01C5F83C
:10096400A860C5F8AC00C5F8B020C5F8B420002BC9
:1009740000F08982242385F8D130E36823F40053FE
:10098400E3602369D5F8A42023F44053134323617F
:10099400D5F8A030D5F8A860E268D5F8AC00D5F851
:1009A400B4103343034322F4164222F00C020B43E7
:1009B4001343E3606369D5F8B02023F44073134311
:1009C400B1F5004F6361504B00F0F9819C4200F097
:1009D4009A8103F580639C4200F09581514B524FFC
:1009E400D3F808809A68D3F80890D3F808E0986898
:1009F4004E4B4F491B68D5F89C60C9F38229C0F35C
:100A04008220C2F3822C17F80920385C17F80CC036
:100A1400CEF3822E23FA02F217F80EE023FA00F046
:100A240002EB8202B60023FA0CFC02EB820200EB1A
:100A34008000B2FBF6F2A1FB029223FA0EFE0CEB4D
:100A44008C09C8F38228520900EB8000B0FBF6F051
:100A5400A1FB00C04FF0640C09EB89090EEB8E0E6C
:100A6400B9FBF6F940090CFB129217F80870120151
:100A74000EEB8E0EBEFBF6FE0CFB10E032320001D4
:100A8400FB403230A1FB0272A1FB007003EB830335
:100A9400520903EB830302F0F002B3FBF6F3C0F355
:100AA4004310A1FB03135B09024302EB0313A3608E
:100AB400236923F490432361636923F02A03636168
:100AC400E368202243F400530021E360C5F8D41006
:100AD400029B85F8D12085F8D220FFF7CABB49F2E2
:100AE40020339E4200F0078149F225339E4241F0B3
:100AF4000F824FF48853638477E600BFF013010834
:100B0400200900200400002000100140004400409F
:100B140000140140380300209C2A0108E42A01083B
:100B240088050020003802400421010878000020D4
:100B34001F85EB51D54BD6491B68D64A51F8231073
:100B440003EB83030B445B01D358092B00F0CE80E5
:100B5400B4F90E20B4F90C3000920022114601922F
:100B6400CD4805F05DFACD4B03223221012005F07A
:100B740085FC0122CA4B00931046CA4B5F2109F041
:100B84005FF9C94B00930222C64B4FF4C871412050
:100B940009F056F9E36913B1638A063B6382C34ED5
:100BA400C34B73603046C34AB2601F2333820322AF
:100BB4004FF6FF730027F38173823273BE4940F806
:100BC400144B0922E76110F0A5F9304605F01AFD2F
:100BD400BA4B1E68092E7FF449AEB4F90E20B4F95D
:100BE4000C30009200221146DFF8E0B20192AA48CC
:100BF400B34E0496DFF8E48205F012FA6223ABF1F7
:100C0400140A4FF4FC611F463BB20793049B0593FF
:100C14002D23CDF818805E46CDF820B09946C34602
:100C2400B84603E0069B33F8021B0693BDF81CC0CC
:100C340026F80ECC002702234FF02D0C4FF6FF7E32
:100C44003C2026F80ACC26F8109C26F8041C26F82A
:100C54000C0C26F8067C26F802EC06F8083C09225F
:100C6400059946F8144C3046099310F053F9AAF844
:100C74000E70AAF81270934F099BCAF804704FF4CF
:100C8400FC6E914F8AF80C3009228D49AAF810E0C5
:100C94008E48CAF80870CAF8004010F03BF9A6F173
:100CA400140005F0AFFC09F15509059B1FFA89F9F9
:100CB4000533B9F5967F059306F12006B2D1474670
:100CC400049B3C37D846BFB2DDF820B00F33B7F5EC
:100CD400C77F0BF1600B049308F1060802F0BB8395
:100CE40038F8021C90E77A4BFFF7AEBA794A1368DA
:100CF400013313602CE741F204036384D82176485E
:100D040004F098FF75E504F0FFF8DFF8D481D5F816
:100D14009C3000EB800000EB80009B00B0FBF3F301
:100D2400A8FB03235B091E0104F0EEF8D5F89C2010
:100D340000EB8000930000EB8000B0FBF3F704F0BD
:100D4400E3F8D5F89C3000EB800000EB80009B00BA
:100D5400B0FBF3F3A8FB03234FF064095B0909FB21
:100D640013731B013233A8FB03235B0903F0F00761
:100D740004F0CAF8D5F89C3000EB80009B0000EB2F
:100D84008000B0FBF3FA04F0BFF8D5F89C3000EB18
:100D9400800000EB80009B00B0FBF3F3A8FB03236F
:100DA4005B0909FB13A31B013233A8FB0323C3F321
:100DB40043133B433344A360D5F8984078E69C4200
:100DC40000F0AB8003F580639C4200F0A68004F041
:100DD400ABF8DFF80C81D5F89C3000EB800000EB19
:100DE40080005B00B0FBF3F3A8FB03235B091F0146
:100DF40004F09AF8D5F89C2000EB8000530000EB37
:100E04008000B0FBF3F604F08FF8D5F89C3000EBCB
:100E1400800000EB80005B00B0FBF3F3A8FB03232E
:100E24005B094FF0640909FB1363DB003233A8FB51
:100E340003231B0903F4F87604F076F8D5F89C3004
:100E440000EB800000EB80005B00B0FBF3FA04F0E1
:100E54006BF8D5F89C3000EB800000EB80005B0061
:100E6400B0FBF3F3A8FB03235B0909FB13A3DB002B
:100E74003233A8FB0323C3F342133B443344A3603C
:100E8400D5F8984014E685F8D01073E58002002068
:100E9400840200208806002020090020883C0108E4
:100EA400943C01080C210108803D0108240B00201A
:100EB40055001301960032008C3D01080400002007
:100EC400200000202D0062003C002D00580B002063
:100ED4000044004068020020181301083A16010873
:100EE4001F85EB51A24B5A6A42F020025A625A6A99
:100EF400002122F020025A620A915A6C42F0200228
:100F04005A645B6C03F020030A930A9B052247236F
:100F140085F8D82085F8EE30F9E403F0F5FFDFF822
:100F24009882D5F89C3000EB800000EB80005B00D9
:100F3400B0FBF3F3A8FB03235B091F0103F0E4FFF9
:100F4400D5F89C2000EB8000530000EB8000B0FB40
:100F5400F3F603F0D9FFD5F89C3000EB800000EBEA
:100F640080005B00B0FBF3F3A8FB03234FF064099C
:100F74005B0909FB1363DB003233A8FB03231B0962
:100F840003F4F87603F0C0FFD5F89C3000EB800042
:100F94005B0000EB8000B0FBF3FA03F0B5FF58E709
:100FA400734B1A6A42F400321A621A6A002122F45C
:100FB40000321A620B911A6C42F400321A641B6CF0
:100FC40003F400330B93012226230B9985F8D820D0
:100FD40085F8EE309BE4664B5A6A42F010025A627E
:100FE4005A6A002122F010025A620C915A6C85F858
:100FF400D81042F010025A645B6C03F010030C9397
:1010040025230C9A85F8EE3081E4B4F90E20B4F966
:101014000C300092002211460192564805F000F867
:10102400554B00930222554B6421012008F008FF20
:10103400E36913B1638A063B6382514D514B524EAF
:101044006B6028464FF47843AE604FF6FF7200267B
:101054000227EB812B824D496A8240F8144B092206
:101064002F73E6610FF056FF284605F0CBFA484B84
:101074001E6017B0BDE8F08FB4F90E20B4F90C303F
:1010840000920022114601923A48DFF8309104F0B0
:10109400C7FF404B03223221012005F0EFF9012262
:1010A4003D4B00931046354B5F2108F0C9FE3B4B86
:1010B40000930222314BBE21412008F0C1FED9F831
:1010C4000420D9F80030E1690132013BC9F8042059
:1010D400C9F8003011B1638A063B638201224FF0E4
:1010E400000ADFF8DC802E4B2E4FC4F81CA01046FB
:1010F40040F23B1105F0C2F9D8F8003039682A4EA5
:101104002A4A2B48226103EB83030B4406EB431367
:101114004FF0FF31D3F818B0E061CBF100030122A6
:10112400D345C9F80C306161227601F349868DF804
:1011340054A0204ADDF80CA0A2FB0301C90801EB6E
:101144008100A3EB4003DBB203F1300003F1370E5F
:10115400092B94BF034673460AF8013D0B46002948
:10116400EAD1504608F07AFF024B0AEB000B2FE05D
:101174000038024020090020D43E01080C21010857
:10118400240A00200100BD0150001E004036010861
:10119400C4020020883C0108F03D0108803D01089C
:1011A400543E0108D00200208806002079003B014B
:1011B4002C160108CDCCCCCC1F85EB516802002045
:1011C400CC0200201AF8011B05F070FD049B18B135
:1011D400DA4518460493F5D1E36913B1638A063BF3
:1011E4006382012200211046AB4BE16140F263119E
:1011F40005F044F9D8F800203868930099180144A0
:1012040006EB4111C969022902F00581012901F0A7
:101214001C87134403445B0156F803A0BAF1010F81
:1012240001F01B86BAF1090F01F0FE859B489C4929
:101234009C4B06689C4A4FF0203008600420002133
:1012440018604FF0FF331170C8F800303B60FFF7AF
:101254001BBBB4F90E20B4F90C30009200221146E5
:101264000192924804F0DCFE914B00930222914BD0
:1012740028214B2008F0E4FDE36913B1638A063B9F
:1012840063828D4E8D4BDFF880828D4F73603046C4
:101294004FF4FC634FF002094FF0000A8949B7602C
:1012A4000922F381338240F8144BA6F812A0C4F843
:1012B4001CA086F80C900FF02DFE4046824F834907
:1012C400834AC8F804104FF478434FF6FF7BC8F8FC
:1012D4000820A8F80E300922A8F810307D4940F8FB
:1012E400144B88F80C90A8F812B00FF013FE38468F
:1012F4004FF62053784A79493B827A60B9600922D3
:101304007749A7F80EB0A7F812B087F80C9040F808
:10131400144B0FF0FFFD404605F074F9384605F014
:1013240071F901226F4B1046852105F0A7F86E4B29
:101334001F68012F1ED15A4B00934A4653464FF45F
:1013440089713A2008F07CFD322347F6EF321846C3
:1013540000924FF48271DC2203F07CFE634B009315
:1013640005203A46624B4FF4C87108F069FD3046D7
:1013740005F048F9494B1E68FFF783BAB4F90E200B
:10138400B4F90C30009200221146DFF874B10192D6
:101394004648584E0496DFF8748104F041FE6223F7
:1013A400ABF1140A4FF4FC611F463BB20793049B54
:1013B40005932D23CDF818805E46CDF820B09946CC
:1013C400C346B84603E0069B33F8021B0693BDF8F8
:1013D4001CC026F80ECC002702234FF02D0C4FF62C
:1013E400FF7E3C2026F80ACC26F8109C26F8041C24
:1013F40026F80C0C26F8067C26F802EC06F8083CC5
:101404000922059946F8144C304609930FF082FDE1
:10141400AAF80E70AAF81270374F099BCAF8047024
:101424004FF4FC6E354F8AF80C3009223149AAF882
:1014340010E03348CAF80870CAF800400FF06AFD9B
:10144400A6F1140005F0DEF809F15509059B1FFA11
:1014540089F90533B9F5967F059306F12006B2D1D3
:101464004746049B3C37D846BFB2DDF820B00F3363
:10147400B7F5C77F0BF1600B049308F1060800F081
:10148400E68538F8021C90E741F20363638403277E
:1014940001231C4EFFF7C3B8643E0108040000207A
:1014A400BC020020A0020020B80200202009002075
:1014B400443B01082C160108040A0020B900B801B5
:1014C40096002800603B0108040B00200100BD01C8
:1014D40050001E00403601086900B9006E00320059
:1014E400683B0108943D0108C4020020C83D01087E
:1014F4000C210108200000202D0062003C002D007A
:10150400580B00208C100108240A00203A16010808
:10151400B4F90E20B4F90C30C448009200273A46BE
:101524003946019704F07CFDC14B00933246C14B10
:101534001E21282008F084FCBF4B009301223B4667
:1015440010462A2108F07CFCE36913B1638A063B48
:101554006382BA4BBA4ABB4F5A6018464FF4FC66D2
:101564000022DE811E8202269F605A821E73B649C3
:10157400E26140F8144B09220FF0CCFCB34BB44A9F
:101584009F6018461E734FF6FF774FF478465A60F3
:101594005F820922DE811E82AE4940F8144B0FF0AF
:1015A400B9FCAD4B1A68052A03D15A68052A01F023
:1015B4002683A24805F026F8A44805F023F84FF640
:1015C400FF763C231A4600966E210A2003F042FD62
:1015D4003C231A460096BE210A2003F03BFD3C231F
:1015E4001A4600964FF487710A2003F033FD3C231A
:1015F4001A4600964FF4AF710A2003F02BFD974B67
:10160400009301228B4B7B21552008F019FC944B4D
:1016140000930122874BCB21552008F011FC914BFC
:1016240000930122834B40F21B11552008F008FC63
:101634008D4B009301227F4B40F26B11552008F033
:10164400FFFB8A4B1E68172E7FF401A9B4F90E2004
:10165400B4F90C300092002211460192734804F050
:10166400DFFC834B00930222724B1E212D2008F0D5
:10167400E7FB01227F4B10463A2104F0FFFEE369A9
:1016840013B1638A063B6382DFF814927A4BDFF866
:101694001482C9F8043048464FF6FF7B03234FF603
:1016A40020564FF0000A754F7549C9F80870092291
:1016B400A9F8106089F80C30C4F81CA040F8144B49
:1016C400A9F80EB0A9F812B004930FF023FC404619
:1016D4006A4B5A4FDFF8D0E1C8F80830049BA8F8E9
:1016E40010600922674988F80C30C8F804E040F813
:1016F400144BA8F80EB0A8F812B00FF00BFC384643
:10170400524E504BDFF838E1A7F812A04FF4FC62B8
:101714004FF0020A4C49C7F804E0BB60FA813A82F0
:1017240040F8144B092287F80CA004930FF0F2FB45
:1017340030464FF4784EDFF818C1049BC6F804C055
:10174400A6F80EE0A6F810E0B36009224149A6F815
:1017540012B086F80CA040F8144B0FF0DBFB48469F
:1017640004F050FF404604F04DFF384604F04AFFB1
:10177400304604F047FF444B009301222D4B7D215A
:10178400622008F05DFB414B00930122294BCD21DF
:10179400622008F055FB3E4B00930122254B104676
:1017A40040F2091108F04CFB304B1E68032E7FF405
:1017B40051A8B4F90E20B4F90C300092002211465D
:1017C40001921A4804F02CFC324B00930222194B6C
:1017D4001E21282008F034FB01222F4B104637210C
:1017E40004F04CFEE36913B1638A063B6382DFF8BD
:1017F400BC902A4BC9F804304FF620534846A9F848
:1018040010304FF003034FF6FF76DFF8A4A01B4F10
:1018140089F80C3000231A49C9F808700922A9F87C
:101824000E60A9F81260E36144E000BF20090020C3
:10183400183501080C21010828350108040A002084
:10184400F000BD0150001E003C360108240A0020AF
:101854000100BD0140360108840200204836010819
:101864009C360108F03601084437010804000020C2
:101874009C370108AC3701080D006E004B003200A4
:1018840094320108E4340108F437010820380108CF
:101894004C38010860390108703901080D007D00D9
:1018A400C40A0020E40A00200D00BE00440A0020FF
:1018B400640A002040F8144B0FF02CFB50464FF6FE
:1018C400205ECC4BAAF810E04FF0030EDFF8A8B36B
:1018D4008AF80CE00922C849CAF80870AAF80E6010
:1018E400AAF81260CAF8043040F8144B0FF012FB47
:1018F400C24B049358464FF62053C149ABF81030FD
:101904004FF003030922CBF80870ABF80E60ABF874
:1019140012608BF80C30CBF8041040F8144BB94922
:10192400DFF81C830FF0F6FA049BDFF850E39F60A6
:1019340018464FF620514FF00307DE8119825E826C
:101944001F73C3F804E00922AF4940F8144B0FF0A9
:10195400E1FA4FF000034046A8F81230AB4BAC4F0D
:10196400DFF81CE3C8F808304FF4FC624FF00203C0
:10197400A849C8F804E0A8F80E20A8F8102088F8B0
:101984000C30092240F8144B0FF0C4FA38469F4B30
:10199400DFF8C0C2BB604FF4784E4FF00203C7F8C3
:1019A40004C0A7F80EE0A7F810E009229A493B7397
:1019B4007E8240F8144B0FF0ADFA484604F022FE44
:1019C400504604F01FFE584604F01CFE049B1846C3
:1019D40004F018FE404604F015FE384604F012FEEA
:1019E4008E4B009301228E4B8521622008F028FA49
:1019F4008C4B009301228A4BD521622008F020FAF7
:101A0400894B00930122864B40F22511622008F095
:101A140017FA864B00930122814B40F27511622024
:101A240008F00EFA824B1E68042E7EF416AFB4F949
:101A34000E20B4F90C3000920022114601927D4828
:101A440004F0EEFA7C4B009302227C4B28214B20BD
:101A540008F0F6F9E36913B1638A063B6382784EB2
:101A6400784BDFF8AC81784F736030464FF4FC63F9
:101A74004FF002094FF0000A7449B7600922F3815C
:101A8400338240F8144BA6F812A0C4F81CA086F8C0
:101A94000C900FF03FFA40466D4F6E495B4AC8F810
:101AA40004104FF478434FF6FF7BC8F80820A8F8D9
:101AB4000E300922A8F81030574940F8144B88F822
:101AC4000C90A8F812B00FF025FA38464FF62053C0
:101AD400614A62493B827A60B96009226049A7F889
:101AE4000EB0A7F812B087F80C9040F8144B0FF022
:101AF40011FA404604F086FD384604F083FD0122C5
:101B0400584B1046852104F0B9FC574B1F68012F30
:101B14001ED1564B00934A4653464FF494713A20D3
:101B240008F08EF9322347F6EF32184600924FF44C
:101B34008C71DC2203F08EFA4D4B009311203A464F
:101B4400374B4FF4C87108F07BF9304604F05AFD66
:101B5400374B1E682D2E7EF483AEB4F90E20B4F9F3
:101B64000C300092002211460192324804F058FAD7
:101B7400404B00930222314B28214B2008F060F99E
:101B8400E36913B1638A063B63822D4E2D4BDFF864
:101B940080802D4F736030464FF4FC634FF0020990
:101BA4004FF0000A2949B7600922F381338240F8D3
:101BB400144BA6F812A0C4F81CA086F80C900FF0E1
:101BC400A9F94046224F2349104AC8F804104FF49B
:101BD40078434FF6FF7BC8F80820A8F80E30092296
:101BE400A8F810300C4940F8144B88F80C90A8F869
:101BF40012B047E00D00CD00E4340108A40A00202F
:101C04000D001D01D4390108D839010850001E0007
:101C1400240A00203C36010840360108DC3901085A
:101C24000C210108383A0108903A0108E83A010801
:101C34000400002020090020443B01082C16010860
:101C4400040A0020B900B80196002800603B01088E
:101C5400040B00200100BD016900CD006E003200BC
:101C6400683B0108703B01089402002098020020A0
:101C7400F83B0108143C0108840A00200D006D01A2
:101C8400F000BD010FF046F938464FF62053C54A1F
:101C9400C5493B827A60B9600922C449A7F80EB0ED
:101CA400A7F812B087F80C9040F8144B0FF032F9F3
:101CB400404604F0A7FC384604F0A4FC0122BC4BC7
:101CC4001046852104F0DAFBBA4B1F68012F1ED1A0
:101CD400B94B00934A4653464FF489713A2008F0B1
:101CE400AFF8322347F6EF32184600924FF4827170
:101CF400DC2203F0AFF9B14B009311203A46B04B0C
:101D04004FF4C87108F09CF8304604F07BFCAD4BEE
:101D14001E68FEF7A5BDB6F5AA7F26D018D941F2F4
:101D240005539E423EF4E7AF41F211539E4240F008
:101D3400EF80A54BA360032767840023A34EFEF71F
:101D44006EBC40F2134262840627A14EFEF767BCC4
:101D5400992E40F0DD809C4BA36041F213426284D3
:101D640001231D279B4EFEF75ABC41F202039C211E
:101D74009948638403F05EFFFEF73BBD47F283732B
:101D84009E424CD035D845F208439E423EF4B3AF50
:101D940020D946F609039E4217D046F614039E4204
:101DA40040F0B680884BA36040F203426284002373
:101DB40003278A4EFEF733BC4FF480539C21884896
:101DC400638403F037FFFEF714BD41F2021363840A
:101DD400FEF70BBD45F210339E4240F099807A4BDA
:101DE400A36040F613626284002302277D4EFEF74F
:101DF40016BC47F293739E4230D023D947F29673B0
:101E04009E4215D048F231039E4240F0818041F257
:101E14001343638412270123734EFEF700BC41F27F
:101E2400021390217148638403F004FFFEF7E1BCC0
:101E340040F203436384644BA3602B2700236C4E5E
:101E4400FEF7EDBB47F289739E4261D140F2134322
:101E5400638441270023674EFEF7E1BB4FF48053B0
:101E64006384C021644803F0E5FE4FF4C8736381C2
:101E7400FEF7BFBC41F203436384534BA3600227C4
:101E840001235E4EFEF7CBBB93F83820012A3EF4C3
:101E940021AA1A68012000212224D88583F8381049
:101EA400D96383F83A405169554C988501439C6243
:101EB4005161D36843F49073D360FEF70BBA514A6F
:101EC400FEF703BD672006F08BFF44F24773984288
:101ED4000BD148F247342646FEF712BA40F20342C9
:101EE40062840327484EFEF79ABBA12007F038FA14
:101EF40046F2011380B2984200F040824FF6FF731D
:101F0400984240F0E18041F226542646FEF7F8B9A3
:101F140000232381FEF76DBC40F21353638403272F
:101F24000023394EFEF77BBB49F288439E4273D8A7
:101F340049F287439E4230D249F281439E4222D0E5
:101F440013D8A6F51346403E012EE1D840F21343C0
:101F54006384652700232D4EFEF761BB40F21342D4
:101F640062840327284EFEF75ABB49F286439E42F9
:101F7400CED1154BA36040F20342628400233B2779
:101F8400234EFEF74CBB40F2074363840E4BA36021
:101F9400452700231F4EFEF742BB40F213436384E0
:101FA40049E700BF6900B9006E003200683B0108D0
:101FB400283C0108A8020020AC020020643C01086F
:101FC4000C210108040000204001E001481101082F
:101FD40040110108B0100108501101082C1101082A
:101FE400EC11010830110108D4100108881201080D
:101FF400740F0108E81001086C150108D0100108DD
:10200400C9050020004400408C1001082410010878
:10201400A00F0108DC0F01084BF205539E422DD09E
:1020240022D84AF611439E427FF472AF41F2134321
:102034006384032701231E4EFEF7F1BA40F20341E5
:102044001C4A6184A2601E271B4EFEF7E8BA3223A5
:1020540047F6EF3200921846DC221E2102F0FAFF06
:10206400164B1E68FEF70ABC4BF209539E423FF41E
:10207400F5AE4CF205539E427FF44AAF41F2080399
:10208400B0210F48638403F0D5FDFEF7B2BB41F2E3
:1020940026539E427FF43CAF40F2134363840C27E3
:1020A4000023084EFEF7BBBA40F2134363846DE786
:1020B4008C100108F0009001901001080400002029
:1020C400BC14010834110108BF2006F089FEAE4C8F
:1020D4000390BF2006F0D4FF237804900BB903F0DB
:1020E400F3FAAA4AAA4BAB49AB4F4FF4803EC2F86D
:1020F40018E04FF0E0664FF0000E4FF087684FF4A1
:10210400000C4FF4801098619E614FF40030C2F8C7
:102114001880C1F818C0C3F818E0C2F818E0C1F874
:1021240018E04FF0020E986198619861C3F818E0C6
:10213400C3F818E09E614FF4E066C2F81880C1F855
:1021440018C04FF038089E614FF0800C1026C2F87A
:102154001880C1F818C0986198619861C3F818E0B4
:10216400C3F818E09E61186820F47C1018601368A6
:1021740023F4401323F47C6313600B6823F440437B
:102184000B603B683A689342FCD0814B7F49DFF88F
:1021940004C24FF4803201269E619A619A619A6169
:1021A4009A619A619A619A611869DCF81000186959
:1021B400086908690869086918699E619E619E61D9
:1021C4009A619A619A619A619A619A619A611869AD
:1021D400DCF8100018690869086908690869186951
:1021E4009E619E619E619A619A619A619A619A6107
:1021F4009A619A611869DCF810001869086908691D
:102204000869086918699E619E619E619A619A6174
:102214009A619A619A619A619A611869DCF810006E
:102224001869086908690869086918699E619E61E6
:102234009E619A619A619A619A619A619A619A61BE
:1022440018690590DCF81000069018690790D1F819
:1022540010A0D1F810B0D1F81080D1F810901869FE
:102264009E619E619E619A619A619A619A619A6186
:102274009A619A611A69DCF810201A690A690A6974
:102284000A690A691A699E619E619E618E611A6873
:1022940022F47C121A600A6822F4401222F47C624E
:1022A4000A60DCF8002022F44042CCF800201A68CE
:1022B400F0404FEA191942F4A81209F0400900F05D
:1022C40080001A6008FA06F8069B0A682BFA06FBD7
:1022D4000AF0080A059E49EA000008F0200840EACE
:1022E4000A0040EA0800C6F3402E9B09079E0BF043
:1022F400100B03F0020340EA0B0042F480124FEA91
:10230400162842F4A86203430A6008F00408039AFA
:1023140043EA0E0343EA080343EA0266049ADCF83C
:10232400003046EA0226B6B248F2573243F48043FC
:102334009642CCF800303EF4B9A949F281439E425A
:102344003EF4B4A941F211539E423EF4AFA9B6F54E
:10235400A95F3EF4ABA941F226539E423FF4D3ADAC
:1023640041F281539E423EF4A1A9B6F5A05F40F02C
:102374008D8646F614042646FDF7C2BF41F6631463
:102384002646FDF7BDBF00BF350300200004024010
:102394000000024000080240240D0020B4F90E2081
:1023A400B4F90C300092002211460192D048D14F6A
:1023B40003F036FED049D14A0B6800925A1C0A60D9
:1023C400CF4B03229621012007F03AFDCD4B009319
:1023D4000322CB4B96210F2007F032FD3A683B686D
:1023E4009B1AB3F57A7FFAD3C74804F01BFA3A680C
:1023F4003B689B1AB3F57A7FFAD3DFF86893C34836
:10240400DFF86483C24E03F095FFD9F8003058F822
:10241400232003EB8303134406EB4313187A02F0DF
:1024240093FDD9F8003058F8232003EB83031344B9
:1024340006EB4313587A02F087FDD9F8003058F8B8
:10244400232003EB8303134406EB4313987A02F02F
:102454007BFDD9F8003058F8232003EB83031344A1
:1024640006EB4313D87A02F06FFDD9F8003058F820
:10247400232003EB8303134406EB4313187B02F07E
:1024840063FDD9F8003058F8232003EB8303134489
:1024940006EB4313587B02F057FDD9F8003058F887
:1024A400232003EB8303134406EB4313987B02F0CE
:1024B4004BFDD9F8003058F8232003EB8303134471
:1024C40006EB4313D87B02F03FFDD9F8003058F8EF
:1024D400232003EB8303134406EB4313187C02F01D
:1024E40033FDD9F8003058F8232003EB8303134459
:1024F40006EB4313587C02F027FD864803F01AFFCD
:102504000D21854802F0E6F818B10A21824802F04C
:10251400E1F83A683B689B1AB3F57A7FFAD37F48AF
:1025240004F080F97E4804F07DF97E4804F07AF9DD
:102534007D4804F077F97A4804F074F97B4803F095
:10254400F9FED9F8003058F8232003EB8303134431
:1025540006EB4313987C02F0F7FCD9F8003058F8E6
:10256400232003EB8303134406EB4313D87C02F0CC
:10257400EBFCD9F8003058F8232003EB8303134411
:1025840006EB4313187D02F0DFFCD9F8003058F84D
:10259400232003EB8303134406EB4313587D02F01B
:1025A400D3FC5F4804F03EF9614803F0C3FED9F858
:1025B400003058F8232003EB8303134406EB431342
:1025C4005B68002B00F01783012B00F01083022BB3
:1025D40000F00983032B02D1564803F0ABFE5048A8
:1025E40004F020F9544803F0A5FED9F8003058F857
:1025F400232003EB8303134406EB4316F369012BF7
:1026040000F0ED82022B02D14C4803F093FE4448C3
:1026140004F008F94A4803F08DFE414804F002F939
:10262400484803F087FE3E4804F0FCF83A683B68EB
:102634009B1A632BFBD904F053F8396841F26F728B
:102644003B685B1A9342FBD93F4A05231360FDF7AD
:10265400D5FD3D4B1E68912E7EF4EBA80026B4F9FF
:102664000E20B4F90C3022480092314632460196CD
:1026740003F0D6FC224F354BDFF8F08003223221E1
:10268400012003F0FBFE324B009302223B465A2109
:10269400012007F0D5FB2F4BDFF8D4E05E8218460B
:1026A4004FF4FC624FF00309C3F804E0C3F8088058
:1026B400DA811A82284983F80C90092240F8144BD5
:1026C4000EF028FC254BDFF8ACE0C3F804E0184614
:1026D4004FF4784E4FF6FF72C3F808805A822049AF
:1026E40083F80C900922A3F80EE0A3F810E043E06D
:1026F40020090020240D0020680200207432010803
:102704000C210108803201088C320108983201083A
:1027140088060020A8320108F0040020AC32010829
:102724005C340108C0320108DC320108EC320108D3
:10273400F432010828330108343301084433010812
:1027440048330108583301080400002060330108AD
:102754006C3301088409002088330108A40900208F
:102764008C330108800200208402002064003200BF
:102774002800AF00B400AF008C4E40F8144B0EF0AC
:10278400C9FB8B49E7616FF01F12012306F1C108F1
:10279400216162612376874F01E0464506D016F831
:1027A400011B384604F082FA0028F6D1E36913B11C
:1027B400638A063B638201227F4B0093002110460B
:1027C4007E4BE1614FF4C87107F03AFB7C4803F09B
:1027D40019FF7C4803F016FF7B4B1E6842F29503F9
:1027E4009E427EF42BA8B4F90E20B4F90C3000926A
:1027F4000022114601926F48744F03F011FC744B90
:10280400009303226D4B9621012007F019FB714BB5
:1028140000930322694B96210F2007F011FB6E4BA6
:1028240000930222654BD7210F2007F009FB0122F8
:102834006A4B40F213110F2003F020FE3A683B6804
:102844009B1AB3F57A7FFAD3654803F0EBFF3A6835
:102854003B689B1AB3F57A7FFAD3624803F0E2FF30
:102864003A683B689B1AB3F57A7FFAD35E48DFF87F
:10287400909103F05FFD5D4803F0D4FF5C4803F0E2
:1028840059FDD9F80460002EC0F2AD8600238DF8FE
:10289400543058493346039EA1FB0302D20802EB8D
:1028A4008200A3EB4003DBB203F1300003F1370EE7
:1028B400092B94BF0346734606F8013D1346002ACC
:1028C400EAD1304607F0CAFBDFF838A106EB00086E
:1028D40004E016F8011B01F0FDFE10B14645504618
:1028E400F7D1424803F09EFF434803F023FDD9F893
:1028F4000860002EC0F2AA8600238DF854303D49AA
:102904003346039EA1FB0302D20802EB8200A3EB31
:102914004003DBB203F1300003F1370E092B94BFFF
:102924000346734606F8013D1346002AEAD13046B1
:1029340007F094FBDFF8CCA006EB000804E016F8DF
:10294400011B01F0C7FE10B146455046F7D1274898
:1029540003F068FF294803F0EDFCD9F80060002E6D
:10296400C0F2A78600238DF8543022483346039ED4
:10297400A0FB0312D20802EB8201A3EB4103DBB2FA
:1029840003F1300103F1370E092B94BF0B46734654
:1029940006F8013D1346002AEAD1304607F05EFBF3
:1029A400DFF8609006EB000833E000BFA4310108B3
:1029B4000100040120090020903301080C210108C2
:1029C40084090020A409002004000020240D002014
:1029D40074320108FC330108083401081C3401086E
:1029E4008C32010844340108603401085C34010865
:1029F40068340108CDCCCCCC8C340108A83401084F
:102A040068020020F004002016F8011B01F062FEA9
:102A140010B146454846F7D1C14803F003FF3A6870
:102A24003B689B1A632BFBD903F05AFE396841F2C9
:102A34006F723B685B1A9342FBD9BA4A0123136055
:102A4400FDF7DCFBB74B1E68012E7DF4FAAE4FF0A8
:102A54000008B4F90E20B4F90C30B3480092414692
:102A64004246CDF8048003F0DBFAB04B00933046C5
:102A7400AF4BB04FB04EDFF840930322322107F042
:102A8400DFF9AE4B032232210F2003F0F7FCAC4BED
:102A940000930322A64B73210F2007F0D1F9384687
:102AA4004FF6E073A74AC4F81C80A7F812804FF0D1
:102AB4000308A5497A60C7F80890FB813B82092284
:102AC40087F80C8040F8144B0EF024FA30464FF689
:102AD400FF7E4FF61F039D49A6F812E00922C6F8AF
:102AE400089086F80C807160F3819949338240F82C
:102AF400144B0EF00FFA974B23614FF002086FF05E
:102B04001F136361944884F8188004F01FFE934BEC
:102B1400236193484FF0FF3904F018FE914B236171
:102B2400914884F81880C4F8149004F00FFE8F4B79
:102B340023618F4804F00AFE8E488F498F4A904BD8
:102B4400C0F800908F48C1F80090C2F800908E49F8
:102B54008E4AC3F800908E4BC0F800903846C3F8F4
:102B64000090C1F80090C2F8009003F04BFD30468D
:102B740003F048FD6B4B1E68FDF763BEB4F90C20EF
:102B8400844E00239A42337019DC0DA802F09CFA9B
:102B9400BDF834204FF61F739A427DF43CAE0623F1
:102BA4000DAA01213A208DF8343005F057FA638CD0
:102BB400012223F0100363843270FDF72CBEB4F9B4
:102BC4000E209A42E1DD194600931A46564803F056
:102BD40059F84FF6E071208E05F0A0FBD5E76E485A
:102BE40003F0A8FB13E56D4803F0A4FBF7E46C487D
:102BF40003F0A0FBF3E46B4803F09CFBEFE49A685A
:102C0400052A7EF4D6ACDB68052B7EF4D2ACFEF745
:102C1400D3BCB4F90E20B4F90C3000920022114652
:102C2400DFF890B1019240485F4E0496DFF88C8142
:102C340003F0F6F96223ABF1140A4FF4FC611F466A
:102C44003BB20793049B05932D23CDF818805E4671
:102C5400CDF820B09946C346B84603E0069B33F846
:102C6400021B0693BDF81CC026F80ECC00270223D5
:102C74004FF02D0C4FF6FF7E3C2026F80ACC26F8A8
:102C8400109C26F8041C26F80C0C26F8067C26F862
:102C940002EC06F8083C0922059946F8144C304623
:102CA40009930EF037F9AAF80E70AAF812703F4F84
:102CB400099BCAF804704FF4FC6E3D4F8AF80C303F
:102CC40009223949AAF810E03A48CAF80870CAF843
:102CD40000400EF01FF9A6F1140003F093FC09F173
:102CE4005509059B1FFA89F90533B9F5967F0593B4
:102CF40006F12006B2D14746049B3C37D846BFB202
:102D0400DDF820B00F33B7F5C77F0BF1600B0493E8
:102D140008F1060800F0CF8138F8021C90E700BFE4
:102D24005C3401080400002020090020C834010894
:102D34000C210108C4090020E4090020D034010852
:102D4400DC3401080A001801943201080A00630106
:102D5400E434010878001D01E834010878003301E7
:102D6400F434010878006A01043501087800800110
:102D74001035010810000020140000201800002065
:102D84001C00002080020020080000200C0000200D
:102D9400A8020020340300203C3301081C3301083E
:102DA4001033010800330108200000202D006200C8
:102DB4003C002D00580B0020640032003A16010834
:102DC4002D21C34803F072FF8DF854A0C149DDF8EA
:102DD4000CA05B46A1FB0302D20802EB8200A3EB2A
:102DE4004003DBB203F1300003F1370E092B94BF2B
:102DF400034673460AF8013D1346002AEAD15046B9
:102E040007F02CF9B24B0AEB000B07E01AF8011B90
:102E140003F04CFF049B00283EF4DEA9DA45184673
:102E24000493F3D1FEF7D8B9AB4DAC4BAB60284655
:102E34001F23AB4A2B82AB4940F8144B03236A602F
:102E44002B7352464FF6FF73EB816B820EF062F8E0
:102E5400284603F0D7FBFEF7E9B94FF47A7004F083
:102E64002FFFA148DFF8ACB203F0DCFC4FF47A701A
:102E740004F026FF9D4803F05DFAD8F800303A6864
:102E840003EB8303134406EB4313187A02F05CF854
:102E9400D8F800303A6803EB8303134406EB43137A
:102EA400587A02F051F8D8F800303A6803EB8303FB
:102EB400134406EB4313987A02F046F8D8F800302E
:102EC4003A6803EB8303134406EB4313D87A02F006
:102ED4003BF8D8F800303A6803EB8303134406EB5D
:102EE4004313187B02F030F8D8F800303A6803EB4B
:102EF4008303134406EB4313587B02F025F8D8F8F8
:102F040000303A6803EB8303134406EB4313987BC6
:102F140002F01AF8D8F800303A6803EB830313443C
:102F240006EB4313D87B02F00FF8D8F800303A6868
:102F340003EB8303134406EB4313187C02F004F8F9
:102F4400D8F800303A6803EB8303134406EB4313C9
:102F5400587C01F0F9FF664803F0ECF95046DFF8BD
:102F6400B8A104964FF0000CB5F8FC201AF801EB58
:102F7400049E2874511C01F03F01B5F8FE309BB249
:102F84009942FAD0D5F8F830049603F802E0029B8F
:102F940095F8D820A5F8FC1053F8221091F8393090
:102FA40091F83AE043EA0E0303F02103212B40F0A9
:102FB4005F82504B9A45D7D14FF47A70049E04F047
:102FC4007FFE4D4803F02EFC4C4803F02BFC4C488C
:102FD40003F028FC4B4803F025FC484803F022FC8E
:102FE400494803F0A7F9D9F80C50002DC0F2938298
:102FF40000238DF8543037482B46039DA0FB031261
:10300400D20802EB8201A3EB4103DBB203F13001EE
:1030140003F1370E092B94BF0B46734605F8013DA7
:103024001346002AEAD1284607F018F8DFF8ECA086
:1030340005EB00094D45504600F0768215F8011B5A
:1030440001F048FB0028F5D16EE2304BDFF8D0E008
:10305400E3614FF0FF33217663611D48C4F810E04B
:103064000A22192103F0C8FDE36913B1638A063B00
:103074006382D9F80830D8F8002038681933002161
:10308400C9F80830E1619300FEF7C3B8D42006F014
:1030940067F945F2103386B29E423DF407ABD72060
:1030A40006F05EF948F2310386B29E423AD148F204
:1030B4003104FDF725B9322347F6EF320092184662
:1030C400DC221E2101F0C6FF114B1E68FDF7D3BBA5
:1030D40020090020CDCCCCCC240B0020960032005B
:1030E4005500A9018C3D01088C3201089832010871
:1030F400A8320108A2310108AC3201085C3401088D
:10310400C03201087C3E01088C3E01082C160108DF
:103114000400002000ED00E0A0310108F0040020CC
:1031240079007701EF2005F05BFE0646EF2005F0FD
:10313400A7FF237803900BB902F0C6FAA04BA14A6B
:10314400A1494FF480304FF4801490614FF0000E89
:103154009C614FF4003002244FF0E0694FF087681F
:103164004FF4000CC3F81890C2F81880C1F818C0C6
:10317400C3F818E0C2F818E0C1F818E098614FF4F9
:10318400E06E986198619C619C61C3F81890C2F8E4
:1031940018804FF48369C1F818C04FF080084FF0CD
:1031A400100CC3F818E0C2F81890C1F818809861A0
:1031B400986198619C619C61C3F818C0186820F4F8
:1031C4007C101860136823F4401323F47C631360A9
:1031D4000B6823F440430B603B683A689342FCD08D
:1031E400774B7849784F4FF4803201249C619A617F
:1031F4009A619A619A619A619A619A6118693869C7
:103204001869086908690869086918699C619C61FA
:103214009C619A619A619A619A619A619A619A61D0
:1032240018693869186908690869086908691869B2
:103234009C619C619C619A619A619A619A619A61AC
:103244009A619A611869386918690869086908698E
:10325400086918699C619C619C619A619A619A6190
:103264009A619A619A619A6118693869186908695A
:1032740008690869086918699C619C619C619A6184
:103284009A619A619A619A619A619A61D3F810B0CD
:10329400D7F810E018690490D1F810A0D1F810C044
:1032A400D1F81080D1F8109018699C619C619C61E0
:1032B4009A619A619A619A619A619A619A611A69AA
:1032C4003A691A690A690A690A690A691A699C6188
:1032D4009C619C618C611A6822F47C121A600A68F1
:1032E40022F4401222F47C620A603A6822F44042DA
:1032F4003A601A684FEA1919E04009F0400900F0F1
:10330400800042F4A8120AF0080A08FA04F849EA0C
:1033140000001A6040EA0A002CFA04FC08F02008B5
:103324000A6840EA08034FEA9E1E04980CF0100C49
:103334000EF0020E43EA0C03CBF3402B000A43EADF
:103344000E0342F4801242F4A86200F0040043EA3F
:103354000B030A600343039A43EA066646EA02261D
:103364003B68B6B249F2273243F4804396423B604D
:103374003DF49CA9FE2005F0F3FF42F25303C0F391
:103384000F269E423DF492A9042005F0E9FFC0F304
:10339400074386B21BB9B6F5004F00F0088141F22D
:1033A40026539E423EF4AFAD48F252539E4200F083
:1033B400BE814AF611439E423DF478A906E000BF5F
:1033C400000002400004024000080240D32005F03F
:1033D400C7FFC0F3072202F16D01C9B201290446F7
:1033E40086B27DF663A9982A00F09E81772A00F0C0
:1033F4009B81162A00F09881D32E3DF457A94DF2F3
:10340400D3339E423DF452A9002005F0E9FC064660
:103414000446FCF775BFCA4BCA4AE3614FF0FF315B
:103424000123226161612376C7480A221E2103F029
:10343400E3FBE36913B1638A063B6382D9F808307E
:10344400D8F8002038681E330021C9F80830E1613B
:103454009300FDF7DEBE322347F6EF3200921846A2
:10346400DC221E2101F0F6FDB84B1E68FDF7FEB903
:10347400DBF80CE0B64EB74B46F82230CEF302230D
:1034840003F1040EB44E0593BEF1060FB34B46F898
:10349400223095F9EE2040F24581059B033B00FA6A
:1034A40003F3013B03F002031B01002AC0F2348141
:1034B40002F1604606F5614602F01F0E86F80033FD
:1034C4005209A74B00FA0EFE43F822E0B5F8FEE0DD
:1034D40091F83920D5F8F830202A13FA8EF37FF4C6
:1034E40068AD002B3FF465AD91F83820012A3FF414
:1034F40060AD0A68C8844FF02106C1F83CC081F869
:1035040038C081F83960D2F80CE00B624EF08003C9
:103514008884D3604DE52D21924801F0DBF869429F
:103524000A22904803F068FB8F4803F07BF98F4828
:1035340002F000FFD8F800303A6803EB8303134429
:1035440006EB4316F369012B2DD0022B02D18848D8
:1035540002F0F0FE8448874D03F064F9864802F0D7
:10356400E9FE814803F05EF9844802F0E3FE7E48F8
:1035740003F058F9642004F0A3FB03F0B1F84FF40E
:10358400FA5004F09DFB7E497E4B696028461F2259
:103594000321AB602A82297340F8144B4FF6FF7362
:1035A4000922794950E4794802F0C4FED2E7784B05
:1035B400D3F8EC31ADF834300DAA1B0C0321B9203B
:1035C4008DF8363004F04AFDD02005F009FCC0B275
:1035D400992800F0B18090287FF4F8AE49F2900465
:1035E4002646FCF78DBE2D215E4801F073F80023BA
:1035F4008DF85430674A7342039EA2FB0301C90845
:1036040001EB8100A3EB4003DBB203F1300003F1D3
:10361400370E092B94BF0346734606F8013D0B464B
:103624000029EAD1304606F019FDDFF838A106EB8F
:10363400000806E016F8011B01F04CF800283FF4DE
:1036440050A946455046F5D1FFF74BB92D214548C1
:1036540001F040F800238DF854304E4A7342039E23
:10366400A2FB0301C90801EB8100A3EB4003DBB219
:1036740003F1300003F1370E092B94BF0346734660
:1036840006F8013D0B460029EAD1304606F0E6FC77
:10369400DFF8D0A006EB000806E016F8011B01F0E5
:1036A40019F800283FF453A946455046F5D1FFF7D1
:1036B4004EB92D212B4801F00DF800238DF854301C
:1036C40034497342039EA1FB0302D20802EB820039
:1036D400A3EB4003DBB203F1300003F1370E092BF7
:1036E40094BF0346734606F8013D1346002AEAD107
:1036F400304606F0B3FCDFF86C9006EB000806E0F9
:1037040016F8011B00F0E6FF00283FF485A94645A2
:103714004846F5D1FFF780B902F00F02043A5A4443
:103724001376D3E60023C0E6A4B2FCF7E9BD47F262
:1037340089763446FCF7E4BD04460646FCF7E0BD52
:103744002C160108790077012009002004000020CC
:1037540060030020B546000888030020840500208B
:1037640000E100E0F00400205C3401089C3E010804
:10377400BC3E0108240B0020C43E01085833010854
:103784005500A901960032008C3D0108B43E0108A1
:10379400600F0108CDCCCCCC2DE9F04F91B0D0F81E
:1037A40000E0BDF96850BDF8706002969D422E4657
:1037B400A8BF1E46BDF96CC0DEF80C7006EBD676C9
:1037C4004FEA6608E0459A464346A8BF63460C9311
:1037D4009A4B9F4204468B46164640F05882BDF8E9
:1037E400303003931FFA8BF15A00CB189BB2DEF8EA
:1037F4001C9005930FFA83F8914B069192B21FFA2D
:103804008AFA9945AAEB0207029B00933FB208BFCC
:10381400DEF8349007923B46324641462046B6B223
:10382400C847ADB2731E21682B449BB2D1F81C90DB
:103834000F931AB2824B9945029B009308BFD1F8AB
:1038440034903B4641462046C8472368039A7D4F3F
:10385400D3F8188007991644B2B26D1AB845049289
:103864002DB216B240F01082029A0092D3F8308042
:1038740059462B4632462046C047069B2268013BE8
:10388400D2F8188053449BB2089319B2B845029BEE
:10389400009340F0F481176B2B4632462046B8471C
:1038A40003990C98C1EBC132C1F10103520012B269
:1038B4001BB2002811460B921D460E9340F3EB8178
:1038C400049BDDF808805A1E059B013B92B29BB213
:1038D40006920993894682464FF0000B069B1FFA15
:1038E4008BF69A1B002D434612B220460BF1010BB6
:1038F40009F1020109DB1FFA81F94D440AF1FF3A8B
:103904002DB20FFA89F90FFA8AFA05991FFA8AF784
:103914000797C91B276809B23F69B8470799049AF2
:103924002368521A09991F6905EB4605891B01365C
:1039340012B209B24346204636B20335B84756455B
:103944002DB2CBDB089B039A02980E9D0C9F9B1A09
:103954009BB21A4607934300511C03F03E0320F028
:103964003E02134389B20D930B9B0A9108934FF0C7
:10397400000BA1461CE08168334881428E4640F02A
:103984001481002B06DB002A04DBB9F90C109942E0
:1039940000F33C81069B9A1B079B03EB080112B2C0
:1039A40009B2029B4846A04757450BF1010B2ADD9B
:1039B400002D08DB089B02339BB21D44013F1BB260
:1039C4002DB208933FB21FFA8BF6D9F800000A9B78
:1039D4000469049A711C0FFA81FA1C4905EB460527
:1039E4001FFA87F803353344A2EB08028C422DB248
:1039F4001BB212B2BFD019464846029BA047D9F861
:103A040000301C69C6E7039A0F9B0E9E9B1A9BB25B
:103A14001A460693D9F80030D3F8108013460133C0
:103A24009BB24C4608930B9B04932346DDF83090DD
:103A340044464FF0000B98461CE000BF5158000864
:103A4400695800085558000841850008F55D0008CC
:103A54009D68924B9D4240F0B780002906DB002A06
:103A640004DBB8F90C308B4200F3B580D1450BF17F
:103A7400010B37DD002E0ADB049B02339BB21E448C
:103A840009F1FF391BB236B204930FFA89F90A9B84
:103A94001FFA8BF55919069B1FFA89F7DA1909B22F
:103AA40012B2029B4046A047079AD8F800307C48DF
:103AB4001C691744089A06EB450605F1010A03360A
:103AC4001544844236B20FFA8AFA39B22AB2BFD008
:103AD400029B4046A047D8F80030D1451C690BF141
:103AE400010BC7DC43460027A046DFF8B091DFF89E
:103AF400B8A10E9DDDF830B004971C4613E08E6823
:103B04004E455BD1002B06DB002A04DBB4F90C0024
:103B1400984200F39680049BBB4503F10103049390
:103B24003CDDD1F81080002D0DDB0B9B02339BB2E2
:103B34000BF1FF3B1D440FFA8BFB1BB20B931FFAD7
:103B44008BF32DB20393BDF81060089B0599F2180E
:103B5400039BC91A06F1010E12B209B2029B204658
:103B64000FFA8EF7C047099A2168039BD1F8108099
:103B74004B4805EB4605961B069A03359A18804573
:103B84002DB233B212B2BAD019462046029BC047B6
:103B9400049B21680133BB450493C2DC4B6A414A50
:103BA400934267D111B0BDE8F08F19467446029B69
:103BB4004846A047D9F800301C69EBE61946204670
:103BC400029BB0472168A6E7029B4046A847D8F865
:103BD40000301C694AE7B8F90E3093427FF746AFCC
:103BE400314B02981C780D9B0092002C08BF0346B1
:103BF4001C4640460B4602F045F82146B8F8300012
:103C040004F08CFBD8F800301C692FE7B9F90E10CA
:103C140091427FF7BFAE244902980C780D99009227
:103C2400002C08BF01460C464846194602F02AF803
:103C34002146B9F8300004F071FBD9F800301C6952
:103C4400A8E6B4F90E0090427FF765AF9AF80080B9
:103C540002980D990092B8F1000F08BF01468846FA
:103C64002046194602F00EF84146208E04F056FB19
:103C7400216850E7204611B0BDE8F04F18472B46A5
:103C840032462046C0470BE6029B0093F0E5B84756
:103C9400D4F800E0A3E5216880E700BF418500086F
:103CA400F55D00085158000834030020F0B503689E
:103CB4009E6959695D6890F83E20D2B2102A8FB08F
:103CC40000F0A680402A00F0A380974A0A400446E8
:103CD4001AB3AF0500F10F82944A3240002A00F073
:103CE4000981934A0A40002A40F07881914A0A40A7
:103CF400002A00F0E480AD0540F1E180628D92B2CB
:103D0400002A00F0DC80626A511C616212781A6138
:103D1400638D013B9BB26385D1E08748084000284E
:103D2400DAD0AF05D8D594F83D00596821F4E061A4
:103D340059600D925A690D92196841F00101196098
:103D44000D9A196821F4806119605968C2B2080596
:103D54001F460ED594F83D10222900F07F8294F876
:103D64003D102A2900F07A82616B0968496889B29A
:103D74006185618D89B2E1B15969490709D5616AE3
:103D84001B69481C60620B70638D2768013B9BB202
:103D940063857B695B0608D5636A3969581C606270
:103DA4001970638D013B9BB26385236C43F004035C
:103DB4002364236C002B40F05782A2F128010229CE
:103DC40040F21A82236B222B01D0222A77D10023BE
:103DD4002022236384F83D2084F83E30E36D1F2BBA
:103DE40002DCE36D0133E36594F85830012B66D1AE
:103DF400E36D94F83D20282A61D194F83C20012AEF
:103E04005DD0234403F16801204609F095FA56E099
:103E140011F0011F3DD0AA0500F15481474A0A4020
:103E2400002A4ED0414A3240002A3ED0404A0A403D
:103E3400002A00F087806E0540F184803D4A0A40E4
:103E4400002A40F0838090F83D20048D90F83E10C5
:103E5400C56AD2B2C9B2002C40F05282212A00F0C5
:103E6400DA8240292BD1222A29D1428D92B2002A0A
:103E740000F0EB8290F83E20402A00F03783426A3B
:103E8400511C416212781A61438D013B9BB24385F8
:103E940015E02A4A0A40A2B1AF05C3D5426CD2B29A
:103EA4001A61224A3240002AC0D1254A0A40002A17
:103EB40071D1204A0A4012B1AA0500F17B810FB0EA
:103EC400F0BD194A0A40002AACD0AC05AAD590F836
:103ED4003E20C76AD0F830E090F83D40222CD2B2A0
:103EE40000F09E81002201925A6901929A6901921E
:103EF400019A97E7124A0A40002A40F09C800D4A32
:103F04000A40002ADBD0AA05D9D5628D92B2002AD4
:103F1400D5D0626A1B69511C61621370638D013BC9
:103F24009BB26385CBE700BF0200010004001000D0
:103F340080000100040001001000010008000100DD
:103F440040000100AB4A0A40002AB8D0AD05B6D5FE
:103F5400C16A90F83D20212AB1D1428D92B2002A43
:103F64008DD1042905D0082903D011F5803F40F0F4
:103F740046825A6822F4E0625A601A68002142F4C8
:103F8400007220241A60016380F83D4090F83E30AE
:103F940080F83E1093E76C058BD5964A0A40002AB8
:103FA4008AD190F83D10222989D1418D89B2032903
:103FB40040F20082426A1B69511C41621370438DB6
:103FC400013B9BB24385438D9BB2032B7FF477AFB8
:103FD4000268536823F48063536070E76E057FF5CD
:103FE40085AE844A0A40002A7FF485AE94F83D10D9
:103FF400628D92B2C9B2002A3FF461AF626A501C6A
:10400400606212781A61628D013A92B26285628DA1
:1040140092B2002A7FF453AF29297FF450AF596834
:10402400212521F4806128205960256384F83D000E
:1040340084F8882043E768057FF561AF6D4A0A403C
:10404400002A7FF460AF94F83D10628D92B2C9B239
:10405400002A3FF434AF626A1B69501C606213701B
:10406400638D013B9BB26385638D9BB2002B7FF410
:1040740026AF2A297FF423AF22685368222023F431
:10408400806328215360206384F83D10E36D1F2B67
:1040940002DCE36D0133E36594F85830012B7FF4BF
:1040A4000EAFE16D94F83D30282B7FF408AF94F8FF
:1040B4003C30012B3FF403AF21446831204609F022
:1040C4003BF9FCE690F83E20402A00F08B80026920
:1040D400B2F5804F62D0026D002A00F09980026D23
:1040E400012A7FF49FAE426CD21102F0060242F024
:1040F400F1021A6196E69A6999690D0653BFC1687F
:10410400208BE16888B2814202F004027FF4D7AECA
:10411400002A00F0F980636E002284F8582003B16D
:10412400984794F8883094F83D20282ADBB27FF42D
:10413400C6AE9BB2002B3FF4C2AE94F83C20012AD9
:104144003FF4BDAE0121226884F83C101168C80711
:1041540003D4116841F0010111601068002120F4BA
:104164000060292720260825106084F83D7084F813
:104174003E6021646385E562608D0B9153690B9306
:1041840093690B9384F83C100B9B5368208543F48C
:10419400E06304F168016162536090E690F83D20A9
:1041A400212A426C16BF42F0010202F0FE02D2B292
:1041B4001A6137E6C16A428D92B2042A5ED0428DFA
:1041C40092B2032A00F09280428D92B2022A63D006
:1041D400426A1B69511C41621370438D013B9BB2BF
:1041E40043856CE6026D002A42D1426C02F0FE0265
:1041F4001A6117E604000100A74AE2622022236341
:10420400204684F83D2084F83E3003F089FB56E6CE
:10421400426CD21102F0060242F0F0021A6101E689
:10422400046D14B9402A00F03081046D24B9026988
:10423400B2F5404F00F03281428D92B2002A40F034
:104244009D8008925A6908929A690892089A1A6895
:1042540042F400721A6000220265E3E5A16B09686A
:10426400496889B2618584E5204605F05BFC26E651
:10427400426C42F00102D2B21A61D3E55A68416A33
:1042840022F480625A601B694A1C42620B70438D9F
:10429400013B9BB2438512E6013901291A6840F2B9
:1042A400A68042F400721A60426A1B69511C416282
:1042B4001370438D426A0168013B9BB243850B69CD
:1042C400511C41621370438D0168013B9BB24385CD
:1042D4004B68002223F4407320244B6080F83D4057
:1042E400026390F83E3080F83E20E8E55A68416A5F
:1042F40022F480625A601A6822F480621A60C2E76B
:10430400212A7FF4AEADB0E50121E26584F85810AE
:10431400E26D94F83D0028287FF4D1AD94F83C0078
:1043240088423FF4CCAD84F83C101968C90703D423
:10433400196841F001011960186820F400601860E0
:104344000021012502202A27202684F83D7084F8C4
:104354003E6021646585E062608D0C915D690C9519
:104364009D690C9584F83C100C9959682085224469
:10437400683241F4E06162625960A0E5428D92B214
:10438400012A67D0428D92B2022A00F095801A6801
:1043940042F480621A605A68170503D55A6842F4D9
:1043A40080525A60002202925A6902929A690292D9
:1043B400029A50E701293FF682AD1968446A21F454
:1043C40080611960596821F4E06159601B69611CBE
:1043D40041622370438D013B9BB22021438580F8C9
:1043E4003D10026390F83E3080F83E2067E522F4E9
:1043F40080621A601A6842F480721A6054E759683D
:10440400112521F4E06120245960056380F83E20E1
:1044140080F83D4053E5042D05D0082D03D015F553
:10442400803F40F095805A6822F4E0625A6019682F
:10443400002241F4007120241960026380F83D4099
:1044440090F83E3080F83E2039E55A6822F48062C4
:104454005A6034E517F5803F66D0042F54D0082FF6
:1044640052D0BEF1120F4FD0C26A022A1A6814BF8A
:1044740022F4806242F480621A60002205925A6932
:1044840005929A690592059AE5E60A945A690A9290
:104494009A690A920A9AC5E40000FFFF09945A69CE
:1044A40009929A690992099A1A6842F480721A6008
:1044B400026D01320265B5E4C26A022A1A6864D048
:1044C40022F480621A601A6842F400621A605A6820
:1044D400120503D55A6842F480525A6000220392AE
:1044E4005A6903929A690392039AB4E6026D002A08
:1044F4003AD1C26C012A826C56D0C2F307221A61E7
:10450400036D01330365DAE41A68002422F480623F
:104514001A6004945A6904929A690492049A1A6873
:1045240042F400721A6096E61A6822F480621A60F5
:104534005A6812F400622CD01A68002422F48062B3
:104544001A6007945A6907929A690792079A82E651
:104554005A68112522F4E06220215A60056380F82C
:104564003E4080F83D10AAE4026D012A22D0026D7B
:10457400022A7FF4A4AC90F83D20222A21D090F89E
:104584003D20212A7FF49BAC79E442F480621A60D6
:104594009DE706925A6906929A690692069A1A68E3
:1045A40042F400721A6056E6D2B21A61036D023305
:1045B400036584E4826CD2B21A61036D013303652E
:1045C4007DE41A6842F480721A6078E4184B70B47F
:1045D400DC68C4F30224C4F10706042E04F10403C6
:1045E40028BF0426062B17D9033C0125A540013D0D
:1045F4002A400123B340013B1940A140002841EA6D
:1046040002010CDB00F1604000F561400901C9B210
:1046140080F8001370BC704700221446E9E7054B8C
:1046240000F00F0009010344C9B2197670BC704749
:1046340000ED00E0FCEC00E0034A044B8021C2F8EA
:104644008811586900F0AABA00E100E0380300209C
:10465400034A044B4021C2F88411586800F09EBA02
:1046640000E100E038030020034A044B2021C2F893
:104674008411186800F092BA00E100E038030020C9
:1046840003681A68D20782B008D41A68900705D460
:104694001A68510702D41A68120701D55B6801939E
:1046A400019B02B0704700BF002005F01DBB00BF96
:1046B400B0F86A30B0F86820013303F03F03A0F883
:1046C4006A30B0F86A309BB29A424FF0FF3018BF9C
:1046D40000207047F0B4B0F8FC400123E2180374E2
:1046E40002F03F02B0F8FE309BB29A42FAD0D0F802
:1046F400F850324B295590F8D810A0F8FC2053F804
:10470400212092F8393092F83A40234303F02103F0
:10471400212B02D10120F0BC7047294B294DDC68C4
:10472400294E2A4B45F82160C4F30224251D00F1CB
:104734009406062D43F8216090F9EE302ED8002B14
:104744004FF0000134DB224D03F01F07EE18012463
:104754005B09BC4086F8001345F82340B0F8FE30EE
:1047640092F8391020299BB2D4D1D0F8F810CB1884
:10477400D0D092F838100129CCD00021012410683F
:10478400D4842125D16382F8381082F83950C16865
:10479400136241F080019484C160BBE7033C0121B2
:1047A400A140013901F00201002B4FEA0111CADADC
:1047B400084C03F00F031C442176CFE73803002094
:1047C40000ED00E060030020B546000888030020E7
:1047D40000E100E0FCEC00E0037C33B1B0F8FC2025
:1047E400B0F8FE309BB29A42FAD17047B0F8F42088
:1047F400B0F8F61092B28A42034608D0D0F8F0001E
:104804004A1C02F03F02405CA3F8F62070474FF0C8
:10481400FF307047B0F8F430B0F8F6209BB2934202
:104824001ABFD0F8F030985C4FF0FF30704700BFEB
:10483400B0F8F430B0F8F600181A00F03F007047F2
:1048440030B3214B90F8442053F8222092F83930A9
:1048540092F83A100B4303F02203222B18D070B4C1
:1048640092F83A3090F84510202B12D0B0F860300E
:10487400B0F86220013303F03F03934207D0B0F84D
:104884006020C46D92B29BB2A154A0F8603070BC99
:10489400704792F83830012BE8D001251368D5858C
:1048A40000242226D46382F8384082F83A605C6996
:1048B40095852C4300F1450595625C61DA6842F404
:1048C4009072DA60D2E700BF380300208368B3F542
:1048D400805F45D0036973B10368826A5B68511CC9
:1048E40003F07F0381621370C38D013B9BB2C385C8
:1048F40043B100207047836A0268591C5268816280
:104904001A70F1E701682C4A70B5CC68156824F474
:104914009074CC604C69202624F00104A8424C61B8
:1049240080F83A602FD05368984235D09368984203
:1049340034D0D368984233D01369984232D0536943
:10494400984231D09369984230D0D36998422FD09D
:10495400136A98422ED0536A984213D0002070BD37
:104964000269836A3AB902685268C2F3080223F8FA
:10497400022B8362B8E702685268D2B223F8012B93
:104984008362B1E709230D4A02EB830152F8230045
:104994008B6A9847002070BD0123F4E70223F2E7F5
:1049A4000323F0E70423EEE70523ECE70623EAE715
:1049B4000723E8E70823E6E738030020E4020020A1
:1049C400826B00211368D185D1841A68D20782B022
:1049D40008D41A68900705D41A68510702D41A68D3
:1049E400120701D55B680193019B02B0704700BFB9
:1049F400836B1A6830B410685D6B9C6B002120F4E3
:104A04008060106059852965216593F83D00602810
:104A14004FF0200083F83D0083F83E101FD011684A
:104A240021F00101116093F8591009B130BC7047AD
:104A340093F83D108142F9D1282183F83D10136881
:104A4400DB0703D4136843F001031360136843F4D2
:104A540080631360536843F440735360E6E719645A
:104A6400136823F00103136030BC70472DE9F04F45
:104A740003468FB00733474E03904FF000090D46AD
:104A840000F1040802934FF0000318F8014B8DF86D
:104A940034300DF1340AA6FB0423DB0803EB830254
:104AA400A4EB4204E4B204F1300204F13701092C0E
:104AB40094BF14460C460AF8014D1C46002BEAD15B
:104AC4002F6850467B68019305F0C8FA324A019B6F
:104AD400934283464ED120B90BE00134A3452F689D
:104AE40007D03B681AF8011B284698470028F4D1E0
:104AF4002F683B682E2128469847029B044498451A
:104B0400A144C0D1039B2348DC7900230DAE8DF86A
:104B14003430A0FB0423DB0803EB8302A4EB420440
:104B2400E4B204F1300204F13701092C94BF1446B5
:104B34000C4606F8014D1C46002BEAD12F6830467E
:104B440005F08CFAD7F804B0134B9B45804617D177
:104B540020B90AE00134A04507D02F683B6816F855
:104B6400011B284698470028F4D109EB04000FB034
:104B7400BDE8F08F02465146284698470446B7E7F9
:104B8400024631462846D847044609EB04000FB0D4
:104B9400BDE8F08FCDCCCCCCC16B000838B5036830
:104BA4001A68DD68596912F00F0F044655D011F0E8
:104BB40001015CD0D00705D5E80503D5E06B40F0D2
:104BC4000100E063500740F1D680002900F0E18045
:104BD400E16B900741F00201E16340F1D280E16BA7
:104BE40041F00401E163110700F1CE80E16B00297B
:104BF4003CD0900606D5A90604D594F83A20222A7A
:104C040000F0D9805D69E16B0A0703D415F0400513
:104C140000F0DF80DA6822F49072DA605A692021A9
:104C240022F001025A6184F83A105A69550640F19B
:104C3400BA805A69606B22F040025A61002800F081
:104C4400B28090F83530754A0265022B00F0B880C6
:104C540080234365BDE83840B2E691060AD5A9062B
:104C640008D590F83A30222B00F0A28038BD15F414
:104C7400907F9FD1100660D45206F7D56D06F5D506
:104C8400674DDA68296822F0400220208C42DA60FD
:104C940084F8390000F0A3806B689C4200F0A18086
:104CA400AB689C4200F09F80EB689C4200F09D80C2
:104CB4002B699C4200F09B806B699C4200F09980B8
:104CC400AB699C4200F09780EB699C4200F09580B0
:104CD4002B6A9C4200F093806B6A9C42C6D10923E4
:104CE4005049514A51F8234052F8233020469847FE
:104CF400013073D094F84420B4F86A3055F8222077
:104D040092F8391020299BB2B0D1616ECB18ADD086
:104D140092F838100129A9D0002101241068D48404
:104D24002125D16382F8381082F83950C1681362A2
:104D340041F080019484C16038BD29069CD594F863
:104D44003920212A92D1A268B2F5805F226A58D014
:104D5400511C216212785A60E28C013A92B2E284C8
:104D6400002A83D1DA6822F08002DA60DA6842F03D
:104D74004002DA6038BD90070ED500297FF42FAFCA
:104D840034E711077FF532AFE16B41F00801E163CD
:104D94002CE790073FF52AAF10077FF527AF0029CE
:104DA4003FF424AFF0E72046BDE83840FFF768BC85
:104DB400BDE838408AE52046FFF788FD236821E7EF
:104DC4000523026880F83530136823F0010313606B
:104DD40038BD2046FFF754FCE56338BD38BD0023D9
:104DE4007EE701237CE702237AE7032378E70423A1
:104DF40076E7052374E7062372E7072370E70823A1
:104E04006EE711882069C1F30801596010B90232B4
:104E14002262A1E7013222629EE700BFC549000871
:104E240038030020880300206003002003681A6907
:104E340010B50446900702D5DA68910748D41A6978
:104E4400520702D5DA6850073BD41A69110702D514
:104E5400DA6812072ED41A69D00602D5DA68D106A8
:104E640021D41A69D20702D5DA68D00741D41A6965
:104E7400110605D5DA68120644BF6FF080021A6184
:104E84001A69540605D5DA68500644BF6FF040022B
:104E94001A611A69910605D5DA68920644BF6FF063
:104EA40020021A6110BD6FF010021A610022D96944
:104EB4002276D6E76FF008021A610022D9692276B9
:104EC400C9E76FF004021A61002299692276BCE7EF
:104ED4006FF00201012219612276996911F0030130
:104EE40004D1626C12B1201F9047236800222276FD
:104EF400A5E7226C6FF001011961201F002AB6D0CA
:104F040090472368B3E700BF044B054A9B680549F3
:104F1400C3F342330868D35CD8407047003802407A
:104F24000421010878000020044B054A9B680549C8
:104F3400C3F382230868D35CD8407047003802402A
:104F44000421010878000020394AF0B4B2F8FC408A
:104F54000123E118137401F03F01B2F8FE309BB253
:104F64009942FAD0D2F8F850324B285592F8D8002A
:104F7400A2F8FC1053F8201091F8393091F83A4017
:104F8400234303F02103212B02D10120F0BC7047FD
:104F9400294B2A4DDC682A4E2A4B45F82060C4F37D
:104FA4000224251D284E43F82060062D92F9EE3088
:104FB4002ED8002B4FF0000034DB244D03F01F07E4
:104FC400EE1801245B09BC4086F8000345F8234031
:104FD400B2F8FE3091F8390020289BB2D5D1D2F82E
:104FE400F820D318D1D091F83820012ACDD000224E
:104FF40001240868CC842125CA6381F8382081F80B
:105004003950C2680B6242F080028C84C260BCE7F3
:10501400033C0120A040013800F00200002B4FEABD
:105024000010CADA0A4C03F00F031C442076CFE7C1
:10503400F00400203803002000ED00E060030020AD
:10504400B5460008880300208405002000E100E044
:10505400FCEC00E02DE9F04782B01A4DBDF8288041
:10506400CDF804801446012782460E4699460A4626
:10507400234601460097284600F0D2FF09F1FF328B
:1050840032442346514628468DE8800112B200F08E
:10509400C7FF3B46324651462846CDF80480CDF83A
:1050A400009000F0BDFF611E514409B2CDF80480A8
:1050B400CDF800903B463246284600F0B1FF02B0DE
:1050C400BDE8F087200900202DE9F04FC74B5A8C2A
:1050D4001B8E89B0D607049000F1D282DAB2500058
:1050E4004FEA620A1B0A00F02004570216020AF073
:1050F400100A59005D104AEA040A07F4007702F026
:10510400080406F4806647EA06094AEA040A01F03C
:105114002006140105F0100504F4806435435E0292
:1051240006F400774AEA040A1E0203F00804254341
:1051340006F480661C0104F4806400F4807092011B
:1051440001F480713E439B01254349EA000902F0C2
:10515400800B0E4303F08004002300931A46194683
:10516400A24800F08FFDA14B5B8C039313F0010761
:1051740000F04C829E4B9F4A9F494FF480104FF0A1
:10518400E0684FF0876C4FF4000E4FF4803797615E
:105194009861C3F818804FF40030C2F818C0C1F801
:1051A40018E09E619561022610258C6198619861D2
:1051B40098619E619E61C3F81880C2F818C0C1F856
:1051C40018E0C3F81890C2F818A0C1F818B0986194
:1051D400986198619E619E619D61186820F47C10BD
:1051E4001860106820F4401020F47C601060086897
:1051F40020F4404008600398450640F1CD817B4B84
:10520400988C41F21153984200F0E781039BD80631
:1052140040F11F81764B7749DFF8DCB14FF48032DF
:1052240001249C619A619A619A619A619A619A6176
:105234009A611F69DBF81000D3F810A0D1F8108030
:105244000D690E6905960E6906961E6907969C619E
:105254009C619C619A619A619A619A619A619A616E
:105264009A611E694FEA901EDBF81000D3F8109083
:10527400800900F00200C6F3402606430869D1F80D
:1052840010C00EF0020EC7F3402747EA0E0708F0DD
:10529400080800F008004FEA1A2A4FEA1929D1F841
:1052A40010E006430AF0040A47EA080709F0040973
:1052B40025FA04F80D6918699C619C619C619A61E6
:1052C4009A619A619A619A619A619A6146EA0909B6
:1052D40047EA0A071E69DBF810A0059AD3F810B054
:1052E4004FEA9A1A0AF0020AC6F3402646EA0A0668
:1052F4000596069ED1F810A008F0100847EA0807A2
:105304004FEA1618059E0AF0080A4FEA1B2B46EAD4
:105314000A060BF0040B46EA0B0B2CFA04FC0E698C
:10532400A24002F020020CF0100C49EA0C0C1743C6
:1053340026FA04F9079A0E69096922FA04FA0EFAA0
:1053440004FE1A699C6109F01009A6400EF0200EB3
:105354002D094BEA090B06F0200609099C61039B01
:1053640001F0400108F040084CEA0E0C05F040053D
:10537400E0404BEA060BE2404BEA010B47EA080720
:105384000AF0800A4CEA050C00F0800002F080026A
:1053940059074AEA070740EA0C0C42EA0B0B40F1B2
:1053A400EF80164A4FEACC0C0CF4FC6C02EA0B2B8F
:1053B4004BEA0C0C4CEAD708114B1B7863B14FEA4B
:1053C4006813C8F3440203F02003134328F03F0892
:1053D40043EA08081FFA88F8049A0549054BA2F81D
:1053E400008001228A619A610CE000BF200900203C
:1053F40000000240000402400008024000F8FFFFE1
:10540400340300200868AB4AAB4C528C20F47C1067
:105414000860186820F4401020F47C60186020684C
:1054240020F440402060086840F4A810086019681F
:1054340041F4801141F4A8611960236812F001025B
:1054440043F48043236000F02581002009B0BDE8C7
:10545400F08F9A4A9A48DFF860C24FF480330127EC
:105464009761936193619361936193619361936194
:10547400D2F81080DCF810A015690669D0F810B0D5
:105484000169D0F810E0146997619761976193619D
:10549400936193619361936193619361D2F81090E6
:1054A400DCF810C04FEA9A1A4FEA9C1CC8F3402853
:1054B4000CF0020C0AF0020AC9F3402948EA0A0A6D
:1054C40049EA0C094FEA1528D2F810C0056905F01D
:1054D400080549EA050906F0080605690369006933
:1054E40008F004084FEA1C2C4AEA06062BFA07FBCC
:1054F40046EA08060CF0040CFD400BF0100B46EADB
:105504000B0BB9401669976149EA0C0C05F01005BC
:10551400BB4003F0200301F020014FEA1E1E4CEAB9
:10552400050500094BEA010B45EA03080EF0400E9D
:10553400FC4000F04000FE40039B97614BEA0E0ED6
:1055440048EA000804F0800B06F080064BEA0E0BD4
:1055540048EA06081A0748EA0B2803D598FA98F887
:105564001FFA88F85B077FF527AF4FEAC82343EAA1
:10557400D82308F4FC6843EA08081FFA88F81BE7F4
:10558400504B4FEACC0C0CF4FC6C03EA072848EAB5
:105594000C0848EADB080FE7C40745D5454B988C4F
:1055A400464B4749444D4FF4803201249C619A6133
:1055B4009A619A619A619A619A619A611A692A69EF
:1055C4001A690A690A690A690A691A699C619C610B
:1055D40041F2115398427FF419AE384B3849364C96
:1055E4004FF48032012098619A619A619A619A61BC
:1055F4009A619A619A611A6922691A690A690A693F
:105604000A690A691A6998619861FFE5294B394664
:10561400988D02F083FE274B3946D88D02F07EFE2A
:10562400244B5B8C0393A5E52248808C41F28924AA
:10563400A042B5D001249C619F619F619F619F61DD
:105644009F619F619F611D690D691D6915691569D8
:10565400156915691D699C619C619C619F619F61CD
:105664009F619F619F619F619F611D6909691969BC
:1056740011691169116912691A699C619C61C0E51B
:105684000024254626464FF0800B4FF0180A4FF4AD
:10569400806961E5074B0748D9899B89013909B2BB
:1056A400013B00911BB2114600F0ECFA002009B056
:1056B400BDE8F08F200900200008024000000240ED
:1056C4000004024000F8FFFF2DE9F041594C5A4B09
:1056D4005A485B495B4E5C4A012565701C6824F49A
:1056E4007C141C60046824F4401424F47C64046076
:1056F4000C6824F440440C601C6844F4A8141C6036
:10570400046844F4801444F4A86404600C6844F409
:1057140080440C60346B44F0070434631C6824F048
:1057240003042C431C601C6824F00C0444F004049F
:105734001C601C6824F4407444F480741C60046885
:1057440024F003042C4304600C6824F00C040226A7
:1057540044F004040C6085619D619E618E61116852
:1057640013685B1A312BFBD9354B4FF40031996127
:10577400116813685B1A632BFBD9314B02219961C1
:10578400116813685B1A632BFBD92B4B2B492C4DE7
:105794004FF480384FF4801CC1F818804FF4003265
:1057A400C3F818C0002002244FF0E06E4FF0876762
:1057B4004FF400064FF480784FF0300CC3F818E033
:1057C4008F61AE6198618861A8619A619A619A61FA
:1057D4009C619C61C3F818E08F61AE61C3F81880C6
:1057E400C1F818C04FF010084FF0010CA8619A617D
:1057F4009A619A619C619C61C3F81880C3F818E0AF
:105804008F61AE6198618861A8619A619A619A61B9
:105814009C619C61C3F818E08F61AE6198618861F6
:10582400A8619A619A619A619C619C61C1F818C0EF
:10583400BDE8F0813403002000000240000402406F
:105844000008024000380240240D0020704700BFC9
:1058540030B40468BDF808500295246BA44630BCEB
:10586400604700BF30B40468BDF808500295646B0B
:10587400A44630BC604700BF2DE9F04FD0F800E0EB
:105884001D46DEF80CA02D4B83B09A450446BDF9A5
:105894003090BDF834708846164641D1DEF81CB00D
:1058A400DFF89CA00097D34508BFDEF834B02B4640
:1058B400324641462046D8472368D3F81CB00097A7
:1058C40009F1FF323244D34512B232D1D3F834A0B5
:1058D40041462B462046D0472368DFF868A0D3F81A
:1058E40018B00097D34508BFD3F830B032464B46C2
:1058F40041462046D8472368691E9D69009755454F
:10590400414408BF1D6B32464B4609B22046A847A6
:1059140023680A4A5B6A934206D103B0BDE8F08F5C
:10592400D047D4F800E0B9E7204603B0BDE8F04F13
:1059340018472B4641462046D847CDE75158000822
:1059440069580008555800082DE9F04385B099427C
:105954000546BDF93070BDF8344027D0BA421E4622
:1059640013D00368DFF88480D3F80C90C14535D197
:10597400019400971C6A28463346A0472B685B6A4B
:10598400434526D105B0BDE8F083994201DC0E46BB
:10599400194628680C94446B4B1C9B1B1BB2314664
:1059A4002846A44605B0BDE8F0436047BA420CDD82
:1059B40028680C94046B531CDB1B1BB23A46284624
:1059C400A44605B0BDE8F04360473B4617461A4677
:1059D400EEE7284605B0BDE8F0431847039202916C
:1059E400C8472B68039A0299C2E700BF51580008C0
:1059F40010B582B0B0F90E20019101680092002226
:105A04008C6BB0F90C301146A04702B010BD00BF3A
:105A14002DE9F04FD0F800E01F46DEF80C601D4B76
:105A240083B09E420546BDF93090BDF834A00C46C3
:105A3400904625D12744BC421ADADFF85CB008E06E
:105A4400DEF83060013424B2B047BC42D5F800E03F
:105A54000EDADEF81860CDF800A05E4521464B460C
:105A640042462846ECD04B46424621462846E9E7C2
:105A7400DEF82430074A934206D103B0BDE8F08F24
:105A8400B047D5F800E0D5E7284603B0BDE8F04FAD
:105A9400184700BF51580008555800082DE9F04137
:105AA4000568124EEF6886B0B7420446BDF83080F0
:105AB4000FD1013BCDF804800B4400921BB22D6A38
:105AC4002046A84723685B6AB3420AD106B0BDE802
