:020000040800F2
:1000000000800120BD3700080D3800080D380008B9
:100010000D3800080D3800080D38000800000000F9
:100020000000000000000000000000000D38000883
:100030000D380008000000000D380008433C00089F
:100040000D3800080D3800080D3800080D3800087C
:100050000D3800080D380008F1670008F767000840
:10006000FD67000803680008096800080D380008EB
:100070000D3800080D3800080D3800080D3800084C
:100080000D3800080D3800080D3800080000000089
:100090000000000000000000000000000F680008E1
:1000A00021400008C13F0008314000080D38000819
:1000B000E13F0008F13F000801400008ED40000862
:1000C000F940000805410008114100080D380008FA
:1000D0000D38000869440008814400080000000051
:1000E00025680008953E00080D3800080000000053
:1000F0000000000000000000000000000D380008B3
:10010000000000000D380008114000080D380008FC
:1001100000000000000000000000000000000000DF
:100120000D3800080D3800080D3800080D3800089B
:100130000D38000800000000000000000000000072
:100140000000000000000000000000000D38000862
:100150000D3800080D3800080D38000899440008D3
:100160001D410008294100080000000000000000B7
:10017000000000000000000000000000000000007F
:10018000000000000D380008000000000000000022
:040190000D3800081E
:1001940010B5054C237833B9044B13B10448AFF3BD
:1001A40000800123237010BD98000020000000008F
:1001B400C07100080C4B43B10C480D4910B5AFF3A6
:1001C40000800C48036823B910BD0A48036833B99A
:1001D4007047094B002BF7D0BDE810401847064B79
:1001E400002BF5D0184700BF00000000C0710008C4
:1001F4009C0000209800002000000000034613F833
:10020400012B002AFBD1181A0138704701F0FF01B5
:10021400102A2BDB10F0070F08D010F8013B013A2D
:100224008B422DD010F0070F42B3F6D1F0B441EA5F
:10023400012141EA014122F007047FF00007002375
:10024400F0E80256083C85EA010586EA010685FACB
:1002540047F5A3FA87F586FA47F6A5FA87F68EB925
:10026400EED1F0BC01F0FF0102F0070232B110F848
:10027400013B013A83EA010313B1F8D1002070472E
:1002840001387047002D06BF35460338073815F08E
:10029400010F07D1013015F4807F02BF013015F43E
:1002A400C03F0130F0BC0138704700BF53B94AB9B0
:1002B400002908BF00281CBF4FF0FF314FF0FF306A
:1002C40000F07AB9ADF1080C6DE904CE00F006F83F
:1002D400DDF804E0DDE9022304B070472DE9F047BE
:1002E4008C460D460446089E002B51D18A4217467F
:1002F4006DD9B2FA82FEBEF1000F0BD0CEF1200C04
:1003040001FA0EF520FA0CFC02FA0EF74CEA050C81
:1003140000FA0EF44FEA174A250CBCFBFAF81FFA50
:1003240087F90AFB18CC45EA0C4508FB09F3AB42F4
:100334000AD9ED1908F1FF3280F02381AB4240F273
:100344002081A8F102083D44ED1AA4B2B5FBFAF0ED
:100354000AFB105544EA054400FB09F9A14509D9F3
:10036400E41900F1FF3380F00A81A14540F20781CE
:1003740002383C44A4EB090440EA08400021002E62
:1003840061D024FA0EF4002334607360BDE8F08772
:100394008B4207D9002E54D0002186E8210008465C
:1003A400BDE8F087B3FA83F1002940F08E80AB42B8
:1003B40002D3824200F2FA80841A65EB030501201D
:1003C400AC46002E3FD086E81010BDE8F08712B985
:1003D4000127B7FBF2F7B7FA87FEBEF1000F34D15D
:1003E400EB1B3A0C1FFA87FC0121B3FBF2F8250C36
:1003F40002FB183345EA03450CFB08F3AB4207D96B
:10040400ED1908F1FF3002D2AB4200F2D1808046F0
:10041400ED1AA3B2B5FBF2F002FB105543EA054412
:100424000CFB00FCA44507D9E41900F1FF3302D208
:10043400A44500F2B8801846A4EB0C0440EA084036
:100444009DE731463046BDE8F087CEF1200405FA39
:100454000EF307FA0EF720FA04F83A0C25FA04F41E
:1004640048EA0308B4FBF2F14FEA184502FB1144D1
:100474001FFA87FC45EA044501FB0CF3AB4200FA82
:100484000EF409D9ED1901F1FF3080F08A80AB42F6
:1004940040F2878002393D44EB1A1FFA88F5B3FB1A
:1004A400F2F002FB103345EA034500FB0CF3AB42C8
:1004B40007D9ED1900F1FF386FD2AB426DD902387C
:1004C4003D44EB1A40EA01418FE7C1F1200722FACB
:1004D40007F88B4005FA01F448EA030320FA07FE03
:1004E4004FEA134CFD404EEA040EB5FBFCF94FEA0B
:1004F4001E440CFB19551FFA83F844EA054509FB11
:1005040008F4AC4202FA01F200FA01FA08D9ED1833
:1005140009F1FF3043D2AC4241D9A9F102091D448B
:100524002D1B1FFA8EFEB5FBFCF00CFB10554EEA9A
:10053400054400FB08F8A04507D9E41800F1FF358D
:1005440029D2A04527D902381C4440EA0940A4EB2B
:100554000804A0FB02894C45C6464D4615D312D06B
:1005640056B1BAEB0E0364EB050404FA07F7CB406B
:100574001F43CC40376074600021BDE8F087184603
:10058400F8E69046E0E6C245EAD2B8EB020E69EB23
:1005940003050138E4E72846D7E7404691E781465A
:1005A400BEE7014678E702383C4445E7084608E7D9
:1005B400A8F102083D442BE7704700BF13B5B0F91A
:1005C4000E200468019100920022B0F90C30A46B53
:1005D4001146A04702B010BD13B50E4C0E49684633
:1005E40000F0A9FD009B23600121BDF80430A38025
:1005F400312003F049F90121302003F045F90121AC
:10060400312003F095F90121302002B0BDE81040FB
:1006140003F08EB98C02002092020020F8B50B4F33
:100624000025FFF7D9FFB7F90440C82CD4BF002434
:100634000124B4420CBF01350025052003F09AF9CA
:10064400092D2646EDDD2046F8BD00BF8C020020B2
:1006540038B50A4C0A4D23780A49B3FA83F35B0987
:10066400A0F12E020A2000FB0350237006F062FA68
:10067400207800EB800005EB400038BDCC01002061
:10068400B801002001730008F8B50F460646FFF7CD
:10069400B5FD0E4D04464FF4784228464FF6FF71DF
:1006A40001F054F90A4B1B68062101FB1434284657
:1006B4003AB2022194FBF1F109B201F044F9314656
:1006C4002846BDE8F84005F01ABF00BF50020020DC
:1006D400F801002007B50023019300931A46194638
:1006E4000C4801F07FFB252224210B4805F03AFE3B
:1006F40009224FF496738DE80C000821302331222F
:10070400064800F0B4FD064803B05DF804EB00F0C1
:100714000EBD00BF50020020B40000209202002051
:100724008C02002070B51B4D1B4C06224FF4165151
:10073400284605F067FE1949284605F0F9FE1849D0
:10074400284605F0EBFE204601F030FD154906462B
:10075400284605F0D4FE10223146284605F034FF21
:100764003146204602F078FD0021204602F0F8FBD5
:10077400204601F0EEF80C4B1860204601F0ECF82E
:100784000A4B1860022390FBF3F0094B06381860FB
:1007940070BD00BFB4000020500200204B78000858
:1007A400697800089D780008F8010020FC01002009
:1007B4004C0200202DE9F341174C184D80460021CE
:1007C4002046FFF7FBFE4FF47842B5F90030019262
:1007D4000E27002211462046009702F08FF90126C9
:1007E400B5F9003000964FF6FF753A46204601955C
:1007F400002102F083F931464046FFF745FF2046C9
:100804001E22002101F09FF800222946204602B052
:10081400BDE8F04101F09AB850020020F801002030
:100824002DE9F04F784C7948794DDFF8349299B03E
:10083400FFF7C0FF7749204605F070FE7649204651
:1008440005F06CFE7549204605F068FE74492046A3
:1008540005F064FE7349204605F060FE72492046A7
:1008640005F05CFE714BD3F800B0714BD3F80080F7
:10087400704B7822204600211E6801F064F8494636
:10088400284605F055FE204601F090FCC6F30B37D0
:10089400C6F30B06013701363B460246009666490D
:1008A40009A806F047F909A9204605F041FE09A95F
:1008B400284605F03DFE204601F078FC032209237A
:1008C4008DE80C00049002230822039602975B49EA
:1008D40009A806F02FF909A9284605F029FECBF34B
:1008E4008D3AC8F38D33CBF30D0BC8F30D08524684
:1008F40006938DE8080152495B4609A806F01AF9E7
:1009040009A9284605F014FE33463A464D4909A87C
:1009140006F010F94946204605F00AFE09A92046CA
:1009240005F006FE09A9284605F002FE5B4652467C
:100934000097454909A806F0FDF809A9204605F0E5
:10094400F7FD09A9284605F0F3FD4346069A0096EB
:100954003E4909A806F0EEF809A9204605F0E8FD8D
:1009640009A9284605F0E4FD3020FFF771FE079041
:100974003120FFF76DFE092308228DE80900344970
:10098400079B09A806F0D6F84946204605F0D0FD95
:1009940009A9204605F0CCFD09A9284605F0C8FDA3
:1009A4003B4632462B4909A806F0C4F8494620467E
:1009B40005F0BEFD09A9204605F0BAFD09A928469F
:1009C40005F0B6FD4346069A0096234909A806F0A9
:1009D400B1F809A9204605F0ABFD09A9284605F0A0
:1009E400A7FD53465A4600971C4909A806F0A2F8E9
:1009F40009A9204605F09CFD09A9284605F098FDA3
:100A040019B0BDE8F08F00BF500200204B780008F9
:100A1400B4000020E873000803740008247400087C
:100A2400477400086F74000898740008D40100200B
:100A3400D8010020D0010020BD740008DE74000835
:100A440016750008497500086A7500088E75000857
:100A5400B2750008DB750008FC75000820760008F4
:100A64009A89000808B51E48FFF7A4FE1D491E48D0
:100A740005F054FD1D491C4805F050FD1C491A4859
:100A840005F04CFD1B49184805F048FD1A49164865
:100A940005F044FD1949144805F040FD1849124871
:100AA40005F03CFD1749104805F038FD16490E487D
:100AB40005F034FD15490C4805F030FD14490A4889
:100AC40005F02CFD1349084805F028FDFFF7A6FDA5
:100AD4000028FBD0FFF7A2FD0028FBD108BD00BF12
:100AE4004B78000844760008500200206576000820
:100AF4007F76000899760008AE760008C77600086D
:100B0400E2760008FC760008137700082B770008CB
:100B1400447700086677000808B51248FFF74AFED4
:100B24001149124805F0FAFC1149104805F0F6FC89
:100B340010490E4805F0F2FC0F490C4805F0EEFC94
:100B44000E490A4805F0EAFC0D49084805F0E6FCA0
:100B54000C49064805F0E2FC0B49044805F0DEFCAC
:100B6400FEE700BF057300081E7300085002002052
:100B74003A73000852730008697300087D73000813
:100B840087730008AB730008CF7300082DE9F8439E
:100B94001D4C1E482168FFF777FDFFF73FFD002835
:100BA400FBD021681A48DFF87880FFF76DFD002438
:100BB40025462746264642F20F79FFF70DFDB8F980
:100BC4000430142BC1BFB8F90020AD18B8F90220C5
:100BD4000137CCBFA4180136B7F5C87F03DA4E45F8
:100BE400EBDDFFF799FF4E45FBDC4FF4C872B5FB14
:100BF400F2F5B4FBF2F4074A07491460074A0D60A2
:100C04001360BDE8F88300BF4C020020E9720008BD
:100C1400F5720008F0010020EC010020F40100202E
:100C24008C0200202DE9F74385B28CB2154F914612
:100C34000E461423A4F10A02A5F10A01804600938A
:100C44003846CDF8049012B209B200F051FC32B229
:100C54006B1D691F8DE8040238461BB209B200F00F
:100C640006FC621F05340FFA88F324B2CDF8049011
:100C7400009412B21946384600F0F9FB03B0BDE8FF
:100C8400F08300BF50020020F8B517464FF6FF72FC
:100C940005460E461C46FFF7C5FFFFF777FF1E4BC0
:100CA4001E481968FFF7F0FC3146284648F2104206
:100CB4001B4E1C4DFFF7B6FF1B4B326843F8272031
:100CC4001A4B2A681A491B4843F8272005F017FCD9
:100CD4000A223168174805F081FC1749154805F0C8
:100CE4000EFC0A222968134805F078FC13491148C0
:100CF40005F005FC124B0F4819680A2205F06EFC3A
:100D040023681BB121460B4805F0F4FBFFF786FC72
:100D14000028FBD1F8BD00BF4C0200207F770008FB
:100D2400EC010020F001002008020020280200202D
:100D34008B770008B40000209177000896770008AC
:100D4400F40100208FB58A4D8A4C8B4FFFF78AFE41
:100D540000218A48FFF732FC286848F210420A2131
:100D64000B380226FFF75EFF286890FBF6F048F286
:100D740010420A21FFF756FF0A21084648F21042A2
:100D8400FFF750FF2868216891FBF6F148F2104202
:100D94000B38FFF747FF216891FBF6F148F2104248
:100DA4000A20FFF73FFF2168286848F210420B39F8
:100DB4000B38FFF737FF2168286890FBF6F048F2FC
:100DC40010420B39FFF72EFF216848F210420B390D
:100DD4000A20FFF727FF396869480C39FFF754FCEC
:100DE400396867480C31FFF74FFC664901A805F0E4
:100DF400B3FC0A2101AB00220846FFF745FF01A816
:100E040005F054FC6049276897FBF6F701A805F044
:100E1400A3FC01AB012239460A20FFF735FF01A8E4
:100E240005F044FC276859490B3F01A805F094FCE0
:100E3400324601AB39460A20FFF726FF01A805F028
:100E440035FC53492F6897FBF6F701A805F084FC9D
:100E5400032201AB0A213846FFF716FF01A805F06B
:100E640025FC23684B492F6897FBF6F7A3F10B0881
:100E740001A805F071FC01AB042241463846FFF796
:100E840003FF01A805F012FC2F6843490B3F01A89A
:100E940005F062FC052201AB0A213846FFF7F4FE97
:100EA40001A805F003FC2F683C49236893FBF6F680
:100EB4000B3F01A805F050FC01AB06223146384631
:100EC400FFF7E2FE01A805F0F1FB27682E6834491C
:100ED4000B3E0B3F01A805F03FFC01AB072239464E
:100EE4003046FFF7D1FE01A805F0E0FBD5F800A0DD
:100EF400D4F800902B492C4D08682C4A2C4EDFF86E
:100F0400C0E009EB0A33A3F58053013B2B608B68E7
:100F140003F5FA7CACEB000CBCF57A7F8CBF0124A2
:100F240000241460234A4DD992E890003C44976809
:100F34004FF003083C449769B4FBF8F4CEF8004042
:100F440054693C44D769CA683C441044B4FBF8F47F
:100F5400194A34604C690444B4FBF8F414600A6917
:100F64001344CA691344154AB3FBF8F313604BE006
:100F7400F8010020FC0100204C0200205002002057
:100F84009B770008A7770008BC770008D277000891
:100F9400E7770008FC770008117800082478000837
:100FA4003878000808020020D00100204802002000
:100FB400E401002028020020E8010020DC010020D8
:100FC400E00100204C680344234488690324B3FBF4
:100FD400F4F3CEF800304B690344C869D168034484
:100FE400B3FBF4F33360136850690B4418443D4B6E
:100FF400B0FBF4F01169186093680B44D1690B4499
:10100400B3FBF4F4384B1C60DEF800203368364C34
:101014009B1AAAF1140A07EE103A07EE90AAB8EE4A
:10102400C77AF8EEE77A314B226887EE276AA9F18E
:101034001409BCF57A7F07EE909A83ED006A294B78
:101044001968A2EB010207EE102AF8EEE77AB8EE6F
:10105400C77A274AC7EE276ADEED007AC2ED006A36
:10106400F8EEE77AB2EE047AE6EE477AFDEEE77A36
:1010740017EE900ACEED007AD6ED007AF8EEE77A14
:10108400E6EE077AFDEEE77A17EE902AC6ED007ACF
:1010940007EE901AF8EEE77A02EB8032E6EEC77AB2
:1010A40014480260FDEEE77A134AC3ED007A17EEA6
:1010B400901AD4ED007AF8EEE77AE6EE877AFDEE40
:1010C400E77A17EE903A03EB8133136088BF2B68FD
:1010D400C4ED007A84BF43F000432B60FFF7A0FB0C
:1010E400FEE700BFE8010020DC0100200002002030
:1010F40004020020D4010020D801002070B5012290
:101104006FF0404650F82240D3B29D19A90050F820
:101114002550AC4205DA0144013B13F0FF034D6056
:10112400F3D10132032A40F82340EBD170BD0022F1
:101134004280028070472DE9F0430C4685B00021BF
:101144000646A07802F0A0FB0021E07802F09CFBA8
:101154000021A07802F0ECFB0021E07802F0E8FB2B
:101164000121607902F090FB0121207902F08CFBCF
:101174000121607902F0DCFB0021207902F0D8FB28
:10118400002501AFA07802F061FB47F82500013586
:10119400032DF7D13846FFF7B1FF00216079029D96
:1011A40002F072FB0021207902F06EFB00216079CD
:1011B40002F0BEFB0021207902F0BAFB0121A078E5
:1011C40002F062FB0121A07802F0B2FB0121E07879
:1011D40002F05AFB0021E07802F0AAFBC5F57F7506
:1011E40003354FF00008207902F030FB47F828005F
:1011F40008F10108B8F1030FF5D13846FFF77EFF77
:10120400029B607940F2FF370121A7EB030902F04A
:101214003BFB6079002102F08BFBE078012102F0B6
:1012240033FBE078012102F083FB2079002102F0F6
:101234007FFB2079002102F027FBA078002102F037
:1012440077FB0021A07802F01FFB207902F0FEFA60
:101254008046A07802F0FAFAA0EB08003F1A304664
:101264003580A6F80290B78005B0BDE8F08310B5CC
:1012740003719DF80830C370BDF80C30C3800A2395
:1012840082704171038010BD2DE9F04F85B01E4678
:10129400BDF93830BDF83CA015469A1A002AB8BFEB
:1012A40052420092721A002AB8BF524201920C466E
:1012B400009A01998A42814605DD32461E4613464C
:1012C40022462C461546B44205DD2A461D461346E1
:1012D4002246344616465A1B002AB8BF5242A6EB91
:1012E40004089D42B4BF01234FF0FF331FFA88F86E
:1012F400029303920FFA88F7022297FBF2F7B442A3
:101304001FDC019A009B9342D9F80030C8BF2246E3
:10131400D3F810B0C8BF29465346DCBF2A4621463D
:101324004846D847039BFF1ABBB21FB2002F05DA09
:10133400029A08EB030715442DB23FB2013424B2DC
:10134400DDE705B0BDE8F08F10B40468A468A446D6
:101354005DF8044B604730B40468BDF8085002954A
:10136400246BA44630BC604730B40468BDF8085010
:101374000295646BA44630BC604770B40468BDF940
:101384000C50BDF8106004960395A46BA44670BC81
:10139400604770472DE9F3411C460368BDF820807F
:1013A400DB6805461646013C34440F4624B2984790
:1013B4002B68CDF8048000941C6A28463B463246CC
:1013C4003946A0472B685B6A284602B0BDE8F04165
:1013D40018472DE9F3411D460368BDF82080DB68FA
:1013E400044617460E4698478DE8800122686B1E16
:1013F4003344156A20461BB23A463146A84723684F
:101404005B6A204602B0BDE8F04118472DE9F34776
:101414001E460368BDF92880DB68BDF82C900C4695
:101424000546174698472644B4422A680BDACDF895
:101434000090D2F818A0214643463A462846013483
:10144400D04724B2F0E7536A284602B0BDE8F0471B
:10145400184713B5B0F90E200468019100920022D8
:10146400B0F90C30A46B1146A04702B010BD2DE9B1
:10147400F7439942904607460E461C46BDF928504C
:10148400BDF82C90026814D1A845C8BF4346CDF8D6
:101494002890C4BFA8461D466B1C146BA3EB08031D
:1014A4001BB2424631463846A44603B0BDE8F04379
:1014B4006047A8450AD19942C2BF0B4626461C463E
:1014C400631CCDF828909B1B546BE9E7D3689847BD
:1014D4003B688DE8200238461D6A42462346314661
:1014E400A8473B685B6A384603B0BDE8F043184739
:1014F4002DE9F3471D460368BDF82C70DB68BDF980
:101504002890044688461646984723680097D3F8DF
:101514001CA032462B4641462046D04723680097FC
:1015240009F1FF323244D3F81CA041462B46204631
:1015340012B2D04723680097D3F818A032464B461E
:1015440041462046D04723680097691E41449D695F
:1015540020464B46324609B2A84723685B6A2046B8
:1015640002B0BDE8F0471847704701F003010129B4
:1015740041760389428904D0032902D08381C28140
:1015840070478281C381704730B501810024094DC1
:1015940042818181C2814FF6FF710122446005605E
:1015A4004476048244820276C18281828276C47641
:1015B400C46130BDB07D00082DE9F04F91B0914673
:1015C400C26905911E46BDF8683003930446BDF810
:1015D4006CA09DF87050002A40F0BA80B0F90C302D
:1015E4008B4240F33281B0F90E304B4540F32D81EC
:1015F400062313FB0513002B40F3278109EBC503D6
:10160400002B40F32281C37E1BB9AF2EC4BF013629
:10161400F6B223682046DB68984705230D93002320
:1016240004931FFA89F3089308339BB20F9305239D
:101634001A46049B12FB0633854AD35C0993BDF812
:1016440014300693069A049BAFB203FB07231BB224
:101654000C93089B0B9398460A932BB20793BDF8FF
:101664001020069B13FA82F31BB20E93099BD90731
:101674004AD5012D23683AD1D3F810B0039B0E99B3
:101684000FFA88F22046D847099B5B0809930B9B05
:101694003B449BB20B930A9B3B449BB20A9308F1D5
:1016A40001080F9B1FFA88F84345DFD1049B0133DF
:1016B4005BB204930D9B013B13F0FF030D93B6D172
:1016C400039B53450CD0012D236831D10699CDF8E5
:1016D40000A005319D694A46082309B22046A8475F
:1016E40023685B6A204611B0BDE8F04F1847039A9F
:1016F4000192079A0092D3F814B01346BDF92C2036
:101704000C992046D847BFE7039B5345BCD0012D15
:10171400236803D1D3F810B05346B0E7079A009278
:10172400CDF804A0D3F814B01346BDF92820E7E798
:10173400069ACDF804A007EB87010A44FF0011467E
:1017440000975E694A462B4609B22046B047C7E770
:10175400137AF61A5368F6B203EBC60613680A93B3
:10176400B3780B93F3780C9396F905300793012D16
:10177400C4BFBDF91C300693036896F906B0DB6854
:10178400B6F80080DABF4FF0000ACDF818A00FFABF
:101794008BFA98471FFA89F3002709935B4404974F
:1017A4003E460F930C9AFBB2934299DAAAB208927E
:1017B400BDF8201003EB0A0212FB01F209990A4456
:1017C40012B20D920F9A13441BB24FF000090E93FC
:1017D400049B0B9A5FFA89F1CB189142DBB231DAA0
:1017E4005A0701BF0A9A12F8086008F101031FFAA8
:1017F40083F833060DD5012D10D1059A079B1344A8
:10180400194423680E9AD3F810B0039B09B22046FA
:10181400D8477600F6B209F10109D9E7069A039888
:1018240001901144BDF8202011FB02F1059A2BB25E
:10183400114422680093D2F814B00D9A09B22046DC
:10184400D847E6E701370493ACE711B0BDE8F08F61
:10185400A57800087FB5C26904460B46002A31D139
:101864000A2908D10282438A027E03EBC2036382FF
:10187400012004B070BD0D29FAD0817E007E69B1CB
:10188400B4F91050062111FB0051B4F90C50A942CF
:10189400C1BF2282628A02EBC00262820290E08AA5
:1018A4000190A08AB4F912200090B4F910102046D7
:1018B400FFF782FE237E228A03EB430302EB4303FA
:1018C4002382D5E70A2907D100230382937A017E74
:1018D400428A01FB0323CAE70D29C9D0157AA9421C
:1018E400C6DB517A8B42C3DC51685D1B01EBC50535
:1018F400AE7816B3E97801B3817E007E89B195F99B
:1019040005103144B4F9106000FB0161B4F90C60B6
:10191400B14206DD00212182927A618A02FB001223
:1019240062820290E08A0190A08A0090B4F91220A9
:10193400B4F910102046FFF73FFE2979237E228A4E
:1019440001FB0323BCE70182428270478182C28289
:101954007047B0F90C007047B0F90E00704737B506
:10196400BDF8185004688DE828000123A46BA04733
:1019740003B030BD37B5BDF8185001950468012592
:101984000095A46BA04703B030BD00002DE9F047DB
:101994006E4C6F4E4FF48033A3616E4B4FF4801244
:1019A4009A61C2B2000A45024FEA00294FEA400890
:1019B40009F4806905F4007545EA090508F480799D
:1019C4004FF0876E4FF400074FF0E06C45EA0905CD
:1019D400C3F818C0C4F818E0B7619D61451008F059
:1019E400200805F0100545EA080500F0080845EA56
:1019F40008054FEA001808F4806845EA08054FEA2C
:101A040042294FEA02284FEA420A08F4806809F49E
:101A1400007949EA080980010AF4807849EA08094A
:101A240000F080004FEA6208A5610AF0200AB06164
:101A340002254FF4003008F01008986148EA0A08BB
:101A4400986198619D619D61C3F818C0C4F818E05D
:101A5400B761C3F8189002F0080948EA09084FEA88
:101A6400021909F48069920148EA090802F0800227
:101A7400C4F81880B26110229861986198619D61E0
:101A84009D619A61CAB2090A4FEA41294FEA0128C5
:101A94004FEA410A08F4806809F4007949EA080920
:101AA4000AF4807849EA08094FEA610808F0100846
:101AB4000AF0200AC3F818C048EA0A08C4F818E073
:101AC400B761C3F8189001F0080948EA09084FEA19
:101AD400011909F48069890101F0800148EA0908C3
:101AE400C4F81880B16198611102986198619D6190
:101AF4009D61C3F818C0C4F818E0B76157024FEAF3
:101B0400420E01F4806107F400770F430EF48071F4
:101B14000F43511001F010010EF0200E9F6141EAB5
:101B24000E0102F008073943170107F48067920198
:101B3400394302F08002A161B261986198619861B1
:101B44009D619D610123A361BDE8F087000402400B
:101B540000080240000002402DE9F04F5F4D604E46
:101B64004FF48033AB615F4B5FFA80F84FF480141D
:101B7400000A9C614FEA002A44024FEA40090AF431
:101B8400806A04F4007444EA0A0409F4807A44EA9A
:101B94000A044FF0E06C4FF0876E4FF40007C3F86F
:101BA40018C0C5F818E0B7619C61441009F0200919
:101BB40004F0100444EA090400F0080944EA0904A2
:101BC4004FEA001909F4806944EA0904AC614FEA58
:101BD400082B84014FEA48204FEA480A0BF4806B33
:101BE40000F4007004F0800440EA0B000AF4807BE7
:101BF400B4614FF002094FF4003440EA0B009C61D9
:101C04009C619C61C3F81890C3F81890C3F818C07D
:101C1400C5F818E0B76198614FEA68000AF0200A35
:101C240000F0100040EA0A0008F0080A40EA0A003E
:101C34004FEA081A0AF4806A40EA0A00A8614FEAE7
:101C4400881000F08000B06110209C6102EB010854
:101C54009C619C61C3F81890C3F818909861A8EB34
:101C6400020149B2002934DD12F8010BC3F818C08F
:101C740041024FEA002B4FEA400A0BF4806B01F457
:101C8400007141EA0B010AF4807B41EA0B01C5F8BB
:101C940018E0B761996141100AF0200A01F01001BF
:101CA40041EA0A0100F0080A41EA0A014FEA001A6F
:101CB4000AF4806A800141EA0A0100F08000A96107
:101CC400B0619C619C619C61C3F81890C3F8189042
:101CD400C5E70123AB61BDE8F08F00BF00040240FB
:101CE400000802400000024030B4458CC5F30034C3
:101CF40084EA01020B46ED0791B2C18408D50022A3
:101D04009C4214BF21202020114630BCFFF724BF81
:101D1400838C49F22620834215D849F22520834238
:101D24000AD245F22040834215D047F29370834291
:101D340011D0B3F5AA7F13D1910041F0130107200C
:101D440030BCFFF723BE49F22632934203D04BF254
:101D54000952934204D141F0020140F20140EFE7FD
:101D64006120EDE770B50C46051D4FF6FF76002C9B
:101D74000FDD35F8040C35F8021CB04206D10846D4
:101D840001F0F8FD043C24B20435F0E7FFF7FEFD52
:101D9400F8E770BDF0B50C4687B00546002C1FDD92
:101DA4002F466E7817F8020B7F280BD03D46EB1BAD
:101DB400DBB2B3420FDA06AA134415F8012B03F879
:101DC400182CF4E7304601F0D5FD3D460026023CD0
:101DD400A41B24B2E2E76A4671B2FFF7BDFEF6E740
:101DE40007B0F0BD10B54FF4A0720446F021FFF720
:101DF400CBFB024B2360204610BD00BF007E0008D1
:101E040038B52D4B2D4C2E4D012018702D4B1A68D2
:101E140022F47C121A602C4A116821F4401121F436
:101E24007C611160216821F440412160196841F40A
:101E3400A8111960116841F4801141F4A86111607E
:101E4400216841F480412160296B41F00701296335
:101E5400196821F0030101431960196821F00C018C
:101E640041F004011960196821F4407141F4807152
:101E74001960116821F0030101431160216821F008
:101E84000C0141F0040102252160906198619D617B
:101E94003220A56101F06EFD4FF40033A36164208C
:101EA40001F068FDA561642001F064FD0021B0200B
:101EB400BDE83840FFF76ABD9A02002000080240DE
:101EC4000038024000000240000402402DE9F04FB7
:101ED4009E4B1B788BB08A4691460BB9FFF790FF57
:101EE4009B4C9C4E9C4D4FF480374FF48013B7614C
:101EF400A3614FEA1A2359021A025FFA8AF002F424
:101F040080624FEA430A01F4007111430AF48072BB
:101F140011435A104FF0876C4FF4000E4FF0E068F5
:101F240002F010020AF0200AC4F8188042EA0A02F9
:101F3400C6F818C0C5F818E0A16103F008010A4307
:101F4400190101F480610A43B2619A0102F080022E
:101F5400AA6102214FF40032A2614302A261A2618C
:101F6400A161A161C4F81880C6F818C04FEA002C1A
:101F7400C5F818E00CF4806C4FEA400E03F40073CB
:101F840043EA0C030EF4807C43EA0C03A361431080
:101F94000EF0200E03F0100343EA0E0300F0080EC7
:101FA40043EA0E034FEA001E0EF4806E43EA0E036A
:101FB400B361830103F08003AB611023A261A261CA
:101FC400A261A161A161A361236823F47C1323604E
:101FD400336823F4401323F47C6333602B6823F4C5
:101FE40040432B6001204FF0010B01F0C3FC31464C
:101FF40023465E4638469E6198619861986198616F
:102004009861986198611A6901922A6902921A6921
:1020140003920A6904920A6905920A6906920A6996
:10202400079209F1FF391A6908924FFA89F99E61FA
:102034009E619E61986198619861986198619861C8
:1020440098611A690992B9F1000FD5F810E01F6977
:10205400D1F810A0D1F810C0D1F810800C691A6919
:102064009E619E61C7DAC3F818B0C1F818B0186849
:1020740020F47C101860086820F4401020F47C6080
:102084000860286820F440402860186840F4A810CC
:1020940018600B6843F4801343F4A8630B602B6847
:1020A400089943F480432B60079B49081B0901F0FE
:1020B400800103F040030B43049901F008010B4332
:1020C4000699480000F020001843059B5908029B1C
:1020D40001F010019B09084303F002031843019B1C
:1020E400C3F3402318432409039B520804F040041B
:1020F40022F07F0222431B0A0AF0080A4FEA48082A
:1021040003F0040342EA0A0A08F020084FEA5C0CD0
:1021140018434AEA0808099B0CF0100C4FEA9E1E6B
:1021240048EA0C0C0EF0020E4CEA0E0EC3F34023E8
:102134003F0A4EEA030E07F004074EEA0707FFB210
:1021440047EA00200BB0BDE8F08F00BF9A020020E0
:1021540000000240000402400008024070B5002262
:1021640005460E46FFF7B2FE0122044631462846D4
:10217400FFF7ACFE40EA044070BDF8B50022044607
:102184000D46FFF7A3FE2946064601222046FFF727
:102194009DFE0222074629462046FFF797FE0012BD
:1021A40040EA072040EA0660F8BD000037B5002287
:1021B40011460446FFF78AFE45F20843984222D0AE
:1021C40045F2204398421ED048F68913984200F005
:1021D400B980002267212046FFF778FE44F2477356
:1021E400984200F0B280A1212046FFF7B7FF46F2E3
:1021F400011380B2984200F0AB804FF6FF7398420F
:1022040003D141F2265003B030BDBF212046FFF771
:10221400B4FF48F2573380B29842F4D049F2814374
:102224009842F0D041F211539842ECD0B0F5A95F36
:10223400E9D041F226539842E3D041F281539842C7
:10224400E1D0B0F5A05F00F08680D4212046FFF7EE
:1022540085FF45F2103380B29842D4D0D72120466E
:10226400FFF77CFF48F2310380B29842CBD0EF21D4
:102274002046FFF782FF49F2273380B29842C2D04A
:10228400FE212046FFF76AFF42F25303C0F30F20FA
:102294009842B8D004212046FFF760FF0546C5F3F5
:1022A400074580B2EDB9B0F5004F1AD12D4B1A880D
:1022B400ADF804209B788DF8063001AA0321B920DB
:1022C400FFF74AFC2A46D0212046FFF7FFFDC0B2A3
:1022D400992804D0902810D149F2900093E79920CE
:1022E40091E741F2265398428BD048F252539842D8
:1022F40034D04AF61143984285D0D3212046FFF7C3
:102304002DFF0346C3F3072303F16D02D2B2012A62
:1023140080B27FF678AF982B3FF475AF772B3FF4FC
:1023240072AF162B3FF46FAFD3283FF46CAF4DF26E
:10233400D33398423FF467AF002211462046FFF79B
:10234400C5FD60E741F289205DE748F247305AE76E
:1023540041F6631057E746F6140054E747F28970D4
:1023640051E700BFD87100082DE9F3411E46838C64
:10237400BDF92040174649F2273293420546884664
:1023840036D1437E022B04D120373FB2203424B20D
:1023940007E0032B05D101F1200820360FFA88F855
:1023A40036B26B8CD90736D5688E8DF805804FEA26
:1023B40028238DF8043001AA33120421C0B28DF809
:1023C40006308DF80760FFF7C7FBE88E8DF80570BF
:1023D4003B128DF8043001AA23120421C0B28DF8F7
:1023E40006308DF80740FFF7B7FB02B0BDE8F08177
:1023F40041F226529342D4D1437ED807D1D5A2B21A
:10240400D31B9BB20BB9541CC1E7B14202BF5B188A
:102414001EB23C46C5E71FFA88F1A88DFFF7B6FA4D
:10242400B9B2E88DFFF7B2FA464501D1BC42DCD01F
:102434006B8C9A060CD56B7EDB074BBF47EA0427EF
:1024440048EA06283FB20FFA88F84CBF3C46464695
:102454001FFA88F1688EFFF799FAB9B2E88EFFF790
:1024640095FAB1B2A88EFFF791FAA1B2288FFFF7BF
:102474008DFABAE72DE9F04F9DB0048E0B93BDF9A8
:1024840098300C93BDF99C300D93BDF83450BDF8D1
:102494003030039013FB05F636B20696468CDFF80F
:1024A40004B216F0010F8EB2089696B20996089EF1
:1024B40006F1FF363344099E06F1FF3635442DB24A
:1024C40018BF2E241BB20095FFF74EFFE3B2240A77
:1024D40061022202600002F4806201F4007111437F
:1024E40000F480720A430E92621000F0200002F0A1
:1024F400100204F0080102430A43210101F480613F
:102504000A43A4010F9204F08002180210925A02A6
:10251400590000F4806002F40072024301F48070F8
:10252400024311925A1001F0200102F010020A43F2
:1025340003F008010A4319019B0103F0800301F42D
:1025440080610A431393544C12920023049305931D
:10255400069B002B039B5A8C40F38782D7070FD42A
:10256400089B049A9918039B89B2988DFFF70EFA79
:10257400099B059A9918039B89B2D88DFFF706FA2F
:10258400464B4FF480114FF48032A2614FF08766BE
:1025940099614FF400050E994FF0E0679F61A661C1
:1025A400CBF8185099610F99A1611099CBF81810C4
:1025B40002204FF4003199619961996198619861A1
:1025C4009F61A661CBF81850119D9D61129DA56174
:1025D400139DCBF818509961996199611021986104
:1025E40098619961196821F47C111960216821F4BA
:1025F400401121F47C612160DBF8001021F440419A
:10260400CBF800100399498C4E061FD4CD0706D48D
:102614000399888C41F28921884240F068811F4BDC
:10262400012199614FF480329A619A619A619A61A9
:102634009A619A619A611A69DBF810201A69226911
:102644002269226922691A6999619961039B9A8CAA
:1026540041F211539A4216D1104B4FF480320121AA
:1026640099619A619A619A619A619A619A619A618F
:102674001A69DBF810201A69226922692269226921
:102684001A6999619961064B1B781B93034B4FF4AC
:102694008032012108E000BF000402400000024033
:1026A4009B020020000802400398408C0790C0065B
:1026B40099619A619A619A619A619A619A619A613F
:1026C40040F13981D3F81090DBF810E01F69D4F899
:1026D40010C0266925692069D3F810804FEA9E1E30
:1026E400C9F340290EF0020E49EA0E0E0CF0080C54
:1026F4003F0A4EEA0C0E760807F0040C4EEA0C0E64
:102704006D0006F0100C4EEA0C0E000905F0200CCA
:102714004EEA0C0E00F0400C4FEA58004EEA0C0C46
:1027240000F0800040EA0C000A9099619961996177
:102734009A619A619A619A619A619A619A61D3F8ED
:102744001090DBF810E01869D4F810802769266926
:102754002569D3F810C099614FEA9E1EC9F3402938
:102764000EF0020E49EA0E0E08F00808000A4EEABE
:10277400080E7F0800F004084EEA080E760007F001
:1027840010084EEA080E2D0906F0200899614EEA59
:10279400080E996105F040089A619A619A619A61FC
:1027A4009A619A619A61D3F810A04EEA080EDBF898
:1027B40010804FEA5C0000F08000D3F810C0D4F819
:1027C40010904FEA981840EA0E00CAF3402AD4F851
:1027D40010E0276926691D69996108F0020809F06B
:1027E40008094AEA08084FEA1C2C48EA09084FEA93
:1027F4005E0E0CF0040948EA09087F000EF0100987
:1028040048EA0908360907F0200948EA09086D086A
:1028140006F0400948EA090805F08009079D996116
:1028240015F0040F49EA08084FEAC0009B4D79D01F
:1028340000F4FC6005EA082848EA00080A9848EA17
:10284400D0091B9868B14FEA691808F02008C9F349
:10285400440C48EA0C0629F03F0846EA08081FFA27
:1028640088F90B9820F8029B0B900698013880B2E7
:1028740005B20695039D6D8CAD074ED4049B0133C0
:102884001BB20493049A0C9B93420BDC059B01330B
:102894001BB20593059A0D9B93424FF000030493DA
:1028A400D8BF05937E4B01229A61A2611A6822F473
:1028B4007C121A60226822F4401222F47C622260A4
:1028C400DBF8002022F44042CBF800201A6842F4DE
:1028D400A8121A60236843F4801343F4A8632360A6
:1028E400DBF8003043F48043CBF8003030E60121BC
:1028F40099619A619A619A619A619A619A619A61FD
:102904001869DBF8100018692069206920692069BA
:10291400186999619961996186E600287FF4C4AECB
:102924000690ABE70A9E00F4FC6005EA06252843FE
:1029340040EAD80985E7D3F810E0DBF810C018693D
:102944000A90D4F8109027692669206914901869B0
:1029540015909961996199619A619A619A619A61F4
:102964009A619A619A61D3F810A0DBF81050186943
:102974001690D4F810802069179020691890206967
:10298400199018691A904FEA9C1C0A989961CEF321
:10299400402E0CF0020C4EEA0C0C09F008094FEA28
:1029A400102E4CEA090C7F080EF004094CEA090CBD
:1029B4001498996107F0100976004CEA090C06F0A6
:1029C40020094CEA090C4FEA1019159809F040093E
:1029D4004CEA090CAD094FEA50091698CAF3402A8B
:1029E40005F0020508F00808000A4AEA050A4AEA5E
:1029F400080A00F0040817984AEA080A4FEA50083F
:102A0400189808F010084AEA080A4FEA400819988A
:102A140008F020084AEA080A4FEA10181A9808F041
:102A240040084AEA080A4FEA5008079809F0800962
:102A340008F0800849EA0C0C4AEA0808070748EA43
:102A44000C2903D599FA99F81FFA88F907984607CB
:102A54007FF5F7AE4FEAC92646EAD92609F4FC69A0
:102A640046EA09091FFA89F9EBE612F0010410D1CC
:102A74000398FEF76EFF05460398FEF76DFF0138D5
:102A840000B26B1E00901BB2224621460398FFF74A
:102A94006BFC00201DB0BDE8F08F00BF00F8FFFF05
:102AA40000000240F7B50F1E064615461C4621DB02
:102AB400002A1FDBFEF74DFF87421BDA3046FEF784
:102AC4004BFF854216DA0C4B1B782BB1630003F0E5
:102AD4003E0324F03E041C433946304600953B46F1
:102AE4002A46FFF741FC308E214603B0BDE8F04092
:102AF400FEF74CBF03B0F0BD9B0200202DE9F04F60
:102B04009146BF4A89B01278BDF94860BDF84C407F
:102B140005462AB1620002F03E0224F03E0414434A
:102B2400002B07DA1FFA83F8C8F1000388441BB2AC
:102B34000FFA88F12846CF1821EAE178FEF709FF59
:102B44003FB2874203DD2846FEF703FF0746BFB2C4
:102B5400A7EB08031BB2002E039305DAB2B2564268
:102B6400914436B20FFA89F92846FEF7F5FE4E4431
:102B740036B2864229EAE97903DD2846FEF7ECFEFF
:102B84000646B2B2A2EB0906013A7B1E12B24146D6
:102B940000921BB24A462846FFF7E6FB99499A4F32
:102BA4004FF480338B61994B4FF480129A612A8ED3
:102BB400D0B2120A4FEA422E0EF4007B4FEA022EE4
:102BC4004FEA420C0EF4806E4BEA0E0E0CF4807B3E
:102BD4004FF0E06A4FF087694FF400084EEA0B0E9D
:102BE400C3F818A0C1F81890C7F81880C3F818E003
:102BF4004FEA620E0CF0200C0EF0100E4EEA0C0E92
:102C040002F0080C4EEA0C0E4FEA021C0CF4806C25
:102C140092014EEA0C0E02F08002C1F818E0BA618B
:102C24004FF0020E4FF400329A614FEA002C9A6181
:102C34009A61C3F818E0C3F818E0C3F818A0C1F803
:102C44001890C7F818804FEA40284FEA40090CF45E
:102C5400806C08F4007848EA0C0809F4807C48EA9F
:102C64000C084FEA600C09F020090CF0100CC3F8B2
:102C740018804CEA090C00F008084CEA080C4FEAEA
:102C8400001808F4806880014CEA080C00F0800009
:102C9400C1F818C0B8619A619A619A611022C3F8A8
:102CA40018E0C3F818E09A61039B36B2E2B2B3426B
:102CB4004FEA1424B8BF03964FEA4420B8BF1E4617
:102CC400230203F48063BE4600F4007067001843D7
:102CD40007F4807303430493631003F0100307F0B5
:102CE400200704F008003B430343200100F4806004
:102CF4000343A4014FEA422B1002059304F080031E
:102D040000F4806006930BF4007B53004BEA000B45
:102D140003F480704BEA000B501003F0200300F022
:102D24001000184302F008031843130103F48063EE
:102D34009201184302F080030793344BB6B24FF06C
:102D4400E0684FF087694FF4000A4FF400344FF005
:102D5400020C37B2002F2EDD039F049AC3F81880AB
:102D6400C1F81890CEF818A09A61059A8A61013FBB
:102D7400069ACEF818203FB2079A9C619C619C6128
:102D8400C3F818C0C3F818C0C3F81880C1F8189065
:102D9400CEF818A0C3F818B08861CEF818209C614A
:102DA4009C619C61C3F818C0C3F818C0002FD4D12B
:102DB400013EB6B2CDE701238B616B8CDA0707D5F0
:102DC400AA8C41F226539A4216D16B7EDB0713D5A7
:102DD4002846FEF7BEFD04462846FEF7BDFD013831
:102DE400631E00B2002212901BB21146284609B09D
:102DF400BDE8F04FFFF7B8BA09B0BDE8F08F00BFE7
:102E04009B0200200004024000080240000002402F
:102E14002DE9F3410646808C984649F227339842BF
:102E240005D1737E023B012B9CBF203109B2758909
:102E34008FB293B2ED1B49F22734ED1AA042ADB222
:102E440008BF2035C2F1000408BFADB2A0453EDD85
:102E54004245D8BF4FF0000807EB0804B8F1000F53
:102E6400A4B2B6F822E0BCBFE418A4B21EF0010F6D
:102E740030D00B128DF8003013128DF801108DF83C
:102E840002308DF8032045F307236A4606213320D8
:102E94008DF804308DF80550FEF75EFE44F30723E9
:102EA4006A46022137208DF800308DF80140FEF784
:102EB40053FEB8F1000F07D1738CDB0704D54246EB
:102EC40041461320FEF748FE02B0BDE8F0814FF002
:102ED4000008C1E747F2937290422ED01AD845F207
:102EE4002042904229D047F28372904231D0B0F50B
:102EF400AA7F19D1591E394489B23120FEF746FD03
:102F040039463220FEF742FDE11B89B23320FEF739
:102F14003DFDD9E749F2263290420ED009D8A0F5FA
:102F2400124025380128E5D9F18C41F0020189B21B
:102F340010E04BF209539842F6D1F18C41F00201B2
:102F440089B240F20140FEF721FD214640F20440DF
:102F5400DDE7F18C6120FEF719FD21466A20D6E7F2
:102F640030B501F0030311F0010114BFB0F90A20D8
:102F7400B0F90820437685B004468281002900F028
:102F84009080B0F90820E281022B00F08D80032BA1
:102F940000F08C80012B14BF482328238DF80B30BC
:102FA400638CDA0542BF9DF80B2082F080028DF815
:102FB4000B209D0542BF9DF80B2082F040028DF846
:102FC4000B20180542BF9DF80B2082F008028DF8F3
:102FD4000B2013F0010FA38C00F0A58046F6140219
:102FE400934265D19DF80B2012F0800F14BF40234B
:102FF400002312F0400F14BF2021002102F0280208
:1030040043F002030B438DF80B2000228DF80C20B3
:103014008DF80D3003AA3B230321B6208DF80E3022
:10302400FEF79AFD2B232A222C21A285E3852186F3
:103034006286A286E38623870DF10B0201213620E6
:10304400FEF78AFD9DF80B302385637EDA070ED5E3
:10305400638C5B050BD4A38DE28DA285E385E28EA0
:10306400638EE3866286A38E228FA2862387204600
:10307400FEF76FFC05462046FEF76EFC0138002281
:103084006B1E00B20090114620461BB2FFF76CF98C
:103094000023B4F90A2019462046FFF7B9FE05B00B
:1030A40030BDB0F90A206EE7982377E7F82375E777
:1030B40041F66312934207D049F28142934203D00E
:1030C40041F211529342ADD19DF80B20110644BF39
:1030D40042F001028DF80B209DF80B20550644BFE9
:1030E40042F002028DF80B2041F66312934206D19E
:1030F4009DF80B3003F03F038DF80B3092E749F253
:103104008142934204D19DF80B3003F02F03F3E77F
:1031140041F21152934285D19DF80B3023F01003F4
:1031240063F03F03E8E747F29372934207D03CD839
:10313400B3F5AA7F40D045F22042934273D14FF4B5
:103144000072A28540F20122E28540F20222228628
:103154004FF40472628640F21122A28640F21222D7
:10316400E28640F2132222879DF90B20002A49F2BD
:103174002632B4BF4FF400410021934250D045F2AF
:10318400204293420CBF4FF454534FF4D443194399
:103194004FF48060FEF7FAFB9DF80B3013F0400FFC
:1031A40014BF4FF48071002125E049F22632934286
:1031B400C5D04BF20952C0E7372363863623A38672
:1031C4003923E386382323872023A3852123E3851A
:1031D400222323869DF80B3013F0800F14BF4FF485
:1031E4000071002113F0400F14BF4FF480730023CB
:1031F400194341F028010120FEF7C8FB9DF80B306C
:1032040013F0200F14BF08210021180748BF41F410
:10321400805141F0300121850320FEF7B7FB14E70C
:103224004FF45453B3E72023A3852123E3852223BA
:103234002386502363865123A3869DF90B105223C2
:10324400E386532323870029B4BF4FF427414FF467
:103254001C5160209EE70000F0B585B004460D4681
:10326400FEF7CEFD48F2573300269D422684A584FE
:1032740000F0838100F2E58044F235539D4200F072
:10328400708100F28A80B5F5A95F00F0648168D886
:10329400B5F5AA7F00F0578106D8992D00F0798101
:1032A400002525812E4611E041F205539D4200F090
:1032B4007C8141F211539D42F2D14FF4F073032704
:1032C4006381C14E67844FF4A0732381638CC3F37D
:1032D4000033E3845EB10921BC48FEF75BFD394647
:1032E4003046FEF757FD0621B948FEF753FD236823
:1032F40000219B6A2046984723680021DB6A204608
:103304009847A28C49F288439A4228D12368B14F46
:103314009E6800254FF6E0732A46294620463D70F4
:10332400B04701260DF10E032A4601960096294660
:103334002046FFF79FF8BDF80E204FF61F739A4200
:103344000DD106230DF10E0231463A208DF80E30D0
:10335400FEF702FC638C3E7023F01003638405B017
:10336400F0BD41F281539D4200F0708109D841F2D1
:1033740026539D4294D140F2134363840C27964E06
:10338400A4E741F202639D4200F0518142F25303EB
:103394009D4285D141F217434BE147F283739D422D
:1033A40000F0E5802CD845F208439D4200F0FD80F2
:1033B40010D845F210339D427FF472AF40F6136388
:1033C40063844FF4F07363814FF4A0732381022765
:1033D400824E7BE746F609039D4200F0EF8046F6F5
:1033E40014039D427FF45CAF40F2034363844FF4C3
:1033F400F07363814FF4A07323810327784E65E74C
:1034040047F293739D4200F03F810AD847F28973D3
:103414009D427FF445AF40F2134363844127714ECC
:1034240054E747F296739D4200F01F8148F231033E
:103434009D427FF435AF41F21343638412276A4EF1
:1034440044E749F238339D4200F0FA8032D849F219
:1034540027339D4200F0E0801AD849F202339D429E
:1034640000F0EB8007D849F290039D427FF418AF37
:1034740041F2134383E049F220339D4200F09580EA
:1034840049F225339D427FF40BAF4FF4885397E004
:1034940049F229339D4200F0D680F6D349F2313304
:1034A4009D4204D049F235339D427FF4F9AE4FF486
:1034B400805385E049F288439D4227D849F28743E7
:1034C4009D4280F0DE8049F281439D4200F0CA8033
:1034D4000BD8A5F51345403D012D3FF6E1AE40F272
:1034E400134363846527414EF0E649F286439D42C7
:1034F4007FF4D6AE40F2034363844FF4F0736381E8
:103504004FF4A07323813B27394EDFE64BF205537A
:103514009D4212D007D84AF611439D427FF4C0AEB3
:1035240041F2134385E04BF209539D4200F0AC8015
:103534004CF205539D427FF4B3AE41F20803638419
:10354400B0212C4836E041F202032B4863849C21CD
:10355400FEF708FCBAE640F2134363840627274EBD
:10356400B4E64FF4805363849C212548F0E741F28C
:103574000213638490212348EAE741F203436384FE
:103584004FF4F07363814FF4A073238102271E4E1E
:103594009CE641F2134363844FF4F07363814FF468
:1035A400A07323811D27194E90E641F204031848A5
:1035B4006384D821FEF7D6FB002687E641F2021386
:1035C4006384CC211348F5E75A7E0008EA84000896
:1035D400E48400089B020020637E000889810008BF
:1035E400E1840008007F0008487E00085184000838
:1035F4004E8100088C810008FC8200085D7E000872
:1036040098830008707E0008417F00083484000815
:10361400447F00081C80000840F2034363844FF495
:10362400C8736381F02323811E271D4E4EE640F2AA
:103634001353638403271B4E48E640F20343F8E721
:1036440040F21343F5E741F20363F2E740F2134318
:1036540063844FF4F07363814FF4A073238145278F
:10366400114E33E640F20743F2E740F2034363842A
:103674004FF4F07363814FF4A07323812B270B4E17
:1036840024E640F21343F2E74FF480536384C021ED
:103694000748FEF767FB4FF4C87363818CE700BFEC
:1036A400E88000080681000809810008B684000843
:1036B4003C82000870B5104E034600F130044FF60A
:1036C400FF72012100251A805E60197299725D7281
:1036D4000C33A342F7D1094B02861A7B80F8902061
:1036E400DA7A80F891205B7B80F892304FF0FF33D8
:1036F40080F8933070BD00BF00093D009487000836
:103704000148FFF7D7BF00BF9C02002030B595B039
:103714000022274B0192196C41F0805119641B6CF3
:10372400244903F080530193019B02920B6823F414
:10373400404343F400430B600B680F9203F440438F
:103744000293029B01230B9310230C9310934FF4C9
:10375400A873022411930425072308A808940E943F
:103764001295139301F01CFF00B1FEE70F2303939E
:1037740005904FF480530790214603A804940693C0
:1037840002F0BEF8044600B1FEE702F053F94FF42C
:103794007A73B0FBF3F001F057F9284601F07AF997
:1037A400224621464FF0FF3001F00CF915B030BD30
:1037B4000038024000700040DFF834D0002103E0FC
:1037C4000C4B5B58435004310B480C4B42189A4243
:1037D400F6D30B4A02E0002342F8043B094B9A4219
:1037E400F9D300F05DFB03F087F802F0C9FF7047DE
:1037F40000800120F48900080000002098000020C7
:103804009800002008070020FEE700F020BA704767
:103814000A490B6810B51844EFF30882904206D9A0
:10382400074B0C221A604FF0FF33184610BD054CAD
:10383400054A121B9042F3D20860F6E70400002008
:103844000407002000040000008001203A2808B585
:1038540014D80C2898BF2E30094B1856431C0DD091
:1038640000F048F9074B1B680C2B08D00B2B95BFB5
:10387400C3F10C030C3BD840984008BD002008BDA0
:1038840094870008080000203A282DE9F041884672
:1038940033D8224B1C56621C2FD0C4F30315204E80
:1038A40056F8253004F00F07FB40DB0710D51D49FF
:1038B400204600F0E9F910B1204600F093F9012305
:1038C40003FA07F256F8253023EA020346F82530B6
:1038D400B8F1050F1DD8DFE808F003181214161A02
:1038E4000021204600F0E0F90F49012303FA07F212
:1038F40051F82530134341F82530BDE8F0811021FB
:10390400EFE72021EDE70321EBE70121E9E70921B6
:10391400E7E74621054800F0C1FAE5E79487000887
:10392400300300209C85000848030020CF8700084E
:103934003A289ABF0B4B1B564FF0FF33C3F30312C5
:10394400052A98BF084803F00F0398BF50F82220B7
:10395400064888BF002250F8233009B193617047AC
:103964001B04FBE7948700080C000020AC880008C7
:1039740000F062B938B5044648B100F05DF9054677
:10398400FFF745FF00F058F9401B8442F8D838BDD2
:1039940086B00023052853D8DFE800F003111E2B5E
:1039A40038450093274B28481A6B42F001021A63EA
:1039B4001B6B03F001030093009B06B07047019357
:1039C400204B22481A6B42F002021A631B6B03F06D
:1039D40002030193019BF0E702931A4B1C481A6BF4
:1039E40042F004021A631B6B03F004030293029B6C
:1039F400E3E70393134B17481A6B42F008021A6368
:103A04001B6B03F008030393039BD6E704930D4B4E
:103A140011481A6B42F010021A631B6B03F0100377
:103A24000493049BC9E70593064B0C481A6B42F0B8
:103A340080021A631B6B03F080030593059BBCE7AC
:103A44000020BAE7003802400000024000040240AF
:103A540000080240000C024000100240001C02401A
:103A640008B5064900F0FAF9C0F3C4300238022858
:103A74009ABF034B185C002008BD00BF9C8500085A
:103A84004588000807B50C4B02689A420BD1002305
:103A940001930A4B5A6C42F480725A645B6C03F4CF
:103AA40080730193019B064B064993F9000000F0D3
:103AB40091F903B05DF804FB002001400038024096
:103AC40024000020F4840008084B01685A6A42F478
:103AD40080725A625A6A22F480725A62044A91428B
:103AE40002BF5A6C22F480725A6470470038024054
:103AF4000020014030B599B005464822002106A8AF
:103B040002F04BFF1022002102A802F046FF00241D
:103B14002F49ADF80640284600F07CF9069010B90C
:103B2400002019B030BD4FF48033079301230B9369
:103B34000D93284B284A089406A8119412940994CA
:103B44000A940C940E9416940F9410921D7000F025
:103B5400FFFC04460028E3D11D49284600F07EF905
:103B6400C0F3C430013811289CBF1C4B1C5C029468
:103B7400122CD5D8012302A906A80393049300F0BC
:103B840077FE0028CCD106A800F0A0FD0028C7D1FC
:103B94000A2106A800F018FE0028C1D106A800F0EA
:103BA400FDFE830505D506A800F05EFE80B2ADF8E3
:103BB400060006A800F0EAFD0028B1D106A800F02E
:103BC4006BFD0028ACD1BDF8060080B2A9E700BFA8
:103BD400F4840008240000200100000F338800084A
:103BE40000F084B930B5124991B0054600F012F9DD
:103BF4000190B8B12846FFF733FF1828044611D8BE
:103C04000C4BC340DB070DD50949284600F026F9C3
:103C140010F4801F214601A806D002F08AF801A8FA
:103C240001F059FF11B030BD02F024F8F7E700BFEE
:103C34009C8500081111000100F084BC704708B590
:103C440000F074FC00F033FFFFF7F8FF08BD08B57F
:103C540000F052FCBDE80840FFF758BD30B5C3681A
:103C640091FAA1F4B4FA84F491FAA1F10325B1FA1A
:103C740081F1640005FA04F4490023EA040302FA1A
:103C840001F11943C16030BD431C04D00C3111F95A
:103C94000C3C5A1C01D100207047984201F10C01E0
:103CA400F5D10120704700002DE9F041474B00F0A9
:103CB4000F08C0F3031401300E4601F0070753F850
:103CC400285003D14321424800F0E8F82046FFF78A
:103CD4005FFE0446826895FAA5F3B3FA83F395FA76
:103CE400A5F103205B00B1FA81F100FA03F322EAA3
:103CF40003034A0000FA02F21343A360874236D852
:103D0400DFE807F01D1D021DB8F1070FC6F30620FA
:103D140017D9626A2B0A93FAA3F1B1FA81F193FAE3
:103D2400A3F34FF00F0EB3FA83F389000EFA01F1F7
:103D34009B0022EA010200FA03F3134363623B4649
:103D44001AE0226A95FAA5F3B3FA83F395FAA5F17A
:103D54004FF00F0EB1FA81F19B000EFA03F38900C4
:103D640022EA030200FA01F313432362E7E76A211C
:103D7400174800F093F80023226895FAA5F0B0FAEA
:103D840080F095FAA5F14FF0030EB1FA81F14000ED
:103D94000EFA00F0490022EA00028B40013F13436F
:103DA400012F236005D8636832074CBF2B43AB4314
:103DB4006360C6F30112012A02D0022A18BF00224E
:103DC40029462046BDE8F041FFF748BFAC8800080B
:103DD40048880008431C06D17047984202D189687C
:103DE400FFF762BF0C3191F900305A1CF5D19221D2
:103DF400014800F053B800BF4888000891F900302A
:103E04005A1C01D100207047834201D14868704791
:103E14000C31F3E7431C01D0FFF7F0BF00207047DB
:103E24004B6813B94FF0FF307047834202D191F9C8
:103E3400000070470C31F3E708B1FFF7F1BF4FF012
:103E4400FF30704791F900305A1C01D11846704771
:103E5400834201D1886870470C31F3E7431C01D0D9
:103E6400FFF7F0BF7047884204D018B100290CBF97
:103E74000146002108467047034B1B6813B1034AEF
:103E840010681847704700BF6003002084030020B7
:103E9400014801F0F5BD00BF64030020FEE7000007
:103EA4000F49D1F8883043F47003C1F888300D4BC2
:103EB4001A68002042F001021A6098601A6822F021
:103EC400847222F480321A60074A5A601A6822F413
:103ED40080221A60D8604FF000638B60704700BF87
:103EE40000ED00E000380240103000240368234A4B
:103EF40093420ED122494A6C22F001024A64214ABB
:103F0400934217D102F57842536C23F480335364FF
:103F14007047B3F1804F05D119490A6C22F00102B0
:103F24000A64ECE7184A93420DD115490A6C22F051
:103F340002020A64154A93420DD102F57442536C8D
:103F440023F40033E3E7124A93420DD10C490A6C7F
:103F540022F004020A640F4A9342D9D102F5704256
:103F6400536C23F48023D2E70B4A9342C7D102F562
:103F74000B32136C23F008031364704700000140F4
:103F84000038024000400140000400400044014069
:103F94000008004000480140000C0040436C2BB175
:103FA400027E012A02D100210438184770470346D3
:103FB40004381B6C03B118477047000010B5064C59
:103FC400206808B101F0A7FD606A18B1BDE810408F
:103FD40001F0A1BD10BD00BF88030020024B58684A
:103FE40008B101F098BD704788030020024B98681F
:103FF40008B101F090BD704788030020024BD868D7
:1040040008B101F088BD704788030020024B18698D
:1040140008B101F080BD704788030020024B186A84
:1040240008B101F078BD704788030020024B986AFC
:1040340008B101F070BD704788030020C3689A423C
:1040440010B504461CD171B9436E80F8581003B101
:10405400984794F8882004F1680120460823BDE8B5
:10406400104000F047BD00230122C36580F85820AA
:10407400C16D014402236831BDE8104000F076BDF3
:1040840010BD036E10B5044643B190F85820012AC0
:1040940004D1C26D12B1C16D68309847022384F80F
:1040A40058300023E3652046BDE8104000F09ABD77
:1040B400C36D1F2BDEBFC36D0133C36590F8582059
:1040C400D2B2012A05D1C16D01440223683100F046
:1040D4004DBD7047002380F88830704790F8593000
:1040E4000BB900F07FBD7047014B186800F02EBE7D
:1040F400E0030020014B186801F092B9E0030020AE
:10410400014B586800F022BEE0030020014B5868C0
:1041140001F086B9E0030020014B986800F016BE58
:10412400E0030020014B986801F07AB9E003002015
:1041340030B5044685B0002854D0484990F9580059
:10414400FFF768FE4649054694F95900FFF762FEF9
:104154000146002846D0002D44D02846FFF783FEB0
:10416400206000283ED03F4B98423DD103F5943364
:1041740000215A6A42F010025A625A6A22F010026E
:104184005A6201915A6C42F010025A645B6C84F8D2
:10419400441003F010030193019B252384F85A3043
:1041A4002E4994F95800FFF715FE94F959002C494B
:1041B400FFF710FE2C4B94F84420251D43F82250A1
:1041C40023686360A36CA360E36CE360236D2361E5
:1041D400636D63610C23A3610023E36123622846BA
:1041E40001F0D3FE05B030BD204B984219D103F540
:1041F400FA331A6A42F400321A621A6A22F400325A
:104204001A62002202921A6C42F400321A641B6C85
:1042140003F400330293029B012384F844302623E1
:10422400BCE7134B9842BBD103F592335A6A42F070
:1042340020025A625A6A22F020025A620022039231
:104244005A6C42F020025A645B6C03F0200303931F
:10425400039B052384F8443047239FE74C870008D9
:1042640004870008001001408C0400200044004032
:104274000014014008B5074B90F8442053F822007D
:1042840001F0D6FF00F02200A0F122035842584169
:1042940008BD00BF8C04002008B5074B90F84420EB
:1042A40053F8220001F0C4FF00F02100A0F1210323
:1042B4005842584108BD00BF8C04002070B50E461A
:1042C400054610B94FF0FF3070BDFFF7D3FF044629
:1042D4000028F7D12946064B11F8452F327095F87E
:1042E4004400012253F8200001F09CFE204670BDDA
:1042F4008C04002038B50D46044600B3FFF7BAFF1E
:10430400E8B994F844300E4A42F823500D4A014665
:1043140042F8234094F95A00012200F053FB94F927
:104324005A0000F083FB94F84400074B04F1450164
:1043340053F820000122BDE8384001F073BE38BDB7
:10434400EC030020140400208C04002010B5044663
:1043540000B390F84430104A42F823100F4A002169
:1043640042F82300022290F95A0000F02BFB94F942
:104374005A0000F05BFB636EB4F86A1094F84400D2
:1043840013FA81F1064B012253F82000BDE81040D6
:1043940001F029BE10BD00BF3C04002064040020CD
:1043A4008C04002010B548B10649002351F823407D
:1043B400A042DAB203D001330A2BF7D10A22104605
:1043C40010BD00BF8C04002010B5FFF7EBFF0928D7
:1043D40008D8054B054A53F8203052F82000BDE8B0
:1043E4001040184710BD00BFEC0300201404002047
:1043F40010B5FFF7D7FF092818D80D4B53F8204004
:104404000C4B53F820302046984701300ED0636E91
:10441400B4F86A1094F8440013FA81F1064B0122AF
:1044240053F82000BDE8104001F0DDBD10BD00BF11
:10443400640400203C0400208C04002003681A68F3
:10444400D20782B002D55B68019308E01A6890072E
:10445400F9D41A685107F6D41A681207F3D4019BE9
:1044640002B0704708B5252000F004FB024B186821
:10447400BDE8084001F034BE8C04002008B52620B5
:1044840000F0F8FA024B5868BDE8084001F028BE75
:104494008C04002008B5472000F0ECFA024B586960
:1044A400BDE8084001F01CBE8C04002070470000E9
:1044B40038B50E4A0E4B054618784FF47A73B3FBA1
:1044C400F0F31068B0FBF3F000F0BEFA044658B9FC
:1044D4000F2D09D8024629464FF0FF3000F072FA3A
:1044E400044B20461D6038BD012038BD2800002043
:1044F4002C0000203000002008B50B4B1A6842F451
:1045040000721A601A6842F480621A601A6842F4EF
:1045140080721A60032000F043FA0F20FFF7C8FFEF
:10452400FFF7C4FF002008BD003C0240034A044BCF
:1045340011681B780B441360704700BF000700200C
:104544002C000020014B1868704700BF00070020B2
:1045540010B50446002800F09980036C23B9436425
:1045640080F83C30FFF78EFA236CDB0600F18C8078
:10457400236C23F4885323F0020343F002032364DF
:10458400434B5A6822F440325A605A6861680A43BD
:104594005A60236821695A6822F480725A605A6802
:1045A40042EA01225A605A68A16822F040725A60B5
:1045B4005A680A435A609A68E16822F400629A6071
:1045C4009A680A439A603349A26A8A4250D0996829
:1045D40021F07061996099680A439A609A68E16A67
:1045E40022F040529A609A680A439A609A68A169D4
:1045F40022F002029A609A6842EA41029A60226AB0
:10460400002A3DD05A68616A42F400625A605A68CE
:1046140022F460425A605A68013942EA41325A60CF
:10462400DA6AE16922F47002DA62DA6A013942EA8A
:104634000152DA629A68216B22F400729A609A68D5
:1046440042EA41229A609A68616922F480629A601F
:104654009A68002042EA81229A606064236C23F005
:10466400030343F001032364002384F83C3010BDAA
:104674009A6822F070629A609A6822F04052B4E715
:104684005A6822F40062CAE70120EDE7012010BD58
:10469400002301400100000F38B50446A0B1036CAB
:1046A40043F00203036403689A6822F001029A60EB
:1046B4009D6815F0010503D1FFF706FA65642564CA
:1046C400002084F83C0038BD012038BD82B00023AE
:1046D400019390F83C30012B4ED0012380F83C30FC
:1046E40003689A68D10705D59A68D20714D40020C4
:1046F40002B070479A68214942F001029A60204A48
:104704001268B2FBF1F202EB42020192019A002A12
:10471400EAD0019A013AF8E7026C22F4E06222F04E
:10472400010242F4807202645A68510541BF026C6E
:1047340022F4405242F480520264026C12F4805219
:104744001CBF426C22F006024264002280F83C2026
:104754006FF022021A600B4A5268D20608D1986898
:1047640010F04050C3D19A6842F080429A60BFE78B
:10477400054A9342BBD1F2E70220B9E740420F0059
:1047840028000020002301400020014090F83C3024
:10479400012B17D0012380F83C3003689A6822F07B
:1047A40001029A609B68DB0707D4036C23F48853E7
:1047B40023F0010343F001030364002380F83C3039
:1047C400184670470220704703689A6870B556050A
:1047D40004460D460BD59B68D80508D5236C43F0D9
:1047E40020032364002384F83C30012070BDFFF7CC
:1047F400A9FE064623681A6892070CD56FF01202C8
:104804001A60226C42F4007222649A6812F0405FCB
:1048140013D0002070BD691CEDD045B9236C43F062
:1048240004032364002384F83C30032070BDFFF7A5
:1048340089FE801B8542DDD2F0E7A269002AE8D117
:10484400DA6A12F4700F02D09B685B05E1D4236C22
:1048540023F480732364206C10F48050D9D1236C2A
:1048640043F00103236470BD0368D86C70470000F3
:10487400F7B50023019390F83C30012B00F08380BE
:104884000D6804688A680123092D80F83C30AEB2B3
:104894002AD906EB4603E7681E3B4FF0070E0EFAD3
:1048A40003FE27EA0E07E760E76802FA03F33B43D7
:1048B400E3604A68062A4FEA820325D81344676BEB
:1048C400591F1F238B4027EA03036363626B06FAB5
:1048D40001F1114361632D4B9C4234D0002380F8D5
:1048E4003C30184603B0F0BD276905EB45034FF093
:1048F400070E0EFA03FE27EA0E072761276902FA5C
:1049040003F33B432361D4E70C2A0ED81344216BF1
:10491400A3F123021F23934021EA03032363236BA0
:1049240006FA02F21A432263D5E71344E16A413BD3
:104934001F229A4021EA0202E262E26A06FA03F1C5
:104944001143E162C7E7122D04D1114A536843F4BD
:1049540080035360A5F11003012BBFD80C4A5368A0
:10496400102D43F400035360B8D10A4B0A4A1B6864
:10497400B3FBF2F20A2353430193019B002BADD006
:10498400019B013BF8E70220ACE700BF0020014097
:10499400002301402800002040420F00006C7047B3
:1049A400074AD36823F4E0631B041B0C43F0BF6382
:1049B400000243F4003300F4E0600343D360704723
:1049C40000ED00E0174B30B5DC68C4F30224C4F1F9
:1049D4000703251D042B28BF0423062D4FF00105D2
:1049E40005FA03F303F1FF338CBF033C00241940A1
:1049F400A14005FA04F4013C2240002842EA0102E5
:104A04004FEA0212ADBF00F1604000F00F00064B08
:104A140000F56140B5BFD2B2D2B21A5480F8002377
:104A240030BD00BF00ED00E014ED00E0002808DB1D
:104A34004209012300F01F0003FA00F0014B43F880
:104A44002200704700E100E00138B0F1807F0AD213
:104A5400064B074A5860F02182F8231000200722F1
:104A640098601A6070470120704700BF10E000E0B2
:104A740000ED00E0002809DB4309012200F01F00DB
:104A840002FA00F06033024A42F82300704700BF84
:104A940000E100E0044B1A6804280CBF42F0040251
:104AA40022F004021A60704710E000E0704708B575
:104AB400FFF7FCFF08BD90F83530022B03D08023AC
:104AC4004365012070470268052380F83530136878
:104AD40023F00103136000207047000008B5044B65
:104AE4005969014202D0586101F06AFE08BD00BF55
:104AF400003C014037B590F83D40282C34D10029C2
:104B040030D0002A2ED090F83C40012C2CD00568DF
:104B1400012480F83C402C68E4075EBF2C6844F014
:104B240001042C602C6824F400642C60292480F88F
:104B34003D40202480F83E40002404644285C36242
:104B4400438D019403856B690193AB690193019BC8
:104B54006B68416243F4E06380F83C406B6020463C
:104B640003B030BD0120FBE70220F9E737B590F828
:104B74003D40282C34D1002930D0002A2ED090F882
:104B84003C40012C2CD00568012480F83C402C6862
:104B9400E4075EBF2C6844F001042C602C6824F404
:104BA40000642C602A2480F83D40202480F83E4094
:104BB400002404644285C362438D019403856B69B8
:104BC4000193AB690193019B6B68416243F4E06319
:104BD40080F83C406B60204603B030BD0120FBE709
:104BE4000220F9E790F83D30202B14D1282380F8D7
:104BF4003D3003681A68D2075EBF1A6842F00102AA
:104C04001A601A6842F480621A605A6842F4407268
:104C14005A60002070470220704770477047704701
:104C24007047704790F83D30293B012B10B503685D
:104C3400044639D800220263282280F83D201A68ED
:104C440022F400621A605A6812F4006254D05A685E
:104C5400606B22F400625A6090F83530012B394BB6
:104C640031D00365FFF727FF50B12268606B1368EA
:104C740023F001031360202384F83D30036D98472B
:104C840094F83D30282B0ED1236C5B070BD52E4BAB
:104C9400E362202200232363204684F83D2084F825
:104CA4003E30FFF7EEF910BD90F83D20602A05D0A4
:104CB4005A6812055CBF202280F83D20002222633E
:104CC40084F83E20BBE7A06B0365FFF7F4FE0028E1
:104CD400D6D022685369580604D5636A1269591CF0
:104CE40061621A702268A06B136823F001031360D9
:104CF400202384F83D30C1E794F83D10602914D195
:104D0400202184F83D1022645A69510604D5626A50
:104D14001B69511C616213702268136823F001033C
:104D240013602046FFF77DFFAAE75A69520604D5AF
:104D3400626A1B69511C616213702046FFF7CEF949
:104D44009EE700BF595500080000FFFF0368F0B557
:104D54009D6959695A6890F83E40E4B2102C8DB0B0
:104D640002D0402C40F0558211F0011F66D0970507
:104D740064D590F83E40402C43D1046D002C3BD1C7
:104D8400446C04F0FE041C61984E994C2E400C4077
:104D9400002E00F09F81974D0D40002D00F066819C
:104DA400550540F16381002C40F0608190F83D206E
:104DB400058D90F83E10C46AD2B2C9B2002D40F0FD
:104DC4000581212A40F00481042C00F06C81082C18
:104DD40000F0698114F5803F00F065815A6822F47F
:104DE400E0625A601123036380F83E50202380F868
:104DF4003D30FFF712FFF6E0446C44F00104E4B2E6
:104E0400C1E70469B4F5804F05D190F83D40212CE9
:104E1400446CF2D1B5E7046D34B9446CE41104F088
:104E2400060444F0F004AEE7046D012CACD1446CEC
:104E3400E41104F0060444F0F104A4E76E4C0C40C1
:104E44001CB1960501D5446CD9E76C4C0C40002C80
:104E54009AD0940598D590F83E40C66AD0F830E0D0
:104E640090F83D70222FE4B240F0A880076D47B956
:104E7400402C06D101975C6901949C690194019CC2
:104E840082E7046D8CB90769B7F5404F0DD10294E0
:104E94005C6902949C690294029C1C6844F48074CA
:104EA4001C60046D013404656EE7448DA4B254B9EA
:104EB40003945C6903949C690394039C1C6844F404
:104EC40000741C6019E0448DA4B2012C42D116F583
:104ED400803F1BD11C6824F480641C605C6814F45B
:104EE40000640CD01C6824F480641C6000240494C6
:104EF4005C6904949C690494049C0024D3E705949D
:104F04005C6905949C690594059CD7E7042E15D02B
:104F1400082E13D0BEF1120F10D0C46A022C1C68E4
:104F240014BF24F4806444F480641C600024069458
:104F34005C6906949C690694069CDEE71C6824F46C
:104F440080641C60002407945C6907949C6907943E
:104F5400079CB3E7448DA4B2022C1CD1C46A022C72
:104F64001C681DBF24F480641C601C6844F48064C5
:104F740018BF44F400641C605C68270542BF5C6889
:104F840044F480545C60002408945C6908949C692F
:104F94000894089CB1E71C6844F480641C605C6855
:104FA400260542BF5C6844F480545C600024099484
:104FB4005C6909949C690994099C9EE700240A94FD
:104FC4005C690A949C690A940A9CDDE6212A03D050
:104FD400402908D1222A06D1428D92B282B95A6858
:104FE40022F480625A600DB0F0BD00BF04001000CE
:104FF400040001008000010008000100020001001B
:1050040090F83E20402A27D1026D7AB9C26C012A59
:10501400826C05D1D2B21A61036D02330365E2E7F3
:10502400C2F307221A61036D0133F7E7026D012A07
:1050340002D1826CD2B2F5E7026D022AD3D190F884
:105044003D20222A04D11A6842F480721A60CAE709
:1050540090F83D20212AC6D1426A511C416212783F
:105064001A61438D013B9BB24385BCE7002CBAD047
:105074009405B8D5C16A90F83D20212AB3D1428D58
:1050840092B2002AE8D104290DD008290BD011F5D9
:10509400803F08D0596821F4E0615960112303630B
:1050A40080F83E20A2E65A6822F4E0625A601A6848
:1050B40042F400721A6000232022036380F83D202A
:1050C40090F83E2080F83E30402A7FF492AEFFF7FD
:1050D400A6FD88E7904D0D40002D41D051053FD5E8
:1050E400002C3DD190F83D20222A7FF47CAF428DE4
:1050F40092B2032A13D9426A1B69511C416213708C
:10510400438D013B9BB24385438D9BB2032B7FF4BC
:105114006AAF0268536823F48063536063E7012A2B
:105124003FF661AF1A6822F480621A605A6822F46A
:10513400E0625A60426A1B69511C41621370438DDC
:10514400013B9BB24385202380F83D30046390F8F3
:105154003E3080F83E40402B58D1FFF761FD42E7D6
:10516400002C3FF440AF97057FF53DAFC16A428DF7
:1051740092B2042A426A08D1596821F480615960C4
:10518400511C1B69416213706BE7448DA4B2032C5C
:1051940008D1596821F480615960196821F480614B
:1051A4001960EDE7448DA4B2022CE9D1013901293B
:1051B40019689DBF21F480611960196841F4007178
:1051C40098BF41F4807119601B69511C41621370CE
:1051D400438D013B9BB24385436A5A1C4262026879
:1051E40012691A70438D0268013B9BB24385536870
:1051F40023F440735360202380F83D30002303637D
:1052040090F83E2080F83E30402AA5E7FFF706FDDF
:10521400E9E6424C0C4074B196050CD599699B693A
:1052240081F004011D06C1F3800154BF8289028B01
:10523400FEF704FFD7E63A4C0C40002C74D09405DA
:1052440072D590F83D20596821F4E061596000213D
:105254000B9159690B91196841F0010119600B997F
:10526400196821F48061196059680905D2B20CD516
:1052740090F83D10222903D090F83D102A2929D115
:10528400816B0968496889B24185418D89B2E1B170
:1052940059694F0708D5416A1B694C1C44620B705D
:1052A400438D013B9BB2438501684B695E0608D57B
:1052B400436A09695C1C44621970438D013B9BB2CB
:1052C4004385036C43F004030364036C23B1FFF7C9
:1052D400A9FC88E6416BD4E7A2F1280102290AD887
:1052E400104AC2622022036380F83D2080F83E30D9
:1052F400FEF7C7FE77E6036B222B02D0222A7FF447
:1053040072AE00232022036380F83D2080F83E30F3
:10531400FEF7CEFE67E600BF400001000200010078
:10532400100001000000FFFF394E3A4C2E400C40A3
:10533400002E36D0384D0D403DB3550525D524BB40
:1053440090F83D10428D92B2C9B2002A3FF44BAEA0
:10535400426A541C446212781A61428D013A92B234
:105364004285428D92B2002A7FF43DAE29297FF412
:105374003AAE5A6822F480625A60212303632823D8
:1053840080F83D30FEF7A6FE2DE6002C3FF42BAE50
:1053940094057FF528AE428D92B2002A7FF45CAE6C
:1053A40021E61E4D0D4035B3510524D51CBB90F8A4
:1053B4003D20418D89B2D2B200293FF414AE416A36
:1053C4001B694C1C44620B70438D013B9BB24385AB
:1053D400438D9BB2002B7FF406AE2A2A7FF403AEE2
:1053E4000268536823F480635360222303632823F1
:1053F40080F83D308CE7002C3FF4F5AD92057FF545
:10540400F2AD428D92B2002A3FF4EDAD426AB7E6A6
:1054140004001000040001008000010040000100AD
:10542400F8B50368494A5E695D681642044608D0C7
:10543400E80506D5226C42F0010222646FF4807202
:105444005A6116F4813F08D0E90506D5226C42F072
:10545400020222646FF400725A6116F4823F36D05D
:10546400EA0534D594F83E70618D94F83D20206BA4
:10547400202F89B2D2B258D1002956D102F0F701B7
:10548400212903D0282A50D121284ED194F83D2037
:10549400E16A0429D2B201D008292CD1282A2AD1C0
:1054A4002B4AE2625A6822F4E0625A606FF4806226
:1054B4005A611A6822F480621A600023202223634E
:1054C400204684F83D2084F83E30FEF7DAFD16F4D9
:1054D400843F09D0EB0507D5236C43F0080323640C
:1054E40023686FF400625A61236C73B32046BDE8ED
:1054F400F840FFF797BB212A23D11549E1622263C3
:10550400202284F83D20002284F83E205A6822F4A8
:10551400E0625A606FF480625A611A6822F4806211
:105524001A602046FEF7D6FDD1E7226C42F0040251
:10553400226494F83E20102A02BF1A6842F40072D2
:105544001A606FF480625A61C1E7F8BD000101007E
:105554000000FFFF806B08B50368416B1A6822F4F2
:1055640080621A60002242850A65816B0A6590F8A0
:105574003D1060294FF0200180F83D1080F83E2056
:1055840007D102641A6822F001021A60FFF749FB8E
:1055940008BD1A6822F001021A60FEF79FFD08BDDB
:1055A4002DE9F341044618B9012002B0BDE8F081A9
:1055B4000368DD0710D42368980758D423681A07B2
:1055C40000F19A8023685B0700F1B880A269002A81
:1055D40040F019810020E8E7A64B9A6802F00C021B
:1055E400042A07D09A6802F00C02082A0AD15B68E0
:1055F400590207D59F4B1B689A03DCD56368002BBF
:10560400D9D1D1E763689B4DB3F5803F11D12B68A5
:1056140043F480332B60FEF795FF964D06462B68C6
:105624009B03C8D4FEF78EFF801B6428F7D90320A0
:10563400BBE7B3F5A02F04D12B6843F480232B6080
:10564400E5E72A6822F480322A602A6822F480225C
:105654002A60002BDFD1FEF775FF06462B689F03F7
:10566400A9D5FEF76FFF801B6428F7D9DFE7814BCC
:105674009A6812F00C0F07D09A6802F00C02082AFC
:1056840011D15B685E020ED47A4B1A68950702D575
:10569400E268012A88D11A68216922F0F80242EAF4
:1056A400C1021A608AE7E268734BB2B101221A6040
:1056B400FEF748FF6F4D06462B68980707D52B6801
:1056C400226923F0F80343EAC2032B6076E7FEF76E
:1056D40039FF801B0228EFD9A9E71A60FEF732FFD1
:1056E400644D06462B6899077FF568AFFEF72AFFDD
:1056F400801B0228F6D99AE76269604B7AB10122CD
:105704001A60FEF71FFF5B4D06466B6F9F073FF560
:1057140059AFFEF717FF801B0228F6D987E71A60F6
:10572400FEF710FF534D06466B6F98077FF54AAF9F
:10573400FEF708FF801B0228F6D978E74D4B1A6C58
:1057440012F0805228D101921A6C42F080521A64ED
:105754001B6C03F080530193019B0126484D2B6879
:10576400D9051BD5A368434D012B27D12B6F43F0DB
:1057740001032B67FEF7E6FE3E4D074641F28838EB
:105784002B6F9B0739D5002E3FF420AF394A136C99
:1057940023F08053136419E70026DFE72B6843F4F2
:1057A40080732B60FEF7CEFE07462B68DA05D9D44A
:1057B400FEF7C8FEC01B0228F7D938E7052B04D131
:1057C4002B6F43F004032B67D0E72A6F22F001020A
:1057D4002A672A6F22F004022A67002BCAD1FEF737
:1057E400B1FE41F2883807462B6F9807CBD5FEF7F8
:1057F400A9FEC01B4045F7D919E7FEF7A3FEC01B5D
:105804004045BDD913E71B4DAB6803F00C03082BCF
:105814003FF4CAAE1B4E0023022A336034D1FEF794
:1058240091FE07462B6899011ED4226AE36913434B
:10583400626A43EA8213E26A43EA0263A26A0D4C93
:105844005208013A43EA02436B6001233360FEF7D6
:1058540079FE054623689A013FF5BCAEFEF772FE59
:10586400401B0228F6D9E2E6FEF76CFEC01B0228B4
:10587400D8D9DCE60038024000004742800E474297
:105884000070004060004742FEF75CFE04462B684F
:105894009B017FF59FAEFEF755FE001B0228F6D94B
:1058A400C5E600BF134908B58B6803F00C03042B4D
:1058B40003D0082B03D0104808BD104808BD4A681F
:1058C4004B68496813F4800314BF0C480A48C1F3B9
:1058D400881118BF002302F03F02A1FB0001FAF770
:1058E400E5FC044B5B68C3F3014301335B00B0FB8D
:1058F400F3F008BD003802400024F40000127A00DE
:105904002DE9F0410D46044610B90120BDE8F081AF
:10591400444B1A6802F00F028A4228D321688F0789
:105924002DD4C80740D43F4B1A6802F00F029542A9
:1059340066D3226851076CD4130707D53A4A216904
:10594400936823F4604343EAC1039360FFF7AAFF1B
:10595400354B364A9B68C3F30313D35CD840344BAE
:1059640018600F20FEF7A4FD0020BDE8F081CAB244
:105974001A701B6803F00F039942C6D1CEE72A4B75
:1059840011F0040F1EBF9A6842F4E0529A600E07A9
:1059940042BF9A6842F460429A609A68A06822F012
:1059A400F00202439A60BCE762681F4B012A1DD1D2
:1059B4001B6813F4003FA8D01B4EB36823F0030305
:1059C4001343B360FEF7BEFD41F288380746B3685F
:1059D400626803F00C03B3EB820FA4D0FEF7B2FDB0
:1059E400C01B4045F3D90320BDE8F081911E012975
:1059F4001B6802D813F0007FDDE713F0020FDAE72B
:105A0400EAB21A701B6803F00F039D427FF47DAF66
:105A14008FE70549E0688B6823F4E05303438B6008
:105A24008AE700BF003C024000380240EC880008CE
:105A340028000020014B1868704700BF2800002090
:105A4400044B054A9B68C3F38223D35C034A106862
:105A5400D840704700380240FC8800082800002025
:105A6400044B054A9B68C3F34233D35C034A106872
:105A7400D840704700380240FC8800082800002005
:105A84000368DA68D20510B504460AD59B68D904C0
:105A940007D5FEF7F1F92268D368DBB263F4C0736B
:105AA400D3602368DA6892050BD59B689B0408D5FC
:105AB400204600F00FF82268D368DBB263F4207349
:105AC400D360034B4FF400325A610123637710BD56
