:020000040800F2
:100000000080012059240008A9240008A924000820
:10001000A9240008A9240008A92400080000000061
:10002000000000000000000000000000A9240008FB
:10003000A924000800000000A9240008B10200085B
:10004000A9240008A9240008A9240008A92400085C
:10005000A9240008A9240008B5190008911900086E
:100060006D1900084919000825190008A92400087D
:10007000A9240008A9240008A9240008A92400082C
:10008000A9240008A9240008A924000800000000F1
:10009000000000000000000000000000D51800086B
:1000A000A517000811020008A1170008A9240008DC
:1000B0000D0200080902000805020008550E00089C
:1000C0004D0E0008450E00083D0E0008A92400084A
:1000D000A9240008F10E0008DD0E00080000000051
:1000E0007D18000865020008A9240008000000002F
:1000F000000000000000000000000000A92400082B
:1001000000000000A924000801020008A92400083A
:1001100000000000000000000000000000000000DF
:10012000A9240008A9240008A9240008A92400087B
:10013000A9240008000000000000000000000000EA
:10014000000000000000000000000000A9240008DA
:10015000A9240008A9240008A9240008C90E000841
:10016000350E00082D0E0008000000000000000001
:10017000000000000000000000000000000000007F
:1001800000000000A924000800000000000000009A
:04019000A924000896
:1001940010B5054C237833B9044B13B10448AFF3BD
:1001A40000800123237010BD3C04002000000000E7
:1001B400342600080C4B43B10C480D4910B5AFF37D
:1001C40000800C48036823B910BD0A48036833B99A
:1001D4007047094B002BF7D0BDE810401847064B79
:1001E400002BF5D0184700BF00000000342600089B
:1001F400400400203C04002000000000704700BFC1
:10020400704700BF704700BF704700BF704700BF12
:100214001049114BD1F8882042F4700210B4C1F88F
:1002240088201A680D4C002042F001021A60986080
:100234001A6822F0847222F480321A605C601A68B0
:100244004FF0006422F480221A60D8608C605DF85C
:10025400044B704700ED00E00038024010300024E9
:10026400104A1368D968C80502D59968C90412D41C
:10027400D968880502D59968890406D40A494FF4D7
:1002840000300123486153777047D968C9B261F4DB
:100294002071D960F2E7D968C9B261F4C071D9603C
:1002A400E6E700BF58040020003C0140024A1368FE
:1002B40001331360704700BFF8040020FEE700BF5D
:1002C4000D490B6810B41844EFF30882904209D822
:1002D4000A4A0B4C121B904204D208605DF8044B8E
:1002E40018467047074B5DF8044B0C221A604FF018
:1002F400FF331846704700BF04000020008001202F
:100304000004000040070020F0B503689E695969A5
:100314005D6890F83E20D2B2102A8FB000F0A6801B
:10032400402A00F0A380974A0A4004461AB3AF0556
:1003340000F10F82944A3240002A00F00981934A66
:100344000A40002A40F07881914A0A40002A00F0CD
:10035400E480AD0540F1E180628D92B2002A00F0A4
:10036400DC80626A511C616212781A61638D013B00
:100374009BB26385D1E0874808400028DAD0AF05F6
:10038400D8D594F83D00596821F4E06159600D9284
:100394005A690D92196841F0010119600D9A1968A2
:1003A40021F4806119605968C2B208051F460ED550
:1003B40094F83D10222900F0A48294F83D102A29D3
:1003C40000F09F82616B0968496889B26185618D1B
:1003D40089B2E1B15969490709D5616A1B69481CA9
:1003E40060620B70638D2768013B9BB263857B69F8
:1003F4005B0608D5636A3969581C60621970638D9D
:10040400013B9BB26385236C43F004032364236C98
:10041400002B40F07C82A2F12801022940F21E82C6
:10042400236B222B01D0222A77D10023202223639D
:1004340084F83D2084F83E30E36D1F2B02DCE36D2D
:100444000133E36594F85830012B66D1E36D94F8D9
:100454003D20282A61D194F83C20012A5DD0234410
:1004640003F16801204601F0D7F956E011F0011FAD
:100474003DD0AA0500F15481474A0A40002A4ED0D3
:10048400414A3240002A3ED0404A0A40002A00F045
:1004940087806E0540F184803D4A0A40002A40F07E
:1004A400838090F83D20048D90F83E10C56AD2B246
:1004B400C9B2002C40F0D182212A00F0A283402945
:1004C4002BD1222A29D1428D92B2002A00F0B38383
:1004D40090F83E20402A00F02E84426A511C41626A
:1004E40012781A61438D013B9BB2438515E02A4A79
:1004F4000A40A2B1AF05C3D5426CD2B21A61224AF6
:100504003240002AC0D1254A0A40002A71D1204A2B
:100514000A4012B1AA0500F17B810FB0F0BD194A5F
:100524000A40002AACD0AC05AAD590F83E20C76A90
:10053400D0F830E090F83D40222CD2B200F0C381D4
:10054400002201925A6901929A690192019A97E7ED
:10055400124A0A40002A40F09C800D4A0A40002AB0
:10056400DBD0AA05D9D5628D92B2002AD5D0626AB1
:100574001B69511C61621370638D013B9BB26385DF
:10058400CBE700BF0200010004001000800001005E
:1005940004000100100001000800010040000100F7
:1005A400AD4A0A40002AB8D0AD05B6D5C16A90F864
:1005B4003D20212AB1D1428D92B2002A8DD1042945
:1005C40005D0082903D011F5803F40F00E835A6806
:1005D40022F4E0625A601A68002142F40072202476
:1005E4001A60016380F83D4090F83E3080F83E1078
:1005F40093E76C058BD5984A0A40002A8AD190F873
:100604003D10222989D1418D89B2032940F2BF824C
:10061400426A1B69511C41621370438D013B9BB2BA
:100624004385438D9BB2032B7FF477AF02685368F5
:1006340023F48063536070E76E057FF585AE864AC8
:100644000A40002A7FF485AE94F83D10628D92B280
:10065400C9B2002A3FF461AF626A501C606212782A
:100664001A61628D013A92B26285628D92B2002A59
:100674007FF453AF29297FF450AF5968212521F421
:10068400806128205960256384F83D0084F888201F
:1006940043E768057FF561AF6F4A0A40002A7FF49B
:1006A40060AF94F83D10628D92B2C9B2002A3FF453
:1006B40034AF626A1B69501C60621370638D013B26
:1006C4009BB26385638D9BB2002B7FF426AF2A29EE
:1006D4007FF423AF22685368222023F48063282107
:1006E4005360206384F83D10E36D1F2B02DCE36D3F
:1006F4000133E36594F85830012B7FF40EAFE16DBC
:1007040094F83D30282B7FF408AF94F83C30012B4B
:100714003FF403AF21446831204601F07DF8FCE644
:1007240090F83E20402A00F08D800269B2F5804F97
:1007340062D0026D002A00F0BE80026D012A7FF4AF
:100744009FAE426CD21102F0060242F0F1021A612D
:1007540096E69A6999690D0653BFC168208BE168D2
:1007640088B2884202F004027FF4D7AE002A00F077
:100774007881636E002284F8582003B1984794F876
:10078400883094F83D20282ADBB27FF4C6AE9BB2B1
:10079400002B3FF4C2AE94F83C20012A3FF4BDAED6
:1007A4000121226884F83C101168C80703D4116839
:1007B40041F0010111601068002120F40060292734
:1007C40020260825106084F83D7084F83E6021647A
:1007D4006385E562608D0B9153690B9393690B9369
:1007E40084F83C100B9B5368208543F4E06304F1C8
:1007F40068016162536090E690F83D20212A426CC2
:1008040016BF42F0010202F0FE02D2B21A6137E6CC
:10081400C16A428D92B2042A00F0DD80428D92B208
:10082400032A00F01081428D92B2022A00F0E18086
:10083400426A1B69511C41621370438D013B9BB298
:1008440043856AE6026D002A40F0BF80426C02F0E4
:10085400FE021A6114E600BF04000100A249226EE0
:10086400E1622021236384F83D1084F83E3022B1F4
:1008740094F85830012B00F02E810023022284F8D2
:100884005820E36594F83D30202B7FF446AE2822AF
:10089400236884F83D201A68D70703D41A6842F005
:1008A40001021A601A6842F480621A605A6842F4BB
:1008B40040725A6031E6426CD21102F0060242F0F4
:1008C400F0021A61DCE5046D14B9402A00F00282DA
:1008D400046D24B90269B2F5404F00F00382428DE1
:1008E40092B2002A40F0048108925A6908929A69E7
:1008F4000892089A1A6842F400721A60002202658B
:10090400BEE5A16B0968496889B261855FE594F821
:100914003D30293B012B40F2338194F83D30602B6C
:10092400236805D05A6816055CBF202284F83D2050
:100934000022226384F83E201A6822F400621A60BE
:100944005A6812F4006200F0F0805A68606B22F476
:1009540000625A6090F83520012A00F0838190F8F3
:10096400352062490165022A00F036818022426501
:100974001A68202122F001021A6084F83D1000F068
:10098400D3FC94F83D30282B7FF4C7AD236C5B0770
:100994007FF5C3AD544A236EE26220210022226314
:1009A40084F83D1084F83E20002B3FF466AF94F8A1
:1009B4005820012A7FF461AFE26D002A3FF45DAF55
:1009C400E16D04F16800984757E7426C42F0010278
:1009D400D2B21A6154E55A68416A22F480625A60BC
:1009E4001B694A1C42620B70438D013B9BB24385D9
:1009F40093E5013901291A6840F2E68042F4007255
:100A04001A60426A1B69511C41621370438D426A29
:100A14000168013B9BB243850B69511C4162137011
:100A2400438D0168013B9BB243854B68002223F44C
:100A3400407320244B6080F83D40026390F83E30C0
:100A440080F83E2069E55A68416A22F480625A605F
:100A54001A6822F480621A60C2E7212A7FF42FAD5B
:100A640031E50121E26584F85810E26D94F83D0007
:100A740028287FF452AD94F83C0088423FF44DADF1
:100A840084F83C101968C90703D4196841F00101BE
:100A94001960186820F40060186000210125022004
:100AA4002A27202684F83D7084F83E6021646585F9
:100AB400E062608D0C915D690C959D690C9584F8DC
:100AC4003C100C99596820852244683241F4E06155
:100AD4006262596021E5E36D002B3FF4CEAEE16D17
:100AE40004F168009047C8E60000FFFF2D130008DA
:100AF400428D92B2012A00F0D280428D92B2022A33
:100B040000F0FF801A6842F480621A605A68170580
:100B140003D55A6842F480525A60002202925A69FC
:100B240002929A690292029AE8E694F83D106029CA
:100B340000F086805A69510604D5626A1B69511C0B
:100B44006162137094F85930002B7FF41AAF94F853
:100B54003D30202B7FF415AF2822236884F83D20F4
:100B64001A68D20703D41A6842F001021A601A689C
:100B740042F480621A605A6842F440725A6000E794
:100B8400002328222363236884F83D20D4E6012926
:100B94003FF6C3AC1968446A21F48061196059684E
:100BA40021F4E06159601B69611C41622370438D2B
:100BB400013B9BB22021438580F83D10026390F8ED
:100BC4003E3080F83E20A8E422F480621A601A685D
:100BD40042F480721A6014E70523026880F8353005
:100BE400136823F001031360CBE65968112521F43F
:100BF400E06120245960056380F83E2080F83D4080
:100C04008BE4042D05D0082D03D015F5803F40F06A
:100C1400C5805A6822F4E0625A601968002241F4DF
:100C2400007120241960026380F83D4090F83E3042
:100C340080F83E2071E45A6822F480625A606CE4C1
:100C4400202184F83D1022645A69500605D5626A51
:100C54001B69511C6162137023681A6822F0010237
:100C64001A608EE6A06B6F4990F835200165022A60
:100C7400B2D0802242655A69550606D5626A1B695C
:100C8400511C616213702368A06B1A68202122F042
:100C940001021A6084F83D10036D984771E617F558
:100CA400803F67D0042F55D0082F53D0BEF1120FC8
:100CB40050D0C26A022A1A6814BF22F4806242F435
:100CC40080621A60002205925A6905929A69059217
:100CD400059A13E60A945A690A929A690A920A9A38
:100CE400FFF7CEBB09945A6909929A690992099A45
:100CF4001A6842F480721A60026D01320265FFF7CD
:100D0400BFBBC26A022A1A6867D022F480621A60E2
:100D14001A6842F400621A605A68120503D55A68C8
:100D240042F480525A60002203925A6903929A69EB
:100D34000392039AE2E5026D002A3CD1C26C012AB7
:100D4400826C59D0C2F307221A61036D0133036523
:100D5400FFF7E3BB1A68002422F480621A6004944B
:100D64005A6904929A690492049A1A6842F40072C5
:100D74001A60C3E51A6822F480621A605A6812F491
:100D840000622ED01A68002422F480621A6007944C
:100D94005A6907929A690792079AAFE55A6811252A
:100DA40022F4E06220215A60056380F83E4080F816
:100DB4003D10FFF7B2BB026D012A24D0026D022A56
:100DC4007FF4ABAB90F83D20222A24D090F83D204C
:100DD400212A7FF4A2ABFFF780BB42F480621A6041
:100DE4009AE706925A6906929A690692069A1A68CE
:100DF40042F400721A6081E5D2B21A61036D0233C3
:100E04000365FFF78ABB826CD2B21A61036D0133AA
:100E14000365FFF782BB1A6842F480721A60FFF719
:100E24007CBB00BF2D13000800231B68FFDE00BF3E
:100E34000020FFF769BA00BF00231B68FFDE00BF74
:100E44000020FFF761BA00BF00231B68FFDE00BF6C
:100E54000020FFF759BA00BF184B70B4DC68C4F324
:100E64000224C4F10706042E04F1040328BF042657
:100E7400062B17D9033C0125A540013D2A40012337
:100E8400B340013B1940A140002841EA02010CDBB8
:100E940000F1604000F561400901C9B280F8001317
:100EA40070BC704700221446E9E7054B00F00F00C0
:100EB40009010344C9B2197670BC704700ED00E023
:100EC400FCEC00E0034A80210023C2F888111B686F
:100ED400FFDE00BF00E100E0034A40210023C2F826
:100EE40084111B68FFDE00BF00E100E0034A2021FB
:100EF4000023C2F884111B68FFDE00BF00E100E09C
:100F040008B5064B4BB1064AB2F8F430B2F8F620F5
:100F14009B1A9B0601D0AFF3008008BD00000000BF
:100F24003C0600202DE9F0471F469BB30446884643
:100F34001646DFF86890DFF868A0002515E0B4F8DD
:100F4400F430B4F8F6209BB293421AD0D4F8F010DF
:100F5400531C03F03F03885CA4F8F630804516D098
:100F64000135AF4206F8010B11D0D9F80010E16049
:100F74002368DB685345E2D0204698470028EDDA21
:100F8400E168D9F80030A2685B1A9342F0D328468E
:100F9400BDE8F0871D462846BDE8F087F804002028
:100FA400A91200082DE9F843174682B304460E46F9
:100FB400DFF86080DFF86090002513E0B4F8F430C7
:100FC400B4F8F6209BB2934218D0D4F8F010531C16
:100FD40003F03F03885CA4F8F6300135AF4206F80D
:100FE400010B11D0D8F80010E1602368DB684B4591
:100FF400E4D0204698470028EFDAE168D8F80030BA
:10100400A2685B1A9342F0D32846BDE8F8831546DC
:10101400FAE700BFF8040020A91200082DE9F84FF0
:101024001746002A00F08F80DFF82C81DFF82CA10E
:10103400DFF82CB1DFF82C9104460E460025236816
:1010440016F8011B1B6843456CD1B4F8FC0001235E
:10105400C21802F03F022374B4F8FE309BB29A42E5
:10106400FAD0D4F8F830195494F8D810A4F8FC2025
:101074005AF8212092F8393092F83A00034303F0E9
:101084002103212B05D10135AF42D8D12846BDE833
:10109400F88F2E4B4BF82190D86894F9EE300BEB77
:1010A4008101C0F3022004F1940EC1F828E0011D6F
:1010B40006293ED9033801218140013901F002019A
:1010C400002B4FEA011138DB214800EB030C03F03D
:1010D4001F0E8CF800135B09012101FA0EF140F890
:1010E4002310B4F8FE3092F8391020299BB2CAD1EB
:1010F400D4F8F8100B44002BC5D092F8381001290D
:10110400C1D000210120D08482F83810D16321217C
:1011140082F8391011681362CB68908443F080031D
:10112400CB60B0E7204698470028ACD12846BDE8FC
:10113400F88F002B4FF00001C6DA064803F00F03C6
:1011440018440176CDE71546A0E700BF00ED00E0A6
:1011540000E100E0FCEC00E0911100084C260008DE
:10116400780400206D110008B0F86A30B0F86820E7
:10117400013303F03F03A0F86A30B0F86A309BB241
:101184009A424FF0FF3018BF00207047F0B4B0F817
:10119400FC400123E218037402F03F02B0F8FE3071
:1011A4009BB29A42FAD0D0F8F850324B295590F8B5
:1011B400D810A0F8FC2053F8212092F8393092F886
:1011C4003A40234303F02103212B02D10120F0BC38
:1011D4007047294B294DDC68294E2A4B45F821607C
:1011E400C4F30224251D00F19406062D43F8216062
:1011F40090F9EE302ED8002B4FF0000134DB224D55
:1012040003F01F07EE1801245B09BC4086F80013A5
:1012140045F82340B0F8FE3092F8391020299BB2EB
:10122400D4D1D0F8F810CB18D0D092F838100129C6
:10123400CCD0002101241068D4842125D16382F804
:10124400381082F83950C168136241F080019484E7
:10125400C160BBE7033C0121A140013901F0020157
:10126400002B4FEA0111CADA084C03F00F031C44A7
:101274002176CFE74C26000800ED00E0780400203A
:101284006D110008A004002000E100E0FCEC00E087
:10129400037C33B1B0F8FC20B0F8FE309BB29A4224
:1012A400FAD17047B0F8F420B0F8F61092B28A423E
:1012B400034608D0D0F8F0004A1C02F03F02405C1C
:1012C400A3F8F62070474FF0FF307047B0F8F430C1
:1012D400B0F8F6209BB293421ABFD0F8F030985C75
:1012E4004FF0FF30704700BFB0F8F430B0F8F600AC
:1012F400181A00F03F007047826B00211368D185F3
:10130400D1841A68D20782B008D41A68900705D429
:101314001A68510702D41A68120701D55B68019351
:10132400019B02B0704700BF836B1A6830B4106829
:101334005D6B9C6B002120F48060106059852965E9
:10134400216593F83D0060284FF0200083F83D00AC
:1013540083F83E101FD0116821F00101116093F849
:10136400591009B130BC704793F83D108142F9D14E
:10137400282183F83D101368DB0703D4136843F076
:1013840001031360136843F480631360536843F4E8
:1013940040735360E6E71964136823F00103136094
:1013A40030BC70472DE9F04F034691B007330493E6
:1013B400DFF81093BB4FDFF810B3059000230D4600
:1013C40000F1040A019300231AF8014B8DF83C3014
:1013D4000FAEA7FB0423DB0803EB8302A4EB420458
:1013E400E4B204F1300204F13701092C94BF14462D
:1013F4000C4606F8014D1C46002BEAD12A680392DC
:1014040053680293304600F0F9FAA74A029B9342CC
:10141400804640F04081039A38B3136816F8011BE4
:101424004B4540F0C980B5F8FC000123C21802F016
:101434003F022B74B5F8FE309BB29A42FAD0D5F82D
:10144400F830195495F8D810A5F8FC205BF8212041
:1014540092F8393092F83A00034303F02103212B28
:101464005AD10134A0452A68D7D113684B4540F0BE
:10147400AD80B5F8FC100123CA1802F03F022B74AA
:10148400B5F8FE309BB29A42FAD0D5F8F8302E2047
:10149400585495F8D810A5F8FC205BF8212092F850
:1014A400393092F83A00034303F02103212B40F032
:1014B4009B800120019B044423440193049B9A458F
:1014C40081D1059B774EDB7900220FAC8DF83C204F
:1014D400A6FB0312D20802EB8201A3EB4103DBB2A9
:1014E40003F1300103F13700092B94BF0B46034687
:1014F40004F8013D1346002AEAD1204600F07EFAA2
:101504002B68024621465B6828469847019B0344A2
:10151400184611B0BDE8F08F6448654BD0F80CE074
:10152400644843F82100CEF30220634B00F1040E1B
:1015340005F1940CBEF1060F43F821C095F9EE3085
:1015440048D9033801218140013901F00201002BFF
:101554004FEA011142DB594800EB030C03F01F0E64
:101564008CF800135B09012101FA0EF140F82310F5
:10157400B5F8FE3092F8391020299BB27FF471AF90
:10158400D5F8F8100B44002B3FF46BAF92F83810E9
:1015940001293FF466AF00210120D08482F838107D
:1015A400D163212182F8391011681362CB689084C9
:1015B40043F08003CB6054E72846984700287FF423
:1015C40050AF2A6813684B453FF453AF2E21284689
:1015D40098476FE7002B4FF00001BCDA384803F05E
:1015E4000F0318440176C3E73048314EC068314BCD
:1015F40046F82130C0F30220DFF8BCC095F9EE3084
:10160400061D05F1940E062E4CF821E033D8002B6C
:101614004FF0000139DB294800EB030E03F01F06ED
:101624008EF800135B09012101FA06F640F82360E5
:10163400B5F8FE3092F8391020299BB27FF439AF07
:10164400D5F8F810CB183FF434AF92F838100129CC
:101654003FF42FAF00210120D08482F83810D163E9
:10166400212182F8391011681362CB68908443F009
:101674008003CB601EE7033801218140013901F06A
:101684000201002B4FEA0111C5DA0D4803F00F03E4
:1016940018440176CCE702463146284698472A6822
:1016A40004468FE7CDCCCCCC2110000800ED00E03F
:1016B400780400206D110008A004002000E100E07F
:1016C400FCEC00E0911100084C2600088368B3F597
:1016D400805F23D00369D3B10368826A5B68511CBD
:1016E40003F07F0381621370C38D013B9BB2C385FA
:1016F4005BB90368DA6822F49072DA605A692021CF
:1017040022F001025A6180F83A1000207047836A7F
:101714000268591C526881621A70E5E70269836A9B
:101724003AB902685268C2F3080223F8022B8362B2
:10173400DAE702685268D2B223F8012B8362D3E756
:10174400036E10B504461BB190F85820012A09D045
:101754000023022284F85820E36594F83D30202BBE
:1017640007D010BDC26D002AF2D0C16D6830984711
:10177400EEE72822236884F83D201A68D20703D4B0
:101784001A6842F001021A601A6842F480621A6010
:101794005A6842F440725A6010BD00BF704700BFDF
:1017A400704700BF074938B5A1F5A075A1F114042D
:1017B400E36810390322084603B19847AC42214636
:1017C400F4D138BD3C0600200F4B104A1B68A2FB25
:1017D40003239B09013BB3F1807F12D210B50C485F
:1017E4000C4A436000240723F02182F8231084600C
:1017F400224603600F214FF0FF30FFF72DFB2046F8
:1018040010BD0120704700BF08000020D34D6210B6
:1018140010E000E000ED00E00346F0B401201A6897
:1018240083F83C001068C00782B003D4106840F00D
:1018340001001060146824F40064146000202A2756
:1018440020260125022483F83D7083F83E60186445
:101854005D85DC625D8D0190546901949469019405
:1018640083F83C00019C5468596244F4E0641D858B
:10187400546002B0F0BC7047F8B5134E134F062500
:101884004FF4806403E0013D4FEA44041BD07369C4
:101894002342F8D07461A1B200234A100133012A13
:1018A400DBB291B2F9D1142000FB037004308268DA
:1018B400002AE8D003EB830307EB830364001B696E
:1018C4009847013DE3D1F8BD003C0140FC040020F1
:1018D400F8B5114E114F052520247369234204D114
:1018E400013D4FEA4404F8D1F8BD7461A1B200236C
:1018F4004A100133012ADBB291B2F9D1142000FB62
:10190400037004308268002AEAD003EB830307EBF8
:1019140083031B699847E3E7003C0140FC04002073
:10192400064B5A69D20600D470470548C26D10218F
:101934005961002AF8D0036E54301847003C014026
:10194400FC040020064B5A69120700D4704705486E
:10195400826C08215961002AF8D0C36C40301847C2
:10196400003C0140FC040020064B5A69520700D495
:1019740070470548426B04215961002AF8D0836BF3
:101984002C301847003C0140FC04002006494B69F8
:101994009B0700D470470548036A02224A61002B62
:1019A400F8D0436A18301847003C0140FC0400207A
:1019B400064B5A69D20700D470470548C268012112
:1019C4005961002AF8D0036904301847003C0140EB
:1019D400FC040020000000000000000000000000E3
:1019E40000000000000000000000000000000000F3
:1019F40000000000000000000000000090F800F06B
:101A04006DE9024520F007016FF0000C10F00704A7
:101A140091F820F040F049804FF000046FF0070087
:101A2400D1E9002391F840F000F1080082FA4CF269
:101A3400A4FA8CF283FA4CF3A2FA8CF34BBBD1E9EF
:101A4400022382FA4CF200F10800A4FA8CF283FA21
:101A54004CF3A2FA8CF3E3B9D1E9042382FA4CF2F1
:101A640000F10800A4FA8CF283FA4CF3A2FA8CF386
:101A74007BB9D1E9062301F1200182FA4CF200F18D
:101A84000800A4FA8CF283FA4CF3A2FA8CF3002B2C
:101A9400C6D0002A04BF04301A4612BAB2FA82F23F
:101AA400FDE8024500EBD2007047D1E9002304F0C1
:101AB4000305C4F100004FEAC50514F0040F91F8C2
:101AC40040F00CFA05F562EA05021CBF63EA05035F
:101AD40062464FF00004A9E753B94AB9002908BF88
:101AE40000281CBF4FF0FF314FF0FF3000F07AB9EF
:101AF400ADF1080C6DE904CE00F006F8DDF804E061
:101B0400DDE9022304B070472DE9F0478C460D4609
:101B14000446089E002B51D18A4217466DD9B2FA69
:101B240082FEBEF1000F0BD0CEF1200C01FA0EF5AF
:101B340020FA0CFC02FA0EF74CEA050C00FA0EF43B
:101B44004FEA174A250CBCFBFAF81FFA87F90AFB7F
:101B540018CC45EA0C4508FB09F3AB420AD9ED1948
:101B640008F1FF3280F02381AB4240F22081A8F1DA
:101B740002083D44ED1AA4B2B5FBFAF00AFB105575
:101B840044EA054400FB09F9A14509D9E41900F127
:101B9400FF3380F00A81A14540F2078102383C44BA
:101BA400A4EB090440EA08400021002E61D024FA85
:101BB4000EF4002334607360BDE8F0878B4207D9CC
:101BC400002E54D0002186E821000846BDE8F087A5
:101BD400B3FA83F1002940F08E80AB4202D38242F3
:101BE40000F2FA80841A65EB03050120AC46002E4E
:101BF4003FD086E81010BDE8F08712B90127B7FB83
:101C0400F2F7B7FA87FEBEF1000F34D1EB1B3A0CA2
:101C14001FFA87FC0121B3FBF2F8250C02FB1833F1
:101C240045EA03450CFB08F3AB4207D9ED1908F16B
:101C3400FF3002D2AB4200F2D1808046ED1AA3B24B
:101C4400B5FBF2F002FB105543EA05440CFB00FC23
:101C5400A44507D9E41900F1FF3302D2A44500F2E8
:101C6400B8801846A4EB0C0440EA08409DE73146CE
:101C74003046BDE8F087CEF1200405FA0EF307FAEA
:101C84000EF720FA04F83A0C25FA04F448EA03089B
:101C9400B4FBF2F14FEA184502FB11441FFA87FC2A
:101CA40045EA044501FB0CF3AB4200FA0EF409D9F2
:101CB400ED1901F1FF3080F08A80AB4240F2878059
:101CC40002393D44EB1A1FFA88F5B3FBF2F002FB2C
:101CD400103345EA034500FB0CF3AB4207D9ED1979
:101CE40000F1FF386FD2AB426DD902383D44EB1A94
:101CF40040EA01418FE7C1F1200722FA07F88B403F
:101D040005FA01F448EA030320FA07FE4FEA134CEC
:101D1400FD404EEA040EB5FBFCF94FEA1E440CFBF1
:101D240019551FFA83F844EA054509FB08F4AC4247
:101D340002FA01F200FA01FA08D9ED1809F1FF30AC
:101D440043D2AC4241D9A9F102091D442D1B1FFA0B
:101D54008EFEB5FBFCF00CFB10554EEA054400FB6F
:101D640008F8A04507D9E41800F1FF3529D2A045A9
:101D740027D902381C4440EA0940A4EB0804A0FB1C
:101D840002894C45C6464D4615D312D056B1BAEB1E
:101D94000E0364EB050404FA07F7CB401F43CC4061
:101DA400376074600021BDE8F0871846F8E6904675
:101DB400E0E6C245EAD2B8EB020E69EB030501384E
:101DC400E4E72846D7E7404691E78146BEE7014667
:101DD40078E702383C4445E7084608E7A8F10208DA
:101DE4003D442BE7704700BF96499748CA68974B14
:101DF40010B54FF6FF0422400243CA601A6842F449
:101E040000721A601A6842F480621A601A6842F416
:101E140080721A60CB682340034382B0CB60FFF723
:101E2400D3FC8B4B8B49002001901A6C42F08052FA
:101E34001A641A6C02F080520192019A00900A68A6
:101E440022F4404242F400420A600A6802F440422A
:101E54000092009A9A6812F00C0F22D09A6802F04D
:101E64000C02082A1AD07C4B7C4A7949012018605C
:101E7400106803E013681B1A022B0ED80B689C072A
:101E8400F8D50B6823F0F80343F080030B60704B24
:101E9400996801F00C01082912D1FEE75B685B0226
:101EA400E1D46B496D4A0B680B6823F0F80343F0E7
:101EB40080030B60664B996801F00C010829ECD093
:101EC400674900200860106803E01168091A0229B4
:101ED400E3D819688901F8D461496248586001233C
:101EE4000B6010685A490B689C0104D413681B1AD0
:101EF400022BF8D9D1E7554B196801F00F010129DC
:101F040040F28180524B996841F4E051996099689C
:101F140041F460419960996821F0F0019960196871
:101F2400890140F18E80996821F0030141F002019A
:101F34009960146841F2883003E01168091B8142FA
:101F440069D8996801F00C010829F6D13F4B1A6849
:101F540002F00F02022A6CD83D498B6823F4E05347
:101F640043F480538B608B6823F460438B608B68ED
:101F740003F00C03042B5AD0082B56D14A684B6843
:101F840013F4800302F03F0246D04B683648C3F393
:101F94008813A3FB00010023FFF79EFD2C4B5B6815
:101FA400C3F3014301335B00B0FBF3F328492F4A29
:101FB40089682F4CC1F303110A4492F82820D340B6
:101FC4002360FFF701FC23682A4AA2FB03239B0931
:101FD400013BB3F1807F09D2274A1A485360F024A9
:101FE4000021072380F823409160136022490B6885
:101FF400002243F004030B604FF0FF301146FEF75C
:102004002BFF02B010BD022119701B6803F00F03EF
:102014008B423FF477AFFEE749681848C1F3881153
:10202400A1FB0001FFF758FDB8E7144BBEE70E4BC8
:10203400BCE702221A701B6803F00F039342EAD133
:102044008AE7E8E700ED00E00003FA05003C0240FF
:10205400003802400070004000004742F8040020AD
:10206400600047421054010700127A004C26000811
:1020740008000020D34D621010E000E00024F400BA
:1020840080B5A74C21688F0690B068D4A54BA64DA7
:10209400002201921A6B42F001021A631B6B03F0D7
:1020A40001030193019BA868202696FAA6F2B2FACE
:1020B40082F296FAA6F30321B3FA83F3520001FAEB
:1020C40002F25B0020EA020201FA03F31343AB605D
:1020D4002A6896FAA6F3B3FA83F396FAA6F0B0FA4E
:1020E40080F05B0001FA03F30127400022EA0303B6
:1020F40007FA00F003432B606B6823F020036B6046
:10210400EA6896FAA6F3B3FA83F3BB40994022EA4D
:10211400010196FAA6F3A369844FDFF83482E960DB
:102124003343A361B7F8F6004FF40011AE61226B9C
:10213400236B9B1AB3F57A7FFAD3A961226B236BC5
:102144009B1AB3F57A7FFAD3B8F1000FEED0B7F843
:10215400F4301B1A9B06E9D0AFF30080E2E7744821
:10216400034693F90C20561C03F10C0324D0052AD2
:10217400F7D16F4B13F90C2F551C1DD0052AF9D13B
:102184005B68CBB16A4A12F90C5F6F1C18D0052D3D
:10219400F9D19268C2F3C432023A022A10D800EB91
:1021A4008202D2F8682162B1042A0AD0082A08D02F
:1021B4000C2A06D0182A04D021F02001216065E7FA
:1021C40000225B4911F90C0F451C05D00528F9D1F3
:1021D4008968CE0240F18680196A042000FA02F26E
:1021E40021EA02021A621A6A1A62196A41F2111287
:1021F400114208D1196A40F24442114203D15A6C87
:1022040022F400425A64196A41F21112114208D1AF
:10221400196A40F24442114203D11A6822F00102C1
:102224001A6002228DF83D20196A41F211121142FE
:1022340008D1196A40F24442114203D11A6822F0CB
:1022440001021A603B4A934246D0B3F1804F3DD01D
:10225400394A934234D0394A93422BD0384A934274
:1022640021D0384A934217D0374A93420DD0374A87
:10227400934205D102F57042536C23F480235364D6
:10228400002321688DF83D3096E702F57442536CC3
:1022940023F400335364F3E702F57842536C23F4D8
:1022A40080335364ECE702F50B32136C23F008031C
:1022B4001364E5E71B490A6C22F004020A64D6E7BA
:1022C40018490A6C22F002020A64CDE715490A6C27
:1022D40022F001020A64C4E712494A6C22F00102A6
:1022E4004A64BEE7196A134D012000FA02F221EA9A
:1022F40002021A621A6A1A62AB422BD0196A41F2BC
:102304001112114208D1196A40F24442114203D118
:102314001A6822F001021A6001228DF83D2080E73C
:10232400C804002000380240000002403C0600209F
:10233400842600080000014000040040000800401A
:10234400000C0040004001400044014000480140AE
:1023540000000000196A41F211121142CED1196A2B
:1023640040F244421142C9D15A6C22F400425A64E8
:10237400C4E700BFF8B5334C334A34490025062777
:10238400072008260923277020750A2784F8286067
:1023940084F83C3017262823284684F8C83084F86B
:1023A400DC3084F8F03084F8043184F8183184F88F
:1023B400507084F8646084F8786084F88C6084F8E1
:1023C400A06084F8B460E56025626563A564E56592
:1023D4002567C4F88450C4F89850C4F8AC50C4F8C5
:1023E400C050C4F8D450C4F8E850C4F8FC50C4F841
:1023F4001051C4F82451C4F8385184F82C3100F039
:1024040053F8032002214FF47A77114E84F82D02F9
:1024140004F2511204F2911384F82C12A4F83452E9
:10242400C4F84451A4F83652A4F83C52A4F83E52DD
:10243400C4F84871C4F84061C4F83022C4F8383292
:10244400F8BD00BFFC04002000000020A91700080C
:1024540000280008DFF834D0002103E00C4B5B585F
:10246400435004310B480C4B42189A42F6D30B4AA2
:1024740002E0002342F8043B094B9A42F9D3FDF7EA
:10248400C7FE00F01DF8FFF7FBFD70470080012038
:1024940080280008000000203C0400203C040020A8
:1024A40068070020FEE700000B460146184600F0CE
:1024B40001B800BF13460A460146022000F028B8BE
:1024C40070B50F4E0F4D761BB61018BF002405D003
:1024D400013455F8043B9847A642F9D10A4E0B4DF6
:1024E400761B00F0A5F8B61018BF002406D00134FE
:1024F40055F8043B9847A642F9D170BD70BD00BFA2
:102504006C2800086C2800087C2800086C28000847
:102514002DE9F8432C4D0646286898460F46914607
:1025240000F082F8294B1C68D4F84831002B3ED0C7
:102534005A681F2A1CDC02F1010E76B103EB8201FA
:102544000124C1F88890D3F8880194402043022ED6
:10255400C3F88801C1F8088123D00232C3F804E02B
:10256400286843F8227000F061F80020BDE8F88381
:10257400174B0BB34FF4C870AFF300800346D8B1C8
:10258400D4F848210260002141600A46C4F8480199
:102594004FF0010EC0F88811C0F88C11002EDCD069
:1025A400CCE7D3F88C110C43C3F88C41D5E704F580
:1025B400A673C4F84831BBE7286800F037F84FF039
:1025C400FF30BDE8F88300BF38040020602800080D
:1025D40000000000024B13B1024800F005B8704738
:1025E40000000000F9250008002301461A46184699
:1025F400FFF78EBF38B50A4C0A4D641BA4100AD0ED
:1026040004F18043013B05EB8305013C55F8043993
:102614009847002CF9D1BDE8384000F00FB800BF4E
:10262400802800087C280008704700BF704700BF5E
:10263400F8B500BFF8BC08BC9E467047F8B500BFAB
:08264400F8BC08BC9E4670477B
:10264C00000000000000000000000000000000007E
:10265C00000000000000000000000000000000006E
:10266C00000000000000000000000000000000005E
:10267C00010203040607080900000000000C0040DA
:10268C001282000001000000000C00401202010048
:10269C0002000000000C0040128201000300000048
:1026AC00000C004012020200050000000000004077
:1026BC00128100000600000000040040128200009D
:1026CC000700000000040040120201000800000096
:1026DC0000000140128100000900000000000140D0
:1026EC00120101000A0000000000014012810100EB
:1026FC000B00000000000140120102000F0000005E
:10270C000000004012810000100000000004004096
:10271C0012820100110000000004004012020200AD
:10272C001300000000000040120101001400000022
:10273C00000400401282000015000000000400405C
:10274C001202010016000000000800401282000076
:10275C0017000000000800401202010018000000E1
:10276C00000800401282010019000000000800401F
:10277C00120202001A000000000000401281010049
:10278C001D00000000000140128110001E0000001E
:10279C0000000140120111001F0000000000014068
:1027AC00128111002600000000040040128200007B
:1027BC002700000000040040120201002800000065
:1027CC0000040040128201002900000000040040B7
:1027DC0012020200FF0000000000000000000000D8
:1027EC0004000000080000000C00000000000000C5
:1027FC00000000009111000821100008ED120008E3
:10280C00A9120008D112000895120008A90F00089F
:10281C00290F00080100000003020A1315141A08FE
:10282C0009271607060519182A2CFF0D0E0F172D50
:10283C002E2F505122232B32292826250C0B1C1B02
:10284C0012111F1E1D240001041021200706222333
:08285C002511240010000020EA
:08286400A8F2FF7F0100000053
:10286C00D9250008ED1D0008B901000879230008DE
:04287C0095010008BA
:1028800000000000680700200024F40000000000A1
:1028900000000000FC02002064030020CC030020A4
:1028A0000000000000000000000000000000000028
:1028B0000000000000000000000000000000000018
:1028C0000000000000000000000000000000000008
:1028D00000000000000000000000000000000000F8
:1028E00000000000000000000000000000000000E8
:1028F00000000000000000000000000000000000D8
:1029000000000000000000000000000000000000C7
:1029100000000000000000000000000000000000B7
:1029200000000000000000000000000000000000A7
:102930000000000000000000010000000000000096
:102940000E33CDAB34126DE6ECDE05000B0000005B
:102950000000000000000000000000000000000077
:102960000000000000000000000000000000000067
:102970000000000000000000000000000000000057
:102980000000000000000000000000000000000047
:0C2CB000000000000000000044070020AD
:040000050800245972
:00000001FF
