:020000040800F2
:10000000008001205D500008AD500008AD50000890
:10001000AD500008AD500008AD50000800000000D1
:10002000000000000000000000000000AD500008CB
:10003000AD50000800000000AD50000873520008E9
:10004000AD500008AD500008AD500008AD5000089C
:10005000AD500008AD500008F5790008FB790008A4
:10006000017A0008077A00080D7A0008AD500008F0
:10007000AD500008AD500008AD500008AD5000086C
:10008000AD500008AD500008AD5000080000000061
:10009000000000000000000000000000137A0008CB
:1000A000615500080155000871550008AD50000861
:1000B0002155000831550008415500082D5600080B
:1000C000395600084556000851560008AD50000842
:1000D000AD500008A9590008C159000800000000EF
:1000E000297A000885540008AD500008000000007F
:1000F000000000000000000000000000AD500008FB
:1001000000000000AD50000851550008AD50000837
:1001100000000000000000000000000000000000DF
:10012000AD500008AD500008AD500008AD500008BB
:10013000AD500008000000000000000000000000BA
:10014000000000000000000000000000AD500008AA
:10015000AD500008AD500008AD500008D959000856
:100160005D5600086956000800000000000000000D
:10017000000000000000000000000000000000007F
:1001800000000000AD50000800000000000000006A
:04019000AD50000866
:1001940010B5054C237833B9044B13B10448AFF3BD
:1001A40000800123237010BD7800002000000000AF
:1001B4006C7D00080C4B43B10C480D4910B5AFF3EE
:1001C40000800C48036823B910BD0A48036833B99A
:1001D4007047094B002BF7D0BDE810401847064B79
:1001E400002BF5D0184700BF000000006C7D00080C
:1001F4007C0000207800002000000000034613F873
:10020400012B002AFBD1181A0138704781F00041F4
:1002140002E000BF83F0004330B54FEA41044FEAE7
:10022400430594EA050F08BF90EA020F1FBF54EA82
:10023400000C55EA020C7FEA645C7FEA655C00F01E
:10024400E2804FEA5454D4EB5555B8BF6D420CDDEF
:100254002C4480EA020281EA030382EA000083EA72
:10026400010180EA020281EA0303362D88BF30BD12
:1002740011F0004F4FEA01314FF4801C4CEA113168
:1002840002D0404261EB410113F0004F4FEA0333C7
:100294004CEA133302D0524263EB430394EA050F52
:1002A40000F0A780A4F10104D5F1200E0DDB02FAC1
:1002B4000EFC22FA05F2801841F1000103FA0EF255
:1002C400801843FA05F359410EE0A5F120050EF11B
:1002D400200E012A03FA0EFC28BF4CF0020C43FA4C
:1002E40005F3C01851EBE37101F0004507D54FF059
:1002F400000EDCF1000C7EEB00006EEB0101B1F5A9
:10030400801F1BD3B1F5001F0CD349085FEA3000EE
:100314004FEA3C0C04F101044FEA445212F5800FF9
:1003240080F09A80BCF1004F08BF5FEA500C50F196
:10033400000041EB045141EA050130BD5FEA4C0C79
:10034400404141EB010111F4801FA4F10104E9D102
:1003540091F0000F04BF01460020B1FA81F308BFF9
:100364002033A3F10B03B3F120020CDA0C3208DDC5
:1003740002F1140CC2F10C0201FA0CF021FA02F1A0
:100384000CE002F11402D8BFC2F1200C01FA02F110
:1003940020FA0CFCDCBF41EA0C019040E41AA2BF35
:1003A40001EB0451294330BD6FEA04041F3C1CDAFD
:1003B4000C340EDC04F11404C4F1200220FA04F01D
:1003C40001FA02F340EA030021FA04F345EA0301C7
:1003D40030BDC4F10C04C4F1200220FA02F001FA89
:1003E40004F340EA0300294630BD21FA04F029460B
:1003F40030BD94F0000F83F4801306BF81F48011A4
:100404000134013D4EE77FEA645C18BF7FEA655C16
:1004140029D094EA050F08BF90EA020F05D054EAE8
:10042400000C04BF1946104630BD91EA030F1EBFED
:100434000021002030BD5FEA545C05D140004941F1
:1004440028BF41F0004130BD14F580043CBF01F5E4
:10045400801130BD01F0004545F0FE4141F47001CA
:100464004FF0000030BD7FEA645C1ABF19461046A5
:100474007FEA655C1CBF0B46024650EA013406BFA6
:1004840052EA033591EA030F41F4002130BD00BF65
:1004940090F0000F04BF0021704730B54FF4806422
:1004A40004F132044FF000054FF0000150E700BFA3
:1004B40090F0000F04BF0021704730B54FF4806402
:1004C40004F1320410F0004548BF40424FF00001EF
:1004D4003EE700BF42004FEAE2014FEA31014FEA32
:1004E40002701FBF12F07F4393F07F4F81F0605181
:1004F400704792F0000F14BF93F07F4F704730B5F0
:100504004FF4607401F0004521F0004120E700BF82
:1005140050EA010208BF704730B54FF000050AE009
:1005240050EA010208BF704730B511F0004502D50A
:10053400404261EB41014FF4806404F132045FEA0C
:10054400915C3FF4DCAE4FF003025FEADC0C18BFB1
:1005540003325FEADC0C18BF033202EBDC02C2F1A7
:10056400200300FA03FC20FA02F001FA03FE40EA39
:100574000E0021FA02F11444C1E600BF70B54FF039
:10058400FF0C4CF4E06C1CEA11541DBF1CEA13551B
:1005940094EA0C0F95EA0C0F00F0DEF82C4481EA83
:1005A400030621EA4C5123EA4C5350EA013518BFA3
:1005B40052EA033541F4801143F4801338D0A0FB90
:1005C40002CE4FF00005E1FB02E506F00042E0FB3D
:1005D40003E54FF00006E1FB03569CF0000F18BF43
:1005E4004EF0010EA4F1FF04B6F5007F64F54074EB
:1005F40004D25FEA4E0E6D4146EB060642EAC6217E
:1006040041EA55514FEAC52040EA5E504FEACE2EEA
:10061400B4F1FD0C88BFBCF5E06F1ED8BEF1004FED
:1006240008BF5FEA500E50F1000041EB045170BD69
:1006340006F0004646EA010140EA020081EA0301AD
:10064400B4EB5C04C2BFD4EB0C0541EA045170BDA9
:1006540041F480114FF0000E013C00F3AB8014F123
:10066400360FDEBF002001F0004170BDC4F100046C
:10067400203C35DA0C341BDC04F11404C4F12005ED
:1006840000FA05F320FA04F001FA05F240EA020048
:1006940001F0004221F0004110EBD37021FA04F67E
:1006A40042EB06015EEA430E08BF20EAD37070BD38
:1006B400C4F10C04C4F1200500FA04F320FA05F097
:1006C40001FA04F240EA020001F0004110EBD37099
:1006D40041F100015EEA430E08BF20EAD37070BD09
:1006E400C4F1200500FA05F24EEA020E20FA04F3E2
:1006F40001FA05F243EA020321FA04F001F0004191
:1007040021FA04F220EA020000EBD3705EEA430E01
:1007140008BF20EAD37070BD94F0000F0FD101F030
:100724000046400041EB010111F4801F08BF013C69
:10073400F7D041EA060195F0000F18BF704703F0A7
:100744000046520043EB030313F4801F08BF013D2E
:10075400F7D043EA0603704794EA0C0F0CEA1355EA
:1007640018BF95EA0C0F0CD050EA410618BF52EAA4
:100774004306D1D181EA030101F000414FF00000AA
:1007840070BD50EA410606BF1046194652EA4306B8
:1007940019D094EA0C0F02D150EA013613D195EA2C
:1007A4000C0F05D152EA03361CBF104619460AD174
:1007B40081EA030101F0004141F0FE4141F470017E
:1007C4004FF0000070BD41F0FE4141F4780170BD6E
:1007D40070B54FF0FF0C4CF4E06C1CEA11541DBFD3
:1007E4001CEA135594EA0C0F95EA0C0F00F0A7F8D5
:1007F400A4EB050481EA030E52EA03354FEA013102
:1008040000F088804FEA03334FF0805545EA131314
:1008140043EA12634FEA022245EA111545EA1065DC
:100824004FEA00260EF000419D4208BF964244F173
:10083400FD0404F5407402D25B084FEA3202B61A92
:1008440065EB03055B084FEA32024FF480104FF466
:10085400002CB6EB020E75EB030E22BFB61A7546DA
:1008640040EA0C005B084FEA3202B6EB020E75EB6D
:10087400030E22BFB61A754640EA5C005B084FEAD5
:100884003202B6EB020E75EB030E22BFB61A7546A2
:1008940040EA9C005B084FEA3202B6EB020E75EBAD
:1008A400030E22BFB61A754640EADC0055EA060E6E
:1008B40018D04FEA051545EA16754FEA06164FEAB1
:1008C400C30343EA52734FEAC2025FEA1C1CC0D15D
:1008D40011F4801F0BD141EA00014FF000004FF0EA
:1008E400004CB6E711F4801F04BF01430020B4F1AB
:1008F400FD0C88BFBCF5E06F3FF6AFAEB5EB030C63
:1009040004BFB6EB020C5FEA500C50F1000041EB5F
:10091400045170BD0EF0004E4EEA113114EB5C042C
:10092400C2BFD4EB0C0541EA045170BD41F48011FF
:100934004FF0000E013C90E645EA060E8DE60CEA07
:10094400135594EA0C0F08BF95EA0C0F3FF43BAF24
:1009540094EA0C0F0AD150EA01347FF434AF95EADB
:100964000C0F7FF425AF104619462CE795EA0C0FBF
:1009740006D152EA03353FF4FDAE1046194622E78C
:1009840050EA410618BF52EA43067FF4C5AE50EA66
:1009940041047FF40DAF52EA43057FF4EBAE12E756
:1009A4004FF0FF3C06E000BF4FF0010C02E000BF37
:1009B4004FF0010C4DF804CD4FEA410C7FEA6C5C1A
:1009C4004FEA430C18BF7FEA6C5C1BD001B050EABD
:1009D400410C0CBF52EA430C91EA030F02BF90EAA8
:1009E400020F0020704710F1000F91EA030F58BF67
:1009F400994208BF90422CBFD8176FEAE37040F0C9
:100A0400010070474FEA410C7FEA6C5C02D150EA66
:100A1400013C07D14FEA430C7FEA6C5CD6D152EA21
:100A2400033CD3D05DF8040B704700BF84461046E6
:100A340062468C461946634600E000BF01B5FFF7E5
:100A4400B7FF002848BF10F1000F01BD4DF808EDB5
:100A5400FFF7F4FF0CBF012000205DF808FB00BF86
:100A64004DF808EDFFF7EAFF34BF012000205DF8E0
:100A740008FB00BF4DF808EDFFF7E0FF94BF01202D
:100A840000205DF808FB00BF4DF808EDFFF7CEFF2E
:100A940094BF012000205DF808FB00BF4DF808ED6D
:100AA400FFF7C4FF34BF012000205DF808FB00BF3E
:100AB4004FEA410C7FEA6C5C02D150EA013C0AD156
:100AC4004FEA430C7FEA6C5C02D152EA033C02D148
:100AD4004FF0000070474FF0010070474FEA4102A9
:100AE40012F5001215D211D56FF47873B3EB62527C
:100AF40012D94FEAC12343F0004343EA505311F0A3
:100B0400004F23FA02F018BF404270474FF0000034
:100B1400704750EA013005D111F0004008BF6FF072
:100B2400004070474FF00000704700BF4A0011D2E8
:100B340012F5001211D20DD56FF47873B3EB625233
:100B44000ED44FEAC12343F0004343EA505323FA3F
:100B540002F070474FF00000704750EA013002D1B4
:100B64004FF0FF3070474FF00000704753B94AB957
:100B7400002908BF00281CBF4FF0FF314FF0FF30A1
:100B840000F07AB9ADF1080C6DE904CE00F006F876
:100B9400DDF804E0DDE9022304B070472DE9F047F5
:100BA4008C460D460446089E002B51D18A421746B6
:100BB4006DD9B2FA82FEBEF1000F0BD0CEF1200C3B
:100BC40001FA0EF520FA0CFC02FA0EF74CEA050CB9
:100BD40000FA0EF44FEA174A250CBCFBFAF81FFA88
:100BE40087F90AFB18CC45EA0C4508FB09F3AB422C
:100BF4000AD9ED1908F1FF3280F02381AB4240F2AB
:100C04002081A8F102083D44ED1AA4B2B5FBFAF024
:100C14000AFB105544EA054400FB09F9A14509D92A
:100C2400E41900F1FF3380F00A81A14540F2078105
:100C340002383C44A4EB090440EA08400021002E99
:100C440061D024FA0EF4002334607360BDE8F087A9
:100C54008B4207D9002E54D0002186E82100084693
:100C6400BDE8F087B3FA83F1002940F08E80AB42EF
:100C740002D3824200F2FA80841A65EB0305012054
:100C8400AC46002E3FD086E81010BDE8F08712B9BC
:100C94000127B7FBF2F7B7FA87FEBEF1000F34D194
:100CA400EB1B3A0C1FFA87FC0121B3FBF2F8250C6D
:100CB40002FB183345EA03450CFB08F3AB4207D9A2
:100CC400ED1908F1FF3002D2AB4200F2D180804628
:100CD400ED1AA3B2B5FBF2F002FB105543EA05444A
:100CE4000CFB00FCA44507D9E41900F1FF3302D240
:100CF400A44500F2B8801846A4EB0C0440EA08406E
:100D04009DE731463046BDE8F087CEF1200405FA70
:100D14000EF307FA0EF720FA04F83A0C25FA04F455
:100D240048EA0308B4FBF2F14FEA184502FB114408
:100D34001FFA87FC45EA044501FB0CF3AB4200FAB9
:100D44000EF409D9ED1901F1FF3080F08A80AB422D
:100D540040F2878002393D44EB1A1FFA88F5B3FB51
:100D6400F2F002FB103345EA034500FB0CF3AB42FF
:100D740007D9ED1900F1FF386FD2AB426DD90238B3
:100D84003D44EB1A40EA01418FE7C1F1200722FA02
:100D940007F88B4005FA01F448EA030320FA07FE3A
:100DA4004FEA134CFD404EEA040EB5FBFCF94FEA42
:100DB4001E440CFB19551FFA83F844EA054509FB48
:100DC40008F4AC4202FA01F200FA01FA08D9ED186B
:100DD40009F1FF3043D2AC4241D9A9F102091D44C3
:100DE4002D1B1FFA8EFEB5FBFCF00CFB10554EEAD2
:100DF400054400FB08F8A04507D9E41800F1FF35C5
:100E040029D2A04527D902381C4440EA0940A4EB62
:100E14000804A0FB02894C45C6464D4615D312D0A2
:100E240056B1BAEB0E0364EB050404FA07F7CB40A2
:100E34001F43CC40376074600021BDE8F08718463A
:100E4400F8E69046E0E6C245EAD2B8EB020E69EB5A
:100E540003050138E4E72846D7E7404691E7814691
:100E6400BEE7014678E702383C4445E7084608E710
:100E7400A8F102083D442BE7704700BF13B5B0F951
:100E84000E200468019100920022B0F90C30A46B8A
:100E94001146A04702B010BD10B5062286B04FF42B
:100EA40016511E4806F07CFA04F048F91C49044621
:100EB40003A806F0F2FC04F041F90A22011B68467B
:100EC40006F00EFD694603A806F033FD154906F049
:100ED4003CFD0146114806F0EFFA684606F098FC1E
:100EE40003A806F095FC104802F0C8FD0F4904461B
:100EF4000A4806F0D2FA10222146084806F032FBCE
:100F040049F281434DF2D3318C4214BF2146194634
:100F1400054803F01DFE06B010BD00BFA00500206B
:100F2400238D0008308D0008780300203C8D0008D4
:100F34002DE9F04F87B08146BDF940A002920F46DB
:100F44000393BDF94460129CBAF1000F35D0BDF88B
:100F540008B004EB4A0304930BF1FF3303444FF04E
:100F640000080593039A0FFA88F39A4225DD07EBEC
:100F7400080501232DB20193029B00932A462346C0
:100F840049462B4802F0DEFEBDF91430284800958E
:100F94002A46494602F050FEABEB0A02012312B284
:100FA4000499234803F09CFB002352462146204821
:100FB40003F096FB08F10108D4E7002E35D004EBCA
:100FC4004603BDF80CB004937B1E5B4400250593D7
:100FD400029A2BB29A4228DD09EB05080FFA88F829
:100FE400039B01934FF0010A23463A464146CDF84C
:100FF40000A00F4802F0A6FEBDF9143000933A4653
:10100400434641460A4802F017FEABEB060253463C
:1010140012B20499064803F063FB002332462146CA
:10102400034803F05DFB5544D2E707B0BDE8F08FF9
:101034007803002070B50A4C06460D46204600226F
:101044004FF6E07101F0C2FF204632B2002101F0F8
:10105400B2FF29462046BDE8704006F037BA00BF0B
:101064007803002038B504F06BF80E4C05460021D7
:101074002046FFF703FF20464FF47841FFF7FEFEBA
:1010840020464FF4FC61FFF7F9FE20461F21FFF7CD
:10109400F5FE00212046FFF7F1FE04F051F8401B55
:1010A40038BD00BF780300200000000038B53B4C79
:1010B40000212046FFF7E2FE04F042F80022114628
:1010C4000546204601F077FF20464FF6FF7101F0F8
:1010D4007AFF2046012101F071FF3149204606F0D4
:1010E400F5F920464FF6E07101F06DFF204602212C
:1010F40001F064FF9FED270B0221204606F021FB3F
:1011040020464FF4784101F05EFF2046032101F0B0
:1011140055FF10222349204606F03DFA204606F0EA
:10112400C3F920464FF4FC6101F04DFF2046052130
:1011340001F044FF1C49204606F0C8F9204602216C
:1011440001F03CFF1949204606F0C0F92046012170
:1011540001F034FF1649204606F0B8F91549204637
:1011640006F0B4F91449204606F0B0F913492046B4
:1011740006F0ACF91249204606F0A8F911492046B8
:1011840006F0A4F91049204606F0A0F903F0D8FFB0
:10119400401B38BDCDCCCCCCCCDC5E4078030020E9
:1011A400938B0008EFBEADDEA08B0008A68B000871
:1011B400B68B0008D18B0008EC8B0008088C000863
:1011C4001C8C00082F8C0008498C00082DE9F04F76
:1011D40085B080461648039101F0FDFE814614480F
:1011E40001F0FCFE002182461148FFF747FE03F0A0
:1011F400A7FF0FFA88F77E00029044464C4510DAA8
:1012040045460FFA84FB554509DA039B00932AB23D
:101214003B465946064801F0BDFA3544F3E73444E9
:10122400ECE703F08DFF029BC01A05B0BDE8F08F18
:10123400780300202DE9F04F85B004460FFA80F8BA
:101244001448039101F0C7FE00EB040A114801F0B1
:10125400C5FE044403F074FF4FEA480781460025A5
:10126400554510DA00260FFA85FBA64209DA039BDE
:10127400009332B243465946064801F04DF83E44C5
:10128400F3E73D44ECE703F05BFFA0EB090005B096
:10129400BDE8F08F780300202DE9FF471E48DFF8F2
:1012A40078A001F098FE022490FBF4F51A4801F0AE
:1012B40095FE2DB290FBF4F424B2013D013C0021D3
:1012C4001548FFF7DBFDA542A946A8BFA14603F0D8
:1012D40037FF00268046A4B2AFB24E4515DAB1B24C
:1012E40060187B1A621A394400B2C6F3C40E09B2FC
:1012F4008DE803000290CDF80CE01BB212B229B2C3
:10130400504601F06FFB0536E7E703F019FFA0EB49
:10131400080004B0BDE8F087780300202DE9F04F01
:1013240033488BB001F057FE022490FBF4F63048AA
:1013340001F054FE90FBF4F000B2431E00212C484F
:10134400059336B2FFF79AFD03F0FAFE059B013EC2
:10135400B342A8BF33461F464FEAC30B33B24FF024
:10136400000A08930A2F3FDD03F0EAFEBDB2B3B2D0
:10137400A3EB05092B441BB207930BF4FC63069300
:10138400BDF81440069A08990990C7F3C403A4EB66
:10139400050813432C4424B20FFA88F80FFA89F98C
:1013A4000393079B019342464B46114802940094D1
:1013B40001F045FB03F0C4FE099B0294C01A0D4BD7
:1013C400009403EA0525069B08991D43ADB2079BCB
:1013D4000193824403954B464246054801F002FBC3
:1013E400053FABF1280BBDE750460BB0BDE8F08FCD
:1013F4007803002000F8FFFF2DE9F04F274885B05F
:1014040001F0E9FD022490FBF4F6244801F0E6FD26
:10141400002190FBF4F42148FFF730FD1F4801F050
:10142400DAFD05461D4801F0D9FD36B224B28542E5
:1014340006F1FF3604F1FF34184824DA01F0CBFD3D
:10144400814603F07DFE0027DFF854B082463D4616
:101454004FF4C06898FBF9F84D4517DA47440BEA96
:101464000720C5F34F0180B22BB2621A0290711AA1
:1014740045F3CF000190009312B209B2074801F07E
:10148400B6F90635E8E701F0A9FDD9E703F058FEFF
:10149400A0EB0A0005B0BDE8F08F00BF7803002080
:1014A40000F8FFFF2DE9FF47304801F094FD0226C4
:1014B40090FBF6F72D4801F091FD002190FBF6F624
:1014C4002A48FFF7DBFC03F03BFE8046274801F087
:1014D40082FD0446254801F081FD3FB2844236B2C4
:1014E40007F1FF3706F1FF364FF4C0641F482FDAC7
:1014F40001F071FD94FBF0F41C4801F06CFD05460D
:101504001A4801F06BFD8542184824DA01F063FDA6
:101514006FF0070909FB04F9DFF850A0C4F58074E3
:101524000546E400142D19DDC5F34F0104F4FC60F5
:101534002BB2721A0290791A45F3CF0001900093EE
:1015440012B209B2504601F0EEF9063D4C44E9E707
:1015540001F044FDCEE701F041FDD9E703F0F0FDD1
:10156400A0EB080004B0BDE8F08700BF78030020BA
:1015740007B50023019300931A461946024802F066
:1015840099F803B05DF804FB780300202DE9F74FC8
:1015940083461B48DFF86880894601F01CFD064637
:1015A400174801F01BFD002105461548FFF766FCAE
:1015B40003F0C6FD002407464FF0010AAC420EDBDF
:1015C400DFF83C800024B44213DA21B28DE8200213
:1015D40001230022404602F0F9FE0534F3E722B26B
:1015E4008DE8000C33460021404602F0EFFE05343E
:1015F400E4E703F0A5FDC01B03B0BDE8F08F00BF16
:10160400780300202DE9F34782461F4801F0E3FCEC
:10161400022490FBF4F006B21B4801F0DFFC002129
:1016240090FBF4F41848FFF729FC174801F0D3FCA9
:101634000546154801F0D2FC854224B2124818DA56
:1016440001F0C9FC074603F07BFDDFF83C908046BF
:101654000225BD4210DAC5F34F012BB2621A711A8A
:101664008DE8080412B209B2484600F0F1FD0635CF
:10167400EFE701F0B3FCE5E703F062FDA0EB08003F
:1016840002B0BDE8F08700BF780300202DE9F04FD9
:1016940087B0022404902A48059101F09CFC90FB39
:1016A400F4F000B2431E2648039301F097FC90FB2C
:1016B400F4F000B2002100F1FF3B2148FFF7DEFB0C
:1016C4001F4801F088FC04461D4801F087FC844251
:1016D4001B482DDA01F07FFCDFF864A005464FF0CB
:1016E4000008002D27DD03F02BFD039BC5F34F04F9
:1016F4001E1BABEB04042FB2049B019336B224B23D
:101704003B462246314681460097504602F05EFE33
:1017140003F016FD059B0193A0EB0900804400979C
:101724003B4622463146504600F092FD063DD8E73E
:1017340001F054FCD0E7404607B0BDE8F08F00BF8D
:10174400780300202DE9F04F064685B06A48DFF89B
:10175400A89101F040FC8046674801F03FFC00215D
:1017640007466548FFF78AFB03F0EAFC7D1E002468
:101774000FFA85FA44450ADA002223B20196CDF81D
:1017840000A01146484600F022FD0634F2E708F1B5
:10179400FF34DFF864A14FF000090FFA84FBB94568
:1017A4000CDA0FFA89F30022009301965B46114686
:1017B400504600F00CFD09F10609F0E703F0C0FC07
:1017C40000214D48FFF75AFB03F0BAFC4FF0000923
:1017D4000FFA84FA0FFA85FBC14514DBDFF818A170
:1017E4004FF000090FFA84FBB94519DA0FFA89F3AF
:1017F4000093002301961A465946504600F0E7FC30
:1018040009F10609F0E70FFA89F30196CDF800B063
:1018140000225146384800F0DAFC09F10609DBE7FA
:1018240003F08EFC00213448FFF728FB03F088FC0A
:101834004FF00009CB460FFA85FAC14514DB4FF08F
:1018440000090FFA84FB0FFA85FAB94519DA0FFA81
:1018540089F3009301965B4652460021264800F026
:10186400B6FC09F10609F0E70FFA89F30196CDF801
:1018740000B052460021204800F0A9FC09F10609F5
:10188400DBE703F05DFC00211B48FFF7F7FA03F0E8
:1018940057FC4FF0000903900FFA85FB0FFA84FA06
:1018A400C14514DB0FFA85F9134D4FF0000824B23B
:1018B400B84519DA0FFA88F30093019600234A46D3
:1018C4002146284600F083FC08F10608F0E70023CF
:1018D400009301960FFA89F35A465146064800F0E0
:1018E40076FC09F10609DBE703F02AFC039BC01A26
:1018F40005B0BDE8F08F00BF780300202DE9F74F55
:101904009C4D9D4B2B60FFF7ADFB68604FF4FA7064
:1019140003F018FC994BAB60FFF7C8FBE8604FF489
:10192400FA7003F00FFC964B2B6140F2FF70FFF747
:1019340009FF68614FF4FA7003F004FC914BAB614A
:101944001F214FF47840FFF721FEE8614FF4FA704D
:1019540003F0F8FB8C4B2B624FF4FC60FFF752FE54
:1019640068624FF4FA7003F0EDFB884BAB624FF6FC
:101974001F014FF6E070FFF789FEE8624FF4FA703A
:1019840003F0E0FB824B2B634FF61F010A20FFF7A5
:101994001DFC68634FF4FA7003F0D4FB7D4BAB631A
:1019A4004FF6FF710A20FFF745FCE8634FF4FA7025
:1019B40003F0C8FB784B2B64FFF76EFC68644FF4AC
:1019C400FA7003F0BFFB754BAB64FFF7A7FCE86448
:1019D4004FF4FA7003F0B6FB714B2B65FFF70CFD67
:1019E40068654FF4FA7003F0ADFB6E4BAB65FFF71F
:1019F40059FDE8654FF4FA7003F0A4FB00216A482E
:101A0400FFF73CFA4FF4FC61674801F0DCFA00226E
:101A14001146654801F0CFFA634801F0DCFA80B260
:101A2400B028AB4649D902215F4801F0C7FA5F49A3
:101A34005D4805F032FD02219FED4A0B5A4805F03E
:101A44007DFE5B49584805F041FD182401215648A4
:101A5400484F554EDFF87CA101F0B0FA0025A946A5
:101A64000C2DEBB22FD0182C5BF8358010D9092D32
:101A740005D851463046019305F00FFD019B1946E8
:101A84000A22304605F085FD4A49304605F005FD39
:101A9400631C434418F8011B09B198455CD15146B5
:101AA400304605F0FAFC79680A22304605F07DFDDF
:101AB4007B68013599440837D2E70624B0FBF4F477
:101AC400083CE4B2C2E70221374801F077FA3A4908
:101AD400354805F0E2FC4846FEF7DAFC23A3D3E9D7
:101AE4000023FEF74BFD41EC100B02212E4805F0BC
:101AF40025FE32492C4805F0E9FC2B4801F0BEFFD5
:101B04002F4B30491880284805F0C7FC264801F0BF
:101B1400B5FF10220146244805F024FD2A49224835
:101B240005F0BBFC294B1868FEF7B2FC0FA3D3E900
:101B34000023FEF723FD41EC100B02211A4805F0A7
:101B4400FDFD2349184805F0C1FC42F2107003B0B2
:101B5400BDE8F04F03F0F6BA3046019305F0A1FC5E
:101B6400019B97E7D7A3703D0AD707408DEDB5A039
:101B7400F7C6B03E98000020278A0008418A000872
:101B84005B8A0008758A00088F8A0008A98A000801
:101B9400C38A0008DD8A0008F78A0008118B000850
:101BA4002B8B0008458B0008780300205F8B00080E
:101BB4006A8B00086F8B0008728B0008798B000811
:101BC400940000207D8B0008848B0008080000200E
:101BD4008B8B0008598A00082DE9F04FD34C94E808
:101BE4000F0095B010340CAD85E80F0094E80F0099
:101BF40014AC04E90F001F23ADF828304FF4FC6344
:101C0400ADF82A304FF478430021C948ADF82C30A0
:101C14004FF6FF73ADF82E3002F01FFEFFF76EFE95
:101C24004FF4FA6003F08EFAC14801F0D7F9402866
:101C340040F36981BE4C00252946204602F00DFE82
:101C4400204601F0C8F905902046BDF814A001F023
:101C5400C5F90690BDF81860A02E8CBF4FF0C80BD4
:101C64004FF0700BFFF722FA14AB002103EB45038E
:101C74004FEA5A180F46049308EB0109202F1FFA64
:101C840089F919D0FB00DAB2AA4B03EA022343EA2A
:101C9400C20343EAD203049A32F8282C1340019376
:101CA4003F23009309B2434630222046013702F015
:101CB4008DFBBFB24946DFE74FF6FF7701236F2262
:101CC4008DE888000021059B204600F0C1FA02211E
:101CD400204601F073F914AB03EB4503002233F8FB
:101CE400281C204601F072F948220021204601F008
:101CF40062F914AB03EB8508204658F8101C05F074
:101D0400CCFB3946204601F05EF98B49204605F0AC
:101D1400DDFB00223946204601F058F958F8201C12
:101D2400B820FFF787F94FF47A7003F00BFA00221A
:101D340011464FF6E073204602F01CFB00220123FB
:101D440011460193009320460DF1260301F0FAFF9A
:101D5400A12E34BF012102212046BDF8268001F0C6
:101D64002DF93B22AAF12903AAF1500100921BB2DA
:101D7400142209B2204601F05FFF002300934FF4C0
:101D8400C86201236D49204606F1FF3902F0B0FC18
:101D94000FFA89F900220AF1FF331BB2CDF8009043
:101DA40011462046079301F047FF15F00103049301
:101DB400019723D0069B0799009300220123204614
:101DC40000F046FA5E495846FFF734F9204601F020
:101DD40000F910F0010F18BF564601270FFA86F9D3
:101DE400B74211DC3BB24A460021204602F08DFC8A
:101DF40001370A2003F0A6F9BFB2F1E701230093EB
:101E04004A46059B0499DAE74FF47A7003F09AF98D
:101E14004C495846FFF70EF90127BE420CDB7B42C2
:101E24001BB24A460021204602F06FFC01370A200B
:101E340003F088F9BFB2F0E7002319464A4620466A
:101E440002F063FC40495846FFF7F4F84FF47A7007
:101E540003F078F9049BD3B91A461F21204601F0F8
:101E6400B5F83A495846FFF7E5F8012633B240225F
:101E740030212046013602F048FCB6B2142003F0AB
:101E840061F9412EF2D14FF47A7003F05BF900222C
:101E94004FF6E071204601F099F84FF6E07398454B
:101EA40020D12B49DFF8B4905846FFF7C3F8BAF5B0
:101EB400A07F564628BF4FF4A07636B237464FF07F
:101EC4000408002F16DD00230193CDF80890CDF807
:101ED400008010233246C8210020043FFFF728F871
:101EE4003FB2EEE740F2FF73984539D119492046D5
:101EF40005F0ECFA013541F28830EDB203F022F935
:101F0400042D7FF499AE58461349FFF793F8012145
:101F1400074801F02BFA4FF4FA6003F013F900219B
:101F2400034801F023FA15B0BDE8F08F847D000862
:101F34007803002000F8FFFF598C0008A77D0008F3
:101F4400678C00087A8C00088D8C0008A08C00082F
:101F5400B48C0008C88C0008138D0008F800002019
:101F640028F4E06222F007024FF6F8039A4201D106
:101F74000549BCE70549204605F08FFA1022414681
:101F8400204605F0EFFAB5E7E18C0008FE8C000866
:101F940070B5104E034600F130044FF6FF72012174
:101FA40000251A805E60197299725D720C33A34227
:101FB400F7D1094B02861A7B80F89020DA7A80F8F0
:101FC40091205B7B80F892304FF0FF3380F89330A0
:101FD40070BD00BF00093D00649A00080148FFF786
:101FE400D7BF00BFB40300202DE9F04F85B01E46D3
:101FF400BDF93830BDF83CA015469A1A002AB8BF7E
:1020040052420092721A002AB8BF524201920C4600
:10201400009A01998A42814605DD32461E461346DE
:1020240022462C461546B44205DD2A461D46134673
:102034002246344616465A1B002AB8BF5242A6EB23
:1020440004089D42B4BF01234FF0FF331FFA88F800
:10205400029303920FFA88F7022297FBF2F7B44235
:102064001FDC019A009B9342D9F80030C8BF224676
:10207400D3F810B0C8BF29465346DCBF2A462146D0
:102084004846D847039BFF1ABBB21FB2002F05DA9C
:10209400029A08EB030715442DB23FB2013424B26F
:1020A400DDE705B0BDE8F08F10B40468A468A44669
:1020B4005DF8044B604730B40468BDF808500295DD
:1020C400246BA44630BC604730B40468BDF80850A3
:1020D4000295646BA44630BC604770B40468BDF9D3
:1020E4000C50BDF8106004960395A46BA44670BC14
:1020F400604770472DE9F3411C460368BDF8208012
:10210400DB6805461646013C34440F4624B2984722
:102114002B68CDF8048000941C6A28463B4632465E
:102124003946A0472B685B6A284602B0BDE8F041F7
:1021340018472DE9F3411D460368BDF82080DB688C
:10214400044617460E4698478DE8800122686B1EA8
:102154003344156A20461BB23A463146A8472368E1
:102164005B6A204602B0BDE8F04118472DE9F34709
:102174001E460368BDF92880DB68BDF82C900C4628
:102184000546174698472644B4422A680BDACDF828
:102194000090D2F818A0214643463A462846013416
:1021A400D04724B2F0E7536A284602B0BDE8F047AE
:1021B400184713B5B0F90E2004680191009200226B
:1021C400B0F90C30A46B1146A04702B010BD2DE944
:1021D400F7439942904607460E461C46BDF92850DF
:1021E400BDF82C90026814D1A845C8BF4346CDF869
:1021F4002890C4BFA8461D466B1C146BA3EB0803B0
:102204001BB2424631463846A44603B0BDE8F0430B
:102214006047A8450AD19942C2BF0B4626461C46D0
:10222400631CCDF828909B1B546BE9E7D36898474F
:102234003B688DE8200238461D6A424623463146F3
:10224400A8473B685B6A384603B0BDE8F0431847CB
:102254002DE9F3471D460368BDF82C70DB68BDF912
:102264002890044688461646984723680097D3F872
:102274001CA032462B4641462046D047236800978F
:1022840009F1FF323244D3F81CA041462B462046C4
:1022940012B2D04723680097D3F818A032464B46B1
:1022A40041462046D04723680097691E41449D69F2
:1022B40020464B46324609B2A84723685B6A20464B
:1022C40002B0BDE8F0471847704701F00301012947
:1022D40041760389428904D0032902D08381C281D3
:1022E40070478281C381704730B501810024094D54
:1022F40042818181C2814FF6FF71012244600560F1
:102304004476048244820276C18281828276C476D3
:10231400C46130BD909200082DE9F04F8BB00446A3
:102324000393BDF80C60BDF85050C6F101031BB215
:102334000293C6EBC6335B001BB2069303681746D1
:10234400DB6888461FFA87FB9847236806EB0B0275
:10235400D3F8109041462B4612B22046C847236852
:10236400ABEB06024146D3F8109012B22B4620463E
:10237400C8471FFA88F3F118019323683A46D3F843
:10238400108009B22B462046C047019B991B236845
:102394003A461E6909B22B462046B04700230593EE
:1023A400019B01330793019B013B08930BF101034C
:1023B4000993BDF91430039A934280F28480029BFE
:1023C400002B0BDB531E1BB20393069B02339BB201
:1023D4001AB20692029A13441BB20293BDF8147007
:1023E400029B03EB470303331BB20293079B07EBE8
:1023F400030ABDF80C3004930BEB030923680FFAAE
:102404008AFA0FFA89F9D3F810804A4651462B46C6
:102414002046C047089BA3EB070823681B690FFAF3
:1024240088F81E464A4641462B462046B047049B40
:10243400ABEB030923681B690FFA89F91E464A4668
:1024440051462B462046B04723684A46D3F810A08D
:1024540041462B462046D047019B049A03EB0208D1
:10246400099B07EB030923680FFA88F80FFA89F927
:10247400D3F810A04A4641462B462046D047019B3C
:10248400049A9E1A236836B24A46D3F810A03146FD
:102494002B462046D0470BF1FF33DF1B23683FB2A6
:1024A4004146D3F810903A462B462046C847236845
:1024B4003A46D3F8108031462B462046C047059B48
:1024C4000133059375E723685B6A20460BB0BDE8CA
:1024D400F04F18472DE9F04F87B01D469DF8403066
:1024E4000393ABB20292C3F10102C3EBC3335B00AB
:1024F4001BB2049300230193039BBDF8447012B2F2
:1025040003F004030446009205931FFA81F8BDF911
:102514000430AB4280F29C80009B002B0ADB049BBE
:1025240002339BB21AB20492009A1344013D1BB2C7
:102534002DB20093009BBDF8046003EB4603033304
:102544001BB20093059BEBB1BDF8089023681FFAFA
:1025540085FA08F1010109EB0A023144D3F810B0FD
:1025640012B23B4609B22046D847236809F101025A
:10257400324408EB0A01D3F810B012B23B4609B258
:102584002046D847039B99071DD5BDF808902368BA
:102594001FFA85FA08F10101A9EB0A023144D3F8C4
:1025A40010B012B23B4609B22046D847236809F15D
:1025B400FF32921B08EB0A01D3F810B012B23B466B
:1025C40009B22046D847039B1A071DD5BDF808A0B9
:1025D40023681FFA85F90AF101003044A8EB0901C8
:1025E400D3F810B002B23B4609B22046D84723685C
:1025F40008F1FF3109EB0A02891BD3F810B012B2BB
:102604003B4609B22046D847039BDB071CD5BDF8DF
:10261400089023681FFA85FA09F1FF30801BA8EBA4
:102624000A0102B2D3F810B009B23B462046D8479B
:10263400236808F1FF31891BA9EB0A021E6912B253
:102644003B4609B22046B047019B013301935EE744
:1026540007B0BDE8F08F2DE9F04F8BB01D46BDF8F3
:1026640058300493ABB2C3F10104C3EBC3335B0032
:102674001BB20693BDF9543001339BB292469DF8C8
:102684005020059302930023039302F00103079360
:1026940002F002030646894624B20893BDF90C30C1
:1026A400AB4274DA002C70DB069B02339BB205F15B
:1026B400FF381AB21C440FFA88F8069224B2BDF807
:1026C4000C707B1C04EB47041BB20334984524B202
:1026D4002FDB079BABB130680990059B04980090F1
:1026E4001FFA88F2099809F1010103EB4203394406
:1026F400AAEB0202D0F818B01BB212B209B23046EB
:10270400D847089BABB130680990059B04980090AA
:102714001FFA88F2099809F1FF3103EB4203C91B40
:10272400AAEB0202D0F818B01BB212B209B23046BA
:10273400D847454520D0079B73B13368049800906F
:10274400AAEB070209EB0501D3F818B0BDF908306C
:1027540012B209B23046D847089B6BB1336804986B
:102764000090A9EB0501AAEB07029D69BDF90830A9
:1027740012B209B23046A847039B01330393029B6C
:1027840002339BB20293454688E7A84697E70BB00D
:10279400BDE8F08F2DE9F0431F46036885B0044679
:1027A400DB68BDF830800D4616469847BAB22168FA
:1027B400CDF8008053000133B21AD1F818902046A6
:1027C40029461BB212B2C847032200238DE80C002D
:1027D40020463B46CDF8088032462946FFF73BFFAA
:1027E40023685B6A204605B0BDE8F04318472DE92D
:1027F400F04F89B01D46BDF94870BDF94C300791C2
:10280400AF421646B8464FF00202A8BFA84698FB4E
:10281400F2F89845A8BF98460368BDF85090DB6865
:1028240004469847BDF81C3003931FFA88FA5344B2
:102834001BB20293ABB204934FEA4A039BB20593D3
:10284400059A049BCDF800909D1A23680299D3F849
:102854001CB02DB22B4632462046B6B2D847BFB282
:10286400731E3B449BB206932368CDF80090D3F8C3
:102874001CB0BDF9182002992B462046D847059B69
:10288400CDF800905644FF1A236807999D6936B223
:102894003FB23B4632462046A847039BCDF8009002
:1028A4005D1E049B1D442368ADB2D3F818B03246B4
:1028B4003B4629B22046D84701230093324643467B
:1028C4000299CDF804902046A5EB0A05FFF702FE15
:1028D4002DB2022300933246434629462046CDF8C2
:1028E4000490FFF7F7FD069BCDF80490A3EB0A0ACA
:1028F4000FFA8AFA04230093524643462946204697
:10290400FFF7E8FD0823009320464346CDF80490E2
:1029140052460299FFF7DEFD23685B6A204609B040
:10292400BDE8F04F18472DE9F04F89B09B46BDF93B
:102934004840BDF94C3007925C4527464FF00202EF
:10294400A8BF5F4697FBF2F79F42A8BF1F460368E4
:10295400BDF850A0DB680546894698478DE8100409
:102964001FFA89F32A6805931FFA87F903EB09080C
:102974004FEA49031FFA8BFB52699BB20FFA88F89E
:102984000693ABEB030316464146079A28461BB24F
:10299400B047079BCDF808A04B441EB2069B013CF0
:1029A400E41A059B591E594424B2A1EB09010123E1
:1029B400009332463B462846019409B2FFF74BFE8A
:1029C4000223009328463B46CDF808A001943246E2
:1029D4004146FFF740FE2B685B6A284609B0BDE814
:1029E400F04F18472DE9F04F85B00768BDF8445003
:1029F400BDF9389001950446CDF8009003923F6CE0
:102A0400BDF93C60BDF940808A469B46B8472368BF
:102A14000195CDF800801F6C4A463346594620463E
:102A2400B8472368039A0E920F951D6C424653468D
:102A340031462046AC4605B0BDE8F04F60472DE96D
:102A4400F04F8DB09846BDF95870BDF86430BDF9AB
:102A54005C40BDF960600593BA4281468A461546DA
:102A64006EDDB24277DC33461D46164623460C46DD
:102A74009A4633463E462F461D4623464446D04694
:102A84009A46D9F800304846DB689847BE426ED172
:102A94005445DEBF5346A2461C46C24504DC4445A9
:102AA400B8BF444624B2D0460134D9F80020059971
:102AB4000091A4EB08031BB2D46941463246484650
:102AC400A047D9F800305B6A48460DB0BDE8F04F26
:102AD4001847B542D5DC3B462F461D464346D046F3
:102AE400C6E7089BA8EB05055D43039BA8EB060618
:102AF4005E43B845E5DC029A0B9B95FBF3F1079B1B
:102B040096FBF3F31344089A05980090594409B2CC
:102B14001BB21544039A99421644C2BF0A46194689
:102B240013460133D9F800205B1AD2F81CA01BB25B
:102B34004246484608F10108D0470FFA88F8D8E71A
:102B4400B742C6DC33463D461F462346C2461646B8
:102B54000C46984695E7B7428BDDD9F80030DB6820
:102B640098472B463D461F465346C24698461FFA91
:102B74008AFBA3B20293ABEB03031BB2B1B209937A
:102B8400ABB25A1A12B20A92029A1FFA88F8A8EB48
:102B9400020212B20392BAB2BD42A2EB010109B21F
:102BA400A2EB0302A8EB0B0818BF03F1FF33079154
:102BB40012B20FFA88F118BF1BB24FF0000A089145
:102BC4000B9214BF06930695B046CDF810A0069B51
:102BD400984586DC049B0A9A93FBF2F1029B029AC5
:102BE40009981944079B9AFBF3F31344049A02448B
:102BF40009B21BB20492039A059800909942924438
:102C0400C2BF0A4619461346D9F800200133D269D7
:102C14005B1A14461BB24246484608F10108A04715
:102C24000FFA88F8D3E700002DE9F04F91B09146F0
:102C3400C26905911E46BDF8683003930446BDF889
:102C44006CA09DF87050002A40F0BA80B0F90C30A6
:102C54008B4240F33281B0F90E304B4540F32D8165
:102C6400062313FB0513002B40F3278109EBC5034F
:102C7400002B40F32281C37E1BB9AF2EC4BF0136A3
:102C8400F6B223682046DB68984705230D9300239A
:102C940004931FFA89F3089308339BB20F93052317
:102CA4001A46049B12FB0633854AD35C0993BDF88C
:102CB40014300693069A049BAFB203FB07231BB29E
:102CC4000C93089B0B9398460A932BB20793BDF879
:102CD4001020069B13FA82F31BB20E93099BD907AB
:102CE4004AD5012D23683AD1D3F810B0039B0E992D
:102CF4000FFA88F22046D847099B5B0809930B9B7F
:102D04003B449BB20B930A9B3B449BB20A9308F14E
:102D140001080F9B1FFA88F84345DFD1049B013358
:102D24005BB204930D9B013B13F0FF030D93B6D1EB
:102D3400039B53450CD0012D236831D10699CDF85E
:102D440000A005319D694A46082309B22046A847D8
:102D540023685B6A204611B0BDE8F04F1847039A18
:102D64000192079A0092D3F814B01346BDF92C20AF
:102D74000C992046D847BFE7039B5345BCD0012D8F
:102D8400236803D1D3F810B05346B0E7079A0092F2
:102D9400CDF804A0D3F814B01346BDF92820E7E712
:102DA400069ACDF804A007EB87010A44FF001146F8
:102DB40000975E694A462B4609B22046B047C7E7EA
:102DC400137AF61A5368F6B203EBC60613680A932D
:102DD400B3780B93F3780C9396F905300793012D90
:102DE400C4BFBDF91C300693036896F906B0DB68CE
:102DF400B6F80080DABF4FF0000ACDF818A00FFA39
:102E04008BFA98471FFA89F3002709935B440497C8
:102E14003E460F930C9AFBB2934299DAAAB20892F7
:102E2400BDF8201003EB0A0212FB01F209990A44CF
:102E340012B20D920F9A13441BB24FF000090E9375
:102E4400049B0B9A5FFA89F1CB189142DBB231DA19
:102E54005A0701BF0A9A12F8086008F101031FFA21
:102E640083F833060DD5012D10D1059A079B134421
:102E7400194423680E9AD3F810B0039B09B2204674
:102E8400D8477600F6B209F10109D9E7069A039802
:102E940001901144BDF8202011FB02F1059A2BB2D8
:102EA400114422680093D2F814B00D9A09B2204656
:102EB400D847E6E701370493ACE711B0BDE8F08FDB
:102EC400868D00087FB5C26904460B46002A31D1BD
:102ED4000A2908D10282438A027E03EBC203638279
:102EE400012004B070BD0D29FAD0817E007E69B145
:102EF400B4F91050062111FB0051B4F90C50A94249
:102F0400C1BF2282628A02EBC00262820290E08A1E
:102F14000190A08AB4F912200090B4F91010204650
:102F2400FFF782FE237E228A03EB430302EB430373
:102F34002382D5E70A2907D100230382937A017EED
:102F4400428A01FB0323CAE70D29C9D0157AA94295
:102F5400C6DB517A8B42C3DC51685D1B01EBC505AE
:102F6400AE7816B3E97801B3817E007E89B195F914
:102F740005103144B4F9106000FB0161B4F90C6030
:102F8400B14206DD00212182927A618A02FB00129D
:102F940062820290E08A0190A08A0090B4F9122023
:102FA400B4F910102046FFF73FFE2979237E228AC8
:102FB40001FB0323BCE7018242827047012938BF29
:102FC400012101767047C182818270478182C28269
:102FD4007047407E7047B0F90C007047B0F90E009E
:102FE400704737B5BDF8185004688DE828000123F0
:102FF400A46BA04703B030BD37B5BDF81850019598
:10300400046801250095A46BA04703B030BD0000FF
:103014002DE9F0476E4C6F4E4FF48033A3616E4B35
:103024004FF480129A61C2B2000A45024FEA0029A5
:103034004FEA400809F4806905F4007545EA09057A
:1030440008F480794FF0876E4FF400074FF0E06C7E
:1030540045EA0905C3F818C0C4F818E0B7619D61D2
:10306400451008F0200805F0100545EA080500F0B1
:10307400080845EA08054FEA001808F4806845EA9C
:1030840008054FEA42294FEA02284FEA420A08F4A7
:10309400806809F4007949EA080980010AF4807813
:1030A40049EA080900F080004FEA6208A5610AF0C5
:1030B400200AB06102254FF4003008F0100898612E
:1030C40048EA0A08986198619D619D61C3F818C037
:1030D400C4F818E0B761C3F8189002F0080948EA88
:1030E40009084FEA021909F48069920148EA0908BB
:1030F40002F08002C4F81880B261102298619861CD
:1031040098619D619D619A61CAB2090A4FEA412999
:103114004FEA01284FEA410A08F4806809F400796B
:1031240049EA08090AF4807849EA08094FEA61087B
:1031340008F010080AF0200AC3F818C048EA0A0880
:10314400C4F818E0B761C3F8189001F0080948EA18
:1031540009084FEA011909F48069890101F0800125
:1031640048EA0908C4F81880B161986111029861AD
:1031740098619D619D61C3F818C0C4F818E0B761F7
:1031840057024FEA420E01F4806107F400770F43BF
:103194000EF480710F43511001F010010EF0200E57
:1031A4009F6141EA0E0102F008073943170107F451
:1031B40080679201394302F08002A161B261986193
:1031C400986198619D619D610123A361BDE8F087C9
:1031D4000004024000080240000002402DE9F04FC4
:1031E4005F4D604E4FF48033AB615F4B5FFA80F804
:1031F4004FF48014000A9C614FEA002A44024FEA0B
:1032040040090AF4806A04F4007444EA0A0409F4E4
:10321400807A44EA0A044FF0E06C4FF0876E4FF472
:103224000007C3F818C0C5F818E0B7619C614410E2
:1032340009F0200904F0100444EA090400F0080924
:1032440044EA09044FEA001909F4806944EA0904CC
:10325400AC614FEA082B84014FEA48204FEA480A40
:103264000BF4806B00F4007004F0800440EA0B005F
:103274000AF4807BB4614FF002094FF4003440EA51
:103284000B009C619C619C61C3F81890C3F8189072
:10329400C3F818C0C5F818E0B76198614FEA680030
:1032A4000AF0200A00F0100040EA0A0008F0080AB8
:1032B40040EA0A004FEA081A0AF4806A40EA0A005F
:1032C400A8614FEA881000F08000B06110209C6172
:1032D40002EB01089C619C61C3F81890C3F8189034
:1032E4009861A8EB020149B2002934DD12F8010B00
:1032F400C3F818C041024FEA002B4FEA400A0BF40E
:10330400806B01F4007141EA0B010AF4807B41EA0D
:103314000B01C5F818E0B761996141100AF0200A61
:1033240001F0100141EA0A0100F0080A41EA0A0129
:103334004FEA001A0AF4806A800141EA0A0100F0A7
:103344008000A961B0619C619C619C61C3F8189084
:10335400C3F81890C5E70123AB61BDE8F08F00BF47
:1033640000040240000802400000024030B4458CD2
:10337400C5F3003484EA01020B46ED0791B2C1841F
:1033840008D500229C4214BF21202020114630BCC5
:10339400FFF724BF838C49F22620834215D849F2D3
:1033A400252083420AD245F22040834215D047F2B9
:1033B4009370834211D0B3F5AA7F13D1910041F0E9
:1033C4001301072030BCFFF723BE49F22632934293
:1033D40003D04BF20952934204D141F0020140F26E
:1033E4000140EFE76120EDE770B50C46051D4FF68F
:1033F400FF76002C0FDD35F8040C35F8021CB042C2
:1034040006D1084601F09EFE043C24B20435F0E7E0
:10341400FFF7FEFDF8E770BDF0B50C4687B0054632
:10342400002C1FDD2F466E7817F8020B7F280BD077
:103434003D46EB1BDBB2B3420FDA06AA134415F880
:10344400012B03F8182CF4E7304601F07BFE3D46CF
:103454000026023CA41B24B2E2E76A4671B2FFF7DD
:10346400BDFEF6E707B0F0BD2DE9F04F85B09DF83D
:10347400384004F0010504F002040294894C0395D9
:103484004FF48035A561002B76D0874B874F4FF4DE
:1034940080159D61C5B2000A460206F4007A060250
:1034A4004FEA400E06F480664AEA06060EF4807A75
:1034B4004FF087684FF4000C4FF0E06946EA0A06C3
:1034C400C3F81890C4F81880C7F818C09E61461055
:1034D4000EF0200E06F0100646EA0E0600F0080E66
:1034E40046EA0E064FEA001E0EF4806E800146EA9C
:1034F4000E0600F08000A661B86102264FF4003089
:1035040098614FEA052E986198619E619E61C3F8A7
:103514001890C4F81880C7F818C04FEA452C4FEA31
:1035240045080EF4806E0CF4007C4CEA0E0C08F492
:10353400807E4CEA0E0C4FEA650E0EF0100E08F079
:103544002008C3F818C04EEA080E05F0080C4EEA2D
:103554000C0E4FEA051C0CF4806CAD014EEA0C0E07
:1035640005F08005C4F818E0BD6198619861986120
:1035740010209E619E6198614D4B4B481B78DFF88B
:103584002C81019392B202314FF0E06A4FF08769C7
:103594004FF4003E4FF0020C13B2002B7DDD029E6F
:1035A40011F8023C11F8015C002E73D045EA0323A4
:1035B400019D2DB15D0005F03E0523F03E032B4334
:1035C400DDB21B0A5F0207F4007B4FF400061F0202
:1035D400C0F818A007F48067C4F81890C8F81860F9
:1035E4005E004BEA070706F4807B47EA0B07876116
:1035F4005F1007F0100706F020063E4303F00807AB
:103604003E431F0107F480673E439B01A66103F01C
:1036140080036E02C8F8183006F400774FF40003F4
:103624002E02C0F818E006F48066C0F818E0C0F86E
:1036340018E0C0F818C0C0F818C0C0F818A0C4F842
:103644001890C8F818306B003E4303F480773E436B
:1036540086616E1006F0100603F02003334305F074
:10366400080633432E0106F48066AD01334305F0AA
:103674008005013AA36192B2C8F818500231C0F82B
:1036840018E0C0F818E0C0F818E0C0F818C0C0F896
:1036940018C081E743EA05238AE70123A36105B043
:1036A400BDE8F08F00040240000002400008024020
:1036B4004904002010B54FF4A0720446F021FEF72F
:1036C40013FE024B2360204610BD00BFE0920008A9
:1036D40038B52D4B2D4C2E4D012018702D4B1A68EA
:1036E40022F47C121A602C4A116821F4401121F44E
:1036F4007C611160216821F440412160196841F422
:10370400A8111960116841F4801141F4A861116095
:10371400216841F480412160296B41F0070129634C
:10372400196821F0030101431960196821F00C01A3
:1037340041F004011960196821F4407141F4807169
:103744001960116821F0030101431160216821F01F
:103754000C0141F0040102252160906198619D6192
:103764003220A56101F0EEFC4FF40033A361642024
:1037740001F0E8FCA561642001F0E4FC0021B02024
:10378400BDE83840FFF744BC48040020000802406C
:103794000038024000000240000402402DE9F04FCE
:1037A4009E4B1B788BB08A4691460BB9FFF790FF6E
:1037B4009B4C9C4E9C4D4FF480374FF48013B76163
:1037C400A3614FEA1A2359021A025FFA8AF002F43B
:1037D40080624FEA430A01F4007111430AF48072D3
:1037E40011435A104FF0876C4FF4000E4FF0E0680D
:1037F40002F010020AF0200AC4F8188042EA0A0211
:10380400C6F818C0C5F818E0A16103F008010A431E
:10381400190101F480610A43B2619A0102F0800245
:10382400AA6102214FF40032A2614302A261A261A3
:10383400A161A161C4F81880C6F818C04FEA002C31
:10384400C5F818E00CF4806C4FEA400E03F40073E2
:1038540043EA0C030EF4807C43EA0C03A361431097
:103864000EF0200E03F0100343EA0E0300F0080EDE
:1038740043EA0E034FEA001E0EF4806E43EA0E0381
:10388400B361830103F08003AB611023A261A261E1
:10389400A261A161A161A361236823F47C13236065
:1038A400336823F4401323F47C6333602B6823F4DC
:1038B40040432B6001204FF0010B01F043FC3146E3
:1038C40023465E4638469E61986198619861986186
:1038D4009861986198611A6901922A6902921A6939
:1038E40003920A6904920A6905920A6906920A69AE
:1038F400079209F1FF391A6908924FFA89F99E6112
:103904009E619E61986198619861986198619861DF
:1039140098611A690992B9F1000FD5F810E01F698E
:10392400D1F810A0D1F810C0D1F810800C691A6930
:103934009E619E61C7DAC3F818B0C1F818B0186860
:1039440020F47C101860086820F4401020F47C6097
:103954000860286820F440402860186840F4A810E3
:1039640018600B6843F4801343F4A8630B602B685E
:10397400089943F480432B60079B49081B0901F015
:10398400800103F040030B43049901F008010B4349
:103994000699480000F020001843059B5908029B33
:1039A40001F010019B09084303F002031843019B33
:1039B400C3F3402318432409039B520804F0400432
:1039C40022F07F0222431B0A0AF0080A4FEA480841
:1039D40003F0040342EA0A0A08F020084FEA5C0CE8
:1039E40018434AEA0808099B0CF0100C4FEA9E1E83
:1039F40048EA0C0C0EF0020E4CEA0E0EC3F3402300
:103A04003F0A4EEA030E07F004074EEA0707FFB227
:103A140047EA00200BB0BDE8F08F00BF4804002047
:103A240000000240000402400008024070B5002279
:103A340005460E46FFF7B2FE0122044631462846EB
:103A4400FFF7ACFE40EA044070BDF8B5002204461E
:103A54000D46FFF7A3FE2946064601222046FFF73E
:103A64009DFE0222074629462046FFF797FE0012D4
:103A740040EA072040EA0660F8BD000037B500229E
:103A840011460446FFF78AFE45F20843984222D0C5
:103A940045F2204398421ED048F68913984200F01C
:103AA400B980002267212046FFF778FE44F247736D
:103AB400984200F0B280A1212046FFF7B7FF46F2FA
:103AC400011380B2984200F0AB804FF6FF73984226
:103AD40003D141F2265003B030BDBF212046FFF789
:103AE400B4FF48F2573380B29842F4D049F281438C
:103AF4009842F0D041F211539842ECD0B0F5A95F4E
:103B0400E9D041F226539842E3D041F281539842DE
:103B1400E1D0B0F5A05F00F08680D4212046FFF705
:103B240085FF45F2103380B29842D4D0D721204685
:103B3400FFF77CFF48F2310380B29842CBD0EF21EB
:103B44002046FFF782FF49F2273380B29842C2D061
:103B5400FE212046FFF76AFF42F25303C0F30F2011
:103B64009842B8D004212046FFF760FF0546C5F30C
:103B7400074580B2EDB9B0F5004F1AD12D4B1A8824
:103B8400ADF804209B788DF8063001AA0321B920F2
:103B9400FFF724FB2A46D0212046FFF7FFFDC0B2E1
:103BA400992804D0902810D149F2900093E79920E5
:103BB40091E741F2265398428BD048F252539842EF
:103BC40034D04AF61143984285D0D3212046FFF7DA
:103BD4002DFF0346C3F3072303F16D02D2B2012A7A
:103BE40080B27FF678AF982B3FF475AF772B3FF414
:103BF40072AF162B3FF46FAFD3283FF46CAF4DF286
:103C0400D33398423FF467AF002211462046FFF7B2
:103C1400C5FD60E741F289205DE748F247305AE785
:103C240041F6631057E746F6140054E747F28970EB
:103C340051E700BFA47D00082DE9F3411E46838CA3
:103C4400BDF92040174649F227329342054688467B
:103C540036D1437E022B04D120373FB2203424B224
:103C640007E0032B05D101F1200820360FFA88F86C
:103C740036B26B8CD90736D5688E8DF805804FEA3D
:103C840028238DF8043001AA33120421C0B28DF820
:103C940006308DF80760FFF7A1FAE88E8DF80570FD
:103CA4003B128DF8043001AA23120421C0B28DF80E
:103CB40006308DF80740FFF791FA02B0BDE8F081B5
:103CC40041F226529342D4D1437ED807D1D5A2B231
:103CD400D31B9BB20BB9541CC1E7B14202BF5B18A2
:103CE4001EB23C46C5E71FFA88F1A88DFFF790F98C
:103CF400B9B2E88DFFF78CF9464501D1BC42DCD05E
:103D04006B8C9A060CD56B7EDB074BBF47EA042706
:103D140048EA06283FB20FFA88F84CBF3C464646AC
:103D24001FFA88F1688EFFF773F9B9B2E88EFFF7CE
:103D34006FF9B1B2A88EFFF76BF9A1B2288FFFF724
:103D440067F9BAE72DE9F04F9DB0048E0B93BDF9E6
:103D540098300C93BDF99C300D93BDF83450BDF8E8
:103D64003030039013FB05F636B20696468CDFF826
:103D740004B216F0010F8EB2089696B20996089E08
:103D840006F1FF363344099E06F1FF3635442DB261
:103D940018BF2E241BB20095FFF74EFFE3B2240A8E
:103DA40061022202600002F4806201F40071114396
:103DB40000F480720A430E92621000F0200002F0B8
:103DC400100204F0080102430A43210101F4806156
:103DD4000A43A4010F9204F08002180210925A02BE
:103DE400590000F4806002F40072024301F4807010
:103DF400024311925A1001F0200102F010020A430A
:103E040003F008010A4319019B0103F0800301F444
:103E140080610A431393544C129200230493059334
:103E2400069B002B039B5A8C40F38782D7070FD441
:103E3400089B049A9918039B89B2988DFFF7E8F8B8
:103E4400099B059A9918039B89B2D88DFFF7E0F86E
:103E5400464B4FF480114FF48032A2614FF08766D5
:103E640099614FF400050E994FF0E0679F61A661D8
:103E7400CBF8185099610F99A1611099CBF81810DB
:103E840002204FF4003199619961996198619861B8
:103E94009F61A661CBF81850119D9D61129DA5618B
:103EA400139DCBF81850996199619961102198611B
:103EB40098619961196821F47C111960216821F4D1
:103EC400401121F47C612160DBF8001021F44041B1
:103ED400CBF800100399498C4E061FD4CD0706D4A5
:103EE4000399888C41F28921884240F068811F4BF4
:103EF400012199614FF480329A619A619A619A61C1
:103F04009A619A619A611A69DBF810201A69226928
:103F14002269226922691A6999619961039B9A8CC1
:103F240041F211539A4216D1104B4FF480320121C1
:103F340099619A619A619A619A619A619A619A61A6
:103F44001A69DBF810201A69226922692269226938
:103F54001A6999619961064B1B781B93034B4FF4C3
:103F64008032012108E000BF00040240000002404A
:103F740049040020000802400398408C0790C006C2
:103F840099619A619A619A619A619A619A619A6156
:103F940040F13981D3F81090DBF810E01F69D4F8B0
:103FA40010C0266925692069D3F810804FEA9E1E47
:103FB400C9F340290EF0020E49EA0E0E0CF0080C6B
:103FC4003F0A4EEA0C0E760807F0040C4EEA0C0E7B
:103FD4006D0006F0100C4EEA0C0E000905F0200CE2
:103FE4004EEA0C0E00F0400C4FEA58004EEA0C0C5E
:103FF40000F0800040EA0C000A909961996199618F
:104004009A619A619A619A619A619A619A61D3F804
:104014001090DBF810E01869D4F81080276926693D
:104024002569D3F810C099614FEA9E1EC9F340294F
:104034000EF0020E49EA0E0E08F00808000A4EEAD5
:10404400080E7F0800F004084EEA080E760007F018
:1040540010084EEA080E2D0906F0200899614EEA70
:10406400080E996105F040089A619A619A619A6113
:104074009A619A619A61D3F810A04EEA080EDBF8AF
:1040840010804FEA5C0000F08000D3F810C0D4F830
:1040940010904FEA981840EA0E00CAF3402AD4F868
:1040A40010E0276926691D69996108F0020809F082
:1040B40008094AEA08084FEA1C2C48EA09084FEAAA
:1040C4005E0E0CF0040948EA09087F000EF010099E
:1040D40048EA0908360907F0200948EA09086D0882
:1040E40006F0400948EA090805F08009079D99612E
:1040F40015F0040F49EA08084FEAC0009B4D79D037
:1041040000F4FC6005EA082848EA00080A9848EA2E
:10411400D0091B9868B14FEA691808F02008C9F360
:10412400440C48EA0C0629F03F0846EA08081FFA3E
:1041340088F90B9820F8029B0B900698013880B2FE
:1041440005B20695039D6D8CAD074ED4049B0133D7
:104154001BB20493049A0C9B93420BDC059B013322
:104164001BB20593059A0D9B93424FF000030493F1
:10417400D8BF05937E4B01229A61A2611A6822F48A
:104184007C121A60226822F4401222F47C622260BB
:10419400DBF8002022F44042CBF800201A6842F4F5
:1041A400A8121A60236843F4801343F4A8632360BD
:1041B400DBF8003043F48043CBF8003030E60121D3
:1041C40099619A619A619A619A619A619A619A6114
:1041D4001869DBF8100018692069206920692069D2
:1041E400186999619961996186E600287FF4C4AEE3
:1041F4000690ABE70A9E00F4FC6005EA0625284316
:1042040040EAD80985E7D3F810E0DBF810C0186954
:104214000A90D4F8109027692669206914901869C7
:1042240015909961996199619A619A619A619A610B
:104234009A619A619A61D3F810A0DBF8105018695A
:104244001690D4F81080206917902069189020697E
:10425400199018691A904FEA9C1C0A989961CEF338
:10426400402E0CF0020C4EEA0C0C09F008094FEA3F
:10427400102E4CEA090C7F080EF004094CEA090CD4
:104284001498996107F0100976004CEA090C06F0BD
:1042940020094CEA090C4FEA1019159809F0400955
:1042A4004CEA090CAD094FEA50091698CAF3402AA2
:1042B40005F0020508F00808000A4AEA050A4AEA75
:1042C400080A00F0040817984AEA080A4FEA500856
:1042D400189808F010084AEA080A4FEA40081998A2
:1042E40008F020084AEA080A4FEA10181A9808F059
:1042F40040084AEA080A4FEA5008079809F080097A
:1043040008F0800849EA0C0C4AEA0808070748EA5A
:104314000C2903D599FA99F81FFA88F907984607E2
:104324007FF5F7AE4FEAC92646EAD92609F4FC69B7
:1043340046EA09091FFA89F9EBE612F0010410D1E3
:104344000398FEF748FE05460398FEF747FE01383A
:1043540000B26B1E00901BB2224621460398FFF761
:104364006BFC00201DB0BDE8F08F00BF00F8FFFF1C
:1043740000000240F7B50F1E064615461C4621DB19
:10438400002A1FDBFEF727FE87421BDA3046FEF7C2
:1043940025FE854216DA0C4B1B782BB1630003F023
:1043A4003E0324F03E041C433946304600953B4608
:1043B4002A46FFF741FC308E214603B0BDE8F040A9
:1043C400FEF726BE03B0F0BD490400202DE9F04FEE
:1043D4009146BF4A89B01278BDF94860BDF84C4097
:1043E40005462AB1620002F03E0224F03E04144362
:1043F400002B07DA1FFA83F8C8F1000388441BB2C4
:104404000FFA88F12846CF1821EAE178FEF7E3FD98
:104414003FB2874203DD2846FEF7DDFD0746BFB203
:10442400A7EB08031BB2002E039305DAB2B256427F
:10443400914436B20FFA89F92846FEF7CFFD4E446F
:1044440036B2864229EAE97903DD2846FEF7C6FD3D
:104454000646B2B2A2EB0906013A7B1E12B24146ED
:1044640000921BB24A462846FFF7E6FB99499A4F49
:104474004FF480338B61994B4FF480129A612A8EEA
:10448400D0B2120A4FEA422E0EF4007B4FEA022EFB
:104494004FEA420C0EF4806E4BEA0E0E0CF4807B55
:1044A4004FF0E06A4FF087694FF400084EEA0B0EB4
:1044B400C3F818A0C1F81890C7F81880C3F818E01A
:1044C4004FEA620E0CF0200C0EF0100E4EEA0C0EA9
:1044D40002F0080C4EEA0C0E4FEA021C0CF4806C3D
:1044E40092014EEA0C0E02F08002C1F818E0BA61A3
:1044F4004FF0020E4FF400329A614FEA002C9A6199
:104504009A61C3F818E0C3F818E0C3F818A0C1F81A
:104514001890C7F818804FEA40284FEA40090CF475
:10452400806C08F4007848EA0C0809F4807C48EAB6
:104534000C084FEA600C09F020090CF0100CC3F8C9
:1045440018804CEA090C00F008084CEA080C4FEA01
:10455400001808F4806880014CEA080C00F0800020
:10456400C1F818C0B8619A619A619A611022C3F8BF
:1045740018E0C3F818E09A61039B36B2E2B2B34282
:104584004FEA1424B8BF03964FEA4420B8BF1E462E
:10459400230203F48063BE4600F4007067001843EE
:1045A40007F4807303430493631003F0100307F0CC
:1045B400200704F008003B430343200100F480601B
:1045C4000343A4014FEA422B1002059304F0800335
:1045D40000F4806006930BF4007B53004BEA000B5D
:1045E40003F480704BEA000B501003F0200300F03A
:1045F4001000184302F008031843130103F4806306
:104604009201184302F080030793344BB6B24FF083
:10461400E0684FF087694FF4000A4FF400344FF01C
:10462400020C37B2002F2EDD039F049AC3F81880C2
:10463400C1F81890CEF818A09A61059A8A61013FD2
:10464400069ACEF818203FB2079A9C619C619C613F
:10465400C3F818C0C3F818C0C3F81880C1F818907C
:10466400CEF818A0C3F818B08861CEF818209C6161
:104674009C619C61C3F818C0C3F818C0002FD4D142
:10468400013EB6B2CDE701238B616B8CDA0707D507
:10469400AA8C41F226539A4216D16B7EDB0713D5BE
:1046A4002846FEF798FC04462846FEF797FC013896
:1046B400631E00B2002212901BB21146284609B0B4
:1046C400BDE8F04FFFF7B8BA09B0BDE8F08F00BFFE
:1046D4004904002000040240000802400000024097
:1046E40013B50024008E0094FEF7BEFE02B010BD88
:1046F40010B49DF80440008E002C14BF0324012440
:1047040001945DF8044BFEF7AFBE2DE9F341064674
:10471400808C984649F22733984205D1737E023B38
:10472400012B9CBF203109B275898FB293B2ED1B66
:1047340049F22734ED1AA042ADB208BF2035C2F1C8
:10474400000408BFADB2A0453EDD4245D8BF4FF0DE
:10475400000807EB0804B8F1000FA4B2B6F822E091
:10476400BCBFE418A4B21EF0010F30D00B128DF8B8
:10477400003013128DF801108DF802308DF80320EB
:1047840045F307236A46062133208DF804308DF85B
:104794000550FEF723FD44F307236A460221372020
:1047A4008DF800308DF80140FEF718FDB8F1000FC8
:1047B40007D1738CDB0704D5424641461320FEF72C
:1047C4000DFD02B0BDE8F0814FF00008C1E747F2EB
:1047D400937290422ED01AD845F22042904229D0AA
:1047E40047F28372904231D0B0F5AA7F19D1591E95
:1047F400394489B23120FEF70BFC39463220FEF7EA
:1048040007FCE11B89B23320FEF702FCD9E749F229
:10481400263290420ED009D8A0F51240253801283E
:10482400E5D9F18C41F0020189B210E04BF2095351
:104834009842F6D1F18C41F0020189B240F2014074
:10484400FEF7E6FB214640F20440DDE7F18C6120EF
:10485400FEF7DEFB21466A20D6E730B501F00303FC
:1048640011F0010114BFB0F90A20B0F90820437611
:1048740085B004468281002900F09080B0F90820B8
:10488400E281022B00F08D80032B00F08C80012B41
:1048940014BF482328238DF80B30638CDA0542BFFC
:1048A4009DF80B2082F080028DF80B209D0542BFFD
:1048B4009DF80B2082F040028DF80B20180542BFB2
:1048C4009DF80B2082F008028DF80B2013F0010FE5
:1048D400A38C00F0A58046F61402934265D19DF89E
:1048E4000B2012F0800F14BF4023002312F0400F5E
:1048F40014BF2021002102F0280243F002030B43DD
:104904008DF80B2000228DF80C208DF80D3003AAB1
:104914003B230321B6208DF80E30FEF75FFC2B23DA
:104924002A222C21A285E38521866286A286E3863B
:1049340023870DF10B0201213620FEF74FFC9DF871
:104944000B302385637EDA070ED5638C5B050BD4AD
:10495400A38DE28DA285E385E28E638EE386628673
:10496400A38E228FA28623872046FEF734FB0546BA
:104974002046FEF733FB013800226B1E00B2009084
:10498400114620461BB2FFF757F90023B4F90A2059
:1049940019462046FFF7B9FE05B030BDB0F90A202C
:1049A4006EE7982377E7F82375E741F6631293429D
:1049B40007D049F28142934203D041F2115293420B
:1049C400ADD19DF80B20110644BF42F001028DF8D1
:1049D4000B209DF80B20550644BF42F002028DF8CF
:1049E4000B2041F66312934206D19DF80B3003F07D
:1049F4003F038DF80B3092E749F28142934204D190
:104A04009DF80B3003F02F03F3E741F21152934268
:104A140085D19DF80B3023F0100363F03F03E8E7E2
:104A240047F29372934207D03CD8B3F5AA7F40D0A3
:104A340045F22042934273D14FF40072A28540F2B2
:104A44000122E28540F2022222864FF40472628639
:104A540040F21122A28640F21222E28640F2132290
:104A640022879DF90B20002A49F22632B4BF4FF465
:104A740000410021934250D045F2204293420CBFA2
:104A84004FF454534FF4D44319434FF48060FEF76A
:104A9400BFFA9DF80B3013F0400F14BF4FF4807130
:104AA400002125E049F226329342C5D04BF2095247
:104AB400C0E7372363863623A3863923E386382366
:104AC40023872023A3852123E385222323869DF89E
:104AD4000B3013F0800F14BF4FF40071002113F05A
:104AE400400F14BF4FF480730023194341F0280191
:104AF4000120FEF78DFA9DF80B3013F0200F14BF40
:104B040008210021180748BF41F4805141F03001C9
:104B140021850320FEF77CFA14E74FF45453B3E7DE
:104B24002023A3852123E385222323865023638620
:104B34005123A3869DF90B105223E3865323238725
:104B44000029B4BF4FF427414FF41C5160209EE765
:104B5400F0B585B004460D46FEF7BAFD48F257336A
:104B640000269D422684A58400F0838100F2E5801E
:104B740044F235539D4200F0708100F28A80B5F50D
:104B8400A95F00F0648168D8B5F5AA7F00F0578169
:104B940006D8992D00F07981002525812E4611E053
:104BA40041F205539D4200F07C8141F211539D4234
:104BB400F2D14FF4F07303276381C14E67844FF43D
:104BC400A0732381638CC3F30033E3845EB10921B2
:104BD400BC48FEF721FC39463046FEF71DFC062191
:104BE400B948FEF719FC236800219B6A20469847C0
:104BF40023680021DB6A20469847A28C49F2884347
:104C04009A4228D12368B14F9E6800254FF6E0737D
:104C14002A46294620463D70B04701260DF10E0371
:104C24002A460196009629462046FFF78BF8BDF8E0
:104C34000E204FF61F739A420DD106230DF10E027A
:104C440031463A208DF80E30FEF7C8FA638C3E7078
:104C540023F01003638405B0F0BD41F281539D42FB
:104C640000F0708109D841F226539D4294D140F25C
:104C7400134363840C27964EA4E741F202639D42DA
:104C840000F0518142F253039D4285D141F2174312
:104C94004BE147F283739D4200F0E5802CD845F246
:104CA40008439D4200F0FD8010D845F210339D4228
:104CB4007FF472AF40F6136363844FF4F07363813F
:104CC4004FF4A07323810227824E7BE746F6090343
:104CD4009D4200F0EF8046F614039D427FF45CAFE2
:104CE40040F2034363844FF4F07363814FF4A07381
:104CF40023810327784E65E747F293739D4200F0C2
:104D04003F810AD847F289739D427FF445AF40F250
:104D1400134363844127714E54E747F296739D42CF
:104D240000F01F8148F231039D427FF435AF41F218
:104D34001343638412276A4E44E749F238339D4291
:104D440000F0FA8032D849F227339D4200F0E08027
:104D54001AD849F202339D4200F0EB8007D849F299
:104D640090039D427FF418AF41F2134383E049F26C
:104D740020339D4200F0958049F225339D427FF413
:104D84000BAF4FF4885397E049F229339D4200F06A
:104D9400D680F6D349F231339D4204D049F23533FB
:104DA4009D427FF4F9AE4FF4805385E049F2884385
:104DB4009D4227D849F287439D4280F0DE8049F224
:104DC40081439D4200F0CA800BD8A5F51345403DB0
:104DD400012D3FF6E1AE40F2134363846527414E53
:104DE400F0E649F286439D427FF4D6AE40F2034397
:104DF40063844FF4F07363814FF4A07323813B27E2
:104E0400394EDFE64BF205539D4212D007D84AF6DD
:104E140011439D427FF4C0AE41F2134385E04BF24F
:104E240009539D4200F0AC804CF205539D427FF43F
:104E3400B3AE41F208036384B0212C4836E041F25A
:104E440002032B4863849C21FEF7CEFABAE640F2B3
:104E5400134363840627274EB4E64FF480536384D8
:104E64009C212548F0E741F20213638490212348F2
:104E7400EAE741F2034363844FF4F07363814FF430
:104E8400A073238102271E4E9CE641F213436384E0
:104E94004FF4F07363814FF4A07323811D27194EDF
:104EA40090E641F2040318486384D821FEF79CFA83
:104EB400002687E641F202136384CC211348F5E708
:104EC4003A930008CA990008C499000849040020CC
:104ED4004393000869960008C1990008E09300080C
:104EE40028930008319900082E9600086C96000853
:104EF400DC9700083D930008789800085093000858
:104F0400219400081499000824940008FC940008D3
:104F140040F2034363844FF4C8736381F023238115
:104F24001E271D4E4EE640F21353638403271B4E87
:104F340048E640F20343F8E740F21343F5E741F251
:104F44000363F2E740F2134363844FF4F073638125
:104F54004FF4A07323814527114E33E640F20743F3
:104F6400F2E740F2034363844FF4F07363814FF438
:104F7400A07323812B270B4E24E640F21343F2E760
:104F84004FF480536384C0210748FEF72DFA4FF491
:104F9400C87363818CE700BFC8950008E6950008D4
:104FA400E9950008969900081C97000830B595B05B
:104FB4000022274B0192196C41F0805119641B6C3B
:104FC400244903F080530193019B02920B6823F45C
:104FD400404343F400430B600B680F9203F44043D7
:104FE4000293029B01230B9310230C9310934FF411
:104FF400A873022411930425072308A808940E9487
:105004001295139301F044FB00B1FEE70F230393C1
:1050140005904FF480530790214603A80494069307
:1050240001F0E6FC044600B1FEE701F07BFD4FF41D
:105034007A73B0FBF3F000F07FFD284600F0A2FD88
:10504400224621464FF0FF3000F034FD15B030BD4C
:105054000038024000700040DFF834D0002103E043
:105064000C4B5B58435004310B480C4B42189A428A
:10507400F6D30B4A02E0002342F8043B094B9A4260
:10508400F9D300F005FA02F039FD02F07BFC704719
:1050940000800120249C00080000002078000020EB
:1050A40078000020F4070020FEE700F0E8B870471D
:1050B40070B58AB069B1931E222B1ED801AC254667
:1050C400234648B9AC4207D00A46AB4210D8002365
:1050D400137008460AB070BDB0FBF2F602FB16036B
:1050E400092B94BF30335733237030460134E7E73C
:1050F40013F8010D02F8010BE7E70021E9E70000CE
:105104000A490B6810B51844EFF30882904206D997
:10511400074B0C221A604FF0FF33184610BD054CA4
:10512400054A121B9042F3D20860F6E704000020FF
:10513400F0070020000400000080012000F094B873
:1051440000F076B838B5044648B100F08DF805464D
:10515400FFF7ADFF00F088F8401B8442F8D838BD53
:1051640086B00023052853D8DFE800F003111E2B76
:1051740038450093274B28481A6B42F001021A6302
:105184001B6B03F001030093009B06B0704701936F
:10519400204B22481A6B42F002021A631B6B03F085
:1051A40002030193019BF0E702931A4B1C481A6B0C
:1051B40042F004021A631B6B03F004030293029B84
:1051C400E3E70393134B17481A6B42F008021A6380
:1051D4001B6B03F008030393039BD6E704930D4B67
:1051E40011481A6B42F010021A631B6B03F0100390
:1051F4000493049BC9E70593064B0C481A6B42F0D1
:1052040080021A631B6B03F080030593059BBCE7C4
:105214000020BAE7003802400000024000040240C7
:1052240000080240000C024000100240001C024032
:1052340010B50C4C236800F025FC6368A268216853
:10524400C90309D49B1A4FF47A7261685343B3FBC0
:10525400F1F302FB003010BD00F014FC6368A26897
:10526400F0E700BF10E000E000F00CBC704708B5A8
:1052740000F0FCFB00F093FCFFF7F8FF08BD08B555
:1052840000F0DAFBBDE80840FFF790BE30B5C36814
:1052940091FAA1F4B4FA84F491FAA1F10325B1FAD4
:1052A40081F1640005FA04F4490023EA040302FAD4
:1052B40001F11943C16030BD2DE9F041474B00F0C5
:1052C4000F08C0F3031401300E4601F0070753F82A
:1052D400285003D14321424800F0D8F82046FFF774
:1052E4003FFF0446826895FAA5F3B3FA83F395FA6F
:1052F400A5F103205B00B1FA81F100FA03F322EA7D
:1053040003034A0000FA02F21343A360874236D82B
:10531400DFE807F01D1D021DB8F1070FC6F30620D4
:1053240017D9626A2B0A93FAA3F1B1FA81F193FABD
:10533400A3F34FF00F0EB3FA83F389000EFA01F1D1
:105344009B0022EA010200FA03F3134363623B4623
:105354001AE0226A95FAA5F3B3FA83F395FAA5F154
:105364004FF00F0EB1FA81F19B000EFA03F389009E
:1053740022EA030200FA01F313432362E7E76A21F6
:10538400174800F083F80023226895FAA5F0B0FAD4
:1053940080F095FAA5F14FF0030EB1FA81F14000C7
:1053A4000EFA00F0490022EA00028B40013F134349
:1053B400012F236005D8636832074CBF2B43AB43EE
:1053C4006360C6F30112012A02D0022A18BF002228
:1053D40029462046BDE8F041FFF758BF049B00086A
:1053E4009F9A0008431C06D17047984202D18968ED
:1053F400FFF762BF0C3191F900305A1CF5D19221AC
:10540400014800F043B800BF9F9A000891F90030AA
:105414005A1C01D100207047834201D1486870476B
:105424000C31F3E7431C01D0FFF7F0BF00207047B5
:105434004B6813B94FF0FF307047834202D191F9A2
:10544400000070470C31F3E708B1FFF7F1BF4FF0EC
:10545400FF307047884204D018B100290CBF0146C0
:105464000021084670470000034B1B6813B1034A30
:1054740010681847704700BF4C04002070040020D7
:10548400014801F075BB00BF50040020FEE7000096
:105494000F49D1F8883043F47003C1F888300D4BBC
:1054A4001A68002042F001021A6098601A6822F01B
:1054B400847222F480321A60074A5A601A6822F40D
:1054C40080221A60D8604FF000638B60704700BF81
:1054D40000ED00E00038024010300024436C2BB192
:1054E400027E012A02D1002104381847704703467E
:1054F40004381B6C03B118477047000010B5064C04
:10550400206808B101F062FB606A18B1BDE8104080
:1055140001F05CBB10BD00BF74040020024B58684E
:1055240008B101F053BB704774040020024B986823
:1055340008B101F04BBB704774040020024BD868DB
:1055440008B101F043BB704774040020024B186992
:1055540008B101F03BBB704774040020024B186A89
:1055640008B101F033BB704774040020024B986A01
:1055740008B101F02BBB704774040020C3689A4241
:1055840010B504461CD171B9436E80F8581003B1AC
:10559400984794F8882004F1680120460823BDE860
:1055A400104000F01FBB00230122C36580F858207F
:1055B400C16D014402236831BDE8104000F04EBBC8
:1055C40010BD036E10B5044643B190F85820012A6B
:1055D40004D1C26D12B1C16D68309847022384F8BA
:1055E40058300023E3652046BDE8104000F072BB4C
:1055F400C36D1F2BDEBFC36D0133C36590F8582004
:10560400D2B2012A05D1C16D01440223683100F0F0
:1056140025BB7047002380F88830704790F85930D4
:105624000BB900F057BB7047014B186800F006BC7B
:10563400CC040020014B186800F06ABFCC040020A1
:10564400014B586800F0FABBCC040020014B5868A9
:1056540000F05EBFCC040020014B986800F0EEBB64
:10566400CC040020014B986800F052BFCC04002009
:1056740030B5044685B0002854D0484990F9580004
:10568400FFF7D0FE4649054694F95900FFF7CAFED4
:105694000146002846D0002D44D02846FFF7DAFE04
:1056A400206000283ED03F4B98423DD103F594330F
:1056B40000215A6A42F010025A625A6A22F0100219
:1056C4005A6201915A6C42F010025A645B6C84F87D
:1056D400441003F010030193019B252384F85A30EE
:1056E4002E4994F95800FFF77DFE94F959002C498E
:1056F400FFF778FE2C4B94F84420251D43F82250E4
:1057040023686360A36CA360E36CE360236D23618F
:10571400636D63610C23A3610023E3612362284664
:1057240001F021FC05B030BD204B984219D103F59E
:10573400FA331A6A42F400321A621A6A22F4003204
:105744001A62002202921A6C42F400321A641B6C30
:1057540003F400330293029B012384F8443026238C
:10576400BCE7134B9842BBD103F592335A6A42F01B
:1057740020025A625A6A22F020025A6200220392DC
:105784005A6C42F020025A645B6C03F020030393CA
:10579400039B052384F8443047239FE71C9A0008A1
:1057A400D49900080010014078050020004400400E
:1057B4000014014008B5074B90F8442053F8220028
:1057C40001F024FD00F02200A0F1220358425841C8
:1057D40008BD00BF7805002008B5074B90F84420A9
:1057E40053F8220001F012FD00F02100A0F1210382
:1057F4005842584108BD00BF7805002070B50E46D8
:10580400054610B94FF0FF3070BDFFF7D3FF0446D3
:105814000028F7D12946064B11F8452F327095F828
:105824004400012253F8200001F0EAFB204670BD39
:105834007805002038B50D46044600B3FFF7BAFFDB
:10584400E8B994F844300E4A42F823500D4A014610
:1058540042F8234094F95A00012200F02BF994F9FC
:105864005A0000F05BF994F84400074B04F1450139
:1058740053F820000122BDE8384001F0C1BB38BD17
:10588400D8040020000500207805002010B5044647
:1058940000B390F84430104A42F823100F4A002114
:1058A40042F82300022290F95A0000F003F994F917
:1058B4005A0000F033F9636EB4F86A1094F84400A7
:1058C40013FA81F1064B012253F82000BDE8104081
:1058D40001F077BB10BD00BF280500205005002053
:1058E4007805002010B548B10649002351F823403B
:1058F400A042DAB203D001330A2BF7D10A221046B0
:1059040010BD00BF7805002010B5FFF7EBFF092894
:1059140008D8054B054A53F8203052F82000BDE85A
:105924001040184710BD00BFD80400200005002017
:1059340010B5FFF7D7FF092818D80D4B53F82040AE
:105944000C4B53F820302046984701300ED0636E3C
:10595400B4F86A1094F8440013FA81F1064B01225A
:1059640053F82000BDE8104001F02BBB10BD00BF70
:1059740050050020280500207805002003681A68D7
:10598400D20782B002D55B68019308E01A689007D9
:10599400F9D41A685107F6D41A681207F3D4019B94
:1059A40002B0704708B5252000F0DCF8024B1868F7
:1059B400BDE8084001F082BB7805002008B5262028
:1059C40000F0D0F8024B5868BDE8084001F076BBFF
:1059D4007805002008B5472000F0C4F8024B586948
:1059E400BDE8084001F06ABB78050020704700005C
:1059F40038B50E4A0E4B054618784FF47A73B3FB4C
:105A0400F0F31068B0FBF3F000F096F8044658B9D0
:105A14000F2D09D8024629464FF0FF3000F04AF80E
:105A2400044B20461D6038BD012038BD080000200D
:105A34000C0000201000002008B50B4B1A6842F43B
:105A440000721A601A6842F480621A601A6842F49A
:105A540080721A60032000F01BF80F20FFF7C8FFC4
:105A6400FFF7C4FF002008BD003C0240034A044B7A
:105A740011681B780B441360704700BFEC070020CB
:105A84000C000020014B1868704700BFEC07002091
:105A9400074AD36823F4E0631B041B0C43F0BF6381
:105AA400000243F4003300F4E0600343D360704722
:105AB40000ED00E0174B30B5DC68C4F30224C4F1F8
:105AC4000703251D042B28BF0423062D4FF00105D1
