:020000040800F2
:1000000000800120C146010811470108114701087D
:1000100011470108114701081147010800000000BD
:10002000000000000000000000000000114701086F
:10003000114701080000000011470108C34B0108E7
:10004000114701081147010811470108114701082C
:10005000114701081147010851840108578401081C
:100060005D8401086384010869840108114701085F
:1000700011470108114701081147010811470108FC
:10008000114701081147010811470108000000004D
:100090000000000000000000000000006F84010864
:1000A00065520108055201087552010811470108FF
:1000B0002552010835520108455201081956010818
:1000C00025560108315601083D560108114701081F
:1000D0001147010895590108AD59010800000000B9
:1000E00085840108154E0108114701080000000031
:1000F000000000000000000000000000114701089F
:10010000000000001147010855520108114701087D
:1001100000000000000000000000000000000000DF
:10012000114701081147010811470108114701084B
:10013000114701080000000000000000000000005E
:10014000000000000000000000000000114701084E
:10015000114701081147010811470108C559010855
:100160004956010855560108000000000000000033
:10017000000000000000000000000000000000007F
:10018000000000001147010800000000000000000E
:04019000114701080A
:1001940010B5054C237833B9044B13B10448AFF3BD
:1001A40000800123237010BDB8020020000000006D
:1001B400B48801080C4B43B10C480D4910B5AFF39A
:1001C40000800C48036823B910BD0A48036833B99A
:1001D4007047094B002BF7D0BDE810401847064B79
:1001E400002BF5D0184700BF00000000B4880108B8
:1001F400BC020020B802002000000000034613F8EF
:10020400012B002AFBD1181A0138704781F00041F4
:1002140002E000BF83F0004330B54FEA41044FEAE7
:10022400430594EA050F08BF90EA020F1FBF54EA82
:10023400000C55EA020C7FEA645C7FEA655C00F01E
:10024400E2804FEA5454D4EB5555B8BF6D420CDDEF
:100254002C4480EA020281EA030382EA000083EA72
:10026400010180EA020281EA0303362D88BF30BD12
:1002740011F0004F4FEA01314FF4801C4CEA113168
:1002840002D0404261EB410113F0004F4FEA0333C7
:100294004CEA133302D0524263EB430394EA050F52
:1002A40000F0A780A4F10104D5F1200E0DDB02FAC1
:1002B4000EFC22FA05F2801841F1000103FA0EF255
:1002C400801843FA05F359410EE0A5F120050EF11B
:1002D400200E012A03FA0EFC28BF4CF0020C43FA4C
:1002E40005F3C01851EBE37101F0004507D54FF059
:1002F400000EDCF1000C7EEB00006EEB0101B1F5A9
:10030400801F1BD3B1F5001F0CD349085FEA3000EE
:100314004FEA3C0C04F101044FEA445212F5800FF9
:1003240080F09A80BCF1004F08BF5FEA500C50F196
:10033400000041EB045141EA050130BD5FEA4C0C79
:10034400404141EB010111F4801FA4F10104E9D102
:1003540091F0000F04BF01460020B1FA81F308BFF9
:100364002033A3F10B03B3F120020CDA0C3208DDC5
:1003740002F1140CC2F10C0201FA0CF021FA02F1A0
:100384000CE002F11402D8BFC2F1200C01FA02F110
:1003940020FA0CFCDCBF41EA0C019040E41AA2BF35
:1003A40001EB0451294330BD6FEA04041F3C1CDAFD
:1003B4000C340EDC04F11404C4F1200220FA04F01D
:1003C40001FA02F340EA030021FA04F345EA0301C7
:1003D40030BDC4F10C04C4F1200220FA02F001FA89
:1003E40004F340EA0300294630BD21FA04F029460B
:1003F40030BD94F0000F83F4801306BF81F48011A4
:100404000134013D4EE77FEA645C18BF7FEA655C16
:1004140029D094EA050F08BF90EA020F05D054EAE8
:10042400000C04BF1946104630BD91EA030F1EBFED
:100434000021002030BD5FEA545C05D140004941F1
:1004440028BF41F0004130BD14F580043CBF01F5E4
:10045400801130BD01F0004545F0FE4141F47001CA
:100464004FF0000030BD7FEA645C1ABF19461046A5
:100474007FEA655C1CBF0B46024650EA013406BFA6
:1004840052EA033591EA030F41F4002130BD00BF65
:1004940090F0000F04BF0021704730B54FF4806422
:1004A40004F132044FF000054FF0000150E700BFA3
:1004B40090F0000F04BF0021704730B54FF4806402
:1004C40004F1320410F0004548BF40424FF00001EF
:1004D4003EE700BF42004FEAE2014FEA31014FEA32
:1004E40002701FBF12F07F4393F07F4F81F0605181
:1004F400704792F0000F14BF93F07F4F704730B5F0
:100504004FF4607401F0004521F0004120E700BF82
:1005140050EA010208BF704730B54FF000050AE009
:1005240050EA010208BF704730B511F0004502D50A
:10053400404261EB41014FF4806404F132045FEA0C
:10054400915C3FF4DCAE4FF003025FEADC0C18BFB1
:1005540003325FEADC0C18BF033202EBDC02C2F1A7
:10056400200300FA03FC20FA02F001FA03FE40EA39
:100574000E0021FA02F11444C1E600BF70B54FF039
:10058400FF0C4CF4E06C1CEA11541DBF1CEA13551B
:1005940094EA0C0F95EA0C0F00F0DEF82C4481EA83
:1005A400030621EA4C5123EA4C5350EA013518BFA3
:1005B40052EA033541F4801143F4801338D0A0FB90
:1005C40002CE4FF00005E1FB02E506F00042E0FB3D
:1005D40003E54FF00006E1FB03569CF0000F18BF43
:1005E4004EF0010EA4F1FF04B6F5007F64F54074EB
:1005F40004D25FEA4E0E6D4146EB060642EAC6217E
:1006040041EA55514FEAC52040EA5E504FEACE2EEA
:10061400B4F1FD0C88BFBCF5E06F1ED8BEF1004FED
:1006240008BF5FEA500E50F1000041EB045170BD69
:1006340006F0004646EA010140EA020081EA0301AD
:10064400B4EB5C04C2BFD4EB0C0541EA045170BDA9
:1006540041F480114FF0000E013C00F3AB8014F123
:10066400360FDEBF002001F0004170BDC4F100046C
:10067400203C35DA0C341BDC04F11404C4F12005ED
:1006840000FA05F320FA04F001FA05F240EA020048
:1006940001F0004221F0004110EBD37021FA04F67E
:1006A40042EB06015EEA430E08BF20EAD37070BD38
:1006B400C4F10C04C4F1200500FA04F320FA05F097
:1006C40001FA04F240EA020001F0004110EBD37099
:1006D40041F100015EEA430E08BF20EAD37070BD09
:1006E400C4F1200500FA05F24EEA020E20FA04F3E2
:1006F40001FA05F243EA020321FA04F001F0004191
:1007040021FA04F220EA020000EBD3705EEA430E01
:1007140008BF20EAD37070BD94F0000F0FD101F030
:100724000046400041EB010111F4801F08BF013C69
:10073400F7D041EA060195F0000F18BF704703F0A7
:100744000046520043EB030313F4801F08BF013D2E
:10075400F7D043EA0603704794EA0C0F0CEA1355EA
:1007640018BF95EA0C0F0CD050EA410618BF52EAA4
:100774004306D1D181EA030101F000414FF00000AA
:1007840070BD50EA410606BF1046194652EA4306B8
:1007940019D094EA0C0F02D150EA013613D195EA2C
:1007A4000C0F05D152EA03361CBF104619460AD174
:1007B40081EA030101F0004141F0FE4141F470017E
:1007C4004FF0000070BD41F0FE4141F4780170BD6E
:1007D40070B54FF0FF0C4CF4E06C1CEA11541DBFD3
:1007E4001CEA135594EA0C0F95EA0C0F00F0A7F8D5
:1007F400A4EB050481EA030E52EA03354FEA013102
:1008040000F088804FEA03334FF0805545EA131314
:1008140043EA12634FEA022245EA111545EA1065DC
:100824004FEA00260EF000419D4208BF964244F173
:10083400FD0404F5407402D25B084FEA3202B61A92
:1008440065EB03055B084FEA32024FF480104FF466
:10085400002CB6EB020E75EB030E22BFB61A7546DA
:1008640040EA0C005B084FEA3202B6EB020E75EB6D
:10087400030E22BFB61A754640EA5C005B084FEAD5
:100884003202B6EB020E75EB030E22BFB61A7546A2
:1008940040EA9C005B084FEA3202B6EB020E75EBAD
:1008A400030E22BFB61A754640EADC0055EA060E6E
:1008B40018D04FEA051545EA16754FEA06164FEAB1
:1008C400C30343EA52734FEAC2025FEA1C1CC0D15D
:1008D40011F4801F0BD141EA00014FF000004FF0EA
:1008E400004CB6E711F4801F04BF01430020B4F1AB
:1008F400FD0C88BFBCF5E06F3FF6AFAEB5EB030C63
:1009040004BFB6EB020C5FEA500C50F1000041EB5F
:10091400045170BD0EF0004E4EEA113114EB5C042C
:10092400C2BFD4EB0C0541EA045170BD41F48011FF
:100934004FF0000E013C90E645EA060E8DE60CEA07
:10094400135594EA0C0F08BF95EA0C0F3FF43BAF24
:1009540094EA0C0F0AD150EA01347FF434AF95EADB
:100964000C0F7FF425AF104619462CE795EA0C0FBF
:1009740006D152EA03353FF4FDAE1046194622E78C
:1009840050EA410618BF52EA43067FF4C5AE50EA66
:1009940041047FF40DAF52EA43057FF4EBAE12E756
:1009A4007BB972B90029BEBF00204FF0004106E0B8
:1009B40008BF00281CBF6FF000414FF0FF3000F06B
:1009C400C5B9ADF1080C6DE904CE002909DB002B93
:1009D4001ADB00F04DF8DDF804E0DDE9022304B091
:1009E4007047404261EB4101002B1BDB00F040F8F3
:1009F400DDF804E0DDE9022304B0404261EB41018B
:100A0400524263EB43037047524263EB430300F0EB
:100A14002FF8DDF804E0DDE9022304B0404261EB85
:100A240041017047524263EB430300F021F8DDF8C3
:100A340004E0DDE9022304B0524263EB4303704750
:100A440053B94AB9002908BF00281CBF4FF0FF3131
:100A54004FF0FF3000F07AB9ADF1080C6DE904CE27
:100A640000F006F8DDF804E0DDE9022304B0704785
:100A74002DE9F0478C460D460446089E002B51D1C3
:100A84008A4217466DD9B2FA82FEBEF1000F0BD02E
:100A9400CEF1200C01FA0EF520FA0CFC02FA0EF746
:100AA4004CEA050C00FA0EF44FEA174A250CBCFB7D
:100AB400FAF81FFA87F90AFB18CC45EA0C4508FB3B
:100AC40009F3AB420AD9ED1908F1FF3280F0238112
:100AD400AB4240F22081A8F102083D44ED1AA4B2D1
:100AE400B5FBFAF00AFB105544EA054400FB09F98A
:100AF400A14509D9E41900F1FF3380F00A81A14529
:100B040040F2078102383C44A4EB090440EA08405F
:100B14000021002E61D024FA0EF4002334607360A7
:100B2400BDE8F0878B4207D9002E54D0002186E817
:100B340021000846BDE8F087B3FA83F1002940F0AC
:100B44008E80AB4202D3824200F2FA80841A65EBB3
:100B540003050120AC46002E3FD086E81010BDE806
:100B6400F08712B90127B7FBF2F7B7FA87FEBEF197
:100B7400000F34D1EB1B3A0C1FFA87FC0121B3FBA5
:100B8400F2F8250C02FB183345EA03450CFB08F385
:100B9400AB4207D9ED1908F1FF3002D2AB4200F2A3
:100BA400D1808046ED1AA3B2B5FBF2F002FB1055DA
:100BB40043EA05440CFB00FCA44507D9E41900F101
:100BC400FF3302D2A44500F2B8801846A4EB0C040B
:100BD40040EA08409DE731463046BDE8F087CEF153
:100BE400200405FA0EF307FA0EF720FA04F83A0C7B
:100BF40025FA04F448EA0308B4FBF2F14FEA184575
:100C040002FB11441FFA87FC45EA044501FB0CF37F
:100C1400AB4200FA0EF409D9ED1901F1FF3080F06E
:100C24008A80AB4240F2878002393D44EB1A1FFAB6
:100C340088F5B3FBF2F002FB103345EA034500FBF1
:100C44000CF3AB4207D9ED1900F1FF386FD2AB4278
:100C54006DD902383D44EB1A40EA01418FE7C1F1F6
:100C6400200722FA07F88B4005FA01F448EA030347
:100C740020FA07FE4FEA134CFD404EEA040EB5FB82
:100C8400FCF94FEA1E440CFB19551FFA83F844EA99
:100C9400054509FB08F4AC4202FA01F200FA01FA34
:100CA40008D9ED1809F1FF3043D2AC4241D9A9F17A
:100CB40002091D442D1B1FFA8EFEB5FBFCF00CFB34
:100CC40010554EEA054400FB08F8A04507D9E4187E
:100CD40000F1FF3529D2A04527D902381C4440EA47
:100CE4000940A4EB0804A0FB02894C45C6464D46C6
:100CF40015D312D056B1BAEB0E0364EB050404FA13
:100D040007F7CB401F43CC40376074600021BDE837
:100D1400F0871846F8E69046E0E6C245EAD2B8EB1A
:100D2400020E69EB03050138E4E72846D7E740469D
:100D340091E78146BEE7014678E702383C4445E73F
:100D4400084608E7A8F102083D442BE7704700BFB6
:100D5400037C024613F0080005D0D36A506A181ABF
:100D640048BF6FF000407047006A7047C069704721
:100D74000A2970B505460C4604D1406803680D2164
:100D84001B6898476868036821461B68BDE8704083
:100D9400184700207047002070470120704700204A
:100DA40070470C3012F0F7B8083012F05BBF043013
:100DB40012F058BF083012F047BF043012F044BF9D
:100DC4000C3011F054BF083012F0BABE083012F0E3
:100DD400E7B8103012F0E4B8043012F072BF0430F7
:100DE40012F051BF103012F067B907B502AB0122FF
:100DF40003F8011D1030194612F05EF903B05DF8D6
:100E040004FB103011F0FCBF07B501220DF10701FE
:100E1400103011F049FF01280CBF9DF807004FF076
:100E2400FF3003B05DF804FB70B505460C46084678
:100E340049B1FFF7E3F92B680246214628465B686F
:100E4400BDE87040184770BD0849094808B500233B
:100E540050F8232030325A540133042BF8D1054A78
:100E6400024905481360FFF7DFFF08BD380A002078
:100E7400400A0020880A0020E410002008B54068D9
:100E8400FFF7D2FF08BD13B5B0F90E200468019135
:100E940000920022B0F90C30A46B1146A04702B0B6
:100EA40010BD012A416016BF002182728172027254
:100EB4000BB9437205E0012BFBD0022BF9D0032BB5
:100EC400F7D0704738B515464A68026000220273AD
:100ED40042738A6882600A680260CA6804462946C6
:100EE40040F8082F43F0200212F064FE204638BD7B
:100EF400202310B580F8343041F20A0383630223BF
:100F040080F83C300023036480F844300373437357
:100F1400054B03602433044642F0200240F8083FA6
:100F240012F048FE204610BD4489010838B5154624
:100F34004A6802600022027242728A6842600A6849
:100F44000260CA680446294640F8042F43F0400270
:100F540012F030FE204638BD202310B580F8303022
:100F640041F20A034363022380F838300023C36349
:100F740080F8403003724372054B03602433044607
:100F840042F0400240F8043F12F014FE204610BD27
:100F9400B489010882B073B50E4606A981E80C0035
:100FA40007AB044600F58C6593E8030013468DE80F
:100FB4000300324604F26C41284613F039F928B98B
:100FC400002002B0BDE8704002B07047256004F212
:100FD4003C45284612F01AF80121204612F030FD53
:100FE400014670B12146284611F046FE0028E7D09C
:100FF40094F83C3413F0700316BF054B18461D607B
:10100400DFE7204612F01CFD0028EBD1D8E700BF33
:10101400401200201FB51E4902A811F0BDF801219D
:10102400312013F0B3FB0121302013F0AFFB012179
:10103400312013F0FFFB0121302013F0FBFBBDF83E
:101044000C30023B9BB240F2E532934294BF012440
:10105400002419D84FF4A073009340F27532002392
:101064009B21BDF9080017F041F90A4B18604FF4B1
:10107400F0730093BDF90A000023642240F2A33107
:1010840017F034F9044B1860204604B010BD00BFBB
:10109400781000200C0B0020100B00202DE9F041EB
:1010A400104C069D0746884620461946164610F001
:1010B400B8FF0FFA88F239B2204610F0A4FF204698
:1010C400002110F0A8FFF1B2204610F09FFF29463E
:1010D400204617F029F820460021BDE8F04110F021
:1010E400A0BF00BF381000202DE9F041104C069D30
:1010F4000746884620461946164610F092FF0FFA16
:1011040088F239B2204610F07EFF204640F21F419B
:1011140010F081FFF1B2204610F078FF29462046F6
:1011240017F002F820460021BDE8F04110F079BF25
:10113400381000202DE9F041104C069D07468846E2
:1011440020461946164610F06CFF0FFA88F239B2A1
:10115400204610F058FF20464FF4784110F05BFF12
:10116400F1B2204610F052FF2946204616F0DCFF6B
:1011740020460021BDE8F04110F053BF3810002094
:101184002DE9F041104C069D074688462046194635
:10119400164610F046FF0FFA88F239B2204610F0D6
:1011A40032FF20464FF61F0110F035FFF1B2204602
:1011B40010F02CFF2946204616F0B6FF20460021E9
:1011C400BDE8F04110F02DBF3810002013B54FF0EA
:1011D40000420C4601AB6FF0004112F0CBFD08B1A8
:1011E400019B236002B010BD13B54FF000420C46C2
:1011F40001AB6FF0004112F0BDFD08B1019B23600B
:1012040002B010BD08B590F8603404462BB31A49F7
:101214001A4816F099FF94F86034202B03D118492A
:10122400164816F091FF94F860349BB115491348A1
:1012340016F076FF102294F86014104816F0F3FFAD
:1012440011490E4816F06CFF102294F869140B48EB
:1012540016F0F5FF13F05DFAFCE7C37923B90B49E7
:10126400064816F071FFF5E790F83C340BB90849CD
:10127400F6E70849F4E700BF5F9C0108C8130020A3
:10128400869C0108B69C0108C79C0108CB9C0108F8
:10129400E89C0108039D010837B5514A642182F88E
:1012A40060144FF6FF71A2F86C144E49C2F8701422
:1012B40000230121D37182F8741482F8761482F821
:1012C4003C3482F83D3482F86A3482F87534464AF4
:1012D4002021117241F20A01D160022111744349A3
:1012E40011604349516053611376424A4249116087
:1012F4004FF47A7013745374536090603F4A1160D2
:101304003F4913745374536090601C46C8180022FC
:1013140084502832C82AFBD1C833B3F5487FF5D1AD
:1013240038493948394D17F03EF8394A3949364871
:1013340017F0FEF83349384817F035F8344A354980
:10134400354817F0F5F825222421344816F030FEEC
:1013540000231A4619460194009431480EF030FCDB
:1013640009224FF4967308218DE80C002D48302390
:10137400312210F0D5FF2C4810F066FE2B4810F0F7
:1013840063FE2B4810F060FE2A4810F05DFE2A48E8
:1013940010F05AFE294810F057FE294810F054FE68
:1013A400284810F051FE284810F04EFE274810F04F
:1013B4004BFE274810F048FE264810F045FE26480C
:1013C40010F042FE254810F03FFE00242819203476
:1013D40010F03AFEB4F5F07FF8D103B030BD00BF91
:1013E4007C0B002000093D00500A0020108A0108EF
:1013F400C8130020140B0020D8880108480B0020D3
:101404001807002012D80108081000203805002011
:10141400000000202183010814100020A0030020F4
:101424003810002078100020C0100020A80A0020E6
:10143400D00A0020A010002060030020D402002065
:1014440080030020D4040020B404002040030020C2
:10145400F4040020140500200003002020030020D1
:10146400000000002DE9F04F9D489E4DF7B011F0AB
:10147400BFF8042011F024FA06224FF416519A48BA
:1014840016F0E6FD06229949994816F0E1FD2C680C
:10149400012C40F036849749954816F05FFE964932
:1014A400934816F05BFE9549914816F057FE94490F
:1014B4008F4816F053FE93498D4816F04FFE92491B
:1014C4008B4816F04BFE9149894816F047FE904927
:1014D400874816F043FE8F480EF056FD8E490646A7
:1014E400834816F021FE10223146814816F08CFE06
:1014F4008A497F4816F032FE314686480FF09AFD3D
:10150400002184480FF01AFC854A864978484FF038
:10151400FF3313602B6016F021FE8349744816F0E4
:101524001DFE8249824812F09AFD64AF81498048C9
:1015340012F095FD002322467F493846FFF7B1FC9F
:10154400669B009397E80C000A217C48FFF722FD74
:1015540030B977487A4912F082FD7848FFF752FE95
:1015640078497348784C794D12F079FD7849704880
:1015740012F075FD77496E4812F071FD102276491C
:101584000AA8FFF7B5FC00232360A1462368042BB7
:1015940000F3EA8049460AA8FFF718FE2168DFF83D
:1015A40090A1282606FB01510DEB0600FFF70EFE65
:1015B400216806FB015104310DEB0600FFF706FE1E
:1015C40021685B4812F038FD6449594812F047FD20
:1015D400236857487343E95812F02EFD5F49544875
:1015E40012F03DFD2368524806FB0353596812F07C
:1015F40023FD5A494E4812F032FD594B00221A601D
:101604009846D8F80030092B17DC2168083306FB0C
:10161400013129440AA812F09BFB2368D8F8002062
:1016240006FB035313445046197A12F086FCD8F88B
:1016340000300133C8F80030E3E748493C48494EDC
:10164400DFF8ECA012F00BFD002333604FF0280804
:101654003368062B14DC2168123308FB013129445A
:101664000AA812F075FB2368326808FB035313447D
:101674005046997C12F061FC336801333360E7E72C
:1016840036492B4812F0EBFC2168282606FB015151
:101694000DEB06001C31FFF7A7FD216806FB015185
:1016A4000DEB06002031FFF791FD2368204806FB6F
:1016B4000353D96912F0C0FC28491D4812F0CFFC2D
:1016C40023681B4806FB0356316A12F0B5FC234914
:1016D400174812F0C4FC23680133236056E700BFA7
:1016E400E4100020B0000020A003002080841E002D
:1016F400C8130020FF9E0108189F01089D9F010840
:10170400B59F0108DC9F0108F89F010816A0010895
:1017140096A0010838100020D0A0010812D80108B2
:10172400B400002004A101081DA1010845A301087B
:10173400500A002052A1010880F0FA027C0B00201C
:1017440096A10108B1A101086C0A00201807002025
:10175400EEA101080EA2010831A201088BBF010805
:10176400080B0020A40A00200DA811F04FFCBF496B
:10177400BF48DFF81C93BF4D12F071FC1022BE4924
:101784001CA8FFF7B5FB002323602368042B00F398
:10179400A98049461CA8FFF719FD2168DFF8D0A2EB
:1017A400282606FB0151C8311CA8FFF70FFD21684C
:1017B40006FB0151CC311CA8FFF708FD2168AC4899
:1017C40012F03AFCAD49AA4812F049FC2368A84833
:1017D40006FB0353D3F8C81012F02EFCA749A44803
:1017E40012F03DFC2368A24806FB0353D3F8CC1047
:1017F40012F022FCA1499E4812F031FCA04B0022B9
:101804001A609846D8F80030092B18DC2168D033C8
:1018140006FB013129441CA812F09AFA2368D8F86F
:10182400002006FB03531344504693F8D01012F0E3
:1018340084FBD8F800300133C8F80030E2E78F4960
:101844008B48904EDFF828A212F009FC0023336085
:101854004FF028083368062B15DC2168DA3308FBBF
:10186400013129441CA812F073FA2368326808FB7A
:1018740003531344504693F8DA1012F05EFB3368B6
:1018840001333360E6E77D49794812F0E8FB2168CB
:10189400282606FB0151E4311CA8FFF7A5FC2168AA
:1018A40006FB0151E8311CA8FFF790FC236870483F
:1018B40006FB0353D3F8E41012F0BEFB6F496C48E7
:1018C40012F0CDFB23686A4806FB0356D6F8E810ED
:1018D40012F0B2FB6949664812F0C1FB2368013378
:1018E400236052E71FA811F091FB67496048DFF8B5
:1018F400A091604D12F0B3FB102264492EA8FFF7AB
:10190400F7FA002323602368042B00F3C3804946BD
:101914002EA8FFF75BFC2168DFF854A1282606FBFC
:10192400015101F5C8712EA8FFF750FC216806FB90
:10193400015101F5CA712EA8FFF748FC21684C48F3
:1019440012F07AFB4D494A4812F089FB2368484853
:1019540006FB0353D3F8901112F06EFB4749444839
:1019640012F07DFB2368424806FB0353D3F894111D
:1019740012F062FB41493E4812F071FB404B0022D9
:101984001A609846D8F80030092B19DC216803F551
:10199400CC7306FB013129442EA812F0D9F923682F
:1019A400D8F8002006FB03531344504693F89811CB
:1019B40012F0C3FAD8F800300133C8F80030E1E778
:1019C4002E492B482F4EDFF8A8A012F048FB002325
:1019D40033604FF028083368062B16DC216803F5C2
:1019E400D17308FB013129442EA812F0B1F9236800
:1019F400326808FB03531344504693F8A21112F0C3
:101A04009CFA336801333360E5E71C49184812F047
:101A140026FB2168282606FB015101F5D6712EA864
:101A2400FFF7E2FB216806FB015101F5D8712EA8EE
:101A3400FFF7CCFB23680E4806FB0353D3F8AC1125
:101A440012F0FAFA0D490A4812F009FB2368084813
:101A540006FB0356D6F8B01112F0EEFA0749044813
:101A640012F0FDFA2368013323604CE73AA201081F
:101A7400500A0020180700205DA201088BBF01084E
:101A8400080B0020A40A002066A2010889A201080C
:101A94006C0A002031A811F0B9FA75497548DFF8CD
:101AA400FC91754D12F0DBFA1022744940A8FFF73F
:101AB4001FFA002323602368042B00F3AF804946F8
:101AC40040A8FFF783FB2168DFF8A8A1282606FBBE
:101AD400015101F5167140A8FFF778FB216806FB58
:101AE400015101F5177140A8FFF770FB21686148A7
:101AF40012F0A2FA62495F4812F0B1FA23685D4815
:101B040006FB0353D3F8581212F096FA5C4959486D
:101B140012F0A5FA2368574806FB0353D3F85C1266
:101B240012F08AFA5649534812F099FA554B00229A
:101B34001A609846D8F80030092B19DC216803F59F
:101B4400187306FB0131294440A812F001F92368F7
:101B5400D8F8002006FB03531344504693F8601250
:101B640012F0EBF9D8F800300133C8F80030E1E79F
:101B740043494048444EDFF8FCA012F070FA0023B9
:101B840033604FF028083368062B16DC216803F213
:101B94006A2308FB0131294440A812F0D9F82368CC
:101BA400326808FB03531344504693F86A1212F048
:101BB400C4F9336801333360E5E731492D4812F045
:101BC4004EFA2168282606FB015101F51D7140A833
:101BD400FFF70AFB216806FB015101F51E7140A8BD
:101BE400FFF7F4FA2368234806FB0353D3F874126F
:101BF40012F022FA22491F4812F031FA23681D48D4
:101C040006FB0356D6F8781212F016FA1C49194846
:101C140012F025FA2368013323604CE743A811F03E
:101C2400F5F91A4913481A4C1A4E124DDFF8508030
:101C340012F015FA1022184952A8FFF759F9002397
:101C44002360216803292BDC06EB810152A8FFF7EE
:101C5400BDFA2368284656F8231012F0EDF94146E0
:101C6400284612F0FCF9236801332360E9E700BF3A
:101C740092A20108500A002018070020B5A201080A
:101C84008BBF0108080B0020A40A0020BEA2010893
:101C94003C0A0020400A0020E5A201086C0A00204A
:101CA40055A811F0B3F9C04DC049C148C14C12F058
:101CB400D6F91022C0493846FFF71AF929463846A2
:101CC400FFF784FA21463846FFF780FA2968B848B6
:101CD40012F0B2F9B949B64812F0C1F92168B44812
:101CE40012F0AAF9B549B24812F0B9F967A811F08F
:101CF4008DF9B349AE4812F0B2F9B249AC4812F0CA
:101D0400AEF9B149B148B24F16F028FA00211720B4
:101D140012F03CFD3A6840F257439A4240F0808307
:101D2400AC49AA48AC4DDFF8FC82AC4C16F016FA6C
:101D3400AB49A64816F012FA4FF6FF71A948FFF70F
:101D4400A2F8994A136801331360A74B0093032246
:101D5400A64B96210120FFF7A1F9A54B009303227E
:101D6400A24B96210F20FFF799F94FF47A7012F0E5
:101D7400A5FDA049A04816F0F1F94FF47A7012F0CD
:101D84009DFD9E499C4816F0CFF92A689A4858F858
:101D94002230C8264FF02809724309FB0323234449
:101DA400197A16F0C5F92A68934858F82230724314
:101DB40009FB03232344597A16F0BAF92A688E489A
:101DC40058F82230724309FB03232344997A16F00E
:101DD400AFF92A68884858F82230724309FB032374
:101DE4002344D97A16F0A4F92A68834858F8223093
:101DF400724309FB03232344197B16F099F92A68DB
:101E04007D4858F82230724309FB03232344597B4D
:101E140016F08EF92A68784858F82230724309FB84
:101E240003232344997B16F083F92A68724858F8EF
:101E34002230724309FB03232344D97B16F078F93B
:101E44002A686D4858F82230724309FB032323445F
:101E5400197C16F06DF92A68674858F822307243E5
:101E640009FB03232344597C16F062F96449624850
:101E740016F05AF9604816F05FF94FF47A7012F0D0
:101E84001DFD60495C4816F069F95F495A4816F02F
:101E940065F95E49584816F061F95D49564816F0EF
:101EA4005DF95949544816F059F95A49524816F0FF
:101EB4003BF92A68504858F82230724309FB03233F
:101EC4002344997C16F034F92A684B4858F8223098
:101ED400724309FB03232344D97C16F029F92A68A9
:101EE400454858F82230724309FB03232344197DE3
:101EF40016F01EF92A68404858F82230724309FB4C
:101F040003232344597D16F013F92A683A4858F8F4
:101F14002230724309FB03232344997D16F008F908
:101F24002A68354858F82230724309FB03232344B6
:101F3400D97D16F0FDF82A682F4858F822307243EC
:101F440009FB03232344197E16F0F2F82E492A488C
:101F540016F004F93049284816F0E6F82A6858F8CB
:101F64002230564309FB036626447368002B40F075
:101F740003852A49204816F0D7F823491E4816F04D
:101F8400EDF827491C4816F0CFF82968C82258F8FC
:101F940021304A43282101FB032323441B6A012BDC
:101FA40040F0FA8440E000BFF8020020F2A20108E9
:101FB400500A0020FC02002019A301088BBF01086D
:101FC40026A3010844A30108BCA30108C8130020E8
:101FD40094000020D3A30108780A002018070020E9
:101FE4003BA401083810002086A40108288A0108AF
:101FF40090A401089CA40108A0030020A6A4010841
:10200400F0A90108B3A4010812D80108C5A4010865
:10201400D5A40108E3A40108EAA40108F3A4010873
:102024001EA50108400A0020C049C14816F07CF8EA
:10203400DFF844A3BF49BE4816F090F8BE49BC4837
:1020440016F072F8504610F03DFC0A229AF802107D
:10205400B74816F0E8F8B949B54816F065F80A2209
:102064009AF80110B24816F0DEF8B449B04816F0F8
:102074005BF80A229AF80010AD4816F0D4F8AD497E
:10208400AB4816F06BF8AE49A94816F04DF80A2291
:102094009AF80310A64816F0C6F8AA49A44816F000
:1020A40043F80A229AF80410A14816F0BCF8A5498E
:1020B4009F4816F039F8BAF906109D480A2264318F
:1020C40016F0A2F89B499A4816F048F8642012F0DA
:1020D400F5FB1A21964816F04BF8642012F0EEFB3B
:1020E40099499A4816F03AF89949984816F036F8FA
:1020F4009849964816F018F82A68944858F82230F7
:10210400C8264FF02809724309FB03232344197A94
:1021140016F00EF82A688D4858F82230724309FBED
:1021240003232344597A16F003F82A68874858F899
:102134002230724309FB03232344997A15F0F8FFF4
:102144002A68824858F82230724309FB0323234447
:10215400D97A15F0EDFF2A687C4858F8223072438A
:1021640009FB03232344197B15F0E2FF2A6877480F
:1021740058F82230724309FB03232344597B15F09A
:10218400D7FF2A68714858F82230724309FB0323A9
:102194002344997B15F0CCFF2A686C4858F8223008
:1021A400724309FB03232344D97B15F0C1FF2A683A
:1021B400664858F82230724309FB03232344197CF0
:1021C40015F0B6FF2A68614858F82230724309FBBB
:1021D40003232344597C15F0ABFF5F495B4815F09A
:1021E400A3FF5A4815F0A8FF5C49584815F0B6FFFC
:1021F4005049564815F0B2FF5949544815F0AEFFFE
:102204005849524815F0AAFF4A49504815F0A6FF0C
:1022140055494E4815F088FF2A684C4858F8223032
:10222400724309FB03232344997C15F081FF2A6838
:10223400464858F82230724309FB03232344D97CCF
:1022440015F076FF2A68414858F82230724309FB9A
:1022540003232344197D15F06BFF2A683B4858F883
:102264002230724309FB03232344597D15F060FF98
:102274002A68364858F82230724309FB0323234462
:10228400997D15F055FF2A68304858F8223072437A
:1022940009FB03232344D97D15F04AFF2A682B4800
:1022A40058F82230724309FB03232344197E15F0A6
:1022B4003FFF2049254815F051FF2C49234815F0CC
:1022C40033FF2A6858F82230564309FB0366264434
:1022D4007368002B40F0668325491C4815F024FFE1
:1022E40014491A4815F03AFF2249184815F01CFF02
:1022F4002968C82258F821304A43282101FB0323C6
:102304001C44236A012B40F05A8308490F4815F0F6
:102314000BFF08490D4815F021FF07490B4815F03C
:1023240003FF154810F0CEFA0A2227E026A501087B
:10233400A003002012D801082FA501083DA501081B
:102344003FA5010847A5010849A50108C8130020B5
:102354009CA40108A6A40108F0A9010879A5010814
:10236400C5A40108D5A40108E3A40108EAA401084E
:10237400F3A401081EA50108F80F00209AF8021022
:10238400B74815F050FFB749B54815F0CDFE0A22FD
:102394009AF80110B24815F046FFB249B04815F05A
:1023A400C3FE0A229AF80010AD4815F03CFFAE496E
:1023B400AB4815F0D3FEAD49A94815F0B5FE0A2285
:1023C4009AF80310A64815F02EFFA949A44815F061
:1023D400ABFE0A229AF80410A14815F024FFA44980
:1023E4009F4815F0A1FEBAF906109D480A226431EF
:1023F40015F00AFF9C499A4815F0B0FE1A21984836
:1024040015F0B6FE9B49964815F0A8FE9A499448E3
:1024140015F0A4FE9949924815F0A0FE07F08EFD30
:102424003B68912B67D196498D4815F097FE9549E5
:102434008B4815F093FE4FF6FF719348FEF723FD8A
:10244400924B00930322924B32210120FEF74CFE63
:10245400904B009302228E4B5A210120FEF71EFE60
:10246400002189480FF0DDFD8B4B059300244FF4C8
:10247400FC634FF0030864253226039302935A2227
:10248400C82381498548CDF8188004948DE86000FC
:102494000FF0DDFD824B05934FF6FF7304934FF469
:1024A400784303930293E622C82377497D48CDF805
:1024B40018808DE860000FF0CAFD01227A4B00936A
:1024C4001046734B4FF48271FEF75AFE0122774B8C
:1024D400009310466E4B4FF4C871FEF7DFFD2146A2
:1024E4006E480FF0D7FD21466E480FF0D3FD7049BA
:1024F4005B4815F033FE3A6842F295039A4240F085
:102504008C816C4956486C4CDFF8E8816B4E6C4DFD
:1025140015F024FE6B49524815F020FE6A495048D4
:1025240015F01CFE4FF6FF715748FEF7ACFC674BE5
:1025340000930322564B96210120FEF7AFFD644B16
:1025440000930322524B96210F20FEF7A7FD614B07
:10255400009302224E4BD7210F20FEF79FFD5E4BC6
:10256400009301224A4B40F213110F20FEF7BCFDE9
:102574005A493B4815F0F2FD5949394815F0EEFD2A
:102584005849374815F0EAFD204610F09BF90A2215
:10259400A178334815F047FE3249314815F0C4FD9F
:1025A4000A2261782E4815F03EFE2E492C4815F07B
:1025B400BBFD0A2221782A4815F035FE2A4928480D
:1025C40015F0CCFD2949264815F0AEFD0A22E17824
:1025D400234815F028FE2649214815F0A5FD0A22B6
:1025E40021791F4815F01FFE21491D4815F09CFD57
:1025F400B4F906101A480A22643115F005FE1A4986
:10260400174815F0ABFD3849154815F08DFD0A2221
:10261400D8F80010124815F0F7FD1349104815F0CA
:102624009DFD32490E4815F07FFD0A2231680C48A1
:1026340015F0EAFD0C490A4815F090FD2C490848AC
:1026440015F072FD0A222968054815F0DDFD0649DA
:10265400034815F083FD0749014815F07FFD4BE061
:10266400C81300203DA5010812D801083FA50108A0
:1026740047A5010890A50108B0A50108DAA501083D
:1026840079A601088DA60108381000203FA701088B
:10269400288A010849A7010862A70108C010002080
:1026A40066A70108A80A002069A701082BA8010849
:1026B40095A80108BFA80108F80F0020F402002023
:1026C400F8020020E1A8010846A9010886A401082F
:1026D40097A90108A2A90108B5A9010849A50108FB
:1026E4009CA40108DAA90108F3A9010815AA0108A4
:1026F4002FAA0108FC0200204FF47A7012F0DEF8D1
:10270400B149B24815F02AFD4FF47A7012F0D6F8A8
:10271400AF49AE4815F022FD4FF47A7012F0CEF8AE
:10272400204610F0CFF80A22A178A84815F07BFDC6
:10273400A849A64815F0F8FC0A226178A34815F0C8
:1027440072FDA449A14815F0EFFC0A2221789F48A4
:1027540015F069FDA0499D4815F000FD9F499B486F
:1027640015F0E2FC0A22E178984815F05CFD9C49DA
:10277400964815F0D9FC0A222179944815F053FDA6
:102784009749924815F0D0FCB4F906108F480A22F4
:10279400643115F039FD90498C4815F0DFFC9149FE
:1027A4008A4815F0C1FC0A22D8F80010874815F0B1
:1027B4002BFD8949854815F0D1FC8B49834815F0D8
:1027C400B3FC0A223168814815F01EFD82497F4816
:1027D40015F0C4FC85497D4815F0A6FC0A22296839
:1027E4007A4815F011FD7C49784815F0B7FC64204F
:1027F40012F064F81A21754815F0BAFC642012F03E
:102804005DF801237A497B483B6015F0A7FC7A49BF
:10281400784815F0A3FCFEF725FE3C68012C40F037
:10282400A985082175480FF0E6FE754973480FF035
:102834002BFF744971480FF02DFF73496D4815F053
:102844008DFC7249724811F00AFC64AE71497048FB
:1028540011F005FC002322466F493046FEF721FBA8
:10286400669B009396E80C000A216C48FEF792FBE5
:1028740000283EF46EAE6A4965486A4C6A4DDFF83A
:10288400CC8111F0ECFB6949614811F0E8FB68491F
:102894005F4811F0E4FB902266490AA8FEF75CFB4E
:1028A400002323602168042900F33C810AA811F065
:1028B400C3FB29460AA811F0D2FB2368DFF850B104
:1028C4004FF0280909FB03F30DEB090058F8031036
:1028D40011F0B2FB29460DEB090011F0C0FB23688F
:1028E40009FB03830DEB0900596811F0A5FB294688
:1028F4000DEB090011F0B3FB2168454811F09CFB76
:102904002946434811F0ABFB2368414809FB03F314
:1029140058F8031011F090FB29463D4811F09FFB35
:1029240023683B4809FB0383596811F085FB29465A
:10293400374811F094FB404B00221A609A46DAF8AB
:102944000020092A00F38480236809FB03831344CD
:102954000AA8197A11F0F1FA2368DAF8002009FBC1
:10296400038313445846197A11F0E7FADAF8003071
:102974000133CAF80030E2E7012B02D12F49FFF7F7
:10298400F9BA022B02D12E49FFF7F4BA032B7FF4D4
:10299400F4AA2C49FFF7EEBA022B7FF449AB2A497B
:1029A400FFF743BB012B01D1244996E4022B01D14B
:1029B400234992E4032B7FF493AC22498DE4022B48
:1029C4007FF4A7AC2049A1E49CA40108A003002043
:1029D400DAA901083DA5010812D801083FA501089C
:1029E40047A50108F3A9010815AA01082FAA01089F
:1029F400B0A50108C81300204EAA0108E410002065
:102A04000DF700084D0E0008BFAA010845A30108F0
:102A1400500A0020F2AA010880F0FA027C0B002080
:102A240033AB01086C0A00208BBF0108EEA101083A
:102A34006EAB010831A20108080B002000A50108B3
:102A44000AA5010814A501082BA5010818070020F0
:102A540029460AA811F003FB2946A548DFF890B2DD
:102A640011F0FDFAA34B00221A6099464FF0280A90
:102A7400D9F80020062A17DC23680AFB03831344D1
:102A84000AA8997C11F059FA2368D9F800200AFBA6
:102A9400038313445846997C11F04FFAD9F8003057
:102AA4000133C9F80030E3E729460AA811F0D7FA40
:102AB40029468F4811F0D3FA23684FF0280909FBFF
:102AC40003830DEB0900D96911F0B6FA29460DEB21
:102AD400090011F0C4FA236809FB03830DEB090014
:102AE400196A11F0A9FA29460DEB090011F0B7FA99
:102AF40023687F4809FB0383D96911F09DFA2946AD
:102B04007B4811F0ACFA2368794809FB0383196AFE
:102B140011F092FA2946764811F0A1FA236801339C
:102B24002360BFE60CA810F071FA73497048734D26
:102B3400DFF8D48111F093FA902271491CA8FEF7B2
:102B44000BFA002323602168042900F3DF801CA80A
:102B540011F072FA29461CA811F081FA2368DFF8F3
:102B640090B14FF0280909FB03831CA8D3F8C810BF
:102B740011F062FA29461CA811F071FA236809FBC6
:102B840003831CA8D3F8CC1011F056FA29461CA8CC
:102B940011F065FA2168564811F04EFA2946544856
:102BA40011F05DFA2368524809FB0383D3F8C81077
:102BB40011F042FA29464E4811F051FA23684C4864
:102BC40009FB0383D3F8CC1011F036FA29464848A0
:102BD40011F045FA4B4B00221A609A46DAF80020AD
:102BE400092A19DC236809FB038313441CA893F8FE
:102BF400D01011F0A2F92368DAF8002009FB03834E
:102C04001344584693F8D01011F097F9DAF80030CD
:102C14000133CAF80030E1E729461CA811F01FFA75
:102C240029463348DFF8C8B011F019FA314B0022B5
:102C34001A6099464FF0280AD9F80020062A19DCB0
:102C440023680AFB038313441CA893F8DA1011F0D9
:102C540074F92368D9F800200AFB03831344584607
:102C640093F8DA1011F069F9D9F800300133C9F892
:102C74000030E1E729461CA811F0F1F929461C4867
:102C840011F0EDF923684FF0280909FB03831CA810
:102C9400D3F8E41011F0D0F929461CA811F0DFF99B
:102CA400236809FB03831CA8D3F8E81011F0C4F9C6
:102CB40029461CA811F0D3F923680D4809FB0383A6
:102CC400D3F8E41011F0B8F92946094811F0C7F90E
:102CD4002368074809FB0383D3F8E81011F0ACF923
:102CE4002946034811F0BBF92368013323602AE71E
:102CF400500A0020A40A002094AB01088BBF0108ED
:102D04005DA20108080B0020180700201EA810F07F
:102D14007DF9C549C548C64DDFF82C8311F09FF9EC
:102D24009022C4492EA8FEF717F9002323602168D6
:102D3400042900F3D1802EA811F07EF929462EA88B
:102D440011F08DF92368DFF8E4B24FF0280909FB8C
:102D540003832EA8D3F8901111F06EF929462EA8FA
:102D640011F07DF9236809FB03832EA8D3F894118D
:102D740011F062F929462EA811F071F92168AB48C7
:102D840011F05AF92946A94811F069F92368A748AE
:102D940009FB0383D3F8901111F04EF92946A34897
:102DA40011F05DF92368A14809FB0383D3F894115A
:102DB40011F042F929469D4811F051F99E4B002229
:102DC4001A609A46DAF80020092A19DC236809FBFC
:102DD400038313442EA893F8981111F0AEF82368D6
:102DE400DAF8002009FB03831344584693F898113A
:102DF40011F0A3F8DAF800300133CAF80030E1E743
:102E040029462EA811F02BF929468848DFF81CB270
:102E140011F025F9894B00221A6099464FF0280ACF
:102E2400D9F80020062A19DC23680AFB038313441B
:102E34002EA893F8A21111F080F82368D9F8002085
:102E44000AFB03831344584693F8A21111F075F852
:102E5400D9F800300133C9F80030E1E729462EA83B
:102E640011F0FDF82946714811F0F9F823684FF084
:102E7400280909FB03832EA8D3F8AC1111F0DCF860
:102E840029462EA811F0EBF8236809FB03832EA82A
:102E9400D3F8B01111F0D0F829462EA811F0DFF8BC
:102EA4002368624809FB0383D3F8AC1111F0C4F81A
:102EB40029465E4811F0D3F823685C4809FB038374
:102EC400D3F8B01111F0B8F82946584811F0C7F8F2
:102ED4002368013323602AE730A810F097F8584993
:102EE4005248534DDFF8608111F0B9F890225549EA
:102EF40040A8FEF731F8002323602168042900F379
:102F0400E38040A811F098F8294640A811F0A7F8EA
:102F14002368DFF818B14FF0280909FB038340A8A0
:102F2400D3F8581211F088F8294640A811F097F800
:102F3400236809FB038340A8D3F85C1211F07CF8E2
:102F4400294640A811F08BF82168384811F074F82C
:102F54002946364811F083F82368344809FB038373
:102F6400D3F8581211F068F82946304811F077F870
:102F740023682E4809FB0383D3F85C1211F05CF834
:102F840029462A4811F06BF82B4B00221A609A4606
:102F9400DAF80020092A19DC236809FB03831344A7
:102FA40040A893F8601210F0C8FF2368DAF80020F4
:102FB40009FB03831344584693F8601210F0BDFFD5
:102FC400DAF800300133CAF80030E1E7294640A8B6
:102FD40011F045F829461548DFF850B011F03FF8D4
:102FE400164B00221A6099464FF0280AD9F800209F
:102FF400062A2BDC23680AFB0383134440A893F8B6
:103004006A1210F09AFF2368D9F800200AFB0383A0
:103014001344584693F86A1210F08FFFD9F8003021
:103024000133C9F80030E1E7BAAB0108500A0020C7
:103034008BBF010889A20108080B0020A40A002004
:10304400E0AB0108B5A2010818070020294640A8F2
:1030540011F005F82946334811F001F823684FF0C0
:10306400280909FB038340A8D3F8741210F0E4FF85
:10307400294640A810F0F3FF236809FB038340A806
:10308400D3F8781210F0D8FF294640A810F0E7FFD3
:103094002368244809FB0383D3F8741210F0CCFF8F
:1030A4002946204810F0DBFF23681E4809FB0383F0
:1030B400D3F8781210F0C0FF29461A4810F0CFFF59
:1030C40023680133236018E742A80FF09FFF1649D5
:1030D4001448164CDFF86090DFF85880114D10F05A
:1030E400BEFF9022124952A8FDF736FF0023236049
:1030F4002368032B22DC59F8231052A810F09CFFFC
:10310400414652A810F0ABFF2368284659F8231013
:1031140010F092FF4146284610F0A1FF23680133C6
:103124002360E5E7500A002006AC01083C0A0020B1
:10313400E5A201088BBF0108400A002054A80FF043
:1031440065FFB84DB849B948B94CDFF8909310F011
:1031540086FF9022B7493046FDF7FEFE29683046C7
:1031640010F06AFF3046B44910F079FF2168304608
:1031740010F062FF3046B04910F071FF2968AB4887
:1031840010F05AFFAC49A94810F069FF2168A7481C
:1031940010F052FFA849A54810F061FF66A80FF08F
:1031A40035FFA649A14810F05AFFA5499F4810F0E1
:1031B40056FF4FF6FF71A348FDF765FEA249A348E9
:1031C40014F0CCFFA249A14814F0C8FFA1499F48BC
:1031D40014F0C4FFA04B00930522A04B41210A2008
:1031E400FDF782FF9E4B009303229C4B73211B200F
:1031F400FDF754FF9B4B00930222984B9E216E20B7
:10320400FDF7BEFF984B009302220023AC210C2053
:10321400FDF7B6FF00218B480EF003FF934B059397
:103224004FF6FF744FF003084FF61F036425322650
:103234008DE86000CDF81880039302933C2240F29D
:10324400311380498A4804940EF001FF894B059399
:1032540040F21F438DE86000CDF8188002250393E7
:1032640002933C224FF4BE7376498348049450265B
:103274004FF01E080EF0EBFE40F2D11340F21D1287
:1032840070497E480695CDF81490049403940294F2
:103294008DE840010EF0DBFE40F2A91340F21D124E
:1032A400684977480695CDF81490049403940294E1
:1032B4008DE840010EF0CBFE40F21D1278216148EA
:1032C4000EF0A1FE00215F480EF0A5FE29465D48E0
:1032D4000EF09CFE6B495B4814F026FF40F233125B
:1032E400782158480EF08FFE6749564814F01CFFA9
:1032F4004FF4B572782153480EF085FE00215148F1
:103304000EF089FE29464F480EF080FE5F494D4875
:1033140014F00AFF4FF4C07278214A480EF073FE8D
:103324005B49484814F000FF5A4A51484FF0FF33B4
:103334001360594A1360594A1360594A1360594A31
:103344001360594A1360594A1360594A00211360A3
:103354000EF0A0FE002148480EF09CFE00214748D4
:103364000EF098FE002146480EF094FE514937486D
:1033740014F0F4FE3C68022C40F0158108214E48FC
:103384000FF039F94D494C480FF07EF94C494A4841
:103394000FF080F94FF6FF712A48FDF774FD494993
:1033A4002A4814F0DBFE4849284814F0D7FE474B5E
:1033B40000932246294B1E212820FDF76FFE01228F
:1033C400434B0093104600232A21FDF767FE00219A
:1033D4001C480EF026FE3F4B059300230493502512
:1033E4004FF4FC631E260393029340F21D1240F235
:1033F400D1131449214806948DE860000EF027FE8D
:10340400354B05934FF6FF7304934FF478430393BE
:103414000293222240F2D11306948DE860000949F8
:103424005EE000BFF802002030AC0108500A002022
:10343400FC02002019A301088BBF01085AAC010843
:1034440044A301083810002077AC0108C8130020F9
:1034540028A0010896AC0108BBAC0108288A010821
:10346400C1AC010875A50108CCAC010894AC0108F5
:10347400D00A00205EAD0108A010002060030020E7
:10348400D4020020E6AC0108F0AC0108FFAC01084E
:1034940044BE0108980000209C000020A0000020E9
:1034A400A4000020780A0020A8000020AC0000201E
:1034B400F00A002009AD0108E41000200DF700080F
:1034C4004D0E000842AD010860AD0108ADAD010824
:1034D400BDAD0108CFAE0108D2AE010812D8010873
:1034E400BA480EF0B4FDBA4B1A68052A08D15A68D6
:1034F400052A05D19A68052A02D1DB68052B03D079
:103504000021B4480EF0C6FD3C244FF6FF7500219F
:10351400AE480EF0BFFD23466E220A21AE488DE868
:1035240030000EF0E9F82346BE220A21AA488DE8AD
:1035340030000EF0E1F823464FF487720A21A648C2
:103544008DE830000EF0D8F823464FF4AF720A210C
:10355400A1488DE830000EF0CFF8A04B0093012273
:103564009F4B7B215520FDF799FD9E4B0093012233
:103574009B4BCB215520FDF791FD9B4B00930122E2
:10358400974B40F21B115520FDF788FD974B009394
:1035940040F26B115520924B0122FDF77FFD9449B7
:1035A400944814F0DBFD3B68172B40F0A2804FF6E3
:1035B400FF718948FDF767FC8F498E4814F0CEFDF2
:1035C4008E498C4814F0CAFD8D4B00930222844B23
:1035D4001E212D20FDF762FD01228A4B0093104627
:1035E4007F4B3A21FDF780FD00217B480EF019FD49
:1035F40040F21F4532244FF003094FF6FF764FF097
:103604004B08814BCDF818902246059303950295FB
:103614000194CDF8008087236F497C4804960EF00E
:1036240016FD7B4BCDF81890224605930395029521
:103634000194CDF80080D7236749764804960EF0AC
:1036440006FD754B059300244FF4FC634FF002090B
:1036540050254FF01E080393029340F21D1240F2CE
:10366400D1135D495B48CDF8189004948DE820018E
:103674000EF0EDFC694B05934FF47843222203933B
:10368400029355495148CDF8189040F2D11304964D
:103694008DE820010EF0DBFC21465C480EF0FAFCBC
:1036A40021465C480EF0F6FC21464A480EF0F2FC36
:1036B400214646480EF0EEFC594B00930122484B3C
:1036C4007D216220FDF7EAFC564B00930122444B16
:1036D400CD216220FDF7E2FC534B0093012240F21E
:1036E400091110463E4BFDF7D9FC5049414814F0EE
:1036F40035FD3D68032D40F03F814FF6FF7136489C
:10370400334CDFF804814A4EFDF7BDFB4949394883
:1037140014F024FD4849374814F020FD474B00932A
:1037240002222F4B1E212820FDF7B8FC0122444B16
:10373400009310462A4B3721FDF7D6FC002126487A
:103744000EF06FFC2368052B00F06283244B009677
:10375400012285216220FDF7A1FC002304934FF48C
:10376400FC630393029332224B2300930695CDF816
:10377400148001929623184932480EF068FC63685D
:10378400314D052B4FF00302214B0692059300F0B7
:103794005A83002304934FF4FC633222039302936D
:1037A4004B23019200930C492848E6230EF04FFC6A
:1037B40000950B4B0122D5216220FDF76FFCA36815
:1037C400234D244E052B00F0568345E0D4020020FF
:1037D400400A00206003002038100020D7AE010802
:1037E400288A01082CAF01087EAF0108D0AF010878
:1037F40023B00108C813002056B0010876B00108B0
:10380400DDB00108EAB0010894AC0108F40400201A
:103814005EAD010814050020CFAE0108D2AE010848
:103824002FB101085BB1010886B1010899B2010802
:10383400A5B30108C4B20108DAB2010835B301081E
:1038440044B301088003002000B40108D40400201C
:1038540058B40108D8B20108B94B0095012240F2CE
:1038640025116220FDF71AFC032306930023049319
:103874004FF4FC630393029332224B230093059687
:1038840001924FF49B73AF49AF480EF0E0FBE3683D
:10389400AE4DAF4E052B00F04D83A94B0095012290
:1038A40040F275116220FDF7F9FB03230693002310
:1038B40004934FF4FC630393029332224B2300934B
:1038C400059601924FF4C3739E49A2480EF0BFFBC4
:1038D400A14B059300234FF00208049350254FF4A5
:1038E400FC631E260393029340F21D1240F2D1138F
:1038F40094499A48CDF818808DE860000EF0A7FB33
:10390400974B05934FF6FF7304934FF47843039357
:103914000293CDF8188040F2D1138DE86000222282
:10392400884990480EF093FB2368052B08D16368FF
:10393400052B05D1A368052B02D1E368052B03D021
:10394400002186480EF0A6FB002186480EF0A2FB5B
:10395400002185480EF09EFB002184480EF09AFB5E
:10396400002179480EF096FB00217A480EF092FB74
:103974007F49804814F0F2FB3B68042B40F09D80A3
:103984004FF6FF716F48FDF77EFA7B49794814F0D2
:10399400E5FB7A49774814F0E1FB794B0093022266
:1039A400784B28214B20FDF779FB002165480EF068
:1039B40038FB754B05934FF4FC63022600240393F4
:1039C4000293962128238DE80A004FF482724FF463
:1039D400E6735C496148069604940EF038FB604B2C
:1039E40005934FF478434FF6FF75039302935020E9
:1039F4001E238DE80900049540F2D1132222514977
:103A0400584806960EF023FB604B05934FF61F03B0
:103A140004950393029332256E23A0228DE8280097
:103A240048495B480696E6230EF011FB21464D48B3
:103A34000EF030FB214656480EF02CFB55494D48FC
:103A440014F08CFB544B009301223D4B852110460E
:103A5400FDF74AFB514BD3F80080B8F1010F28D190
:103A64004F49444814F07AFB4E49424814F076FB1F
:103A74004D4B0093324623464FF494713A20FDF7A0
:103A84000DFB47F6EF3301934FF48C72DC23294688
:103A94002C4800950DF030FE444B00934FF4C87150
:103AA4001120274B4246FDF7F9FA21462B480EF028
:103AB400F1FA3F492F4814F051FB3B682D2B40F09D
:103AC400DC804FF6FF711F48FDF7DDF939492948BD
:103AD40014F044FB3849274814F040FB374B00935B
:103AE4000222284B28214B20FDF7D8FA0021154843
:103AF4000EF097FA244B05934FF4FC63022600243E
:103B0400039302934FF0280B96238DE808084FF493
:103B140082724FF4E6730B491048069604940EF033
:103B240096FA0F4B05934FF478434FF6FF750393C2
:103B3400029350221E238DE80C00049540E000BF40
:103B4400288A010838100020B4040020B0B4010809
:103B54004AB5010840030020CFAE010860030020ED
:103B6400D2AE0108D402002080030020D404002037
:103B740009B50108C813002036B501084CB5010881
:103B8400B0B50108348A0108C9B50108D1B50108E6
:103B940000030020D8B5010807B60108A00A0020D8
:103BA4008AB60108B1B6010820100020C9B6010880
:103BB400E3B6010808B7010829B7010810B80108DD
:103BC40040F2D1132222BA49BA4806960EF03FFABF
:103BD400B94B05934FF61F030495039302933225C3
:103BE4006E23A0228DE82800B149B4480696E62346
:103BF4000EF02DFA2146AF480EF04CFA2146AF489C
:103C04000EF048FAAE49AF4814F0A8FAAE4B009350
:103C14000122AE4B85211046FDF766FAAC4BD3F872
:103C24000080B8F1010F24D1AA49A64814F096FAED
:103C3400A94B0093324623464FF489713A20FDF78D
:103C44002DFA47F6EF3301934FF48272DC232946B1
:103C5400974800950DF050FDA04B00934FF4C871A8
:103C640011209A4B4246FDF719FA21469C480EF062
:103C740011FA9C49934814F071FA3B68052B56D10C
:103C84004FF6FF718A48FDF7FEF8974B1968974B7A
:103C9400C82253F821304A43282101FB0323944AC4
:103CA400D358092B01BF934A136801331360924B15
:103CB40000930322854B32210120FDF715FA0122DE
:103CC4008E4B00931046814B5F21FDF7E7F98C4B37
:103CD400009302227D4B4FF4C8714120FDF7DEF9B9
:103CE400002173480EF09DF903230693854B059339
:103CF4004FF6FF7304934FF61F03039302934FF0A1
:103D0400320A9623A0228DE8080469497E484FF4BC
:103D140096730EF09CF900217B480EF0BBF97B49A9
:103D2400684814F01BFA7A49664814F017FA3B689D
:103D3400092B40F026817749624814F00FFA76493E
:103D4400604814F00BFA4FF6FF715948FDF79BF8E1
:103D54004FF078080625013D00F009810FFA88F339
:103D6400099306236B436D4AC3F11C03602402EBE1
:103D7400030B6C436A4BC4F5F0741C44C5EB051685
:103D8400684BC6F14B061E444B274FF6FF794FF0A4
:103D9400020ACDF818A00596CDF810903BF8023F22
:103DA40003934FF02D0C3C238DE808103AB22046C3
:103DB400CDF80890099B3E490EF049F9594BCDF8CE
:103DC40018A005934FF0000A544BCDF810A01B889F
:103DD4000393CDF808903C234FF02D098DE8080299
:103DE4004B22782332494E4855370EF030F9BFB292
:103DF400204651460EF04EF9B7F5A57F04F1200494
:103E040006F10506C1D108F13C081FFA88F8A2E7BB
:103E14004FF6FF7304934FF47843039302933222D3
:103E24004B23019200930695CDF8148096232049E4
:103E34003D480EF00CF90096244B012285216220A6
:103E4400FDF778F99BE44FF6FF7304934FF478433E
:103E54000393029332224B23019200931449334873
:103E6400E6230EF0F4F80095184B0122D5216220C8
:103E7400FDF760F9A3E4032306934FF6FF7304935D
:103E84004FF478430393029332224B23019200931D
:103E940005964FF49B73064925480EF0D8F8009513
:103EA4000A4B012240F225116220FDF743F9EEE4AA
:103EB40038100020D4020020D1B5010800030020EE
:103EC40024B80108C813002046B80108288A01084C
:103ED400F00A002081B80108FC0A0020D0B80108CB
:103EE40060030020F3B80108780A0020400A00208B
:103EF40018070020F802002019B9010824B90108A4
:103F04000EBA01081ABA01082003002021BA0108D8
:103F140042BA0108BCBA0108E7BA0108100000203F
:103F2400380500202E00002080030020D404002047
:103F3400B4040020032306934FF6FF7304934FF455
:103F440078430393029332224B2301920093059604
:103F54004FF4C373824983480EF079F80095824B7D
:103F6400012240F275116220FDF7E4F8B0E447F64F
:103F7400EF3332218DE80A001E22DC2378480DF04D
:103F8400BBFB7A4B1A6840F2DF339A4278D14FF682
:103F9400FF717348FCF777FF7549764814F0DEF833
:103FA4007549744814F0DAF84FF078080625013D95
:103FB40058D00FFA88F3099306236B436F4AC3F171
:103FC4001C03602402EB030B6C436D4BC4F5F074CB
:103FD4001C44C5EB05166B4BC6F14B061E444B2720
:103FE4004FF0020A4FF6FF79CDF818A00596CDF8E8
:103FF40010903BF8023F03933C202D238DE80900E9
:104004003AB22046099B5649CDF808900EF01FF8A5
:104014005C4BCDF818A005934FF0000A574BCDF830
:1040240010A01B8803934FF02D0E3C238DE808400D
:104034004B2278234A495248CDF8089055370EF060
:1040440006F8BFB2204651460EF024F8B7F5A57F16
:1040540004F1200406F10506C2D108F13C081FFA58
:1040640088F8A4E7322147F6EF338DE80A003C488C
:10407400DC231E220DF040FB43493E4814F06EF849
:104084003A4B1B685B2B40F093804FF6FF7134482A
:10409400FCF7F9FE3D49374814F060F83C493548CF
:1040A40014F05CF84FF078080625013D72D00FFA41
:1040B40088F3099306236B43304AC3F11C0360243D
:1040C40002EB030B6C432E4BC4F5F0741C44C5EB9C
:1040D40005162C4BC6F14B061E444B274FF0020A23
:1040E4004FF6FF79CDF818A00596CDF810903BF85F
:1040F400023F03933C222D238DE80C0020463AB264
:10410400099B1749CDF808900DF0A1FF1D4BCDF880
:1041140018A005934FF0000A184BCDF810A01B8887
:1041240003933C212D238DE80A004B2278230C496C
:104134001348CDF8089055370DF089FFBFB22046DB
:1041440051460DF0A7FFB7F5A57F04F1200406F151
:104154000506C3D108F13C081FFA88F8A5E700BF9B
:104164003810002040030020288A01089400002011
:104174004DBB0108C813002088BB010810000020B3
:10418400380500202E000020D3BB010800BC010824
:104194003ABC0108322147F6EF338DE80A00BF48E4
:1041A400DC231E220DF0A8FABD49BE4813F0D6FF49
:1041B400BD4E3368152B40F09B804FF6FF71B74816
:1041C400FCF761FEB949B74813F0C8FFB849B548D0
:1041D40013F0C4FFB74B00930222B74B28214B20A6
:1041E400FCF75CFF0021AD480DF01BFFB34B0593BA
:1041F4004FF4FC634FF0280E02270024039302932C
:1042040096238DE808404FF482724FF4E673A34975
:10421400AB48069704940DF01AFFAA4B05934FF48C
:1042240078434FF01E0C4FF6FF750393029350230F
:104234008DE80810049540F2D11322229749A24830
:1042440006970DF004FFA14B05934FF61F03049549
:104254000393029332256E23A0228DE828008F4910
:104264009B480697E6230DF0F2FE214696480DF092
:1042740011FF214696480DF00DFF9649894813F029
:104284006DFF954B00930122944B85211046FCF75A
:104294002BFF934BD3F80080B8F1010F24D191493F
:1042A400804813F05BFF904B00933A4623464FF44B
:1042B40089713A20FCF7F2FE47F6EF3301934FF48D
:1042C4008272DC232946754800950DF015FA874B58
:1042D40000934FF4C8710520804B4246FCF7DEFE84
:1042E400214677480DF0D6FE81496E4813F036FF1B
:1042F4003368162B40F005854FF6FF7167487D4DF6
:10430400DFF834A27C4FDFF83482FCF7BCFD7B4934
:10431400644813F023FF7A49624813F01FFF2846CC
:104324000EF0D0FA5BA1D1E90001EC68754A0019DE
:1043340041F100010023FCF733FB734BCAF8002062
:10434400322100930322654B704C0120FCF7CCFE14
:1043540001226F4B00931046604B5F21FCF79EFED9
:104364006C4B009302225D4BBE214120FCF796FE6C
:10437400694A4A48136801331360684A1368002184
:10438400013B13600DF04DFE6549464813F0E6FE0F
:104394000122644B00931046504B40F23B11FCF752
:1043A400A3FE45493D480DF03CFE40F23B12792105
:1043B4003A480DF028FE002138480DF02CFE01216A
:1043C40036480DF023FE3A68D8F800304FF0C8099B
:1043D4004FF0280B09FB02F20BFB03232344242296
:1043E4009A74DA741A755A759A75DA751A76DAF84F
:1043F4000020DB69D31A4C4A099313604FF46160BF
:10440400B3FBF0F0FCF744F8484BC3E90001099B07
:10441400224819460A2213F0F9FE00211F480DF024
:1044240000FE0122424B009310462C4B40F26311D4
:10443400FCF75AFE3A68D8F8003009FB02F20BFB8D
:10444400032323441B6A022B40F0EA831A491348CE
:104454000DF0E7FD40F27712792110480DF0D3FDFD
:1044640000210E480DF0D7FD01210C480DF0CEFDC2
:104474003A68D8F80030DAF8000009FB02F90BFBBF
:1044840003932344DB69C01AFCF702F8294B57E075
:10449400AFF300808038FEBB00000000381000201D
:1044A400A4BC0108C813002094000020D0BC01085B
:1044B400E7BC0108B0B50108348A0108C9B5010890
:1044C40060030020D2AE0108D4020020D1B5010857
:1044D400000300206ABD0108A6BD0108288A01085E
:1044E400C80A0020D7BD01082910002025BE0108F4
:1044F4004CBE0108F80F00207C0A002078BE010899
:104504008FBE010840420F0019B9010818070020A6
:10451400EDBE01080EBA0108FC020020F8020020DA
:104524004EBF01087FBF0108B0040020A80400208A
:104534008DBF01088000002074100020900A002024
:10454400D3E90023FCF71AF8C04B0A22C3E900019F
:104554001E21BF4813F058FE0021BD480DF061FD37
:10456400BC4A13681E331360BB49BC4813F0F6FD04
:10457400BB49BA4813F0F2FDBA49B84813F0EEFD4E
:10458400B949B64813F0EAFDB549B44813F0E6FD5D
:10459400B649B24813F0C8FDB54BB04819680A22B1
:1045A40013F034FEAE49AD4813F0D8FDB149AB4821
:1045B40013F0BAFDB049B14B08681B68C8224243E6
:1045C400282000FB0323234489461B6A012B40F067
:1045D4006283AB49A14813F0A7FDA1499F48DFF8C6
:1045E4009CA213F0BBFDA7499C4813F09DFDA6486F
:1045F4000EF068F90A22A978984813F014FEA3492A
:10460400964813F091FD0A226978944813F00BFE42
:104614009E49924813F088FD0A2229788F4813F0A6
:1046240002FE8F498D4813F099FD99498B4813F088
:104634007BFD0A22E978894813F0F5FD95498748FE
:1046440013F072FD0A222979844813F0ECFD914994
:10465400824813F069FDB5F9061080480A226431D6
:1046640013F0D2FD7E497D4813F078FD1A217B4872
:1046740013F07EFDD9F80010DAF800204FF0C80BD3
:104684000BFB01F1282303FB0212A258012A40F07C
:104694001F838149714813F061FD80496F4813F00D
:1046A4005DFD7F496D4813F059FD7E496B4813F059
:1046B4003BFDD9F80010DAF80020684828230BFBEA
:1046C40001F103FB02122244117A13F031FDD9F8EF
:1046D4000010DAF80020614828230BFB01F103FBEA
:1046E40002122244517A13F023FDD9F80010DAF8AB
:1046F40000205A4828230BFB01F103FB0212224439
:10470400917A13F015FDD9F80010DAF80020534817
:1047140028230BFB01F103FB02122244D17A13F08C
:1047240007FDD9F80010DAF800204C4828230BFBC9
:1047340001F103FB02122244117B13F0F9FCD9F8B6
:104744000010DAF80020454828230BFB01F103FB95
:1047540002122244517B13F0EBFCD9F80010DAF872
:1047640000203E4828230BFB01F103FB02122244E4
:10477400917B13F0DDFCD9F80010DAF800203748FB
:1047840028230BFB01F103FB02122244D17B13F01B
:10479400CFFCD9F80010DAF80020304828230BFBAE
:1047A40001F103FB02122244117C13F0C1FCD9F87D
:1047B4000010DAF80020294828230BFB01F103FB41
:1047C40002122244517C13F0B3FC3749234813F0FE
:1047D400ABFC224813F0B0FC3449204813F0BEFC73
:1047E4001F491E4813F0BAFC1E491C4813F0B6FCBE
:1047F4001D491A4813F0B2FC1949184813F0AEFCCD
:104804001A49164813F090FC1949144809680A22F9
:1048140013F0FCFC1249114813F0A0FC15490F4891
:1048240013F082FCD9F80030DAF800200BFB03F314
:10483400282101FB023323441B6A012B40F0308200
:104844000F49064813F070FC32E000BFA8040020B2
:1048540038100020F402002079A50108C8130020B4
:1048640012D80108C5A40108A3BF0108B0BF0108FC
:10487400B0040020BDBF01087C0A0020900A00207B
:10488400D2BF0108E0BF0108F80F00203DA50108D0
:104894003FA5010847A50108EDBF010811C00108A3
:1048A4009CA40108A6A40108F0A90108B3A4010866
:1048B400BC49BD4813F052FCBC49BB4813F034FC5E
:1048C400BB480DF0FFFF0A22A978B74813F0ABFCF0
:1048D400B849B54813F028FC0A226978B24813F0A5
:1048E400A2FCB449B04813F01FFC0A222978AE4850
:1048F40013F099FCAB49AC4813F030FCAE49AA481C
:1049040013F012FC0A22E978A74813F08CFCAB4997
:10491400A54813F009FC0A222979A34813F083FC63
:10492400A649A14813F000FCB5F906109E480A22D6
:10493400643113F069FC9B499B4813F00FFC1A2166
:10494400994813F015FC9E49974813F007FC4FF45F
:104954007A700FF0B3FF9B499B4813F0FFFB4FF4B1
:104964007A700FF0ABFF9949974813F0DDFB3A6872
:10497400D8F8003094484FF0C8094FF0280A09FBD2
:1049840002F20AFB03232344197A13F0D1FB3A6899
:10499400D8F800308C4809FB02F20AFB03232344B5
:1049A400597A13F0C5FB3A68D8F80030864809FBF9
:1049B40002F20AFB03232344997A13F0B9FB3A6801
:1049C400D8F80030804809FB02F20AFB0323234491
:1049D400D97A13F0ADFB3A68D8F800307A4809FB6D
:1049E40002F20AFB03232344197B13F0A1FB3A6868
:1049F400D8F80030744809FB02F20AFB032323446D
:104A0400597B13F095FB3A68D8F800306E4809FBDF
:104A140002F20AFB03232344997B13F089FB3A68CF
:104A2400D8F80030684809FB02F20AFB0323234448
:104A3400D97B13F07DFB3A68D8F80030624809FB53
:104A440002F20AFB03232344197C13F071FB3A6836
:104A5400D8F800305C4809FB02F20AFB0323234424
:104A6400597C13F065FB5A49574813F05DFB5648CF
:104A740013F062FB4FF47A700FF020FF554952484F
:104A840013F06CFB4749504813F068FB52494E48F9
:104A940013F064FB51494C4813F060FB41494A4808
:104AA40013F05CFB4E49484813F03EFB4D4B46481F
:104AB40019680A2213F0AAFB3A49434813F04EFB43
:104AC4004949414813F030FB3B68D8F8002009FB02
:104AD40003F30AFB02331C44236A012B40F0E580F4
:104AE4004249394813F020FB2E49374813F036FB6E
:104AF4002E49354813F018FB2D480DF0E3FE0A2229
:104B0400A978314813F08FFB2A492F4813F00CFB86
:104B14000A2269782C4813F086FB26492A4813F0A8
:104B240003FB0A222978284813F07DFB1D492648F7
:104B340013F014FB2049244813F0F6FA0A22E9780A
:104B4400214813F070FB1D491F4813F0EDFA0A22A7
:104B540029791D4813F067FB18491B4813F0E4FA40
:104B6400B5F9061018480A22643113F04DFB0D49BB
:104B7400154813F0F3FA64200FF0A0FE1A2112482E
:104B840013F0F6FA64200FF099FE1949064813F061
:104B9400E5FA03230693174B05934FF6FF7304932B
:104BA4002AE000BF12D80108C8130020E0BF0108A2
:104BB400F80F00203DA501083FA5010847A50108FD
:104BC40044C001089CA40108A0030020A6A4010875
:104BD400F0A90108B3A40108C5A40108A3BF0108F2
:104BE400B0BF0108B0040020BDBF0108D2BF010856
:104BF4007BC001081ABA01084FF61F0303930293FE
:104C0400322796238DE88800A0224FF4E1732949C6
:104C140029480DF01CFA002127480DF03BFA5AE010
:104C2400012B7FF4A1AC2549224809930DF0F9F931
:104C340040F2771279211F480DF0E5F900211D4853
:104C44000DF0E9F9099B1B4819460DF0DFF93A68A4
:104C5400D8F80030DAF8000009FB02F90BFB0399DD
:104C6400A144D9F81C30C01AFBF712FC144BD3E949
:104C74000023FBF783FC134B0A22C3E9000119212B
:104C84000C4813F0C1FA00210A480DF0CAF90E4A83
:104C94001368193367E4022B7FF49FAC0B4999E442
:104CA400022B7FF405AE0949CBE5022B7FF41CAF40
:104CB400064916E73810002020030020348A010832
:104CC40008000020A8040020F4020020D9BF010835
:104CD400092A3FF45EAFBC4A0023202199540133D2
:104CE400072BFBD1B94ABA491360BA4BBA48002220
:104CF4001A70BA4A4FF0FF331360B94A136013F0C5
:104D04002DFA3368DC2B35D1B649B34813F026FAB3
:104D1400B549B14813F022FA4FF6FF71B348FCF7D6
:104D2400B2F8B34B00930222B24B64210120FCF78A
:104D3400B5F90021AD480DF074F902230693AE4B8A
:104D440005934FF6FF7304934FF478430393029350
:104D54001E25502322228DE82800A449A74840F2AA
:104D6400D1130DF074F90021A4480DF093F9A44B6C
:104D740000221A603368282B3AD1A249964813F0CE
:104D8400EDF9A149944813F0E9F94FF6FF719748FA
:104D9400FCF779F89D4B00930222964B6421012085
:104DA400FCF77CF9002191480DF03BF902230693AE
:104DB400914B05934FF6FF7304934FF47843039399
:104DC40002931E24502322228DE8180087498B4821
:104DD40040F2D1130DF03BF9002188480DF05AF947
:104DE4008B497D4813F0BAF98A4B4FF0FF321A60B1
:104DF4003268894B9A4240F0B38388497648884F99
:104E0400884D894C13F0AAF98849734813F0A6F920
:104E14004FF6FF717548FCF736F8854A136801337D
:104E24001360844B00930322724B96210120FCF7FC
:104E340035F9814B009303226E4B96210F20FCF72A
:104E44002DF94FF47A700FF039FD7C497C4813F04A
:104E540085F94FF47A700FF031FD7A49784813F0F0
:104E640063F93A68764855F822304FF0C8084FF095
:104E7400280908FB02F209FB03232344197A13F0DF
:104E840057F93A686E4855F8223008FB02F209FBDC
:104E940003232344597A13F04BF93A68684855F8C8
:104EA400223008FB02F209FB03232344997A13F00E
:104EB4003FF93A68624855F8223008FB02F209FBD0
:104EC40003232344D97A13F033F93A685C4855F83C
:104ED400223008FB02F209FB03232344197B13F05D
:104EE40027F93A68564855F8223008FB02F209FBC4
:104EF40003232344597B13F01BF93A68504855F8AF
:104F0400223008FB02F209FB03232344997B13F0AC
:104F14000FF93A684A4855F8223008FB02F209FBB7
:104F240003232344D97B13F003F93A68444855F822
:104F3400223008FB02F209FB03232344197C13F0FB
:104F4400F7F83A683E4855F8223008FB02F209FBAC
:104F540003232344597C13F0EBF83B49384813F0FE
:104F6400E3F8374813F0E8F84FF47A700FF0A6FC32
:104F74003649334813F0F2F83549314813F0EEF866
:104F840034492F4813F0EAF833492D4813F0E6F872
:104F94002F492B4813F0E2F83049294813F0C4F89C
:104FA4003A68274855F8223008FB02F209FB03232C
:104FB4002344997C13F0BCF83A68214855F8223010
:104FC40008FB02F24CE000BF291000209C0A0020DC
:104FD400A3C0010836100020C81300207C0A00205A
:104FE400900A002009C1010825C1010838100020D9
:104FF400AAC10108288A0108D2AE0108D4020020FF
:10500400C80A00200DC2010828C201087DC2010897
:10501400E5C2010888000020D7881E00D3A3010838
:10502400780A0020400A0020180700203BA4010849
:10503400F802002086A4010890A401089CA4010899
:10504400A0030020A6A40108F0A90108B3A4010844
:1050540012D80108C5A40108D5A40108E3A40108D5
:1050640009FB03232344D97C13F062F83A68C4484B
:1050740055F8223008FB02F209FB03232344197D6F
:1050840013F056F83A68BE4855F8223008FB02F28D
:1050940009FB03232344597D13F04AF83A68B848BE
:1050A40055F8223008FB02F209FB03232344997DBF
:1050B40013F03EF83A68B24855F8223008FB02F281
:1050C40009FB03232344D97D13F032F83A68AC4832
:1050D40055F8223008FB02F209FB03232344197E0E
:1050E40013F026F8A749A64813F038F8A649A448AF
:1050F40013F01AF83A6855F8223008FB02F809FB55
:105104000388A044D8F80430002B40F0E4859F497C
:105114009B4813F009F89B49994813F01FF89C49E0
:10512400974813F001F83968C82255F821304A43EA
:10513400282101FB032323441B6A012B40F0DB8558
:1051440094498F4812F0F0FFDFF880A28D498C4813
:1051540013F004F890498A4812F0E6FF50460DF027
:10516400B1FB0A229AF80210854813F05CF88B49C7
:10517400834812F0D9FF0A229AF80110804813F0EC
:1051840052F886497E4812F0CFFF0A229AF800109E
:105194007B4813F048F87B49794812F0DFFF8049D7
:1051A400774812F0C1FF0A229AF80310744813F0EA
:1051B4003AF87C49724812F0B7FF0A229AF80410B0
:1051C4006F4813F030F877496D4812F0ADFFBAF923
:1051D40006106B480A22643113F016F869496848CE
:1051E40012F0BCFF64200FF069FB1A21644812F02E
:1051F400BFFF64200FF062FB6B496C4812F0AEFFF6
:105204006B496A4812F0AAFF6A49684812F08CFF99
:105214003A68664855F822304FF0C8084FF028091C
:1052240008FB02F209FB03232344197A12F080FFDE
:105234003A685E4855F8223008FB02F209FB032362
:105244002344597A12F074FF3A68584855F82230CA
:1052540008FB02F209FB03232344997A12F068FF46
:105264003A68524855F8223008FB02F209FB03233E
:105274002344D97A12F05CFF3A684C4855F822303E
:1052840008FB02F209FB03232344197B12F050FFAD
:105294003A68464855F8223008FB02F209FB03231A
:1052A4002344597B12F044FF3A68404855F82230B1
:1052B40008FB02F209FB03232344997B12F038FF15
:1052C4003A683A4855F8223008FB02F209FB0323F6
:1052D4002344D97B12F02CFF3A68344855F8223025
:1052E40008FB02F209FB03232344197C12F020FF7C
:1052F4003A682E4855F8223008FB02F209FB0323D2
:105304002344597C12F014FF2B49284812F00CFF57
:10531400264812F011FF2949244812F01FFF1949A9
:10532400224812F01BFF2649204812F017FF254996
:105334001E4812F013FF13491C4812F00FFF2249B4
:105344001A4812F0F1FE3A68184855F8223008FB62
:1053540002F209FB03232344997C12F0E9FE3A6824
:10536400124855F8223008FB02F209FB03232344B8
:10537400D97C12F0DDFE3A680C4855F8223027E05B
:10538400A003002012D80108EAA40108F3A401082C
:105394001EA5010826A501082FA501083DA50108A1
:1053A4003FA5010847A5010849A50108C813002025
:1053B4009CA40108A6A40108F0A90108B3A401084B
:1053C400C5A40108D5A40108E3A40108F80F00202E
:1053D40008FB02F209FB03232344197D12F0A8FE03
:1053E4003A68BC4855F8223008FB02F209FB032353
:1053F4002344597D12F09CFE3A68B64855F8223091
:1054040008FB02F209FB03232344997D12F090FE6A
:105414003A68B04855F8223008FB02F209FB03232E
:105424002344D97D12F084FE3A68AA4855F8223004
:1054340008FB02F209FB03232344197E12F078FED1
:10544400A549A44812F08AFEA449A24812F06CFEB1
:105454003A6855F8223008FB02F809FB0388A04497
:10546400D8F80430002B40F04C849D49994812F040
:105474005BFE9949974812F071FE9A49954812F0DB
:1054840053FE3968C82255F821304A43282101FBCC
:1054940003231C44236A012B40F0438492498D4822
:1054A40012F042FE8C498B4812F058FE8F4989480D
:1054B40012F03AFE8E480DF005FA0A229AF802100C
:1054C400844812F0B0FE8B49824812F02DFE0A2265
:1054D4009AF801107F4812F0A6FE86497D4812F022
:1054E40023FE0A229AF800107A4812F09CFE7A49A8
:1054F400784812F033FE8049764812F015FE0A22ED
:105504009AF80310734812F08EFE7C49714812F029
:105514000BFE0A229AF804106E4812F084FE7749B2
:105524006C4812F001FEBAF906106A480A22643186
:1055340012F06AFE6849674812F010FE1A216548A5
:1055440012F016FE6E49634812F008FE6D49614878
:1055540012F004FE6C495F4812F000FE04F066FD90
:1055640032686A4B9A4267D169495A4812F0F6FD8B
:105574006849584812F0F2FD4FF6FF716648FBF790
:1055840082FC664B00930322654B32210120FBF71A
:10559400ABFD644B00930222614B5A210120FBF7BF
:1055A4007DFD00215C480CF03CFD5F4B059300241D
:1055B4004FF4FC634FF003086425322703930293EE
:1055C4005A22C82354495948CDF8188004948DE8C8
:1055D400A0000CF03CFD564B05934FF6FF7304936B
:1055E4004FF4784303930293E622C8234A4951486F
:1055F400CDF818808DE8A0000CF029FD01224E4B57
:1056040000931046464B4FF48271FBF7B9FD01221B
:105614004A4B00931046424B4FF4C871FBF73EFDD2
:10562400214642480CF036FD214642480CF032FD3A
:105634004349284812F092FD3268424B9A4240F0A6
:105644009581414923482A4CDFF82C813F4F404D36
:1056540012F084FD3F491F4812F080FD3E491D4869
:1056640012F07CFD4FF6FF712B48FBF70CFC3B4B13
:10567400009303222A4B96210120FBF70FFD384BA0
:1056840000930322264B96210F20FBF707FD354B91
:1056940000930222224BD7210F20FBF7FFFC324B51
:1056A400009301221E4B40F213110F20FBF71CFD47
:1056B4002E49084812F052FD2D49064812F04EFDBD
:1056C4002C49044812F04AFD20460DF0FBF80A224A
:1056D400A17853E0C813002012D80108EAA40108F5
:1056E400F3A401081EA5010826A501082FA5010899
:1056F400F80F00203DA501083FA5010847A50108B2
:1057040090A50108B0A50108DAA50108D10D030090
:1057140079A601088DA60108381000203FA70108CA
:10572400288A010849A7010862A70108C0100020BF
:1057340066A70108A80A002069A701082BA8010888
:1057440095A8010815A51E00BFA80108F4020020B1
:10575400F8020020E1A8010846A9010886A401086E
:1057640097A90108A2A90108B5A9010849A501083A
:105774009CA40108DAA90108FC020020B74812F031
:1057840052FDB749B54812F0CFFC0A226178B348FC
:1057940012F049FDB249B14812F0C6FC0A22217840
:1057A400AE4812F040FDAF49AC4812F0D7FCAE4908
:1057B400AA4812F0B9FC0A22E178A84812F033FD95
:1057C400AA49A64812F0B0FC0A222179A34812F093
:1057D4002AFDA649A14812F0A7FCB4F906109F4877
:1057E4000A22643112F010FD9E499C4812F0B6FC66
:1057F4009F499A4812F098FC0A22D8F8001097485A
:1058040012F002FD9749954812F0A8FC9949934873
:1058140012F08AFC0A223968904812F0F5FC91498A
:105824008E4812F09BFC94498C4812F07DFC0A22AD
:1058340029688A4812F0E8FC8A49884812F08EFCEC
:105844008E49864812F08AFC4FF47A700FF036F8CD
:105854008B498C4812F082FC4FF47A700FF02EF8CA
:105864008949884812F07AFC4FF47A700FF026F8D0
:1058740020460DF027F80A22A178824812F0D3FCC2
:105884007749804812F050FC0A2261787D4812F072
:10589400CAFC73497B4812F047FC0A2221787948F4
:1058A40012F0C1FC6F49774812F058FC6E497548F4
:1058B40012F03AFC0A22E178724812F0B4FC6B4907
:1058C400704812F031FC0A2221796E4812F0ABFCC8
:1058D40066496C4812F028FCB4F9061069480A229B
:1058E400643112F091FC5F49664812F037FC60495C
:1058F400644812F019FC0A22D8F80010614812F02A
:1059040083FC58495F4812F029FC5A495D4812F05B
:105914000BFC0A2239685B4812F076FC514959485D
:1059240012F01CFC5449574812F0FEFB0A22296865
:10593400544812F069FC4B49524812F00FFC6420A1
:105944000EF0BCFF1A214F4812F012FC64200EF036
:10595400B5FF40F2D1734D494048336012F0FEFB6D
:105964004B493E4812F0FAFBFBF77CFD326840F2EB
:10597400D1739A4240F0E585082146480CF03BFE7D
:10598400454944480CF080FE444942480CF082FEEC
:105994004FF6FF714248FBF776FA42492F4812F05E
:1059A400DDFB41492D4812F0D9FB40492B4812F048
:1059B400D5FB3F4B009305223E4B41210A20FBF7C8
:1059C40093FB3D4B009303223A4B73211B20FBF7BF
:1059D40065FB3A4B00930222364B9E212D20FBF7A8
:1059E400CFFB374B009302220023AC210C20FBF7A2
:1059F40055FB00212A480CF014FB324B05934FF65B
:105A0400FF774FF003084FF61F03642432250497F1
:105A1400039302933C2240F2311321492A48CDF8E2
:105A240018808DE830000CF012FB284B059340F2EF
:105A34001F430497039302933C2240F277131849BF
:105A44002348CDF818808DE830000CF000FB214B82
:105A5400059348F21003049703933DE0C813002014
:105A64003DA5010812D801083FA5010847A5010872
:105A7400F3A9010815AA01082FAA010890A5010895
:105A84009CA40108A0030020DAA90108B0A501081C
:105A94004EAA0108E41000200DF700084D0E00087E
:105AA4003810002077AC010828A0010896AC010842
:105AB400BBAC0108288A0108C1AC010814C3010861
:105AC40020C3010894AC0108D00A00205EAD01088F
