:020000040800F2
:1000000000800120456A0008956A0008956A00088A
:10001000956A0008956A0008956A000800000000CB
:10002000000000000000000000000000956A0008C9
:10003000956A000800000000956A0008476F0008F4
:10004000956A0008956A0008956A0008956A000894
:10005000956A0008956A00089D9A0008A39A00080E
:10006000A99A0008AF9A0008B59A0008956A000896
:10007000956A0008956A0008956A0008956A000864
:10008000956A0008956A0008956A0008000000005B
:10009000000000000000000000000000BB9A000803
:1000A00025730008C572000835730008956A0008BA
:1000B000E5720008F572000805730008F173000886
:1000C000FD7300080974000815740008956A00089B
:1000D000956A00086D770008857700080000000029
:1000E000D19A000899710008956A00080000000084
:1000F000000000000000000000000000956A0008F9
:1001000000000000956A000815730008956A000851
:1001100000000000000000000000000000000000DF
:10012000956A0008956A0008956A0008956A0008B3
:10013000956A0008000000000000000000000000B8
:10014000000000000000000000000000956A0008A8
:10015000956A0008956A0008956A00089D7700086E
:10016000217400082D740008000000000000000049
:10017000000000000000000000000000000000007F
:1001800000000000956A0008000000000000000068
:04019000956A000864
:1001940010B5054C237833B9044B13B10448AFF3BD
:1001A40000800123237010BD4001002000000000E6
:1001B4004C9E00080C4B43B10C480D4910B5AFF3ED
:1001C40000800C48036823B910BD0A48036833B99A
:1001D4007047094B002BF7D0BDE810401847064B79
:1001E400002BF5D0184700BF000000004C9E00080B
:1001F400440100204001002000000000034613F8E1
:10020400012B002AFBD1181A0138704781F00041F4
:1002140002E000BF83F0004330B54FEA41044FEAE7
:10022400430594EA050F08BF90EA020F1FBF54EA82
:10023400000C55EA020C7FEA645C7FEA655C00F01E
:10024400E2804FEA5454D4EB5555B8BF6D420CDDEF
:100254002C4480EA020281EA030382EA000083EA72
:10026400010180EA020281EA0303362D88BF30BD12
:1002740011F0004F4FEA01314FF4801C4CEA113168
:1002840002D0404261EB410113F0004F4FEA0333C7
:100294004CEA133302D0524263EB430394EA050F52
:1002A40000F0A780A4F10104D5F1200E0DDB02FAC1
:1002B4000EFC22FA05F2801841F1000103FA0EF255
:1002C400801843FA05F359410EE0A5F120050EF11B
:1002D400200E012A03FA0EFC28BF4CF0020C43FA4C
:1002E40005F3C01851EBE37101F0004507D54FF059
:1002F400000EDCF1000C7EEB00006EEB0101B1F5A9
:10030400801F1BD3B1F5001F0CD349085FEA3000EE
:100314004FEA3C0C04F101044FEA445212F5800FF9
:1003240080F09A80BCF1004F08BF5FEA500C50F196
:10033400000041EB045141EA050130BD5FEA4C0C79
:10034400404141EB010111F4801FA4F10104E9D102
:1003540091F0000F04BF01460020B1FA81F308BFF9
:100364002033A3F10B03B3F120020CDA0C3208DDC5
:1003740002F1140CC2F10C0201FA0CF021FA02F1A0
:100384000CE002F11402D8BFC2F1200C01FA02F110
:1003940020FA0CFCDCBF41EA0C019040E41AA2BF35
:1003A40001EB0451294330BD6FEA04041F3C1CDAFD
:1003B4000C340EDC04F11404C4F1200220FA04F01D
:1003C40001FA02F340EA030021FA04F345EA0301C7
:1003D40030BDC4F10C04C4F1200220FA02F001FA89
:1003E40004F340EA0300294630BD21FA04F029460B
:1003F40030BD94F0000F83F4801306BF81F48011A4
:100404000134013D4EE77FEA645C18BF7FEA655C16
:1004140029D094EA050F08BF90EA020F05D054EAE8
:10042400000C04BF1946104630BD91EA030F1EBFED
:100434000021002030BD5FEA545C05D140004941F1
:1004440028BF41F0004130BD14F580043CBF01F5E4
:10045400801130BD01F0004545F0FE4141F47001CA
:100464004FF0000030BD7FEA645C1ABF19461046A5
:100474007FEA655C1CBF0B46024650EA013406BFA6
:1004840052EA033591EA030F41F4002130BD00BF65
:1004940090F0000F04BF0021704730B54FF4806422
:1004A40004F132044FF000054FF0000150E700BFA3
:1004B40090F0000F04BF0021704730B54FF4806402
:1004C40004F1320410F0004548BF40424FF00001EF
:1004D4003EE700BF42004FEAE2014FEA31014FEA32
:1004E40002701FBF12F07F4393F07F4F81F0605181
:1004F400704792F0000F14BF93F07F4F704730B5F0
:100504004FF4607401F0004521F0004120E700BF82
:1005140050EA010208BF704730B54FF000050AE009
:1005240050EA010208BF704730B511F0004502D50A
:10053400404261EB41014FF4806404F132045FEA0C
:10054400915C3FF4DCAE4FF003025FEADC0C18BFB1
:1005540003325FEADC0C18BF033202EBDC02C2F1A7
:10056400200300FA03FC20FA02F001FA03FE40EA39
:100574000E0021FA02F11444C1E600BF70B54FF039
:10058400FF0C4CF4E06C1CEA11541DBF1CEA13551B
:1005940094EA0C0F95EA0C0F00F0DEF82C4481EA83
:1005A400030621EA4C5123EA4C5350EA013518BFA3
:1005B40052EA033541F4801143F4801338D0A0FB90
:1005C40002CE4FF00005E1FB02E506F00042E0FB3D
:1005D40003E54FF00006E1FB03569CF0000F18BF43
:1005E4004EF0010EA4F1FF04B6F5007F64F54074EB
:1005F40004D25FEA4E0E6D4146EB060642EAC6217E
:1006040041EA55514FEAC52040EA5E504FEACE2EEA
:10061400B4F1FD0C88BFBCF5E06F1ED8BEF1004FED
:1006240008BF5FEA500E50F1000041EB045170BD69
:1006340006F0004646EA010140EA020081EA0301AD
:10064400B4EB5C04C2BFD4EB0C0541EA045170BDA9
:1006540041F480114FF0000E013C00F3AB8014F123
:10066400360FDEBF002001F0004170BDC4F100046C
:10067400203C35DA0C341BDC04F11404C4F12005ED
:1006840000FA05F320FA04F001FA05F240EA020048
:1006940001F0004221F0004110EBD37021FA04F67E
:1006A40042EB06015EEA430E08BF20EAD37070BD38
:1006B400C4F10C04C4F1200500FA04F320FA05F097
:1006C40001FA04F240EA020001F0004110EBD37099
:1006D40041F100015EEA430E08BF20EAD37070BD09
:1006E400C4F1200500FA05F24EEA020E20FA04F3E2
:1006F40001FA05F243EA020321FA04F001F0004191
:1007040021FA04F220EA020000EBD3705EEA430E01
:1007140008BF20EAD37070BD94F0000F0FD101F030
:100724000046400041EB010111F4801F08BF013C69
:10073400F7D041EA060195F0000F18BF704703F0A7
:100744000046520043EB030313F4801F08BF013D2E
:10075400F7D043EA0603704794EA0C0F0CEA1355EA
:1007640018BF95EA0C0F0CD050EA410618BF52EAA4
:100774004306D1D181EA030101F000414FF00000AA
:1007840070BD50EA410606BF1046194652EA4306B8
:1007940019D094EA0C0F02D150EA013613D195EA2C
:1007A4000C0F05D152EA03361CBF104619460AD174
:1007B40081EA030101F0004141F0FE4141F470017E
:1007C4004FF0000070BD41F0FE4141F4780170BD6E
:1007D40070B54FF0FF0C4CF4E06C1CEA11541DBFD3
:1007E4001CEA135594EA0C0F95EA0C0F00F0A7F8D5
:1007F400A4EB050481EA030E52EA03354FEA013102
:1008040000F088804FEA03334FF0805545EA131314
:1008140043EA12634FEA022245EA111545EA1065DC
:100824004FEA00260EF000419D4208BF964244F173
:10083400FD0404F5407402D25B084FEA3202B61A92
:1008440065EB03055B084FEA32024FF480104FF466
:10085400002CB6EB020E75EB030E22BFB61A7546DA
:1008640040EA0C005B084FEA3202B6EB020E75EB6D
:10087400030E22BFB61A754640EA5C005B084FEAD5
:100884003202B6EB020E75EB030E22BFB61A7546A2
:1008940040EA9C005B084FEA3202B6EB020E75EBAD
:1008A400030E22BFB61A754640EADC0055EA060E6E
:1008B40018D04FEA051545EA16754FEA06164FEAB1
:1008C400C30343EA52734FEAC2025FEA1C1CC0D15D
:1008D40011F4801F0BD141EA00014FF000004FF0EA
:1008E400004CB6E711F4801F04BF01430020B4F1AB
:1008F400FD0C88BFBCF5E06F3FF6AFAEB5EB030C63
:1009040004BFB6EB020C5FEA500C50F1000041EB5F
:10091400045170BD0EF0004E4EEA113114EB5C042C
:10092400C2BFD4EB0C0541EA045170BD41F48011FF
:100934004FF0000E013C90E645EA060E8DE60CEA07
:10094400135594EA0C0F08BF95EA0C0F3FF43BAF24
:1009540094EA0C0F0AD150EA01347FF434AF95EADB
:100964000C0F7FF425AF104619462CE795EA0C0FBF
:1009740006D152EA03353FF4FDAE1046194622E78C
:1009840050EA410618BF52EA43067FF4C5AE50EA66
:1009940041047FF40DAF52EA43057FF4EBAE12E756
:1009A40053B94AB9002908BF00281CBF4FF0FF31D2
:1009B4004FF0FF3000F07AB9ADF1080C6DE904CEC8
:1009C40000F006F8DDF804E0DDE9022304B0704726
:1009D4002DE9F0478C460D460446089E002B51D164
:1009E4008A4217466DD9B2FA82FEBEF1000F0BD0CF
:1009F400CEF1200C01FA0EF520FA0CFC02FA0EF7E7
:100A04004CEA050C00FA0EF44FEA174A250CBCFB1D
:100A1400FAF81FFA87F90AFB18CC45EA0C4508FBDB
:100A240009F3AB420AD9ED1908F1FF3280F02381B2
:100A3400AB4240F22081A8F102083D44ED1AA4B271
:100A4400B5FBFAF00AFB105544EA054400FB09F92A
:100A5400A14509D9E41900F1FF3380F00A81A145C9
:100A640040F2078102383C44A4EB090440EA084000
:100A74000021002E61D024FA0EF400233460736048
:100A8400BDE8F0878B4207D9002E54D0002186E8B8
:100A940021000846BDE8F087B3FA83F1002940F04D
:100AA4008E80AB4202D3824200F2FA80841A65EB54
:100AB40003050120AC46002E3FD086E81010BDE8A7
:100AC400F08712B90127B7FBF2F7B7FA87FEBEF138
:100AD400000F34D1EB1B3A0C1FFA87FC0121B3FB46
:100AE400F2F8250C02FB183345EA03450CFB08F326
:100AF400AB4207D9ED1908F1FF3002D2AB4200F244
:100B0400D1808046ED1AA3B2B5FBF2F002FB10557A
:100B140043EA05440CFB00FCA44507D9E41900F1A1
:100B2400FF3302D2A44500F2B8801846A4EB0C04AB
:100B340040EA08409DE731463046BDE8F087CEF1F3
:100B4400200405FA0EF307FA0EF720FA04F83A0C1B
:100B540025FA04F448EA0308B4FBF2F14FEA184515
:100B640002FB11441FFA87FC45EA044501FB0CF320
:100B7400AB4200FA0EF409D9ED1901F1FF3080F00F
:100B84008A80AB4240F2878002393D44EB1A1FFA57
:100B940088F5B3FBF2F002FB103345EA034500FB92
:100BA4000CF3AB4207D9ED1900F1FF386FD2AB4219
:100BB4006DD902383D44EB1A40EA01418FE7C1F197
:100BC400200722FA07F88B4005FA01F448EA0303E8
:100BD40020FA07FE4FEA134CFD404EEA040EB5FB23
:100BE400FCF94FEA1E440CFB19551FFA83F844EA3A
:100BF400054509FB08F4AC4202FA01F200FA01FAD5
:100C040008D9ED1809F1FF3043D2AC4241D9A9F11A
:100C140002091D442D1B1FFA8EFEB5FBFCF00CFBD4
:100C240010554EEA054400FB08F8A04507D9E4181E
:100C340000F1FF3529D2A04527D902381C4440EAE7
:100C44000940A4EB0804A0FB02894C45C6464D4666
:100C540015D312D056B1BAEB0E0364EB050404FAB3
:100C640007F7CB401F43CC40376074600021BDE8D8
:100C7400F0871846F8E69046E0E6C245EAD2B8EBBB
:100C8400020E69EB03050138E4E72846D7E740463E
:100C940091E78146BEE7014678E702383C4445E7E0
:100CA400084608E7A8F102083D442BE7704700BF57
:100CB40013B5B0F90E200468019100920022B0F936
:100CC4000C30A46B1146A04702B010BD1FB51E49DD
:100CD40002A805F061FD0121312005F019FF012171
:100CE400302005F015FF0121312005F065FF0121B9
:100CF400302005F061FFBDF80C30023B9BB240F29E
:100D0400E532934294BF0124002419D84FF4A07310
:100D1400009340F2753200239B21BDF9080008F0CE
:100D24000AFE0A4B18604FF4F0730093BDF90A00F1
:100D34000023642240F2A33108F0FDFD044B186047
:100D4400204604B010BD00BF0C080020A0070020FE
:100D5400A40700202DE9F041104C069D0746884663
:100D640020461946164605F05CFC0FFA88F239B2A3
:100D7400204605F048FC2046002105F04CFCF1B269
:100D8400204605F043FC2946204608F015FD204680
:100D94000021BDE8F04105F044BC00BFCC070020B1
:100DA4002DE9F041104C069D074688462046194619
:100DB400164605F036FC0FFA88F239B2204605F0E3
:100DC40022FC204640F21F4105F025FCF1B22046EA
:100DD40005F01CFC2946204608F0EEFC20460021C4
:100DE400BDE8F04105F01DBCCC0700202DE9F04121
:100DF400104C069D0746884620461946164605F0BF
:100E040010FC0FFA88F239B2204605F0FCFB2046AC
:100E14004FF61F0105F0FFFBF1B2204605F0F6FB8B
:100E24002946204608F0C8FC20460021BDE8F041D0
:100E340005F0F7BBCC07002037B5002332491C4628
:100E4400C818002284502032A02AFBD1A033B3F565
:100E5400207FF5D12D492E482E4D08F0CAFD2E4A8B
:100E64002E492B4808F08AFE28492D4808F0C1FD78
:100E7400294A2A492A4808F081FE00231A461946BD
:100E840001940094274803F09BF909224FF49673C8
:100E940008218DE80C0024483023312205F040FD60
:100EA400224805F0D1FB224805F0CEFB214805F08D
:100EB400CBFB214805F0C8FB204805F0C5FB2048C2
:100EC40005F0C2FB1F4805F0BFFB1F4805F0BCFB43
:100ED4001E4805F0B9FB1E4805F0B6FB1D4805F099
:100EE400B3FB1D4805F0B0FB1C4805F0ADFB1C48E6
:100EF40005F0AAFB00242819203405F0A5FBB4F55D
:100F0400F07FF8D103B030BD98040020C2CE0008B1
:100F1400A8070020B8020020000000206D990008F6
:100F2400B4070020CC0700200C080020540800203F
:100F3400440700206807002034080020E80100204E
:100F44005C0100200802002054020020340200202A
:100F5400C8010020740200209402002088010020AF
:100F6400A80100202DE9F04FC34C2368012B8BB05E
:100F74001DD106224FF41651C04808F0A5FBC04805
:100F840003F002FBBF490546BC4808F015FC1022DB
:100F94002946BA4808F078FC2946B94804F04AFBC7
:100FA4000021B74804F0CAF94FF0FF332360012150
:100FB4001E2005F0ADFD01211F2005F0A9FD012132
:100FC4001E2005F0F9FDB04F00211F2005F0F4FDAF
:100FD4000021212005F09CFD3A6840F257439A42D3
:100FE40040F07E814FF6FF71A548A84EA84DA94C4C
:100FF400FFF75EFEA84A136801331360A74B009302
:101004000322A74B96210120FFF7A4FEA54B0093D2
:101014000322A34B96210F20FFF79CFE4FF47A7016
:1010240005F00EFEA049954808F0D6FB4FF47A70FF
:1010340005F006FE9D49914808F0BEFB32688F48D2
:1010440002EB820355F82220134404EB4313197A6C
:1010540008F0B6FB3268894802EB820355F8222077
:10106400134404EB4313597A08F0AAFB326883480B
:1010740002EB820355F82220134404EB4313997ABC
:1010840008F09EFB32687D4802EB820355F822206B
:10109400134404EB4313D97A08F092FB326877487F
:1010A40002EB820355F82220134404EB4313197B0B
:1010B40008F086FB3268714802EB820355F822205F
:1010C400134404EB4313597B08F07AFB32686B48F2
:1010D40002EB820355F82220134404EB4313997B5B
:1010E40008F06EFB3268654802EB820355F8222053
:1010F400134404EB4313D97B08F062FB32685F4866
:1011040002EB820355F82220134404EB4313197CA9
:1011140008F056FB3268594802EB820355F8222046
:10112400134404EB4313597C08F04AFB60495348C9
:1011340008F042FB514808F047FB4FF47A7005F081
:101144007FFD5C494D4808F047FB5B494B4808F07C
:1011540043FB5A49494808F03FFB5949474808F0BE
:101164003BFB5549454808F037FB5649434808F0CE
:1011740023FB3268414802EB820355F822201344D2
:1011840004EB4313997C08F01BFB32683B4802EBE9
:10119400820355F82220134404EB4313D97C08F04E
:1011A4000FFB3268354802EB820355F822201344C2
:1011B40004EB4313197D08F003FB32682F4802EB5C
:1011C400820355F82220134404EB4313597D08F09D
:1011D400F7FA3949294808F0FFFA3B49274808F04B
:1011E400EBFA326802EB820355F82220134404EB35
:1011F40043135B68002B40F0928634491F4808F083
:10120400DBFA2D491D4808F0E7FA31491B4808F07C
:10121400D3FA326802EB820355F82220134404EB1C
:101224004314E369012B40F08A862A49134808F0E5
:10123400C3FA2149114808F0CFFA27490F4808F0AA
:10124400BBFA1D490D4808F0C7FA24490B4808F0B9
:10125400B3FA1949094808F0BFFA642005F0F0FC14
:101264001A21064808F0C2FA41F2707005F0E8FC51
:1012740001F0FAFA34E000BFA8000020900A002030
:10128400CC070020D2B000088C0000202C070020DE
:10129400180700209804002080010020DEB0000818
:1012A400689E0008E8B00008F4B00008FEB000082A
:1012B40055B300080BB10008C2CE00081DB10008E8
:1012C40036B1000844B100084BB1000854B100081D
:1012D4007FB1000887B1000890B100089EB10008F2
:1012E4003B68912B5BD14FF6FF71BB48FFF7E0FCE5
:1012F400BA4B00930322BA4B32210120FFF750FD71
:10130400B84B00930222B64B5A210120FFF722FD6D
:101314000021B14805F085F9B34B059300244FF43F
:10132400FC634FF0030864253226039302935A2288
:10133400C823A949AD48CDF8188004948DE860000D
:1013440005F085F9AA4B05934FF6FF7304934FF408
:10135400784303930293E622C8239F49A548CDF816
:1013640018808DE8600005F072F90122A24B009309
:1013740010469B4B4FF48271FFF738FD01229F4BBF
:1013840000931046964B4FF4C871FFF7E3FC2146D7
:10139400964805F07FF92146964805F07BF93A68AE
:1013A40042F295039A427AD14FF6FF718A48FFF7C9
:1013B4007FFC934B00930322894B96210120FFF776
:1013C400C9FC904B00930322854B96210F20FFF715
:1013D400C1FC8D4B00930222814BD7210F20FFF7D4
:1013E400B9FC8A4B009301227D4B40F213110F206C
:1013F400FFF7D6FC4FF47A7005F022FC8449854847
:1014040008F0EAF94FF47A7005F01AFC8249814831
:1014140008F0E2F94FF47A7005F012FC7F497D4838
:1014240008F0CAF97E497B4808F0D6F97D49794825
:1014340008F0C2F97C4B774819680A2208F022FAAE
:101444007749744808F0C8F97849724808F0B4F943
:10145400774B704819680A2208F014FA70496D48ED
:1014640008F0BAF973496B4808F0A6F9724B694859
:1014740019680A2208F006FA6949664808F0ACF9C6
:10148400642005F0DDFB1A21624808F0AFF941F24F
:10149400707005F0D5FB01233B60FFF763FD3C68EA
:1014A400012C40F0F7804FF6FF714B48FFF700FC2A
:1014B400624B009320464A4B03223221FFF74AFC39
:1014C4005F4B00930322464B32210F20FFF768FC49
:1014D4005C4B00930322424B73210F20FFF73AFC2D
:1014E40000213D4805F09DF8574B05934FF0030844
:1014F4004FF61F034FF6FF766424322503930293BD
:101504003C2240F2311334495048CDF818800496F7
:101514008DE8300005F09BF84D4B059340F21F43D6
:10152400039302933C224FF4BE732B494948CDF8F0
:10153400188004968DE8300005F089F840F21D12F9
:101544007821254805F05FF80021234805F063F869
:101554000221214805F05AF83F491F4808F02CF9A8
:1015640040F2331278211C4805F04DF83B491A48E3
:1015740008F022F94FF4B5727821174805F043F8C2
:101584000021154805F047F80221134805F03EF8FC
:101594003349114808F010F94FF4C07278210E480D
:1015A40005F031F82F490C4808F006F92E4A27486F
:1015B4004FF0FF3313602D4A13602D4A13602D4AF8
:1015C40013602D4A13602D4A13602D4A13602D4A6F
:1015D4000021136058E000BFCC070020A6B100082A
:1015E400689E0008B0B10008C9B100085408002082
:1015F400CDB1000844070020D0B1000892B2000821
:10160400DEB00008FCB2000807B300081AB30008F3
:10161400F4B00008900A00203FB3000858B3000853
:10162400C2CE00085DB30008840100207FB3000827
:101634007C01002099B3000880010020B8B30008A1
:10164400C0B30008CBB3000809B100086807002044
:10165400D3B3000834080020D5B30008DFB3000872
:10166400EEB3000893BC0008900000209400002012
:10167400980000209C0000202C070020A0000020DF
:10168400A40000208807002005F004F80021C048C9
:1016940005F000F83C68022C40F09D804FF6FF7185
:1016A400BC48FFF705FBBC4B00932246BB4B1E21F5
:1016B4002820FFF74FFB0122B94B0093104600236B
:1016C4002A21FFF747FB0021B24804F0AAFFB54BDB
:1016D40005930023049350254FF4FC631E260393C3
:1016E400029340F21D1240F2D113AA49AE48069467
:1016F4008DE8600004F0ABFFAC4B05934FF6FF732D
:1017040004934FF4784303930293222240F2D113BB
:1017140006948DE860009F49A54804F098FFA54B06
:101724001A68052A08D15A68052A05D19A68052A33
:1017340002D1DB68052B03D000219B4804F0AAFFEB
:101744003C244FF6FF750021994804F0A3FF23467B
:101754006E220A218F488DE8300004F0CDFA23462A
:10176400BE220A218B488DE8300004F0C5FA2346D6
:101774004FF487720A2187488DE8300004F0BCFAE0
:1017840023464FF4AF720A2182488DE8300004F0FA
:10179400B3FA894B00930122804B7B215520FFF73C
:1017A400D9FA864B009301227C4BCB215520FFF7BD
:1017B400D1FA834B00930122784B40F21B11552040
:1017C400FFF7C8FA7F4B00930122744B40F26B1170
:1017D4005520FFF7BFFA3B68172B40F096804FF671
:1017E400FF716C48FFF764FA774B009302226B4B4E
:1017F4001E212D20FFF7AEFA0122744B00931046F0
:10180400664B3A21FFF7CCFA0021624804F009FF45
:1018140040F21F4532244FF003094FF6FF764FF094
:101824004B086B4BCDF8189022460593039502950F
:101834000194CDF80080872356496648049604F045
:1018440006FF654BCDF81890224605930395029543
:101854000194CDF80080D7234E496048049604F0E3
:10186400F6FE504B059300244FF4FC634FF002093D
:1018740050254FF01E080393029340F21D1240F2CC
:10188400D11344494848CDF8189004948DE82001B8
:1018940004F0DDFE454B05934FF478432222039375
:1018A40002933C494248CDF8189040F2D113049673
:1018B4008DE8200104F0CBFE2146464804F0EAFE00
:1018C4002146464804F0E6FE2146374804F0E2FE8D
:1018D4002146374804F0DEFE414B009301222F4B92
:1018E4007D216220FFF736FA3E4B009301222B4BF9
:1018F400CD216220FFF72EFA3B4B00930122274BA8
:1019040040F209111046FFF725FAD7F80080B8F124
:10191400030F40F0FD804FF6FF711E48FFF7C8F932
:10192400324B009302221D4B1E212820FFF712FA8E
:1019340001222F4B00931046184B3721FFF730FA42
:101944000021144804F06DFE4FF61F0532244FF6B3
:10195400FF764FF04B091E4BCDF8188022460593B5
:10196400039502950194CDF80090962309492148E6
:10197400049604F06CFE184BCDF8188022460593AB
:10198400039502950194CDF80090E62334E000BF5E
:1019940034080020CC070020F8B30008689E000833
:1019A40008B400081AB50008E80100201DB50008B5
:1019B4005C0100201807002022B5000875B5000856
:1019C400C7B5000819B600086EB600087BB6000853
:1019D40009B1000874020020D3B300089402002067
:1019E400C0B60008ECB6000817B700082AB800080B
:1019F40039B8000808020020BB49BC48049604F02A
:101A040026FEBB4BCDF8188022460593039502951C
:101A14000194CDF800904FF49B73B349B5480496F4
:101A240004F015FEB44BCDF81880224605930395B7
:101A340002950194CDF800904FF4C373AA49AF48BE
:101A4400049604F004FEAE4B059300244FF4FC63AB
:101A54004FF0020950254FF01E080393029340F201
:101A64001D1240F2D113A049A648CDF81890049451
:101A74008DE8200104F0EBFDA34B05934FF478436C
:101A84002222039302939849A048CDF8189040F27B
:101A9400D11304968DE8200104F0D9FD21469C4819
:101AA40004F0F8FD2146914804F0F4FD21469148E4
:101AB40004F0F0FD2146914804F0ECFD21469148E4
:101AC40004F0E8FD2146914804F0E4FD914B0093B5
:101AD4000122914B85216220FFF73CF98F4B009343
:101AE40001228D4BD5216220FFF734F98C4B0093F2
:101AF4000122894B40F225116220FFF72BF9894B13
:101B040000930122844B40F275116220FFF722F901
:101B14003B68042B40F087804FF6FF717248FFF753
:101B2400C7F8814B00930222804B28214B20FFF7FA
:101B340011F900216C4804F074FD7D4B05934FF4BA
:101B4400FC6302250024039302934FF0280A962392
:101B54008DE808044FF482724FF4E67362496948D1
:101B64000695049404F073FD674B05934FF4784392
:101B74004FF6FF76039302934FF01E0B5023049607
:101B84008DE80808222240F2D11357495F48069590
:101B940004F05DFD674B05934FF61F030496039312
:101BA400029332266E23A0228DE848004E496248F3
:101BB4000695E62304F04BFD2146544804F06AFDE3
:101BC40021465D4804F066FD5C4B00930122524BB4
:101BD40085211046FFF7E4F8594BD3F80080B8F19B
:101BE400010F20D1574B00932A4623464FF494719A
:101BF4003A20FFF7AFF847F6EF3301934FF48C72B6
:101C0400DC2331463848009604F076F84E4B0093B6
:101C14004FF4C8711120404B4246FFF79BF8214610
:101C2400384804F037FD3B682D2B40F0BF804FF659
:101C3400FF712D48FFF73CF8444B009302223B4BC5
:101C440028214B20FFF786F80021274804F0E9FCFF
:101C5400374B05934FF4FC6302250024039302934E
:101C64004FF0280896238DE808014FF482724FF450
:101C7400E6731D4923480695049404F0E8FC224BBE
:101C840005934FF478434FF6FF76039302934FF096
:101C94001E09502304968DE80802222240F2D11333
:101CA40011491A48069504F0D2FC224B05934FF6CD
:101CB4001F0304960393029332266E23A0228DE819
:101CC400480009491C480695E62304F0C0FC214657
:101CD4000E4804F0DFFC2146174804F0DBFC1C4BE3
:101CE4000093012236E000BFCC07002054020020FC
:101CF4003DB30008340200209AB80008C80100204F
:101D04001AB50008E80100201DB500085C01002098
:101D1400080200209CB80008689E0008F7B8000874
:101D24004FB90008A7B9000800BA0008749E00085B
:101D340019BA000821BA00088801002028BA00084E
:101D440040070020C0070020AFBA0008C9BA000845
:101D5400DDBA0008B74B85211046FFF721F8B64BD2
:101D6400D3F80080B8F1010F20D1B44B00932A4678
:101D740023464FF489713A20FEF7ECFF47F6EF3320
:101D840001934FF48272DC233146AD48009603F090
:101D9400B3FFAC4B00934FF4C8711120A54B4246DE
:101DA400FEF7D8FF2146A84804F074FC3B68052BD5
:101DB4004ED1A64BA6491A68A14802EB820351F8FA
:101DC400222013445B01A34AD358092B04BFA24A1F
:101DD40013684FF6FF7104BF01331360FEF768FF09
:101DE4009E4B00930322934B32210120FEF7D8FF30
:101DF40001229B4B009310468E4B5F21FEF7AAFFF6
:101E0400984B009302228B4B4FF4C8714120FEF78C
:101E1400A1FF00218A4804F004FC03230693924B9B
:101E240005934FF6FF7304934FF61F030393029336
:101E34004FF0320C96238DE8081081498B484FF4FB
:101E44009673A02204F003FC0021884804F022FCCD
:101E54003B68092B40F083804FF6FF717848FEF70A
:101E640027FF4FF078080625013D6ED00FFA88F35E
:101E7400099306236B437E4AC3F11C03602402EBDF
:101E8400030B6C437B4BC4F5F0741C44C5EB051683
:101E9400794BC6F14B061E444B274FF0020A4FF60E
:101EA400FF79CDF818A00596CDF810903BF8023FC5
:101EB40003933C202D238DE809003AB22046099B68
:101EC4005F49CDF8089004F0C2FB6B4BCDF818A025
:101ED40005934FF0000A664BCDF810A01B880393BE
:101EE4004FF02D0E3C238DE808404B2278235449B3
:101EF4006048CDF80890553704F0A9FBBFB22046DE
:101F0400514604F0C7FBB7F5A57F04F1200406F1A0
:101F14000506C2D108F13C081FFA88F8A4E7012B92
:101F240002D15649FFF76AB9022B02D15449FFF78F
:101F340065B9032B7FF465A95249FFF75FB9022BFA
:101F44007FF477A95049FFF771B947F6EF3332218F
:101F54008DE80A001E22DC23394803F0CDFE4B4BEA
:101F64001A6840F2DF339A4240F09C804FF6FF71CA
:101F74003348FEF79DFE4FF078080625013D00F03A
:101F840087800FFA88F3099306236B43384AC3F119
:101F94001C03602402EB030B6C43364BC4F5F07452
:101FA4001C44C5EB0516344BC6F14B061E444B27A7
:101FB4004FF0020A4FF6FF79CDF818A00596CDF838
:101FC40010903BF8023F03933C222D238DE80C0034
:101FD40020463AB2099B1A49CDF8089004F037FB21
:101FE400254BCDF818A005934FF0000A204BCDF8EF
:101FF40010A01B8803933C212D238DE80A004B225B
:1020040078230F491B48CDF80890553704F01FFB7F
:10201400BFB22046514604F03DFBB7F5A57F04F15D
:10202400200406F10506C3D108F13C081FFA88F81C
:10203400A4E700BF689E00088807002094070020DA
:10204400CC07002018BB0008E80100202C07002062
:102054001807002098040020800100203BBB0008E2
:1020640046BB000830BC00083CBC0008A8010020A6
:1020740010000020B80200202E00002061B10008EA
:102084006BB1000875B100088CB100088C00002009
:1020940047F6EF3332218DE80A001E22DC2335484F
:1020A40003F02AFE344B1B685B2B77D14FF6FF718C
:1020B4003048FEF7FDFD4FF078080625013D63D05A
:1020C4000FFA88F3099306236B432C4AC3F11C03CC
:1020D400602402EB030B6C43294BC4F5F0741C44DD
:1020E400C5EB0516274BC6F14B061E444B274FF68E
:1020F400FF794FF0020ACDF818A00596CDF810909C
:102104003BF8023F03934FF02D0C3C238DE808105D
:102114003AB22046CDF80890099B164904F097FA84
:10212400184BCDF818A005934FF0000A134BCDF8C7
:1021340010A01B880393CDF808903C234FF02D0981
:102144008DE808024B2278230A490D48553704F0DC
:102154007EFABFB22046514604F09CFAB7F5A57F3B
:1021640004F1200406F10506C1D108F13C081FFA68
:1021740088F8A3E7CC0700208C0000201000002082
:10218400B80200202E00002047F6EF3332218DE8FC
:102194000A001E22DC23C04803F0AEFDBF4F3B689B
:1021A400152B40F086804FF6FF71BB48FEF780FD8B
:1021B400BB4B00930222BB4B28214B20FEF7CAFDE8
:1021C4000021B54804F02DFAB74B05934FF4FC6396
:1021D4000225002403930293962028238DE8090006
:1021E4004FF482724FF4E673AB49B04806950494F9
:1021F40004F02DFAAE4B05934FF478434FF01E0EC6
:102204004FF6FF760393029350238DE8084004961B
:1022140040F2D1132222A049A648069504F017FAE9
:10222400A54B05934FF61F0304960393029332269E
:102234006E23A0228DE848009749A0480695E6231E
:1022440004F005FA21469B4804F024FA21469B48F1
:1022540004F020FA9A4B009301229A4B85211046F0
:10226400FEF79EFD984BD3F80080B8F1010F20D102
:10227400964B00932A4623464FF489713A20FEF781
:1022840069FD47F6EF3301934FF48272DC23314644
:102294008148009603F030FD8D4B00934FF4C871D4
:1022A4000520884B4246FEF755FD21467F4804F041
:1022B400F1F93B68162B40F047824FF6FF717648E0
:1022C400844E854D854CDFF848A2DFF84882DFF85C
:1022D4004892FEF7EDFC824B00930322794B3221A6
:1022E4000120FEF75DFD01227E4B00931046754BE5
:1022F4005F21FEF72FFD7C4B00930222714BBE2120
:102304004120FEF727FD794A6348136801331360BF
:10231400774A13680021013B136004F082F901221B
:10232400744B00931046674B40F23B11FEF738FDA7
:102334005C49594804F075F940F23B12792156483A
:1023440004F061F90021544804F065F90121524870
:1023540004F05CF933682A6803EB8303134404EB49
:102364004313DAF800209B69A2EB030BC8F800B012
:102374004FF461609BFBF0F0FEF79AF80A22C9E97A
:1023840000015946444807F05BFA0021424804F032
:1023940048F90122584B009310464A4B40F263110E
:1023A400FEF7FEFC33682A6803EB8303134404EB53
:1023B4004313D3F81CB0BBF1020F40F078813949C4
:1023C400354804F02EF940F277127921324804F0AE
:1023D4001AF90021304804F01EF901212E4804F0B6
:1023E40015F933682A68DAF8000003EB8303134411
:1023F40004EB43139B69C01AFEF75AF83F4BD3E929
:102404000023FEF7BBF80A22C9E900011E21224875
:1024140007F038FA0021204804F003F9384A136819
:102424001E33136033682A6803EB830313445B0190
:10243400E358012B40F076814FF47A7004F000FCED
:102444003049314807F0C8F94FF47A7004F0F8FBCA
:102454002E492D4807F0B0F933682A682A4803EB5F
:102464008303134404EB4313197A07F0A9F933687F
:102474002A68254803EB8303134404EB4313597A76
:1024840007F09EF933682A681F4803EB830313445B
:1024940004EB431342E000BFCC0700208C00002073
:1024A40000BA0008749E000819BA0008E801002068
:1024B4001DB500085C01002021BA00088801002035
:1024C40043BC0008689E000864070020C60700207B
:1024D40074BC00083007002038070020980400204E
:1024E4003BBB00089BBC000830BC000884010020F2
:1024F40080010020FCBC00080ABD00088000002008
:102504007C010020F4B00008900A0020FEB000080E
:10251400080800203002002028020020997A07F0E1
:102524004FF933682A68A24803EB8303134404EB8E
:102534004313D97A07F044F933682A689C4803EBBB
:102544008303134404EB4313197B07F039F933680D
:102554002A68974803EB8303134404EB4313597B22
:1025640007F02EF933682A68914803EB8303134478
:1025740004EB4313997B07F023F933682A688C48EA
:1025840003EB8303134404EB4313D97B07F018F9DB
:1025940033682A68864803EB8303134404EB43132C
:1025A400197C07F00DF933682A68814803EB83032B
:1025B400134404EB4313597C07F002F97D497C482A
:1025C40007F0FAF87A4807F0FFF84FF47A7004F04D
:1025D40037FB7949764807F0FFF87849744807F0E3
:1025E400FBF87749724807F0F7F87649704807F026
:1025F400F3F872496E4807F0EFF873496C4807F036
:10260400DBF80A22D8F80010694807F019F96B4979
:10261400674807F0E1F86D49654807F0CDF833687D
:102624002A6803EB8303134404EB4314E369012B8B
:1026340074D167495E4807F0BFF860495C4807F009
:10264400CBF864495A4807F0B7F85C49584807F092
:10265400C3F86149564807F0AFF85849544807F0A1
:10266400BBF8642004F0ECFA1A21514807F0BEF8D4
:102674004FF4FA5004F0E4FA03230693574B0593FE
:102684004FF6FF7304934FF61F03039302939621AF
:1026940032238DE80A00A0224FF4E17350495148D7
:1026A40003F0D5FF00214F4803F0F4FF3CE0BBF1F9
:1026B400010F7FF4B7AE4C49494803F0B2FF40F232
:1026C40077127921464803F09EFF0021444803F025
:1026D400A2FF5946424803F099FF33682A68DAF8A2
:1026E400000003EB8303134404EB43139B69C01AF8
:1026F400FDF7DEFE3D4BD3E90023FDF73FFF0A2241
:10270400C9E900011921364807F0BCF80021344812
:1027140003F087FF364A1368193382E6022B8CD103
:10272400344987E7092BA7D0334A00232021995441
:102734000133042BFBD1314A1360314B00221A7050
:102744004FF0FF3333602B603B68DC2B2DD14FF609
:10275400FF712348FEF7ACFA2A4B009302222A4B5E
:1027640064210120FEF7F6FA00211D4803F059FF09
:1027740002230693254B05934FF6FF7304934FF4FE
:1027840078430393029350221E238DE80C001449CE
:102794001F4840F2D113222203F059FF00211C48A4
:1027A40003F078FF1B4B00221A600BB0BDE8F08FDA
:1027B400900A002055B300080BB10008C2CE0008EF
:1027C4001DB1000820BD00082DBD00083ABD000859
:1027D4004FBD00085DBD00089EB100083CBC000868
:1027E400CC070020A8010020749E000808000020E7
:1027F4007C01002056BD0008C60700203C070020CD
:10280400CB0700206ABD0008689E00081DB50008BB
:102814005C01002064070020024B01221A60FEF7CD
:10282400A1BB00BF8C000020024B02221A60FEF7FD
:1028340099BB00BF8C000020024B17221A60FEF7E0
:1028440091BB00BF8C000020024B03221A60FEF7EC
:1028540089BB00BF8C000020024B04221A60FEF7E3
:1028640081BB00BF8C000020024B05221A60FEF7DA
:1028740079BB00BF8C000020024B09221A60FEF7CE
:1028840071BB00BF8C000020024B5B221A60FEF774
:1028940069BB00BF8C000020024B15221A60FEF7B2
:1028A40061BB00BF8C000020024B16221A60FEF7A9
:1028B40059BB00BF8C000020024BDC221A60FEF7DB
:1028C40051BB00BF8C000020024B91221A60FEF71E
:1028D40049BB00BF8C000020024B2D221A60FEF77A
:1028E40041BB00BF8C000020024B40F2DF321A6073
:1028F400FEF738BB8C000020024B40F257421A60AE
:10290400FEF730BB8C0000202DE9F04FB04C23685B
:10291400912B8DB05DD1FEF7D9F90546002800F062
:102924005583AC4BAC48B3F90020AC4BB3F9001061
:1029340003F008FF0146A84803F01CFF4DB1A54B66
:10294400A748B3F90020A54BB3F9001003F0FAFE31
:102954000546A348294603F00DFF9F4803F015FFE1
:1029640018B100219C4803F095FE9D4803F00DFF2B
:1029740018B100219A4803F08DFE974803F0FEFE3B
:1029840088B10121944803F085FE964B96491A6854
:1029940002EB820351F8222013445B01934A012184
:1029A400D150FFF799FF8E4803F0E8FE88B101216A
:1029B4008B4803F06FFE8B4B8B491A6802EB820342
:1029C40051F8222013445B01884A0921D150FFF7B2
:1029D4004BFF2368012B4AD1212004F00DF9844BCD
:1029E4001860FEF773F90546002800F0F182794B70
:1029F4008048B3F90020794BB3F9001003F0A2FE2C
:102A040001467C4803F0B6FE4DB1724B7A48B3F9E7
:102A14000020724BB3F9001003F094FE054676488B
:102A2400294603F0A7FE734803F0AFFE18B1002156
:102A3400704803F02FFE704803F0A7FE18B1002180
:102A44006D4803F027FE6B4803F098FE28B101217E
:102A5400684803F01FFEFFF7E7FE674803F08EFEA9
:102A640028B10121644803F015FEFFF715FF236820
:102A7400022B40F09180FEF729F90546002800F06A
:102A8400A982544B5D48B3F90020544BB3F90010AC
:102A940003F058FE0146594803F06CFE4DB14D4B0E
:102AA4005748B3F900204D4BB3F9001003F04AFE28
:102AB400054629464C4D524803F05CFEEB685148EC
:102AC400052B0CBF4FF478424FF4FC623C23019277
:102AD40000936E220A2102F0FFF9AB684948052BE6
:102AE4000CBF4FF478424FF4FC623C2301920093F4
:102AF400BE220A2102F0F0F96B684248052B0CBF94
:102B04004FF478424FF4FC623C23019200934FF45B
:102B140087720A2102F0E0F92B683A48052B0CBFB2
:102B24004FF478424FF4FC623C23019200934FF43B
:102B3400AF720A2102F0D0F92B68052B08D16B681B
:102B4400052B05D1AB68052B02D1EB68052B11D001
:102B54002A4803F01AFE18B10021284803F09AFD10
:102B6400264803F00BFE28B10121244803F092FD0E
:102B7400FFF76AFE224803F008FE18B1002120483E
:102B840003F088FD1E4803F0F9FD28B101211C481B
:102B940003F080FDFFF740FE2368172B40F0CC8044
:102BA400FEF794F80546002800F01682094B1348F6
:102BB400B3F90020094BB3F9001003F0C3FD01463B
:102BC4000E4803F0D7FD002D00F00882014B1BE0F6
:102BD4008C000020A407002054080020A007002037
:102BE400440700202C070020180700209804002028
:102BF400B40200206807002034080020E801002007
:102C04005C010020CC070020AD48B3F90020AD4B97
:102C1400B3F9001003F096FD0146A94803F0AAFD9C
:102C2400002D00F0DD81A84BA848B3F90020A54B86
:102C3400B3F9001003F086FD0146A44803F09AFDA1
:102C44004DB1A14BA248B3F900209E4BB3F900103B
:102C540003F078FD05469E48294603F08BFD9B480A
:102C640003F08CFD68B10121984803F013FD0021A5
:102C7400974803F00FFD974B01221A60964B0022F0
:102C84001A60934803F07AFD68B10121904803F07B
:102C940001FD00218D4803F0FDFC8E4B00221A60DB
:102CA4008D4B02221A608D4803F06FFD18B100218C
:102CB4008A4803F0EFFC824803F067FD18B1002155
:102CC4007F4803F0E7FC854803F058FDD0B10121AB
:102CD400824803F0DFFC7F4B1968012940F08281B0
:102CE4007D4B1B6873B97E4B1A687E4B53F82200E8
:102CF40002EB820318447C4B03EB4013D9615A6006
:102D0400FFF7AAFD6E4803F039FDA8B101216C4814
:102D140003F0C0FC754A4FF0FF331360744A13602C
:102D2400744A1360744A13606D4A1360694A1360ED
:102D3400694A1360FFF788FD2368032B40F0BE81C6
:102D4400FDF7C4FF0546002800F061815E4B63482F
:102D5400B3F900205B4BB3F9001003F0F3FC014618
:102D64005E4803F007FD002D00F05381564B544894
:102D7400B3F90020534BB3F9001003F0E3FC014610
:102D84004F4803F0F7FC002D00F045814E4B5B48A3
:102D9400B3F900204B4BB3F9001003F0D3FC014608
:102DA400564803F0E7FC002D00F03781464B5448A9
:102DB400B3F90020434BB3F9001003F0C3FC014600
:102DC4004F4803F0D7FC002D00F029813E4B4D48BD
:102DD400B3F900203B4BB3F9001003F0B3FC0146F8
:102DE400484803F0C7FC4DB1374B4748B3F90020BE
:102DF400344BB3F9001003F0A5FC054642482946BC
:102E040003F0B8FC3D4803F0B9FCE8B101213B48AC
:102E140003F040FC3D493E4806F0CEFC0021384812
:102E240003F038FC0021374803F034FC0021364815
:102E340003F030FC2D4B00221A602D4A0923136045
:102E44002C4A13602C4A13602D4803F097FCE8B118
:102E540001212B4803F01EFC2E492D4806F0ACFC42
:102E64000021264803F016FC0021264803F012FC3A
:102E74000021254803F00EFC1C4A092313601C4A58
:102E8400012111601B4A13601B4A13601D4803F0A3
:102E940075FC00284CD001211A4803F0FBFB1E49A5
:102EA4001B4806F089FC0021144803F0F3FB0021C1
:102EB400134803F0EFFB0021134803F0EBFB2DE074
:102EC4005C010020A0070020A40700207402002059
:102ED40094020020A0000020A4000020E8010020AB
:102EE4002C070020180700209804002090000020E0
:102EF40094000020980000209C000020080200207C
:102F04005402002034020020C80100209FB00008B1
:102F1400900A0020ABB00008B7B00008414A09236A
:102F24001360414A1360414A02211160404A136010
:102F3400404803F023FCE8B101213E4803F0AAFB1A
:102F44003D493E4806F038FC00213D4803F0A2FB11
:102F540000213C4803F09EFB00213B4803F09AFB10
:102F6400304A09231360304A1360304A1360304BEF
:102F740003221A60354803F008FC18B100213348D5
:102F840003F088FB324803F000FC18B100213048FC
:102F940003F080FB2D4803F0F1FB002878D00121D9
:102FA4002A4803F077FB1F4B1B68002B5AD11E4A9B
:102FB4001268092A6CD11D4A1268092A68D11C4A70
:102FC4001268092A64D1234A13605FE00146B2E41F
:102FD400014616E501465EE50146F1E529461CE693
:102FE40029462AE600297FF48DAE1B4B1868022877
:102FF4007FF488AE174B1A68184B53F8221002EB73
:1030040082031944164B03EB4113D86177E601465A
:10301400A6E62946B4E62946C2E62946D0E629466C
:10302400DEE600BF900000209400002098000020FD
:103034009C000020C8010020C5B00008900A0020B0
:10304400080200205402002034020020E80100207D
:103054005C0100202C070020A40000201807002099
:1030640098040020092B13D1B14B1B68012BA2D06B
:10307400092B0DD1AF4B1A68022A40F0C984AE491E
:103084000968092940F0C484AC4B1A60FFF7D4FBEB
:10309400AB4803F073FB88B10121A94803F0FAFAA5
:1030A400A84A4FF0FF331360A14A1360A14A13608A
:1030B400A14A1360A14A1360FFF7B6FB2368042BEF
:1030C40040F0A480FDF702FE0546002800F0D884F5
:1030D4009D4B9E48B3F900209D4BB3F9001003F0BB
:1030E40031FB0146994803F045FB002D00F0CB84E9
:1030F400954B9348B3F90020954BB3F9001003F0B6
:1031040021FB01468E4803F035FB4DB18E4B9148AF
:10311400B3F900208E4BB3F9001003F013FB0546FE
:103124008C48294603F026FB854803F02EFB18B192
:103134000021834803F0AEFA874D2B68012B34D16C
:10314400824803F022FB18B10021804803F0A2FA60
:103154007E4803F013FB40B301217C4803F09AFA44
:10316400764B7E491E68DFF818E2DFF818C2A02209
:10317400002072430F465CF8263010F8018002EB01
:103184004313734403440130042883F81280F2D1BA
:1031940000232022FA540133042BFBD1704A13601C
:1031A400704B00221A70FFF78FFB654803F0E6FAB4
:1031B400C0B10121624803F06DFA684A002320215E
:1031C40099540133042BFBD1654A1360654A0023EB
:1031D4001370654A2B604FF0FF331360634A13602A
:1031E400FFF72AFB5B4803F0D0FA18B100215948D5
:1031F40003F050FA574803F0C1FA38B10121554899
:1032040003F048FAFFF738FB01232B6023682D2BCA
:1032140040F0D280FDF75AFD0546002800F03684C0
:10322400494B4A48B3F90020494BB3F9001003F065
:1032340089FA0146454803F09DFA002D00F02984DF
:10324400414B3F48B3F90020414BB3F9001003F060
:1032540079FA01463A4803F08DFA4DB13A4B3D48AC
:10326400B3F900203A4BB3F9001003F06BFA0546AA
:103274003848294603F07EFA314803F086FA18B13B
:1032840000212F4803F006FA394D2B68012B34D165
:103294002E4803F07AFA18B100212C4803F0FAF909
:1032A4002A4803F06BFA40B30121284803F0F2F9ED
:1032B400224B30491E68DFF8C8E0DFF8C8C0A022FE
:1032C400002072430F465CF8263010F8018002EBB0
:1032D40043137344034401300A2883F80880F2D16D
:1032E40000232022FA5401330A2BFBD11C4A136019
:1032F400214B00221A70FFF7FFFA114803F03EFA3F
:10330400002845D001210E4803F0C4F9194A0023CE
:103314002021995401330A2BFBD1114A1360164A18
:1033240000231370154A2B604FF0FF3313602BE01A
:1033340094000020980000209C0000202C0700200E
:103344005C01002090000020A4070020E801002078
:10335400A00700208801002040070020C0070020AB
:103364003C070020C5070020A0000020A400002086
:1033740088070020940700209F0700208C07002066
:103384009804002018070020C24A1360FFF79CFA33
:10339400C14803F0FAF918B10021BF4803F07AF9E3
:1033A400BD4803F0EBF938B10121BB4803F072F9D1
:1033B400FFF79AFA01232B602368052B3BD1FDF715
:1033C40085FC40B1B54BB648B3F90020B54BB3F911
:1033D400001003F0B7F90146B14803F0CBF9B04847
:1033E40003F0D3F918B10021AD4803F053F9AC4808
:1033F40003F0C4F9F8B10121A94803F04BF9AA4A32
:10340400AA49106851F82030013341F82030A84B04
:1034140000211960A7494FF0FF330B60A6491360E0
:103424000B60A64AA64913600B60A64AA64913601E
:103434000B60FFF7F1F92368092B40F0B1800121FB
:103444000D2003F0B9FBA14906A803F0A5F9012159
:103454003120BDF91C50BDF91860BDF91A7003F094
:1034640057FB0121302003F053FB0121312003F0ED
:10347400A3FB023D0121302003F09EFBADB240F2DC
:10348400E5339D4218D8924803F0D8F8002340F25F
:1034940075329B210090304606F04DFA06B28C48F6
:1034A40003F0CFF80023009340F2A33203466421D3
:1034B400384606F040FA07B2DFF834A20025D046B9
:1034C4000AEB050931463A46484603F03BF9014602
:1034D40000B101214846203503F04CF9B5F5F07FE1
:1034E400EED17C4E7C4F002508EB4519484603F08D
:1034F4004CF918B10021484603F0CCF8484603F0D3
:103504003DF9002849D00121484603F0C3F8022DB3
:103514000CD93B78032B09DC05EB85016F4A8A5CE7
:10352400F2540133DBB20022F2543B70012D5FFAF6
:1035340085F907D13A780023B354013AD2B2202353
:10354400B3543A703146664806F046F92C223A21C3
:103554005F4803F058F84FF6FF7200215C4803F00F
:103564005DF803215A4803F051F83146584806F0F3
:1035740023F9022D40F090824D4A0023136020224B
:103584009A550133042BFBD1564A136000233B7038
:10359400FFF762F9642003F053FB01350F2DA3D12B
:1035A400226840F2DF339A4240F0E38001210D208B
:1035B40003F002FB454908A803F0EEF8012131208D
:1035C400BDF92450BDF92060BDF9227003F0A0FAC2
:1035D4000121302003F09CFA0121312003F0ECFAA0
:1035E400023D0121302003F0E7FAADB240F2E533A9
:1035F4009D4218D8364803F021F8002340F2753272
:103604009B210090304606F096F906B2304803F04C
:1036140018F80023009340F2A3320346642138468D
:1036240006F089F907B2DFF8C8A00025D0460AEBF6
:10363400050931463A46484603F084F8014600B18C
:1036440001214846203503F095F8B5F5F07FEED119
:10365400254E264F002508EB4519484603F095F8FA
:1036640018B10021484603F015F8484603F086F8DF
:1036740000287AD00121484603F00CF8022D3DD9E8
:103684003B78092B3ADC05EB8501144A8A5CF25439
:1036940001332FE09007002088010020A4070020B8
:1036A400A8010020A00700202C07002018070020F4
:1036B400400700209000002094000020A00000207B
:1036C40098000020A40000209C0000200C0800208A
:1036D400CC070020C0070020C50700202E000020D2
:1036E400900A00203C070020940700209F07002038
:1036F400B8020020DBB20022F2543B70012D5FFAC5
:1037040085F907D13A780023B354013AD2B2202381
:10371400B3543A703146C34806F05EF82C223A217D
:10372400C14802F070FF4FF6FF720021BE4802F05C
:1037340075FF0321BC4802F069FF3146BA4806F020
:103744003BF8022D40F0C081B84A002313602022C8
:103754009A5501330A2BFBD1B54A136000233B7001
:10376400FFF7BAF8642003F06BFA01350F2D7FF4EC
:1037740072AF23685B2B40F0B38001210D2003F06E
:103784001BFAAC490AA803F007F801213120BDF95E
:103794002C50BDF92860BDF92A7003F0B9F9012154
:1037A400302003F0B5F90121312003F005FA023D80
:1037B4000121302003F000FAADB240F2E5339D421E
:1037C40018D8994802F03AFF002340F275329B2141
:1037D4000090304606F0AFF806B2934802F031FF8D
:1037E4000023009340F2A33203466421384606F0D6
:1037F400A2F807B2DFF884A20025D0460AEB050937
:1038040031463A46484602F09DFF014600B1012187
:103814004846203502F0AEFFB5F5F07FEED1864E76
:10382400864F002508EB4519484602F0AEFF18B153
:103834000021484602F02EFF484602F09FFF002870
:103844004BD00121484602F025FF022D0CD93B78CC
:10385400032B09DC05EB8501794A8A5CF2540133B8
:10386400DBB20022F2543B70012D5FFA85F907D1D7
:103874003A780023B354013AD2B22023B3543A70B5
:103884003146684805F0A8FF2C223A21664802F028
:10389400BAFE4FF6FF720021634802F0BFFE032117
:1038A400614802F0B3FE31465F4805F085FF022D02
:1038B40040F02281634A00231360634A136020228C
:1038C4009A550133042BFBD1594A136000233B70F2
:1038D400FEF7E2FF642003F0B3F901350F2DA1D107
:1038E4002368152B40F08181FDF7F0F90446002888
:1038F40000F01A81554B5648B3F90020554BB3F9E3
:10390400001002F01FFF0146514802F033FF002C63
:1039140000F00C814D4B5048B3F900204D4BB3F9E6
:10392400001002F00FFF01464B4802F023FF4CB198
:10393400464B4A48B3F90020464BB3F9001002F055
:1039440001FF04464548214602F014FF424802F0B4
:103954001CFF18B10021404802F09CFE3A4B1B6842
:10396400012B40F015813A4802F00FFF18B10021F5
:10397400374802F08FFE364802F000FF0446002864
:1039840000F006810121324802F084FE2D4B1B68B1
:10399400012B40F0FD802849314A487891F8009085
:1039A40003908878C97805912E4904900023D1F8B2
:1039B40000C02D4913602D4A0F682D4912680D6807
:1039C40002939E46984619464FF0A00A042B00F035
:1039D400BB80284A0AFB03210022052A104600F076
:1039E400A78091F812B0CB450FD191F813B0039E84
:1039F400B3450AD191F814B0049EB34505D191F8AA
:103A040015B0059EB34500F0988001322031E4E7FB
:103A14001B68092B7FF43CAB174B1B68032BFFF788
:103A2400D1BA00BF900A0020CC0700204007002034
:103A34003C0700200C080020C6070020CB0700200C
:103A44002E0000208800002064070020A407002026
:103A5400E8010020A00700205C010020880100206C
:103A64002C070020280700203007002034070020FE
:103A740038070020980400209C000020B802002091
:103A84000146FFF72FBB2946FFF73CBB0146FFF772
:103A9400D1BB2946FFF7DEBBB9F1000F7FF47AAD45
:103AA4003B78042B0CD04B4620229A550133042B2F
:103AB400FBD18D4A13608D4A00233B70136067E588
:103AC4008A4B01221A6063E5B9F1000F7FF44AAE14
:103AD4003B780A2B0CD04B4620229A5501330A2BF3
:103AE400FBD1814A1360824A00233B70136037E69E
:103AF4007F4B01221A6033E6B9F1000F7FF4EAAE7E
:103B04003B78042B0ED04B4620229A550133042BCC
:103B1400FBD1754A136000233B70764A1360764AE2
:103B24001360D5E60123F8E70146EDE62146FBE6FE
:103B3400284601330546214648E70294A6461F4617
:103B4400A0464FF0010CF4E719B16C490A606C4AC5
:103B540013606C48B8F1000F01D0C0F800C0BEF18A
:103B6400000F01D0684B1F60029B0BB1674B1D60B7
:103B74000368012B40F0A380634B654A196852F82F
:103B84002130013B42F8213000230360FEF78CFE14
:103B9400604802F0F3FD98B101215E4802F07AFD1D
:103BA4005D4A0023202199540133042BFBD14E4A52
:103BB40013605A4A002313704F4A1360FEF72CFE19
:103BC400574802F0E2FD18B10021554802F062FDA9
:103BD400534802F0D3FD40B10121514802F05AFD8F
:103BE400FEF752FE444B01221A604E4C2268162AFC
:103BF4002FD1FDF76BF840B14B4B4C48B3F9002083
:103C04004B4BB3F9001002F09DFD0146474802F00A
:103C1400B1FD464802F0B9FD18B10021434802F055
:103C240039FD424802F0AAFD98B101213F4802F053
:103C340031FD404A0023202199540133042BFBD148
:103C4400294A13603C4A002313702B4A1360FEF781
:103C5400E3FD2368DC2B43D1FDF738F840B1324B48
:103C64002C48B3F90020324BB3F9001002F06AFD7E
:103C74000146284802F07EFD264802F086FD18B170
:103C84000021244802F006FD224802F077FD38B3F3
:103C94000121204802F0FEFC264A002320219954E9
:103CA4000133042BFBD1104A1360234A0023137001
:103CB400114A13600DB0BDE8F04FFEF7EDBD002BC7
:103CC4007FF466AF144A202199540133042BFBD1AD
:103CD400054A1360114B00221A70FEF7EDFD57E7F9
:103CE4000DB0BDE8F08F00BF3C0700204007002066
:103CF4008807002088000020640700203407002083
:103D04002C07002028070020300700203807002057
:103D1400180700205C010020C6070020CB07002004
:103D2400880100208C000020A4070020A8010020A6
:103D3400A0070020C0070020C507002037B5BDF844
:103D4400185004688DE828000123A46BA04703B031
:103D540030BD37B5BDF818500195046801250095AC
:103D6400A46BA04703B030BD2DE9F0476E4C6F4EF5
:103D74004FF48033A3616E4B4FF480129A61C2B248
:103D8400000A45024FEA00294FEA400809F4806915
:103D940005F4007545EA090508F480794FF0876E4B
:103DA4004FF400074FF0E06C45EA0905C3F818C06A
:103DB400C4F818E0B7619D61451008F0200805F0CB
:103DC400100545EA080500F0080845EA08054FEA29
:103DD400001808F4806845EA08054FEA42294FEACA
:103DE40002284FEA420A08F4806809F4007949EA93
:103DF400080980010AF4807849EA080900F0800083
:103E04004FEA6208A5610AF0200AB06102254FF466
:103E1400003008F01008986148EA0A08986198612F
:103E24009D619D61C3F818C0C4F818E0B761C3F878
:103E3400189002F0080948EA09084FEA021909F43F
:103E44008069920148EA090802F08002C4F81880E7
:103E5400B26110229861986198619D619D619A6137
:103E6400CAB2090A4FEA41294FEA01284FEA410A36
:103E740008F4806809F4007949EA08090AF48078AA
:103E840049EA08094FEA610808F010080AF0200A14
:103E9400C3F818C048EA0A08C4F818E0B761C3F8C0
:103EA400189001F0080948EA09084FEA011909F4D1
:103EB4008069890101F0800148EA0908C4F8188082
:103EC400B16198611102986198619D619D61C3F827
:103ED40018C0C4F818E0B76157024FEA420E01F463
:103EE400806107F400770F430EF480710F43511083
:103EF40001F010010EF0200E9F6141EA0E0102F064
:103F040008073943170107F480679201394302F027
:103F14008002A161B2619861986198619D619D611F
:103F24000123A361BDE8F0870004024000080240B9
:103F3400000002402DE9F04F5F4D604E4FF4803396
:103F4400AB615F4B5FFA80F84FF48014000A9C6108
:103F54004FEA002A44024FEA40090AF4806A04F452
:103F6400007444EA0A0409F4807A44EA0A044FF02B
:103F7400E06C4FF0876E4FF40007C3F818C0C5F823
:103F840018E0B7619C61441009F0200904F01004A2
:103F940044EA090400F0080944EA09044FEA001954
:103FA40009F4806944EA0904AC614FEA082B8401EE
:103FB4004FEA48204FEA480A0BF4806B00F4007083
:103FC40004F0800440EA0B000AF4807BB4614FF0F3
:103FD40002094FF4003440EA0B009C619C619C612F
:103FE400C3F81890C3F81890C3F818C0C5F818E0BF
:103FF400B76198614FEA68000AF0200A00F01000E7
:1040040040EA0A0008F0080A40EA0A004FEA081ADF
:104014000AF4806A40EA0A00A8614FEA881000F0B6
:104024008000B06110209C6102EB01089C619C61DE
:10403400C3F81890C3F818909861A8EB020149B22C
:10404400002934DD12F8010BC3F818C041024FEA0D
:10405400002B4FEA400A0BF4806B01F4007141EA33
:104064000B010AF4807B41EA0B01C5F818E0B76143
:10407400996141100AF0200A01F0100141EA0A0195
:1040840000F0080A41EA0A014FEA001A0AF4806AB9
:10409400800141EA0A0100F08000A961B0619C61DD
:1040A4009C619C61C3F81890C3F81890C5E701237C
:1040B400AB61BDE8F08F00BF00040240000802407D
:1040C4000000024030B4458CC5F3003484EA010298
:1040D4000B46ED0791B2C18408D500229C4214BF5F
:1040E40021202020114630BCFFF724BF838C49F2E5
:1040F4002620834215D849F2252083420AD245F26C
:104104002040834215D047F29370834211D0B3F517
:10411400AA7F13D1910041F01301072030BCFFF7AF
:1041240023BE49F22632934203D04BF20952934202
:1041340004D141F0020140F20140EFE76120EDE7D4
:1041440070B50C46051D4FF6FF76002C0FDD35F8D3
:10415400040C35F8021CB04206D1084602F070FD8A
:10416400043C24B20435F0E7FFF7FEFDF8E770BD28
:10417400F0B50C4687B00546002C1FDD2F466E783F
:1041840017F8020B7F280BD03D46EB1BDBB2B34282
:104194000FDA06AA134415F8012B03F8182CF4E7D8
:1041A400304602F04DFD3D460026023CA41B24B2DD
:1041B400E2E76A4671B2FFF7BDFEF6E707B0F0BD6D
:1041C40010B54FF4A0720446F02101F0E1FD024B5A
:1041D4002360204610BD00BFD8BD000838B52D4B64
:1041E4002D4C2E4D012018702D4B1A6822F47C1290
:1041F4001A602C4A116821F4401121F47C61116089
:10420400216821F440412160196841F4A811196022
:10421400116841F4801141F4A8611160216841F4EE
:1042240080412160296B41F007012963196821F05D
:10423400030101431960196821F00C0141F00401E4
:104244001960196821F4407141F480711960116892
:1042540021F0030101431160216821F00C0141F0B8
:10426400040102252160906198619D613220A5615D
:1042740002F0E6FC4FF40033A361642002F0E0FC9A
:10428400A561642002F0DCFC0021B020BDE83840C8
:10429400FFF76ABD7408002000080240003802409D
:1042A40000000240000402402DE9F04F9E4B1B78B1
:1042B4008BB08A4691460BB9FFF790FF9B4C9C4EFE
:1042C4009C4D4FF480374FF48013B761A3614FEADC
:1042D4001A2359021A025FFA8AF002F480624FEA42
:1042E400430A01F4007111430AF4807211435A1015
:1042F4004FF0876C4FF4000E4FF0E06802F01002AC
:104304000AF0200AC4F8188042EA0A02C6F818C063
:10431400C5F818E0A16103F008010A43190101F48A
:1043240080610A43B2619A0102F08002AA6102210B
:104334004FF40032A2614302A261A261A161A161B2
:10434400C4F81880C6F818C04FEA002CC5F818E065
:104354000CF4806C4FEA400E03F4007343EA0C0340
:104364000EF4807C43EA0C03A36143100EF0200E8C
:1043740003F0100343EA0E0300F0080E43EA0E03B1
:104384004FEA001E0EF4806E43EA0E03B36183010C
:1043940003F08003AB611023A261A261A261A16159
:1043A400A161A361236823F47C132360336823F49D
:1043B400401323F47C6333602B6823F440432B6065
:1043C40001204FF0010B02F03BFC314623465E46D0
:1043D40038469E6198619861986198619861986186
:1043E40098611A6901922A6902921A6903920A6908
:1043F40004920A6905920A6906920A69079209F108
:10440400FF391A6908924FFA89F99E619E619E618B
:1044140098619861986198619861986198611A6946
:104424000992B9F1000FD5F810E01F69D1F810A076
:10443400D1F810C0D1F810800C691A699E619E6190
:10444400C7DAC3F818B0C1F818B0186820F47C10A3
:104454001860086820F4401020F47C600860286824
:1044640020F440402860186840F4A81018600B68D5
:1044740043F4801343F4A8630B602B68089943F456
:1044840080432B60079B49081B0901F0800103F05E
:1044940040030B43049901F008010B4306994800BB
:1044A40000F020001843059B5908029B01F01001FD
:1044B4009B09084303F002031843019BC3F3402301
:1044C40018432409039B520804F0400422F07F029D
:1044D40022431B0A0AF0080A4FEA480803F00403BF
:1044E40042EA0A0A08F020084FEA5C0C18434AEA38
:1044F4000808099B0CF0100C4FEA9E1E48EA0C0CAD
:104504000EF0020E4CEA0E0EC3F340233F0A4EEAAD
:10451400030E07F004074EEA0707FFB247EA00203C
:104524000BB0BDE8F08F00BF74080020000002400B
:10453400000402400008024070B5002205460E4601
:10454400FFF7B2FE0122044631462846FFF7ACFECF
:1045540040EA044070BDF8B5002204460D46FFF75A
:10456400A3FE2946064601222046FFF79DFE0222AD
:10457400074629462046FFF797FE001240EA072027
:1045840040EA0660F8BD000037B500221146044633
:10459400FFF78AFE45F20843984222D045F22043B1
:1045A40098421ED048F68913984200F0B980002240
:1045B40067212046FFF778FE44F24773984200F0E3
:1045C400B280A1212046FFF7B7FF46F2011380B263
:1045D400984200F0AB804FF6FF73984203D141F24A
:1045E400265003B030BDBF212046FFF7B4FF48F288
:1045F400573380B29842F4D049F281439842F0D0C4
:1046040041F211539842ECD0B0F5A95FE9D041F2E0
:1046140026539842E3D041F281539842E1D0B0F559
:10462400A05F00F08680D4212046FFF785FF45F285
:10463400103380B29842D4D0D7212046FFF77CFFB4
:1046440048F2310380B29842CBD0EF212046FFF7E5
:1046540082FF49F2273380B29842C2D0FE2120461D
:10466400FFF76AFF42F25303C0F30F209842B8D019
:1046740004212046FFF760FF0546C5F3074580B2D5
:10468400EDB9B0F5004F1AD12D4B1A88ADF80420BE
:104694009B788DF8063001AA0321B920FFF74AFC64
:1046A4002A46D0212046FFF7FFFDC0B2992804D046
:1046B400902810D149F2900093E7992091E741F2B4
:1046C400265398428BD048F25253984234D04AF63B
:1046D4001143984285D0D3212046FFF72DFF03468E
:1046E400C3F3072303F16D02D2B2012A80B27FF62D
:1046F40078AF982B3FF475AF772B3FF472AF162B3E
:104704003FF46FAFD3283FF46CAF4DF2D3339842EC
:104714003FF467AF002211462046FFF7C5FD60E76E
:1047240041F289205DE748F247305AE741F66310C9
:1047340057E746F6140054E747F2897051E700BF83
:10474400649E00082DE9F3411E46838CBDF9204088
:10475400174649F2273293420546884636D1437EAE
:10476400022B04D120373FB2203424B207E0032BBC
:1047740005D101F1200820360FFA88F836B26B8C87
:10478400D90736D5688E8DF805804FEA28238DF831
:10479400043001AA33120421C0B28DF806308DF81A
:1047A4000760FFF7C7FBE88E8DF805703B128DF8A4
:1047B400043001AA23120421C0B28DF806308DF80A
:1047C4000740FFF7B7FB02B0BDE8F08141F2265283
:1047D4009342D4D1437ED807D1D5A2B2D31B9BB286
:1047E4000BB9541CC1E7B14202BF5B181EB23C4670
:1047F400C5E71FFA88F1A88DFFF7B6FAB9B2E88DBC
:10480400FFF7B2FA464501D1BC42DCD06B8C9A0664
:104814000CD56B7EDB074BBF47EA042748EA062822
:104824003FB20FFA88F84CBF3C4646461FFA88F15F
:10483400688EFFF799FAB9B2E88EFFF795FAB1B22C
:10484400A88EFFF791FAA1B2288FFFF78DFABAE785
:104854002DE9F04F9DB0048E0B93BDF998300C9365
:10486400BDF99C300D93BDF83450BDF83030039041
:1048740013FB05F636B20696468CDFF804B216F042
:10488400010F8EB2089696B20996089E06F1FF367D
:104894003344099E06F1FF3635442DB218BF2E2449
:1048A4001BB20095FFF74EFFE3B2240A6102220215
:1048B400600002F4806201F40071114300F480721C
:1048C4000A430E92621000F0200002F0100204F07D
:1048D400080102430A43210101F480610A43A4014F
:1048E4000F9204F08002180210925A02590000F448
:1048F400806002F40072024301F48070024311925A
:104904005A1001F0200102F010020A4303F00801DA
:104914000A4319019B0103F0800301F480610A43F7
:104924001393544C1292002304930593069B002B7B
:10493400039B5A8C40F38782D7070FD4089B049AB1
:104944009918039B89B2988DFFF70EFA099B059A73
:104954009918039B89B2D88DFFF706FA464B4FF49A
:1049640080114FF48032A2614FF0876699614FF451
:1049740000050E994FF0E0679F61A661CBF81850CF
:1049840099610F99A1611099CBF8181002204FF486
:104994000031996199619961986198619F61A661FB
:1049A400CBF81850119D9D61129DA561139DCBF804
:1049B4001850996199619961102198619861996180
:1049C400196821F47C111960216821F4401121F443
:1049D4007C612160DBF8001021F44041CBF8001029
:1049E4000399498C4E061FD4CD0706D40399888CAD
:1049F40041F28921884240F068811F4B012199616D
:104A04004FF480329A619A619A619A619A619A61CB
:104A14009A611A69DBF810201A69226922692269ED
:104A240022691A6999619961039B9A8C41F2115325
:104A34009A4216D1104B4FF48032012199619A6148
:104A44009A619A619A619A619A619A611A69DBF82A
:104A540010201A6922692269226922691A699961F6
:104A64009961064B1B781B93034B4FF48032012151
:104A740008E000BF00040240000002407508002066
:104A8400000802400398408C0790C00699619A611F
:104A94009A619A619A619A619A619A6140F1398145
:104AA400D3F81090DBF810E01F69D4F810C0266921
:104AB40025692069D3F810804FEA9E1EC9F3402966
:104AC4000EF0020E49EA0E0E0CF0080C3F0A4EEAF4
:104AD4000C0E760807F0040C4EEA0C0E6D0006F07E
:104AE400100C4EEA0C0E000905F0200C4EEA0C0ED8
:104AF40000F0400C4FEA58004EEA0C0C00F0800025
:104B040040EA0C000A909961996199619A619A61ED
:104B14009A619A619A619A619A61D3F81090DBF86C
:104B240010E01869D4F81080276926692569D3F83C
:104B340010C099614FEA9E1EC9F340290EF0020E7F
:104B440049EA0E0E08F00808000A4EEA080E7F082B
:104B540000F004084EEA080E760007F010084EEA4A
:104B6400080E2D0906F0200899614EEA080E996195
:104B740005F040089A619A619A619A619A619A6112
:104B84009A61D3F810A04EEA080EDBF810804FEAC1
:104B94005C0000F08000D3F810C0D4F810904FEA05
:104BA400981840EA0E00CAF3402AD4F810E02769A6
:104BB40026691D69996108F0020809F008094AEAA2
:104BC40008084FEA1C2C48EA09084FEA5E0E0CF06C
:104BD400040948EA09087F000EF0100948EA0908A8
:104BE400360907F0200948EA09086D0806F040096B
:104BF40048EA090805F08009079D996115F0040F3A
:104C040049EA08084FEAC0009B4D79D000F4FC60E3
:104C140005EA082848EA00080A9848EAD0091B98D7
:104C240068B14FEA691808F02008C9F3440C48EA4F
:104C34000C0629F03F0846EA08081FFA88F90B9881
:104C440020F8029B0B900698013880B205B20695B5
:104C5400039D6D8CAD074ED4049B01331BB20493AA
:104C6400049A0C9B93420BDC059B01331BB2059306
:104C7400059A0D9B93424FF000030493D8BF05930C
:104C84007E4B01229A61A2611A6822F47C121A6096
:104C9400226822F4401222F47C622260DBF80020B5
:104CA40022F44042CBF800201A6842F4A8121A6099
:104CB400236843F4801343F4A8632360DBF80030D3
:104CC40043F48043CBF8003030E6012199619A61C6
:104CD4009A619A619A619A619A619A611869DBF89A
:104CE4001000186920692069206920691869996190
:104CF4009961996186E600287FF4C4AE0690ABE71B
:104D04000A9E00F4FC6005EA0625284340EAD80917
:104D140085E7D3F810E0DBF810C018690A90D4F8DE
:104D24001090276926692069149018691590996173
:104D3400996199619A619A619A619A619A619A6199
:104D44009A61D3F810A0DBF8105018691690D4F8C3
:104D540010802069179020691890206919901869AB
:104D64001A904FEA9C1C0A989961CEF3402E0CF0DD
:104D7400020C4EEA0C0C09F008094FEA102E4CEA1A
:104D8400090C7F080EF004094CEA090C1498996187
:104D940007F0100976004CEA090C06F020094CEAE9
:104DA400090C4FEA1019159809F040094CEA090C4E
:104DB400AD094FEA50091698CAF3402A05F00205D6
:104DC40008F00808000A4AEA050A4AEA080A00F054
:104DD400040817984AEA080A4FEA5008189808F095
:104DE40010084AEA080A4FEA4008199808F020080F
:104DF4004AEA080A4FEA10181A9808F040084AEAE2
:104E0400080A4FEA5008079809F0800908F080085A
:104E140049EA0C0C4AEA0808070748EA0C2903D5B2
:104E240099FA99F81FFA88F9079846077FF5F7AEBB
:104E34004FEAC92646EAD92609F4FC6946EA090973
:104E44001FFA89F9EBE612F0010410D1039801F07E
:104E5400F5FB0546039801F0F4FB013800B26B1E24
:104E640000901BB2224621460398FFF76BFC0020FA
:104E74001DB0BDE8F08F00BF00F8FFFF0000024046
:104E8400F7B50F1E064615461C4621DB002A1FDB1C
:104E940001F0D4FB87421BDA304601F0D2FB854295
:104EA40016DA0C4B1B782BB1630003F03E0324F09D
:104EB4003E041C433946304600953B462A46FFF7DC
:104EC40041FC308E214603B0BDE8F040FEF74CBFF4
:104ED40003B0F0BD750800202DE9F04F9146BF4A9C
:104EE40089B01278BDF94860BDF84C4005462AB136
:104EF400620002F03E0224F03E041443002B07DA61
:104F04001FFA83F8C8F1000388441BB20FFA88F132
:104F14002846CF1821EAE17801F090FB3FB287429E
:104F240003DD284601F08AFB0746BFB2A7EB08035E
:104F34001BB2002E039305DAB2B25642914436B244
:104F44000FFA89F9284601F07CFB4E4436B28642BA
:104F540029EAE97903DD284601F073FB0646B2B27B
:104F6400A2EB0906013A7B1E12B2414600921BB223
:104F74004A462846FFF7E6FB99499A4F4FF4803397
:104F84008B61994B4FF480129A612A8ED0B2120A27
:104F94004FEA422E0EF4007B4FEA022E4FEA420CF7
:104FA4000EF4806E4BEA0E0E0CF4807B4FF0E06A38
:104FB4004FF087694FF400084EEA0B0EC3F818A0AF
:104FC400C1F81890C7F81880C3F818E04FEA620EC9
:104FD4000CF0200C0EF0100E4EEA0C0E02F0080C31
:104FE4004EEA0C0E4FEA021C0CF4806C92014EEA5D
:104FF4000C0E02F08002C1F818E0BA614FF0020E04
:105004004FF400329A614FEA002C9A619A61C3F816
:1050140018E0C3F818E0C3F818A0C1F81890C7F84E
:1050240018804FEA40284FEA40090CF4806C08F4D9
:10503400007848EA0C0809F4807C48EA0C084FEA36
:10504400600C09F020090CF0100CC3F818804CEA2D
:10505400090C00F008084CEA080C4FEA001808F4A0
:10506400806880014CEA080C00F08000C1F818C088
:10507400B8619A619A619A611022C3F818E0C3F882
:1050840018E09A61039B36B2E2B2B3424FEA1424A9
:10509400B8BF03964FEA4420B8BF1E46230203F468
:1050A4008063BE4600F400706700184307F4807301
:1050B40003430493631003F0100307F0200704F084
:1050C40008003B430343200100F480600343A40130
:1050D4004FEA422B1002059304F0800300F4806031
:1050E40006930BF4007B53004BEA000B03F480702F
:1050F4004BEA000B501003F0200300F0100018439B
:1051040002F008031843130103F480639201184367
:1051140002F080030793344BB6B24FF0E0684FF0CF
:1051240087694FF4000A4FF400344FF0020C37B291
:10513400002F2EDD039F049AC3F81880C1F818903D
:10514400CEF818A09A61059A8A61013F069ACEF8B2
:1051540018203FB2079A9C619C619C61C3F818C0F7
:10516400C3F818C0C3F81880C1F81890CEF818A076
:10517400C3F818B08861CEF818209C619C619C61CA
:10518400C3F818C0C3F818C0002FD4D1013EB6B27A
:10519400CDE701238B616B8CDA0707D5AA8C41F22A
:1051A40026539A4216D16B7EDB0713D5284601F0AD
:1051B40045FA0446284601F044FA0138631E00B259
:1051C400002212901BB21146284609B0BDE8F04FE8
:1051D400FFF7B8BA09B0BDE8F08F00BF750800202A
:1051E4000004024000080240000002402DE9F3419F
:1051F4000646808C984649F22733984205D1737E3F
:10520400023B012B9CBF203109B275898FB293B246
:10521400ED1B49F22734ED1AA042ADB208BF203588
:10522400C2F1000408BFADB2A0453EDD4245D8BF7F
:105234004FF0000807EB0804B8F1000FA4B2B6F869
:1052440022E0BCBFE418A4B21EF0010F30D00B1250
:105254008DF8003013128DF801108DF802308DF89E
:10526400032045F307236A46062133208DF80430D2
:105274008DF80550FEF75EFE44F307236A460221CB
:1052840037208DF800308DF80140FEF753FEB8F159
:10529400000F07D1738CDB0704D542464146132027
:1052A400FEF748FE02B0BDE8F0814FF00008C1E708
:1052B40047F2937290422ED01AD845F2204290427F
:1052C40029D047F28372904231D0B0F5AA7F19D128
:1052D400591E394489B23120FEF746FD3946322041
:1052E400FEF742FDE11B89B23320FEF73DFDD9E70D
:1052F40049F2263290420ED009D8A0F51240253842
:105304000128E5D9F18C41F0020189B210E04BF299
:1053140009539842F6D1F18C41F0020189B240F26E
:105324000140FEF721FD214640F20440DDE7F18C07
:105334006120FEF719FD21466A20D6E730B501F059
:10534400030311F0010114BFB0F90A20B0F90820D9
:10535400437685B004468281002900F09080B0F93C
:105364000820E281022B00F08D80032B00F08C805A
:10537400012B14BF482328238DF80B30638CDA05E6
:1053840042BF9DF80B2082F080028DF80B209D0512
:1053940042BF9DF80B2082F040028DF80B201805C7
:1053A40042BF9DF80B2082F008028DF80B2013F009
:1053B400010FA38C00F0A58046F61402934265D138
:1053C4009DF80B2012F0800F14BF4023002312F02D
:1053D400400F14BF2021002102F0280243F00203F1
:1053E4000B438DF80B2000228DF80C208DF80D3026
:1053F40003AA3B230321B6208DF80E30FEF79AFD55
:105404002B232A222C21A285E38521866286A2866B
:10541400E38623870DF10B0201213620FEF78AFD76
:105424009DF80B302385637EDA070ED5638C5B050C
:105434000BD4A38DE28DA285E385E28E638EE38691
:105444006286A38E228FA2862387204601F0F6F877
:105454000546204601F0F5F8013800226B1E00B223
:105464000090114620461BB2FFF76CF90023B4F9F3
:105474000A2019462046FFF7B9FE05B030BDB0F941
:105484000A206EE7982377E7F82375E741F663125D
:10549400934207D049F28142934203D041F2115220
:1054A4009342ADD19DF80B20110644BF42F0010296
:1054B4008DF80B209DF80B20550644BF42F00202E4
:1054C4008DF80B2041F66312934206D19DF80B3000
:1054D40003F03F038DF80B3092E749F28142934287
:1054E40004D19DF80B3003F02F03F3E741F211527E
:1054F400934285D19DF80B3023F0100363F03F03F2
:10550400E8E747F29372934207D03CD8B3F5AA7FF9
:1055140040D045F22042934273D14FF40072A285E9
:1055240040F20122E28540F2022222864FF4047204
:10553400628640F21122A28640F21222E28640F2F2
:10554400132222879DF90B20002A49F22632B4BF88
:105554004FF400410021934250D045F2204293423F
:105564000CBF4FF454534FF4D44319434FF48060A9
:10557400FEF7FAFB9DF80B3013F0400F14BF4FF405
:105584008071002125E049F226329342C5D04BF2C6
:105594000952C0E7372363863623A3863923E3867B
:1055A400382323872023A3852123E38522232386ED
:1055B4009DF80B3013F0800F14BF4FF400710021DD
:1055C40013F0400F14BF4FF480730023194341F0CC
:1055D40028010120FEF7C8FB9DF80B3013F0200FC3
:1055E40014BF08210021180748BF41F4805141F03D
:1055F400300121850320FEF7B7FB14E74FF4545321
:10560400B3E72023A3852123E38522232386502384
:1056140063865123A3869DF90B105223E3865323FB
:1056240023870029B4BF4FF427414FF41C51602055
:105634009EE70000F0B585B004460D46FEF7CEFDAA
:1056440048F2573300269D422684A58400F08381C6
:1056540000F2E58044F235539D4200F0708100F27F
:105664008A80B5F5A95F00F0648168D8B5F5AA7F92
:1056740000F0578106D8992D00F079810025258105
:105684002E4611E041F205539D4200F07C8141F227
:1056940011539D42F2D14FF4F07303276381C14E3D
:1056A40067844FF4A0732381638CC3F30033E384D2
:1056B4005EB10921BC48FEF75BFD39463046FEF772
:1056C40057FD0621B948FEF753FD236800219B6A64
:1056D4002046984723680021DB6A20469847A28C1D
:1056E40049F288439A4228D12368B14F9E68002525
:1056F4004FF6E0732A46294620463D70B0470126FE
:105704000DF10E032A460196009629462046FFF71E
:105714009FF8BDF80E204FF61F739A420DD1062351
:105724000DF10E0231463A208DF80E30FEF702FCE0
:10573400638C3E7023F01003638405B0F0BD41F226
:1057440081539D4200F0708109D841F226539D4255
:1057540094D140F2134363840C27964EA4E741F29C
:1057640002639D4200F0518142F253039D4285D170
:1057740041F217434BE147F283739D4200F0E58009
:105784002CD845F208439D4200F0FD8010D845F224
:1057940010339D427FF472AF40F6136363844FF479
:1057A400F07363814FF4A07323810227824E7BE759
:1057B40046F609039D4200F0EF8046F614039D422D
:1057C4007FF45CAF40F2034363844FF4F07363816E
:1057D4004FF4A07323810327784E65E747F2937350
:1057E4009D4200F03F810AD847F289739D427FF4BD
:1057F40045AF40F2134363844127714E54E747F2A7
:1058040096739D4200F01F8148F231039D427FF45C
:1058140035AF41F21343638412276A4E44E749F2D9
:1058240038339D4200F0FA8032D849F227339D4242
:1058340000F0E0801AD849F202339D4200F0EB8078
:1058440007D849F290039D427FF418AF41F2134305
:1058540083E049F220339D4200F0958049F22533DC
:105864009D427FF40BAF4FF4885397E049F22933FC
:105874009D4200F0D680F6D349F231339D4204D0E4
:1058840049F235339D427FF4F9AE4FF4805385E0FD
:1058940049F288439D4227D849F287439D4280F0CC
:1058A400DE8049F281439D4200F0CA800BD8A5F501
:1058B4001345403D012D3FF6E1AE40F213436384AE
:1058C4006527414EF0E649F286439D427FF4D6AE09
:1058D40040F2034363844FF4F07363814FF4A07385
:1058E40023813B27394EDFE64BF205539D4212D00C
:1058F40007D84AF611439D427FF4C0AE41F21343E8
:1059040085E04BF209539D4200F0AC804CF2055304
:105914009D427FF4B3AE41F208036384B0212C4866
:1059240036E041F202032B4863849C21FEF708FC15
:10593400BAE640F2134363840627274EB4E64FF4D5
:10594400805363849C212548F0E741F20213638469
:1059540090212348EAE741F2034363844FF4F07350
:1059640063814FF4A073238102271E4E9CE641F20B
:10597400134363844FF4F07363814FF4A073238162
:105984001D27194E90E641F2040318486384D82178
:10599400FEF7D6FB002687E641F202136384CC218E
:1059A4001348F5E732BE0008C2C40008BCC40008AE
:1059B400750800203BBE000861C10008B9C4000896
:1059C400D8BE000820BE000829C4000826C100086B
:1059D40064C10008D4C2000835BE000870C30008C2
:1059E40048BE000819BF00080CC400081CBF00080A
:1059F400F4BF000840F2034363844FF4C873638127
:105A0400F02323811E271D4E4EE640F21353638478
:105A140003271B4E48E640F20343F8E740F21343E2
:105A2400F5E741F20363F2E740F2134363844FF472
:105A3400F07363814FF4A07323814527114E33E63D
:105A440040F20743F2E740F2034363844FF4F073F8
:105A540063814FF4A07323812B270B4E24E640F27D
:105A64001343F2E74FF480536384C0210748FEF7E1
:105A740067FB4FF4C87363818CE700BFC0C00008A4
:105A8400DEC00008E1C000088EC4000814C200088B
:105A94002DE9F04F85B01E46BDF93830BDF83CA065
:105AA40015469A1A002AB8BF52420092721A002A66
:105AB400B8BF524201920C46009A01998A4281462B
:105AC40005DD32461E46134622462C461546B44290
