:020000040800F2
:10000000008001207D280008CD280008CD280008A8
:10001000CD280008CD280008CD28000800000000E9
:10002000000000000000000000000000CD280008D3
:10003000CD28000800000000CD280008CB290008CA
:10004000CD280008CD280008CD280008CD280008BC
:10005000CD280008CD2800082D4D0008334D00089C
:10006000394D00083F4D0008454D0008CD280008D7
:10007000CD280008CD280008CD280008CD2800088C
:10008000CD280008CD280008CD2800080000000079
:100090000000000000000000000000004B4D0008C0
:1000A000B92C0008592C0008C92C0008CD280008DC
:1000B000792C0008892C0008992C0008852D00084F
:1000C000912D00089D2D0008A92D0008CD280008BD
:1000D000CD28000801310008193100080000000097
:1000E000614D0008DD2B0008CD280008000000004D
:1000F000000000000000000000000000CD28000803
:1001000000000000CD280008A92C0008CD28000818
:1001100000000000000000000000000000000000DF
:10012000CD280008CD280008CD280008CD280008DB
:10013000CD280008000000000000000000000000C2
:10014000000000000000000000000000CD280008B2
:10015000CD280008CD280008CD280008313100083E
:10016000B52D0008C12D00080000000000000000AF
:10017000000000000000000000000000000000007F
:1001800000000000CD280008000000000000000072
:04019000CD2800086E
:1001940010B5054C237833B9044B13B10448AFF3BD
:1001A40000800123237010BD100000200000000017
:1001B400804E00080C4B43B10C480D4910B5AFF309
:1001C40000800C48036823B910BD0A48036833B99A
:1001D4007047094B002BF7D0BDE810401847064B79
:1001E400002BF5D0184700BF00000000804E000827
:1001F400140000201000002000000000034613F843
:10020400012B002AFBD1181A0138704753B94AB997
:10021400002908BF00281CBF4FF0FF314FF0FF300A
:1002240000F07AB9ADF1080C6DE904CE00F006F8DF
:10023400DDF804E0DDE9022304B070472DE9F0475E
:100244008C460D460446089E002B51D18A4217461F
:100254006DD9B2FA82FEBEF1000F0BD0CEF1200CA4
:1002640001FA0EF520FA0CFC02FA0EF74CEA050C22
:1002740000FA0EF44FEA174A250CBCFBFAF81FFAF1
:1002840087F90AFB18CC45EA0C4508FB09F3AB4295
:100294000AD9ED1908F1FF3280F02381AB4240F214
:1002A4002081A8F102083D44ED1AA4B2B5FBFAF08E
:1002B4000AFB105544EA054400FB09F9A14509D994
:1002C400E41900F1FF3380F00A81A14540F207816F
:1002D40002383C44A4EB090440EA08400021002E03
:1002E40061D024FA0EF4002334607360BDE8F08713
:1002F4008B4207D9002E54D0002186E821000846FD
:10030400BDE8F087B3FA83F1002940F08E80AB4258
:1003140002D3824200F2FA80841A65EB03050120BD
:10032400AC46002E3FD086E81010BDE8F08712B925
:100334000127B7FBF2F7B7FA87FEBEF1000F34D1FD
:10034400EB1B3A0C1FFA87FC0121B3FBF2F8250CD6
:1003540002FB183345EA03450CFB08F3AB4207D90B
:10036400ED1908F1FF3002D2AB4200F2D180804691
:10037400ED1AA3B2B5FBF2F002FB105543EA0544B3
:100384000CFB00FCA44507D9E41900F1FF3302D2A9
:10039400A44500F2B8801846A4EB0C0440EA0840D7
:1003A4009DE731463046BDE8F087CEF1200405FADA
:1003B4000EF307FA0EF720FA04F83A0C25FA04F4BF
:1003C40048EA0308B4FBF2F14FEA184502FB114472
:1003D4001FFA87FC45EA044501FB0CF3AB4200FA23
:1003E4000EF409D9ED1901F1FF3080F08A80AB4297
:1003F40040F2878002393D44EB1A1FFA88F5B3FBBB
:10040400F2F002FB103345EA034500FB0CF3AB4268
:1004140007D9ED1900F1FF386FD2AB426DD902381C
:100424003D44EB1A40EA01418FE7C1F1200722FA6B
:1004340007F88B4005FA01F448EA030320FA07FEA3
:100444004FEA134CFD404EEA040EB5FBFCF94FEAAB
:100454001E440CFB19551FFA83F844EA054509FBB1
:1004640008F4AC4202FA01F200FA01FA08D9ED18D4
:1004740009F1FF3043D2AC4241D9A9F102091D442C
:100484002D1B1FFA8EFEB5FBFCF00CFB10554EEA3B
:10049400054400FB08F8A04507D9E41800F1FF352E
:1004A40029D2A04527D902381C4440EA0940A4EBCC
:1004B4000804A0FB02894C45C6464D4615D312D00C
:1004C40056B1BAEB0E0364EB050404FA07F7CB400C
:1004D4001F43CC40376074600021BDE8F0871846A4
:1004E400F8E69046E0E6C245EAD2B8EB020E69EBC4
:1004F40003050138E4E72846D7E7404691E78146FB
:10050400BEE7014678E702383C4445E7084608E779
:10051400A8F102083D442BE7704700BF7047000074
:1005240007B50023019300931A461946024800F0C8
:1005340007FF03B05DF804FB2C0000202DE9F34114
:10054400944C9548954E06224FF4165104F0D4FA73
:10055400204600F003FF204649F2814101F0DCFE11
:100564002046FF2101F05CFD4FF6E0720192B4F9E0
:100574000E2000920022B4F90C30114620460025CA
:1005840001F01CFB05274FF47A7002F0A3F94B230A
:100594000097204601951122072101F00FFB0A2242
:1005A4002046612100F06BFC2946204600F06FFCD8
:1005B4002046032100F066FC3146204604F014FB7B
:1005C400DC230097204601951122FA2101F0F6FA66
:1005D400322220464B2100F052FC2946204600F0EE
:1005E40056FC2046022100F04DFC19276C49204698
:1005F40004F0FAFA78232046019500974B220A2149
:1006040001F0DCFA50222046162100F038FC204686
:100614004FF6FF7100F03BFC31462046022604F001
:10062400E3FA4FF0B9082046019500964FF4D773CA
:1006340062222D2101F0C2FA334620460195CDF8FD
:100644000080622240F2D91101F0B8FA3346204604
:100654000195CDF8008062222D2101F0AFFA4FF40C
:10066400D77320460195009640F21B122D2101F00C
:10067400A5FA6E222046412100F001FC29462046BD
:1006840000F005FC3146204600F0FCFB45492046BD
:1006940004F0AAFA0123009320464FF4D77301957E
:1006A40082222D2101F08AFA8C222046412100F079
:1006B400E6FB2946204600F0EAFB3146204600F0DE
:1006C400E1FB3949204604F08FFAAA222046412151
:1006D40000F0D5FB2946204600F0D9FB31462046E0
:1006E40000F0D0FB3149204604F07EFAC8222046AF
:1006F400442100F0C4FB2946204600F0C8FB3146E3
:10070400204600F0BFFB2A49204604F06DFAE62299
:100714002046392100F0B3FB2946204600F0B7FB00
:100724003146204600F0AEFB2249204604F05CFA34
:100734004FF482722046392100F0A1FB294620465D
:1007440000F0A5FB3146204600F09CFB1A492046E8
:1007540004F04AFA2823204601950097FF224FF41B
:10076400967101F02BFA4FF4827220464FF49B717C
:1007740000F085FB20464FF6FF7100F088FB314600
:10078400204600F07FFB0D49204602B0BDE8F04151
:1007940004F02ABA2C00002054020020984E0008CD
:1007A400A14E0008BE4E0008E04E0008024F0008AB
:1007B400244F0008464F0008684F00088A4F00087D
:1007C4002DE9F04F85B01E46BDF93830BDF83CA088
:1007D40015469A1A002AB8BF52420092721A002A89
:1007E400B8BF524201920C46009A01998A4281464E
:1007F40005DD32461E46134622462C461546B442B3
:1008040005DD2A461D4613462246344616465A1B23
:10081400002AB8BF5242A6EB04089D42B4BF01238C
:100824004FF0FF331FFA88F8029303920FFA88F708
:10083400022297FBF2F7B4421FDC019A009B934219
:10084400D9F80030C8BF2246D3F810B0C8BF294633
:100854005346DCBF2A4621464846D847039BFF1A25
:10086400BBB21FB2002F05DA029A08EB0307154446
:100874002DB23FB2013424B2DDE705B0BDE8F08FFC
:1008840010B40468A468A4465DF8044B604730B40F
:100894000468BDF808500295246BA44630BC604738
:1008A40030B40468BDF808500295646BA44630BCAB
:1008B400604770B40468BDF90C50BDF8106004962C
:1008C4000395A46BA44670BC604770472DE9F341BF
:1008D4001C460368BDF82080DB6805461646013CCB
:1008E40034440F4624B298472B68CDF80480009412
:1008F4001C6A28463B4632463946A0472B685B6A49
:10090400284602B0BDE8F04118472DE9F3411D46E1
:100914000368BDF82080DB68044617460E469847F6
:100924008DE8800122686B1E3344156A20461BB291
:100934003A463146A84723685B6A204602B0BDE8C0
:10094400F04118472DE9F3471E460368BDF9288096
:10095400DB68BDF82C900C4605461746984726449C
:10096400B4422A680BDACDF80090D2F818A02146D8
:1009740043463A4628460134D04724B2F0E7536A46
:10098400284602B0BDE8F047184713B5B0F90E2069
:100994000468019100920022B0F90C30A46B114656
:1009A400A04702B010BD2DE9F7439942904607468F
:1009B4000E461C46BDF92850BDF82C90026814D18F
:1009C400A845C8BF4346CDF82890C4BFA8461D46D5
:1009D4006B1C146BA3EB08031BB24246314638462A
:1009E400A44603B0BDE8F0436047A8450AD1994244
:1009F400C2BF0B4626461C46631CCDF828909B1BA1
:100A0400546BE9E7D36898473B688DE82002384681
:100A14001D6A424623463146A8473B685B6A38460E
:100A240003B0BDE8F04318472DE9F3471D460368BA
:100A3400BDF82C70DB68BDF928900446884616463C
:100A4400984723680097D3F81CA032462B464146AA
:100A54002046D0472368009709F1FF323244D3F887
:100A64001CA041462B46204612B2D047236800976B
:100A7400D3F818A032464B4641462046D047236857
:100A84000097691E41449D6920464B46324609B28F
:100A9400A84723685B6A204602B0BDE8F0471847C0
:100AA400704701F00301012941760389428904D08A
:100AB400032902D08381C28170478281C381704738
:100AC40030B501810024094D42818181C2814FF6F4
:100AD400FF710122446005604476048244820276F8
:100AE400C18281828276C476C46130BD9854000884
:100AF4002DE9F04F91B09146C26905911E46BDF8AB
:100B0400683003930446BDF86CA09DF87050002A29
:100B140040F0BA80B0F90C308B4240F33281B0F926
:100B24000E304B4540F32D81062313FB0513002B98
:100B340040F3278109EBC503002B40F32281C37ED8
:100B44001BB9AF2EC4BF0136F6B223682046DB685A
:100B5400984705230D93002304931FFA89F3089300
:100B640008339BB20F9305231A46049B12FB0633EA
:100B7400854AD35C0993BDF814300693069A049B06
:100B8400AFB203FB07231BB20C93089B0B9398464D
:100B94000A932BB20793BDF81020069B13FA82F335
:100BA4001BB20E93099BD9074AD5012D23683AD16C
:100BB400D3F810B0039B0E990FFA88F22046D84759
:100BC400099B5B0809930B9B3B449BB20B930A9BC9
:100BD4003B449BB20A9308F101080F9B1FFA88F863
:100BE4004345DFD1049B01335BB204930D9B013B6E
:100BF40013F0FF030D93B6D1039B53450CD0012D85
:100C0400236831D10699CDF800A005319D694A4683
:100C1400082309B22046A84723685B6A204611B01E
:100C2400BDE8F04F1847039A0192079A0092D3F84F
:100C340014B01346BDF92C200C992046D847BFE7C1
:100C4400039B5345BCD0012D236803D1D3F810B0C6
:100C54005346B0E7079A0092CDF804A0D3F814B035
:100C64001346BDF92820E7E7069ACDF804A007EB60
:100C740087010A44FF00114600975E694A462B46E5
:100C840009B22046B047C7E7137AF61A5368F6B29A
:100C940003EBC60613680A93B3780B93F3780C93AB
:100CA40096F905300793012DC4BFBDF91C30069396
:100CB400036896F906B0DB68B6F80080DABF4FF037
:100CC400000ACDF818A00FFA8BFA98471FFA89F397
:100CD400002709935B4404973E460F930C9AFBB29A
:100CE400934299DAAAB20892BDF8201003EB0A02E3
:100CF40012FB01F209990A4412B20D920F9A13449D
:100D04001BB24FF000090E93049B0B9A5FFA89F112
:100D1400CB189142DBB231DA5A0701BF0A9A12F8B2
:100D2400086008F101031FFA83F833060DD5012D7D
:100D340010D1059A079B1344194423680E9AD3F8DB
:100D440010B0039B09B22046D8477600F6B209F1E9
:100D54000109D9E7069A039801901144BDF82020AF
:100D640011FB02F1059A2BB2114422680093D2F8C8
:100D740014B00D9A09B22046D847E6E70137049328
:100D8400ACE711B0BDE8F08F8D4F00087FB5C269A4
:100D940004460B46002A31D10A2908D10282438A2B
:100DA400027E03EBC2036382012004B070BD0D29EF
:100DB400FAD0817E007E69B1B4F91050062111FB8E
:100DC4000051B4F90C50A942C1BF2282628A02EBDD
:100DD400C00262820290E08A0190A08AB4F91220D3
:100DE4000090B4F910102046FFF782FE237E228A79
:100DF40003EB430302EB43032382D5E70A2907D11C
:100E040000230382937A017E428A01FB0323CAE70B
:100E14000D29C9D0157AA942C6DB517A8B42C3DCAD
:100E240051685D1B01EBC505AE7816B3E97801B3D3
:100E3400817E007E89B195F905103144B4F91060C2
:100E440000FB0161B4F90C60B14206DD002121828E
:100E5400927A618A02FB001262820290E08A019017
:100E6400A08A0090B4F91220B4F910102046FFF7BC
:100E74003FFE2979237E228A01FB0323BCE70182FA
:100E840042827047012938BF012101767047C1822F
:100E940081827047B0F90C007047B0F90E007047BA
:100EA40037B5BDF8185004688DE828000123A46BF9
:100EB400A04703B030BD37B5BDF81850019504689C
:100EC40001250095A46BA04703B030BD13B5B0F95C
:100ED4000E200468019100920022B0F90C30A46B3A
:100EE4001146A04702B010BD2DE9F0476E4C6F4E7D
:100EF4004FF48033A3616E4B4FF480129A61C2B2F7
:100F0400000A45024FEA00294FEA400809F48069C3
:100F140005F4007545EA090508F480794FF0876EF9
:100F24004FF400074FF0E06C45EA0905C3F818C018
:100F3400C4F818E0B7619D61451008F0200805F079
:100F4400100545EA080500F0080845EA08054FEAD7
:100F5400001808F4806845EA08054FEA42294FEA78
:100F640002284FEA420A08F4806809F4007949EA41
:100F7400080980010AF4807849EA080900F0800031
:100F84004FEA6208A5610AF0200AB06102254FF415
:100F9400003008F01008986148EA0A0898619861DE
:100FA4009D619D61C3F818C0C4F818E0B761C3F827
:100FB400189002F0080948EA09084FEA021909F4EE
:100FC4008069920148EA090802F08002C4F8188096
:100FD400B26110229861986198619D619D619A61E6
:100FE400CAB2090A4FEA41294FEA01284FEA410AE5
:100FF40008F4806809F4007949EA08090AF4807859
:1010040049EA08094FEA610808F010080AF0200AC2
:10101400C3F818C048EA0A08C4F818E0B761C3F86E
:10102400189001F0080948EA09084FEA011909F47F
:101034008069890101F0800148EA0908C4F8188030
:10104400B16198611102986198619D619D61C3F8D5
:1010540018C0C4F818E0B76157024FEA420E01F411
:10106400806107F400770F430EF480710F43511031
:1010740001F010010EF0200E9F6141EA0E0102F012
:1010840008073943170107F480679201394302F0D6
:101094008002A161B2619861986198619D619D61CE
:1010A4000123A361BDE8F087000402400008024068
:1010B400000002402DE9F04F5F4D604E4FF4803345
:1010C400AB615F4B5FFA80F84FF48014000A9C61B7
:1010D4004FEA002A44024FEA40090AF4806A04F401
:1010E400007444EA0A0409F4807A44EA0A044FF0DA
:1010F400E06C4FF0876E4FF40007C3F818C0C5F8D2
:1011040018E0B7619C61441009F0200904F0100450
:1011140044EA090400F0080944EA09044FEA001902
:1011240009F4806944EA0904AC614FEA082B84019C
:101134004FEA48204FEA480A0BF4806B00F4007031
:1011440004F0800440EA0B000AF4807BB4614FF0A1
:1011540002094FF4003440EA0B009C619C619C61DD
:10116400C3F81890C3F81890C3F818C0C5F818E06D
:10117400B76198614FEA68000AF0200A00F0100095
:1011840040EA0A0008F0080A40EA0A004FEA081A8E
:101194000AF4806A40EA0A00A8614FEA881000F065
:1011A4008000B06110209C6102EB01089C619C618D
:1011B400C3F81890C3F818909861A8EB020149B2DB
:1011C400002934DD12F8010BC3F818C041024FEABC
:1011D400002B4FEA400A0BF4806B01F4007141EAE2
:1011E4000B010AF4807B41EA0B01C5F818E0B761F2
:1011F400996141100AF0200A01F0100141EA0A0144
:1012040000F0080A41EA0A014FEA001A0AF4806A67
:10121400800141EA0A0100F08000A961B0619C618B
:101224009C619C61C3F81890C3F81890C5E701232A
:10123400AB61BDE8F08F00BF00040240000802402B
:101244000000024030B4458CC5F3003484EA010246
:101254000B46ED0791B2C18408D500229C4214BF0D
:1012640021202020114630BCFFF724BF838C49F293
:101274002620834215D849F2252083420AD245F21A
:101284002040834215D047F29370834211D0B3F5C6
:10129400AA7F13D1910041F01301072030BCFFF75E
:1012A40023BE49F22632934203D04BF209529342B1
:1012B40004D141F0020140F20140EFE76120EDE783
:1012C40070B50C46051D4FF6FF76002C0FDD35F882
:1012D400040C35F8021CB04206D1084601F0FAFAB3
:1012E400043C24B20435F0E7FFF7FEFDF8E770BDD7
:1012F400F0B50C4687B00546002C1FDD2F466E78EE
:1013040017F8020B7F280BD03D46EB1BDBB2B34230
:101314000FDA06AA134415F8012B03F8182CF4E786
:10132400304601F0D7FA3D460026023CA41B24B205
:10133400E2E76A4671B2FFF7BDFEF6E707B0F0BD1B
:1013440010B54FF4A0720446F021FFF7B9FB024B2D
:101354002360204610BD00BFE854000838B52D4B6B
:101364002D4C2E4D012018702D4B1A6822F47C123E
:101374001A602C4A116821F4401121F47C61116037
:10138400216821F440412160196841F4A8111960D1
:10139400116841F4801141F4A8611160216841F49D
:1013A40080412160296B41F007012963196821F00C
:1013B400030101431960196821F00C0141F0040193
:1013C4001960196821F4407141F480711960116841
:1013D40021F0030101431160216821F00C0141F067
:1013E400040102252160906198619D613220A5610C
:1013F40001F070FA4FF40033A361642001F06AFA3B
:10140400A561642001F066FA0021B020BDE83840EF
:10141400FFF76ABD6800002000080240003802405F
:1014240000000240000402402DE9F3411E46838C73
:10143400BDF92040174649F22732934205468846B3
:1014440036D1437E022B04D120373FB2203424B25C
:1014540007E0032B05D101F1200820360FFA88F8A4
:1014640036B26B8CD90736D5688E8DF805804FEA75
:1014740028238DF8043001AA33120421C0B28DF858
:1014840006308DF80760FFF715FEE88E8DF80570BD
:101494003B128DF8043001AA23120421C0B28DF846
:1014A40006308DF80740FFF705FE02B0BDE8F08175
:1014B40041F226529342D4D1437ED807D1D5A2B269
:1014C400D31B9BB20BB9541CC1E7B14202BF5B18DA
:1014D4001EB23C46C5E71FFA88F1A88DFFF704FD4C
:1014E400B9B2E88DFFF700FD464501D1BC42DCD01E
:1014F4006B8C9A060CD56B7EDB074BBF47EA04273F
:1015040048EA06283FB20FFA88F84CBF3C464646E4
:101514001FFA88F1688EFFF7E7FCB9B2E88EFFF78F
:10152400E3FCB1B2A88EFFF7DFFCA1B2288FFFF76E
:10153400DBFCBAE72DE9F04F9DB0048E0B93BDF9A7
:1015440098300C93BDF99C300D93BDF83450BDF820
:101554003030039013FB05F636B20696468CDFF85E
:1015640004B216F0010F8EB2089696B20996089E40
:1015740006F1FF363344099E06F1FF3635442DB299
:1015840018BF2E241BB20095FFF74EFFE3B2240AC6
:1015940061022202600002F4806201F400711143CE
:1015A40000F480720A430E92621000F0200002F0F0
:1015B400100204F0080102430A43210101F480618E
:1015C4000A43A4010F9204F08002180210925A02F6
:1015D400590000F4806002F40072024301F4807048
:1015E400024311925A1001F0200102F010020A4342
:1015F40003F008010A4319019B0103F0800301F47D
:1016040080610A431393544C12920023049305936C
:10161400069B002B039B5A8C40F38782D7070FD479
:10162400089B049A9918039B89B2988DFFF75CFC78
:10163400099B059A9918039B89B2D88DFFF754FC2E
:10164400464B4FF480114FF48032A2614FF087660D
:1016540099614FF400050E994FF0E0679F61A66110
:10166400CBF8185099610F99A1611099CBF8181013
:1016740002204FF4003199619961996198619861F0
:101684009F61A661CBF81850119D9D61129DA561C3
:10169400139DCBF818509961996199611021986153
:1016A40098619961196821F47C111960216821F409
:1016B400401121F47C612160DBF8001021F44041E9
:1016C400CBF800100399498C4E061FD4CD0706D4DD
:1016D4000399888C41F28921884240F068811F4B2C
:1016E400012199614FF480329A619A619A619A61F9
:1016F4009A619A619A611A69DBF810201A69226961
:101704002269226922691A6999619961039B9A8CF9
:1017140041F211539A4216D1104B4FF480320121F9
:1017240099619A619A619A619A619A619A619A61DE
:101734001A69DBF810201A69226922692269226970
:101744001A6999619961064B1B781B93034B4FF4FB
:101754008032012108E000BF000402400000024082
:1017640069000020000802400398408C0790C006DE
:1017740099619A619A619A619A619A619A619A618E
:1017840040F13981D3F81090DBF810E01F69D4F8E8
:1017940010C0266925692069D3F810804FEA9E1E7F
:1017A400C9F340290EF0020E49EA0E0E0CF0080CA3
:1017B4003F0A4EEA0C0E760807F0040C4EEA0C0EB3
:1017C4006D0006F0100C4EEA0C0E000905F0200C1A
:1017D4004EEA0C0E00F0400C4FEA58004EEA0C0C96
:1017E40000F0800040EA0C000A90996199619961C7
:1017F4009A619A619A619A619A619A619A61D3F83D
:101804001090DBF810E01869D4F810802769266975
:101814002569D3F810C099614FEA9E1EC9F3402987
:101824000EF0020E49EA0E0E08F00808000A4EEA0D
:10183400080E7F0800F004084EEA080E760007F050
:1018440010084EEA080E2D0906F0200899614EEAA8
:10185400080E996105F040089A619A619A619A614B
:101864009A619A619A61D3F810A04EEA080EDBF8E7
:1018740010804FEA5C0000F08000D3F810C0D4F868
:1018840010904FEA981840EA0E00CAF3402AD4F8A0
:1018940010E0276926691D69996108F0020809F0BA
:1018A40008094AEA08084FEA1C2C48EA09084FEAE2
:1018B4005E0E0CF0040948EA09087F000EF01009D6
:1018C40048EA0908360907F0200948EA09086D08BA
:1018D40006F0400948EA090805F08009079D996166
:1018E40015F0040F49EA08084FEAC0009B4D79D06F
:1018F40000F4FC6005EA082848EA00080A9848EA67
:10190400D0091B9868B14FEA691808F02008C9F398
:10191400440C48EA0C0629F03F0846EA08081FFA76
:1019240088F90B9820F8029B0B900698013880B236
:1019340005B20695039D6D8CAD074ED4049B01330F
:101944001BB20493049A0C9B93420BDC059B01335A
:101954001BB20593059A0D9B93424FF00003049329
:10196400D8BF05937E4B01229A61A2611A6822F4C2
:101974007C121A60226822F4401222F47C622260F3
:10198400DBF8002022F44042CBF800201A6842F42D
:10199400A8121A60236843F4801343F4A8632360F5
:1019A400DBF8003043F48043CBF8003030E601210B
:1019B40099619A619A619A619A619A619A619A614C
:1019C4001869DBF81000186920692069206920690A
:1019D400186999619961996186E600287FF4C4AE1B
:1019E4000690ABE70A9E00F4FC6005EA062528434E
:1019F40040EAD80985E7D3F810E0DBF810C018698D
:101A04000A90D4F8109027692669206914901869FF
:101A140015909961996199619A619A619A619A6143
:101A24009A619A619A61D3F810A0DBF81050186992
:101A34001690D4F8108020691790206918902069B6
:101A4400199018691A904FEA9C1C0A989961CEF370
:101A5400402E0CF0020C4EEA0C0C09F008094FEA77
:101A6400102E4CEA090C7F080EF004094CEA090C0C
:101A74001498996107F0100976004CEA090C06F0F5
:101A840020094CEA090C4FEA1019159809F040098D
:101A94004CEA090CAD094FEA50091698CAF3402ADA
:101AA40005F0020508F00808000A4AEA050A4AEAAD
:101AB400080A00F0040817984AEA080A4FEA50088E
:101AC400189808F010084AEA080A4FEA40081998DA
:101AD40008F020084AEA080A4FEA10181A9808F091
:101AE40040084AEA080A4FEA5008079809F08009B2
:101AF40008F0800849EA0C0C4AEA0808070748EA93
:101B04000C2903D599FA99F81FFA88F9079846071A
:101B14007FF5F7AE4FEAC92646EAD92609F4FC69EF
:101B240046EA09091FFA89F9EBE612F0010410D11B
:101B34000398FFF7AFF905460398FFF7AEF90138AC
:101B440000B26B1E00901BB2224621460398FFF799
:101B54006BFC00201DB0BDE8F08F00BF00F8FFFF54
:101B640000000240F7B50F1E064615461C4621DB51
:101B7400002A1FDBFFF78EF987421BDA3046FFF796
:101B84008CF9854216DA0C4B1B782BB1630003F0F9
:101B94003E0324F03E041C433946304600953B4640
:101BA4002A46FFF741FC308E214603B0BDE8F040E1
:101BB400FFF79AB903B0F0BD690000202DE9F04F9A
:101BC4009146BF4A89B01278BDF94860BDF84C40CF
:101BD40005462AB1620002F03E0224F03E0414439A
:101BE400002B07DA1FFA83F8C8F1000388441BB2FC
:101BF4000FFA88F12846CF1821EAE178FFF74AF96D
:101C04003FB2874203DD2846FFF744F90746BFB2D7
:101C1400A7EB08031BB2002E039305DAB2B25642B7
:101C2400914436B20FFA89F92846FFF736F94E4443
:101C340036B2864229EAE97903DD2846FFF72DF911
:101C44000646B2B2A2EB0906013A7B1E12B2414625
:101C540000921BB24A462846FFF7E6FB99499A4F81
:101C64004FF480338B61994B4FF480129A612A8E22
:101C7400D0B2120A4FEA422E0EF4007B4FEA022E33
:101C84004FEA420C0EF4806E4BEA0E0E0CF4807B8D
:101C94004FF0E06A4FF087694FF400084EEA0B0EEC
:101CA400C3F818A0C1F81890C7F81880C3F818E052
:101CB4004FEA620E0CF0200C0EF0100E4EEA0C0EE1
:101CC40002F0080C4EEA0C0E4FEA021C0CF4806C75
:101CD40092014EEA0C0E02F08002C1F818E0BA61DB
:101CE4004FF0020E4FF400329A614FEA002C9A61D1
:101CF4009A61C3F818E0C3F818E0C3F818A0C1F853
:101D04001890C7F818804FEA40284FEA40090CF4AD
:101D1400806C08F4007848EA0C0809F4807C48EAEE
:101D24000C084FEA600C09F020090CF0100CC3F801
:101D340018804CEA090C00F008084CEA080C4FEA39
:101D4400001808F4806880014CEA080C00F0800058
:101D5400C1F818C0B8619A619A619A611022C3F8F7
:101D640018E0C3F818E09A61039B36B2E2B2B342BA
:101D74004FEA1424B8BF03964FEA4420B8BF1E4666
:101D8400230203F48063BE4600F400706700184326
:101D940007F4807303430493631003F0100307F004
:101DA400200704F008003B430343200100F4806053
:101DB4000343A4014FEA422B1002059304F080036D
:101DC40000F4806006930BF4007B53004BEA000B95
:101DD40003F480704BEA000B501003F0200300F072
:101DE4001000184302F008031843130103F480633E
:101DF4009201184302F080030793344BB6B24FF0BC
:101E0400E0684FF087694FF4000A4FF400344FF054
:101E1400020C37B2002F2EDD039F049AC3F81880FA
:101E2400C1F81890CEF818A09A61059A8A61013F0A
:101E3400069ACEF818203FB2079A9C619C619C6177
:101E4400C3F818C0C3F818C0C3F81880C1F81890B4
:101E5400CEF818A0C3F818B08861CEF818209C6199
:101E64009C619C61C3F818C0C3F818C0002FD4D17A
:101E7400013EB6B2CDE701238B616B8CDA0707D53F
:101E8400AA8C41F226539A4216D16B7EDB0713D5F6
:101E94002846FEF7FFFF04462846FEF7FEFF0138FA
:101EA400631E00B2002212901BB21146284609B0EC
:101EB400BDE8F04FFFF7B8BA09B0BDE8F08F00BF36
:101EC40069000020000402400008024000000240B3
:101ED4002DE9F3410646808C984649F2273398420F
:101EE40005D1737E023B012B9CBF203109B2758959
:101EF4008FB293B2ED1B49F22734ED1AA042ADB272
:101F040008BF2035C2F1000408BFADB2A0453EDDD4
:101F14004245D8BF4FF0000807EB0804B8F1000FA2
:101F2400A4B2B6F822E0BCBFE418A4B21EF0010FBC
:101F340030D00B128DF8003013128DF801108DF88B
:101F440002308DF8032045F307236A460621332027
:101F54008DF804308DF80550FFF7ACF844F30723EF
:101F64006A46022137208DF800308DF80140FFF7D2
:101F7400A1F8B8F1000F07D1738CDB0704D54246F2
:101F840041461320FFF796F802B0BDE8F0814FF008
:101F94000008C1E747F2937290422ED01AD845F256
:101FA4002042904229D047F28372904231D0B0F55A
:101FB400AA7F19D1591E394489B23120FEF794FF02
:101FC40039463220FEF790FFE11B89B23320FEF739
:101FD4008BFFD9E749F2263290420ED009D8A0F5FA
:101FE400124025380128E5D9F18C41F0020189B26B
:101FF40010E04BF209539842F6D1F18C41F0020102
:1020040089B240F20140FEF76FFF214640F20440DE
:10201400DDE7F18C6120FEF767FF21466A20D6E7F1
:1020240030B501F0030311F0010114BFB0F90A2027
:10203400B0F90820437685B004468281002900F077
:102044009080B0F90820E281022B00F08D80032BF0
:1020540000F08C80012B14BF482328238DF80B300B
:10206400638CDA0542BF9DF80B2082F080028DF864
:102074000B209D0542BF9DF80B2082F040028DF895
:102084000B20180542BF9DF80B2082F008028DF842
:102094000B2013F0010FA38C00F0A58046F6140268
:1020A400934265D19DF80B2012F0800F14BF40239A
:1020B400002312F0400F14BF2021002102F0280257
:1020C40043F002030B438DF80B2000228DF80C2003
:1020D4008DF80D3003AA3B230321B6208DF80E3072
:1020E400FEF7E8FF2B232A222C21A285E3852186F3
:1020F4006286A286E38623870DF10B020121362036
:10210400FEF7D8FF9DF80B302385637EDA070ED5E2
:10211400638C5B050BD4A38DE28DA285E385E28EEF
:10212400638EE3866286A38E228FA286238720464F
:10213400FEF7B0FE05462046FEF7AFFE013800224A
:102144006B1E00B20090114620461BB2FFF76CF9DB
:102154000023B4F90A2019462046FFF7B9FE05B05A
:1021640030BDB0F90A206EE7982377E7F82375E7C6
:1021740041F66312934207D049F28142934203D05D
:1021840041F211529342ADD19DF80B20110644BF88
:1021940042F001028DF80B209DF80B20550644BF38
:1021A40042F002028DF80B2041F66312934206D1ED
:1021B4009DF80B3003F03F038DF80B3092E749F2A2
:1021C4008142934204D19DF80B3003F02F03F3E7CF
:1021D40041F21152934285D19DF80B3023F0100344
:1021E40063F03F03E8E747F29372934207D03CD889
:1021F400B3F5AA7F40D045F22042934273D14FF405
:102204000072A28540F20122E28540F20222228677
:102214004FF40472628640F21122A28640F2122226
:10222400E28640F2132222879DF90B20002A49F20C
:102234002632B4BF4FF400410021934250D045F2FE
:10224400204293420CBF4FF454534FF4D4431943E8
:102254004FF48060FEF748FE9DF80B3013F0400FFA
:1022640014BF4FF48071002125E049F226329342D5
:10227400C5D04BF20952C0E7372363863623A386C1
:102284003923E386382323872023A3852123E38569
:10229400222323869DF80B3013F0800F14BF4FF4D4
:1022A4000071002113F0400F14BF4FF4807300231A
:1022B400194341F028010120FEF716FE9DF80B306A
:1022C40013F0200F14BF08210021180748BF41F460
:1022D400805141F0300121850320FEF705FE14E70B
:1022E4004FF45453B3E72023A3852123E38522230A
:1022F4002386502363865123A3869DF90B10522312
:10230400E386532323870029B4BF4FF427414FF4B6
:102314001C5160209EE70000F0B585B004460D46D0
:10232400FFF71CF848F2573300269D422684A58403
:1023340000F0838100F2E58044F235539D4200F0C1
:10234400708100F28A80B5F5A95F00F0648168D8D5
:10235400B5F5AA7F00F0578106D8992D00F0798150
:10236400002525812E4611E041F205539D4200F0DF
:102374007C8141F211539D42F2D14FF4F073032753
:102384006381C14E67844FF4A0732381638CC3F3CC
:102394000033E3845EB10921BC48FEF7A9FF394646
:1023A4003046FEF7A5FF0621B948FEF7A1FF2368D2
:1023B40000219B6A2046984723680021DB6A204657
:1023C4009847A28C49F288439A4228D12368B14F96
:1023D4009E6800254FF6E0732A46294620463D7044
:1023E400B04701260DF10E032A46019600962946B0
:1023F4002046FFF79FF8BDF80E204FF61F739A4250
:102404000DD106230DF10E0231463A208DF80E301F
:10241400FEF750FE638C3E7023F01003638405B016
:10242400F0BD41F281539D4200F0708109D841F220
:1024340026539D4294D140F2134363840C27964E55
:10244400A4E741F202639D4200F0518142F253033A
:102454009D4285D141F217434BE147F283739D427C
:1024640000F0E5802CD845F208439D4200F0FD8041
:1024740010D845F210339D427FF472AF40F61363D7
:1024840063844FF4F07363814FF4A07323810227B4
:10249400824E7BE746F609039D4200F0EF8046F644
:1024A40014039D427FF45CAF40F2034363844FF412
:1024B400F07363814FF4A07323810327784E65E79B
:1024C40047F293739D4200F03F810AD847F2897323
:1024D4009D427FF445AF40F2134363844127714E1C
:1024E40054E747F296739D4200F01F8148F231038E
:1024F4009D427FF435AF41F21343638412276A4E41
:1025040044E749F238339D4200F0FA8032D849F268
:1025140027339D4200F0E0801AD849F202339D42ED
:1025240000F0EB8007D849F290039D427FF418AF86
:1025340041F2134383E049F220339D4200F0958039
:1025440049F225339D427FF40BAF4FF4885397E053
:1025540049F229339D4200F0D680F6D349F2313353
:102564009D4204D049F235339D427FF4F9AE4FF4D5
:10257400805385E049F288439D4227D849F2874336
:102584009D4280F0DE8049F281439D4200F0CA8082
:102594000BD8A5F51345403D012D3FF6E1AE40F2C1
:1025A400134363846527414EF0E649F286439D4216
:1025B4007FF4D6AE40F2034363844FF4F073638137
:1025C4004FF4A07323813B27394EDFE64BF20553CA
:1025D4009D4212D007D84AF611439D427FF4C0AE03
:1025E40041F2134385E04BF209539D4200F0AC8065
:1025F4004CF205539D427FF4B3AE41F20803638469
:10260400B0212C4836E041F202032B4863849C211C
:10261400FEF756FEBAE640F2134363840627274EBC
:10262400B4E64FF4805363849C212548F0E741F2DB
:102634000213638490212348EAE741F2034363844D
:102644004FF4F07363814FF4A073238102271E4E6D
:102654009CE641F2134363844FF4F07363814FF4B7
:10266400A07323811D27194E90E641F204031848F4
:102674006384D821FEF724FE002687E641F2021384
:102684006384CC211348F5E742550008D25B000867
:10269400CC5B0008690000204B5500087158000805
:1026A400C95B0008E855000830550008395B00088C
:1026B4003658000874580008E459000845550008C5
:1026C400805A000858550008295600081C5B000869
:1026D4002C5600080457000840F2034363844FF467
:1026E400C8736381F02323811E271D4E4EE640F2FA
:1026F4001353638403271B4E48E640F20343F8E771
:1027040040F21343F5E741F20363F2E740F2134367
:1027140063844FF4F07363814FF4A07323814527DE
:10272400114E33E640F20743F2E740F20343638479
:102734004FF4F07363814FF4A07323812B270B4E66
:1027440024E640F21343F2E74FF480536384C0213C
:102754000748FEF7B5FD4FF4C87363818CE700BFEB
:10276400D0570008EE570008F15700089E5B000898
:102774002459000870B5104E034600F130044FF69A
:10278400FF72012100251A805E60197299725D72D0
:102794000C33A342F7D1094B02861A7B80F89020B0
:1027A400DA7A80F891205B7B80F892304FF0FF3327
:1027B40080F8933070BD00BF00093D006C5C0008D8
:1027C4000148FFF7D7BF00BF6C00002030B595B0BB
:1027D4000022274B0192196C41F0805119641B6C43
:1027E400244903F080530193019B02920B6823F464
:1027F400404343F400430B600B680F9203F44043DF
:102804000293029B01230B9310230C9310934FF418
:10281400A873022411930425072308A808940E948E
:102824001295139301F0E0FA00B1FEE70F2303932E
:1028340005904FF480530790214603A8049406930F
:1028440001F082FC044600B1FEE701F017FD4FF4ED
:102854007A73B0FBF3F000F01BFD284600F03EFD58
:10286400224621464FF0FF3000F0D0FC15B030BDB9
:102874000038024000700040DFF834D0002103E04B
:102884000C4B5B58435004310B480C4B42189A4292
:10289400F6D30B4A02E0002342F8043B094B9A4268
:1028A400F9D300F0A1F902F0C5FA02F007FA704773
:1028B400008001201C5E00080000002010000020A1
:1028C400100000209C040020FEE700F084B870474C
:1028D40000F076B838B5044648B100F071F8054602
:1028E400FFF7F5FF00F06CF8401B8442F8D838BDC0
:1028F40086B00023052853D8DFE800F003111E2B0F
:1029040038450093274B28481A6B42F001021A639A
:102914001B6B03F001030093009B06B07047019307
:10292400204B22481A6B42F002021A631B6B03F01D
:1029340002030193019BF0E702931A4B1C481A6BA4
:1029440042F004021A631B6B03F004030293029B1C
:10295400E3E70393134B17481A6B42F008021A6318
:102964001B6B03F008030393039BD6E704930D4BFF
:1029740011481A6B42F010021A631B6B03F0100328
:102984000493049BC9E70593064B0C481A6B42F069
:1029940080021A631B6B03F080030593059BBCE75D
:1029A4000020BAE700380240000002400004024060
:1029B40000080240000C024000100240001C0240CB
:1029C40000F00CBC704708B500F0FCFB00F093FC71
:1029D400FFF7F8FF08BD08B500F0DAFBBDE80840D2
:1029E400FFF7F4BE30B5C36891FAA1F4B4FA84F4E5
:1029F40091FAA1F10325B1FA81F1640005FA04F416
:102A0400490023EA040302FA01F11943C16030BD0D
:102A14002DE9F041474B00F00F08C0F303140130D7
:102A24000E4601F0070753F8285003D143214248CA
:102A340000F0D8F82046FFF75BFF0446826895FA59
:102A4400A5F3B3FA83F395FAA5F103205B00B1FA79
:102A540081F100FA03F322EA03034A0000FA02F2C6
:102A64001343A360874236D8DFE807F01D1D021D1B
:102A7400B8F1070FC6F3062017D9626A2B0A93FA36
:102A8400A3F1B1FA81F193FAA3F34FF00F0EB3FA65
:102A940083F389000EFA01F19B0022EA010200FA95
:102AA40003F3134363623B461AE0226A95FAA5F3E3
:102AB400B3FA83F395FAA5F14FF00F0EB1FA81F151
:102AC4009B000EFA03F3890022EA030200FA01F3E1
:102AD40013432362E7E76A21174800F083F80023D1
:102AE400226895FAA5F0B0FA80F095FAA5F14FF0B6
:102AF400030EB1FA81F140000EFA00F0490022EA17
:102B040000028B40013F1343012F236005D8636803
:102B140032074CBF2B43AB436360C6F30112012A57
:102B240002D0022A18BF002229462046BDE8F041FF
:102B3400FFF758BF0C5D0008A75C0008431C06D1D2
:102B44007047984202D18968FFF762BF0C3191F94E
:102B540000305A1CF5D19221014800F043B800BF5F
:102B6400A75C000891F900305A1C01D1002070477D
:102B7400834201D1486870470C31F3E7431C01D00C
:102B8400FFF7F0BF002070474B6813B94FF0FF30D8
:102B94007047834202D191F9000070470C31F3E78A
:102BA40008B1FFF7F1BF4FF0FF307047884204D0FF
:102BB40018B100290CBF01460021084670470000E7
:102BC400034B1B6813B1034A10681847704700BFD2
:102BD4000001002024010020014801F075BB00BF62
:102BE40004010020FEE700000F49D1F8883043F4C7
:102BF4007003C1F888300D4B1A68002042F00102BE
:102C04001A6098601A6822F0847222F480321A6082
:102C1400074A5A601A6822F480221A60D8604FF07A
:102C240000638B60704700BF00ED00E00038024095
:102C340010300024436C2BB1027E012A02D1002102
:102C4400043818477047034604381B6C03B118470F
:102C54007047000010B5064C206808B101F062FB13
:102C6400606A18B1BDE8104001F05CBB10BD00BF44
:102C740028010020024B586808B101F053BB70478B
:102C840028010020024B986808B101F04BBB704743
:102C940028010020024BD86808B101F043BB7047FB
:102CA40028010020024B186908B101F03BBB7047B2
:102CB40028010020024B186A08B101F033BB7047A9
:102CC40028010020024B986A08B101F02BBB704721
:102CD40028010020C3689A4210B504461CD171B97A
:102CE400436E80F8581003B1984794F8882004F193
:102CF400680120460823BDE8104000F01FBB0023F4
:102D04000122C36580F85820C16D01440223683153
:102D1400BDE8104000F04EBB10BD036E10B5044674
:102D240043B190F85820012A04D1C26D12B1C16D8B
:102D340068309847022384F858300023E36520461E
:102D4400BDE8104000F072BBC36D1F2BDEBFC36D26
:102D54000133C36590F85820D2B2012A05D1C16D60
:102D640001440223683100F025BB7047002380F83A
:102D74008830704790F859300BB900F057BB704752
:102D8400014B186800F006BC80010020014B186854
:102D940000F06ABF80010020014B586800F0FABBC4
:102DA40080010020014B586800F05EBF80010020C4
:102DB400014B986800F0EEBB80010020014B98683D
:102DC40000F052BF8001002030B5044685B00028D1
:102DD40054D0484990F95800FFF7D0FE46490546BB
:102DE40094F95900FFF7CAFE0146002846D0002D89
:102DF40044D02846FFF7DAFE206000283ED03F4B3F
:102E040098423DD103F5943300215A6A42F01002EE
:102E14005A625A6A22F010025A6201915A6C42F0C4
:102E240010025A645B6C84F8441003F0100301939D
:102E3400019B252384F85A302E4994F95800FFF752
:102E44007DFE94F959002C49FFF778FE2C4B94F839
:102E54004420251D43F8225023686360A36CA360BB
:102E6400E36CE360236D2361636D63610C23A361F1
:102E74000023E3612362284601F021FC05B030BD44
:102E8400204B984219D103F5FA331A6A42F40032FE
:102E94001A621A6A22F400321A62002202921A6C2E
:102EA40042F400321A641B6C03F400330293029B55
:102EB400012384F844302623BCE7134B9842BBD14A
:102EC40003F592335A6A42F020025A625A6A22F097
:102ED40020025A62002203925A6C42F020025A6481
:102EE4005B6C03F020030393039B052384F84430B5
:102EF40047239FE7245C0008DC5B000800100140C6
:102F04002C020020004400400014014008B5074B87
:102F140090F8442053F8220001F024FD00F0220030
:102F2400A0F122035842584108BD00BF2C020020E2
:102F340008B5074B90F8442053F8220001F012FD25
:102F440000F02100A0F121035842584108BD00BF00
:102F54002C02002070B50E46054610B94FF0FF3024
:102F640070BDFFF7D3FF04460028F7D12946064B6E
:102F740011F8452F327095F84400012253F82000CF
:102F840001F0EAFB204670BD2C02002038B50D4646
:102F9400044600B3FFF7BAFFE8B994F844300E4A88
:102FA40042F823500D4A014642F8234094F95A004E
:102FB400012200F02BF994F95A0000F05BF994F81F
:102FC4004400074B04F1450153F820000122BDE8F9
:102FD400384001F0C1BB38BD8C010020B401002091
:102FE4002C02002010B5044600B390F84430104A77
:102FF40042F823100F4A002142F82300022290F9DC
:103004005A0000F003F994F95A0000F033F9636EA2
:10301400B4F86A1094F8440013FA81F1064B0122C3
:1030240053F82000BDE8104001F077BB10BD00BF8D
:10303400DC010020040200202C02002010B548B15D
:103044000649002351F82340A042DAB203D00133E9
:103054000A2BF7D10A22104610BD00BF2C02002013
:1030640010B5FFF7EBFF092808D8054B054A53F8BC
:10307400203052F82000BDE81040184710BD00BFB2
:103084008C010020B401002010B5FFF7D7FF0928F8
:1030940018D80D4B53F820400C4B53F820302046E1
:1030A400984701300ED0636EB4F86A1094F8440067
:1030B40013FA81F1064B012253F82000BDE81040B9
:1030C40001F02BBB10BD00BF04020020DC01002076
:1030D4002C02002003681A68D20782B002D55B680C
:1030E400019308E01A689007F9D41A685107F6D4D6
:1030F4001A681207F3D4019B02B0704708B5252063
:1031040000F0DCF8024B1868BDE8084001F082BB0F
:103114002C02002008B5262000F0D0F8024B586895
:10312400BDE8084001F076BB2C02002008B547201A
:1031340000F0C4F8024B5869BDE8084001F06ABBCE
:103144002C0200207047000038B50E4A0E4B05468D
:1031540018784FF47A73B3FBF0F31068B0FBF3F014
:1031640000F096F8044658B90F2D09D802462946AE
:103174004FF0FF3000F04AF8044B20461D6038BD84
:10318400012038BD04000020080000200C000020AD
:1031940008B50B4B1A6842F400721A601A6842F4BC
:1031A40080621A601A6842F480721A60032000F088
:1031B4001BF80F20FFF7C8FFFFF7C4FF002008BD6E
:1031C400003C0240034A044B11681B780B44136013
:1031D400704700BF9804002008000020014B1868C5
:1031E400704700BF98040020074AD36823F4E063C3
:1031F4001B041B0C43F0BF63000243F4003300F4D0
:10320400E0600343D360704700ED00E0174B30B536
:10321400DC68C4F30224C4F10703251D042B28BF72
:103224000423062D4FF0010505FA03F303F1FF33E0
:103234008CBF033C00241940A14005FA04F4013C6E
:103244002240002842EA01024FEA0212ADBF00F117
:10325400604000F00F00064B00F56140B5BFD2B2EC
:10326400D2B21A5480F8002330BD00BF00ED00E054
:1032740014ED00E0002808DB4209012300F01F00E0
:1032840003FA00F0014B43F82200704700E100E02C
:103294000138B0F1807F0AD2064B074A5860F0210A
:1032A40082F823100020072298601A6070470120DA
:1032B400704700BF10E000E000ED00E0002809DBEB
:1032C4004309012200F01F0002FA00F06033024AB1
:1032D40042F82300704700BF00E100E0044B1A6885
:1032E40004280CBF42F0040222F004021A60704762
:1032F40010E000E0704708B5FFF7FCFF08BD90F848
:103304003530022B03D080234365012070470268C7
:10331400052380F83530136823F00103136000207F
:103324007047000008B5044B5969014202D0586146
:1033340001F0E4FC08BD00BF003C014037B590F843
:103344003D40282C34D1002930D0002A2ED090F8CA
:103354003C40012C2CD00568012480F83C402C68AA
:10336400E4075EBF2C6844F001042C602C6824F44C
:1033740000642C60292480F83D40202480F83E40DD
:10338400002404644285C362438D019403856B6900
:103394000193AB690193019B6B68416243F4E06361
:1033A40080F83C406B60204603B030BD0120FBE751
:1033B4000220F9E737B590F83D40282C34D1002994
:1033C40030D0002A2ED090F83C40012C2CD0056837
:1033D400012480F83C402C68E4075EBF2C6844F06C
:1033E40001042C602C6824F400642C602A2480F8E6
:1033F4003D40202480F83E40002404644285C3629A
:10340400438D019403856B690193AB690193019B1F
:103414006B68416243F4E06380F83C406B60204693
:1034240003B030BD0120FBE70220F9E790F83D30FE
:10343400202B14D1282380F83D3003681A68D20762
:103444005EBF1A6842F001021A601A6842F4806290
:103454001A605A6842F440725A6000207047022091
:1034640070477047704770477047704790F83D3019
:10347400293B012B10B50368044639D800220263A6
:10348400282280F83D201A6822F400621A605A68E3
:1034940012F4006254D05A68606B22F400625A60DD
:1034A40090F83530012B394B31D00365FFF727FFF6
:1034B40050B12268606B136823F00103136020236A
:1034C40084F83D30036D984794F83D30282B0ED195
:1034D400236C5B070BD52E4BE3622022002323636E
:1034E400204684F83D2084F83E30FFF716FC10BDDA
:1034F40090F83D20602A05D05A6812055CBF20224E
:1035040080F83D200022226384F83E20BBE7A06BB4
:103514000365FFF7F4FE0028D6D0226853695806E5
:1035240004D5636A1269591C61621A702268A06B1F
:10353400136823F001031360202384F83D30C1E7AE
:1035440094F83D10602914D1202184F83D102264A0
:103554005A69510604D5626A1B69511C6162137071
:103564002268136823F0010313602046FFF77DFFF0
:10357400AAE75A69520604D5626A1B69511C616242
:1035840013702046FFF7F6FB9EE700BFA13D00083D
:103594000000FFFF0368F0B59D6959695A6890F807
:1035A4003E40E4B2102C8DB002D0402C40F0558245
:1035B40011F0011F66D0970564D590F83E40402C69
:1035C40043D1046D002C3BD1446C04F0FE041C6117
:1035D400984E994C2E400C40002E00F09F81974D40
:1035E4000D40002D00F06681550540F16381002CEB
:1035F40040F0608190F83D20058D90F83E10C46A3B
:10360400D2B2C9B2002D40F00581212A40F00481D4
:10361400042C00F06C81082C00F0698114F5803FC3
:1036240000F065815A6822F4E0625A601123036352
:1036340080F83E50202380F83D30FFF712FFF6E07B
:10364400446C44F00104E4B2C1E70469B4F5804F6A
:1036540005D190F83D40212C446CF2D1B5E7046DBE
:1036640034B9446CE41104F0060444F0F004AEE709
:10367400046D012CACD1446CE41104F0060444F054
:10368400F104A4E76E4C0C401CB1960501D5446CC2
:10369400D9E76C4C0C40002C9AD0940598D590F83E
:1036A4003E40C66AD0F830E090F83D70222FE4B274
:1036B40040F0A880076D47B9402C06D101975C699A
:1036C40001949C690194019C82E7046D8CB907699B
:1036D400B7F5404F0DD102945C6902949C69029441
:1036E400029C1C6844F480741C60046D01340465FD
:1036F4006EE7448DA4B254B903945C6903949C6945
:103704000394039C1C6844F400741C6019E0448D09
:10371400A4B2012C42D116F5803F1BD11C6824F4BD
:1037240080641C605C6814F400640CD01C6824F48D
:1037340080641C60002404945C6904949C6904946F
:10374400049C0024D3E705945C6905949C69059462
:10375400059CD7E7042E15D0082E13D0BEF1120F06
:1037640010D0C46A022C1C6814BF24F4806444F48E
:1037740080641C60002406945C6906949C69069429
:10378400069CDEE71C6824F480641C600024079413
:103794005C6907949C690794079CB3E7448DA4B2C1
:1037A400022C1CD1C46A022C1C681DBF24F4806442
:1037B4001C601C6844F4806418BF44F400641C60FA
:1037C4005C68270542BF5C6844F480545C60002454
:1037D40008945C6908949C690894089CB1E71C6887
:1037E40044F480641C605C68260542BF5C6844F451
:1037F40080545C60002409945C6909949C69099470
:10380400099C9EE700240A945C690A949C690A94C2
:103814000A9CDDE6212A03D0402908D1222A06D1B8
:10382400428D92B282B95A6822F480625A600DB015
:10383400F0BD00BF0400100004000100800001007E
:10384400080001000200010090F83E20402A27D120
:10385400026D7AB9C26C012A826C05D1D2B21A61A6
:10386400036D02330365E2E7C2F307221A61036DB5
:103874000133F7E7026D012A02D1826CD2B2F5E777
:10388400026D022AD3D190F83D20222A04D11A686D
:1038940042F480721A60CAE790F83D20212AC6D10A
:1038A400426A511C416212781A61438D013B9BB2FA
:1038B4004385BCE7002CBAD09405B8D5C16A90F80A
:1038C4003D20212AB3D1428D92B2002AE8D10429A5
:1038D4000DD008290BD011F5803F08D0596821F488
:1038E400E06159601123036380F83E20A2E65A6820
:1038F40022F4E0625A601A6842F400721A600023EB
:103904002022036380F83D2090F83E2080F83E306A
:10391400402A7FF492AEFFF7A6FD88E7904D0D4054
:10392400002D41D051053FD5002C3DD190F83D20CC
:10393400222A7FF47CAF428D92B2032A13D9426AC1
:103944001B69511C41621370438D013B9BB243853B
:10395400438D9BB2032B7FF46AAF0268536823F450
:103964008063536063E7012A3FF661AF1A6822F46B
:1039740080621A605A6822F4E0625A60426A1B69E3
:10398400511C41621370438D013B9BB2438520233C
:1039940080F83D30046390F83E3080F83E40402B80
:1039A40058D1FFF761FD42E7002C3FF440AF970583
:1039B4007FF53DAFC16A428D92B2042A426A08D1B2
:1039C400596821F480615960511C1B69416213706C
:1039D4006BE7448DA4B2032C08D1596821F48061AB
:1039E4005960196821F480611960EDE7448DA4B22F
:1039F400022CE9D10139012919689DBF21F48061A4
:103A04001960196841F4007198BF41F4807119601C
:103A14001B69511C41621370438D013B9BB243856A
:103A2400436A5A1C4262026812691A70438D026822
:103A3400013B9BB24385536823F4407353602023B6
:103A440080F83D300023036390F83E2080F83E3038
:103A5400402AA5E7FFF706FDE9E6424C0C4074B1A5
:103A640096050CD599699B6981F004011D06C1F383
:103A7400800154BF8289028BFFF72CF9D7E63A4CB8
:103A84000C40002C74D0940572D590F83D205968F0
:103A940021F4E061596000210B9159690B91196877
:103AA40041F0010119600B99196821F480611960D2
:103AB40059680905D2B20CD590F83D10222903D0DB
:103AC40090F83D102A2929D1816B0968496889B287
:103AD4004185418D89B2E1B159694F0708D5416AE1
:103AE4001B694C1C44620B70438D013B9BB24385A4
:103AF40001684B695E0608D5436A09695C1C446227
:103B04001970438D013B9BB24385036C43F004035E
:103B14000364036C23B1FFF7A9FC88E6416BD4E787
:103B2400A2F1280102290AD8104AC26220220363A2
:103B340080F83D2080F83E30FFF7EFF877E6036B1E
:103B4400222B02D0222A7FF472AE002320220363A8
:103B540080F83D2080F83E30FFF7F6F867E600BFB6
:103B64004000010002000100100001000000FFFFFE
:103B7400394E3A4C2E400C40002E36D0384D0D4074
:103B84003DB3550525D524BB90F83D10428D92B226
:103B9400C9B2002A3FF44BAE426A541C4462127804
:103BA4001A61428D013A92B24285428D92B2002A44
:103BB4007FF43DAE29297FF43AAE5A6822F480623C
:103BC4005A6021230363282380F83D30FFF7CEF8A1
:103BD4002DE6002C3FF42BAE94057FF528AE428DE4
:103BE40092B2002A7FF45CAE21E61E4D0D4035B33F
:103BF400510524D51CBB90F83D20418D89B2D2B229
:103C040000293FF414AE416A1B694C1C44620B70DA
:103C1400438D013B9BB24385438D9BB2002B7FF4C4
:103C240006AE2A2A7FF403AE0268536823F4806345
:103C3400536022230363282380F83D308CE7002C53
:103C44003FF4F5AD92057FF5F2AD428D92B2002AB4
:103C54003FF4EDAD426AB7E6040010000400010031
:103C64008000010040000100F8B50368494A5E691C
:103C74005D681642044608D0E80506D5226C42F079
:103C8400010222646FF480725A6116F4813F08D0F5
:103C9400E90506D5226C42F0020222646FF4007238
:103CA4005A6116F4823F36D0EA0534D594F83E7052
:103CB400618D94F83D20206B202F89B2D2B258D167
:103CC400002956D102F0F701212903D0282A50D126
:103CD40021284ED194F83D20E16A0429D2B201D0C2
:103CE40008292CD1282A2AD12B4AE2625A6822F4C4
:103CF400E0625A606FF480625A611A6822F480624A
:103D04001A60002320222363204684F83D2084F88F
:103D14003E30FFF702F816F4843F09D0EB0507D5CF
:103D2400236C43F00803236423686FF400625A6130
:103D3400236C73B32046BDE8F840FFF797BB212AF4
:103D440023D11549E1622263202284F83D20002218
:103D540084F83E205A6822F4E0625A606FF480626C
:103D64005A611A6822F480621A602046FEF7FEFF48
:103D7400D1E7226C42F00402226494F83E20102A17
:103D840002BF1A6842F400721A606FF480625A61CA
:103D9400C1E7F8BD000101000000FFFF806B08B51A
:103DA4000368416B1A6822F480621A60002242851B
:103DB4000A65816B0A6590F83D1060294FF0200177
:103DC40080F83D1080F83E2007D102641A6822F082
:103DD40001021A60FFF749FB08BD1A6822F00102CC
:103DE4001A60FEF7C7FF08BD2DE9F341044618B970
:103DF400012002B0BDE8F0810368DD0710D4236818
:103E0400980758D423681A0700F19A8023685B073F
:103E140000F1B880A269002A40F019810020E8E787
:103E2400A64B9A6802F00C02042A07D09A6802F0A2
:103E34000C02082A0AD15B68590207D59F4B1B68FC
:103E44009A03DCD56368002BD9D1D1E763689B4D15
:103E5400B3F5803F11D12B6843F480332B60FFF717
:103E6400BDF9964D06462B689B03C8D4FFF7B6F9F7
:103E7400801B6428F7D90320BBE7B3F5A02F04D136
:103E84002B6843F480232B60E5E72A6822F4803210
:103E94002A602A6822F480222A60002BDFD1FFF7EF
:103EA4009DF906462B689F03A9D5FFF797F9801B58
:103EB4006428F7D9DFE7814B9A6812F00C0F07D01A
:103EC4009A6802F00C02082A11D15B685E020ED4D3
:103ED4007A4B1A68950702D5E268012A88D11A68D4
:103EE400216922F0F80242EAC1021A608AE7E26814
:103EF400734BB2B101221A60FFF770F96F4D064699
:103F04002B68980707D52B68226923F0F80343EA46
:103F1400C2032B6076E7FFF761F9801B0228EFD913
:103F2400A9E71A60FFF75AF9644D06462B6899070A
:103F34007FF568AFFFF752F9801B0228F6D99AE79C
:103F44006269604B7AB101221A60FFF747F95B4D51
:103F540006466B6F9F073FF559AFFFF73FF9801B8C
:103F64000228F6D987E71A60FFF738F9534D064659
:103F74006B6F98077FF54AAFFFF730F9801B022873
:103F8400F6D978E74D4B1A6C12F0805228D1019281
:103F94001A6C42F080521A641B6C03F08053019334
:103FA400019B0126484D2B68D9051BD5A368434DB9
:103FB400012B27D12B6F43F001032B67FFF70EF979
:103FC4003E4D074641F288382B6F9B0739D5002EAA
:103FD4003FF420AF394A136C23F08053136419E77C
:103FE4000026DFE72B6843F480732B60FFF7F6F8B5
:103FF40007462B68DA05D9D4FFF7F0F8C01B02286E
:10400400F7D938E7052B04D12B6F43F004032B6752
:10401400D0E72A6F22F001022A672A6F22F00402F5
:104024002A67002BCAD1FFF7D9F841F2883807462E
:104034002B6F9807CBD5FFF7D1F8C01B4045F7D9B4
:1040440019E7FFF7CBF8C01B4045BDD913E71B4D5B
:10405400AB6803F00C03082B3FF4CAAE1B4E0023DD
:10406400022A336034D1FFF7B9F807462B68990167
:104074001ED4226AE3691343626A43EA8213E26A42
:1040840043EA0263A26A0D4C5208013A43EA02432E
:104094006B6001233360FFF7A1F8054623689A019A
:1040A4003FF5BCAEFFF79AF8401B0228F6D9E2E6CA
:1040B400FFF794F8C01B0228D8D9DCE60038024088
:1040C40000004742800E47420070004060004742B3
:1040D400FFF784F804462B689B017FF59FAEFFF73A
:1040E4007DF8001B0228F6D9C5E600BF134908B5C0
:1040F4008B6803F00C03042B03D0082B03D0104867
:1041040008BD104808BD4A684B68496813F4800329
:1041140014BF0C480A48C1F3881118BF002302F0E9
:104124003F02A1FB0001FCF771F8044B5B68C3F389
:10413400014301335B00B0FBF3F008BD00380240DB
:104144000024F40000127A002DE9F0410D460446E3
:1041540010B90120BDE8F081444B1A6802F00F0247
:104164008A4228D321688F072DD4C80740D43F4BF7
:104174001A6802F00F02954266D3226851076CD484
:10418400130707D53A4A2169936823F4604343EA45
:10419400C1039360FFF7AAFF354B364A9B68C3F30C
:1041A4000313D35CD840344B18600F20FEF7CCFFC8
:1041B4000020BDE8F081CAB21A701B6803F00F0337
:1041C4009942C6D1CEE72A4B11F0040F1EBF9A685C
:1041D40042F4E0529A600E0742BF9A6842F4604289
:1041E4009A609A68A06822F0F00202439A60BCE7E1
:1041F40062681F4B012A1DD11B6813F4003FA8D02D
:104204001B4EB36823F003031343B360FEF7E6FFCA
:1042140041F288380746B368626803F00C03B3EBD5
:10422400820FA4D0FEF7DAFFC01B4045F3D9032068
:10423400BDE8F081911E01291B6802D813F0007FAC
:10424400DDE713F0020FDAE7EAB21A701B6803F035
:104254000F039D427FF47DAF8FE70549E0688B68CB
:1042640023F4E05303438B608AE700BF003C024021
:10427400003802404C5D000804000020014B18681F
:10428400704700BF04000020044B054A9B68C3F339
:104294008223D35C034A1068D84070470038024038
:1042A4005C5D000804000020044B054A9B68C3F3CE
:1042B4004233D35C034A1068D84070470038024048
:1042C4005C5D0008040000200368DA68D20510B5BC
:1042D40004460AD59B68D90407D5FEF771FC226809
:1042E400D368DBB263F4C073D3602368DA689205E1
:1042F4000BD59B689B0408D5204600F00FF8226874
:10430400D368DBB263F42073D360034B4FF4003201
:104314005A610123637710BD003C01407047704728
:104324007047704703681A69910710B504460ED5A3
:10433400DA6892070BD56FF002021A619B690122B9
:104344009B07027677D0FFF7EAFF002323762368E2
:104354001A69500710D5DA6851070DD56FF00402B9
:104364001A619B69022213F4407F2276204668D0AA
:10437400FFF7D5FF0023237623681A6912070FD5A8
:10438400DA6810070CD56FF008021A61DB690422A1
:104394009907227620465AD0FFF7C1FF00232376DF
:1043A40023681A69D20610D5DA68D0060DD56FF0E5
:1043B40010021A61DB69082213F4407F227620463A
:1043C4004BD0FFF7ACFF0023237623681A69D1078B
:1043D40008D5DA68D20705D56FF001021A612046C4
:1043E400FEF731FC23681A69100608D5DA6811064D
:1043F40005D56FF080021A61204600F036F8236874
:104404001A69520608D5DA68500605D56FF04002DD
:104414001A612046FFF785FF23681A69910622D5A1
:10442400DA6892061FD56FF0200220461A61BDE8B3
:10443400104000F019B8FEF7FDFB2046FFF770FFAF
:1044440083E7FEF7F7FB2046FFF76AFF92E7FEF7E4
:10445400F1FB2046FFF764FFA0E7FEF7EBFB2046E5
:10446400FFF75EFFAFE710BD704770470368DA6877
:1044740022F49072DA605A6922F001025A61202310
:1044840080F83A30704700002DE9F0470668C268AA
:104494003369C16923F44053134333610446836889
:1044A4000069F2680343606922F41642034322F070
:1044B4000C020B431343F3607369A26923F4407342
:1044C4001343B1F5004F73617A4B7CD19E4203D004
:1044D40003F580639E4244D1FFF7E6FE192505FBF0
:1044E40000F360684FF064094000B3FBF0F3B3FBE2
:1044F400F9F34FEA0318FFF7D7FE636868435B00DC
:10450400B0FBF3F7FFF7D0FE636868435B00B0FBD2
:10451400F3F3B3FBF9F309FB1373DB003233B3FB9F
:10452400F9F35B0003F4F877FFF7BEFE62686843B3
:104534005200B0FBF2FAFFF7B7FE636868435B0012
:10454400B0FBF3F3B3FBF9F309FB13A3DB00323342
:10455400B3FBF9F303F0070343443B44B360BDE802
:10456400F087FFF791FE192505FB00F360684FF013
:1045740064094000B3FBF0F3B3FBF9F34FEA03180B
:10458400FFF782FE636868435B00B0FBF3F7FFF755
:104594007BFE636868435B00B0FBF3F3B3FBF9F3A2
:1045A40009FB1373DB003233B3FBF9F35B0003F451
:1045B400F877FFF769FE626868435200B0FBF2FACD
:1045C400FFF762FEB9E79E4202D03B4B9E4240D1C8
:1045D400FFF76AFE676819254FF0640905FB00F3CD
:1045E400BF00B3FBF7F3B3FBF9F31F01FFF75CFE66
:1045F400636868439B00B0FBF3F8FFF755FE6368FC
:1046040068439B00B0FBF3F3B3FBF9F309FB13839B
:104614001B013233B3FBF9F303F0F008FFF744FE58
:10462400626868439200B0FBF2FAFFF73DFE6368EC
:1046340068439B00B0FBF3F3B3FBF9F309FB13A34B
:104644001B013233B3FBF9F303F00F0343EA08030E
:1046540083E7FFF719FE676819254FF0640905FB26
:1046640000F3BF00B3FBF7F3B3FBF9F31F01FFF74C
:104674000BFE636868439B00B0FBF3F8FFF704FE8E
:10468400636868439B00B0FBF3F3B3FBF9F309FBE6
:1046940013831B013233B3FBF9F303F0F008FFF784
:1046A400F3FD626868439200B0FBF2FAFFF7ECFD99
:1046B400BDE700BF0010014000140140704710B571
:1046C400044640B390F8393003F0FF021BB980F878
:1046D4003820FFF7F3FF2268242384F83930D368A5
:1046E40023F40053D3602046FFF7CEFE23681A69F3
:1046F40022F490421A615A6922F02A025A61DA6855
:1047040042F40052DA6000202023E06384F8393058
:1047140084F83A3010BD012010BD90F83930202BB8
:1047240018D1A9B1A2B190F83830012B12D0C284AB
:104734000162828400230168C363212280F8392046
:10474400CA6880F8383042F08002CA601846704760
:10475400012070470220704790F83A30202B1CD17A
:10476400C9B1C2B190F83830012B16D0C285828508
:1047740000232222C36380F83A20026881625169CF
:1047840080F8383041F001015161D16841F49071F1
:10479400D16018467047012070470220704790F896
:1047A4003A30222B10B532D1836801690268B3F51F
:1047B400805F836A1FD15268C9B9C2F3080223F823
:1047C400022B8362C48D013CA4B2C4856CB9036816
:1047D400DA6822F49072DA605A6922F001025A61AE
:1047E400202380F83A30FEF73BFC002010BDD2B203
:1047F40023F8012BE5E721B9591C526881621A702C
:10480400E0E75268591C816202F07F02F7E7022058
:1048140010BD000003681A68D96870B5160704460D
:104824005D6907D196065AD58D0658D5BDE8704006
:10483400FFF7B5BF15F0010502D111F4907F4ED0FA
:10484400D30705D5CE0542BFE36B43F00103E36311
:10485400500704D51DB1E36B43F00203E3639307F0
:1048640004D51DB1E36B43F00403E363160704D5D9
:104874001DB1E36B43F00803E363E36B002B66D0E5
:10488400950604D5880602D52046FFF788FF2368DD
:104894005D69E26B1107204602D415F040051AD079
:1048A400FFF7E4FD23685A69520610D55A69606B14
:1048B40022F040025A6150B1254B0365FEF71FFDFB
:1048C400002844D0606BBDE87040036D1847204653
:1048D400FEF700FC70BDFEF7FDFBE56370BD160638
:1048E40027D50D0625D594F83920212A2FD1A26881
:1048F400B2F5805F226A17D11188C1F308015960AB
:10490400216979B902322262E28C013A92B2E284DC
:10491400EAB9DA6822F08002DA60DA6842F040022A
:10492400DA6070BD0132EEE7511C216212785A60E0
:10493400EAE750060BD54A0609D5DA6822F04002A8
:10494400DA60202384F839302046FEF79DFB70BDE1
:104954005949000808B5806B0023C385C384FEF75A
:10496400B9FB08BD90F8392090F83A00104370471D
:10497400B0F86A30013303F03F03A0F86A30B0F8AE
:104984006A30B0F868009BB298424FF0FF3018BF0D
:1049940000207047B0F8F430B0F8F600181A00F0B0
:1049A4003F007047B0F8F430B0F8F6209BB2934261
:1049B4001ABFD0F8F030985C4FF0FF307047B0F871
:1049C400F420B0F8F63092B29A421FBFD0F8F0202B
:1049D400D25C013303F03F031ABFA0F8F63010464F
:1049E4004FF0FF30704713B50DF107010446FEF791
:1049F400B1FA90B9B4F86030B4F86220013303F02E
:104A04003F03934209D0B4F86020E16D9DF807009C
:104A140092B29BB28854A4F8603002B010BD00007A
:104A240010B5B0F8FC4001230374E31803F03F030E
:104A3400B0F8FE2092B29342FAD0D0F8F820115583
:104A440000F19404A0F8FC302046FEF771FA18B97E
:104A540002492046FEF7C6FA012010BD7549000838
:104A6400037C33B1B0F8FC20B0F8FE309BB29A421C
:104A7400FAD1704700F11103C0F8F03000F151028F
:104A84000023A0F8F430A0F8F630C0F8F820A0F81D
:104A9400FC30A0F8FE30704738B5002343604FF473
:104AA4007A7383600F4B03600F4B984204460D46A4
:104AB4000BD10E4B1A785B7880F8ED2080F8EC303F
:104AC4002046FFF7D7FF204638BD09492846FEF7A0
:104AD40067F8084984F8ED002846FEF761F884F881
:104AE400EC00EDE7D85D0008540200206C5C00087F
:104AF400DC5B0008245C000802F00703023BDBB225
:104B0400042B10B5C0F8DC1098BF1D4980F80021B3
:104B140098BFCB5C02F0300188BF002330290446E3
:104B240015D14FF4C061C4F8E810013312F0080243
:104B340018BF4FF40052082BC4F8E42010D0092BFE
:104B44001BD040F25B110F48FEF74CF80BE012F05B
:104B5400200102D04FF48061E5E7C0F8E810E5E7F2
:104B64000023C4F8E03094342046FEF72DF92046A3
:104B74000549BDE81040FEF709BA4FF48053F0E749
:104B8400645D0008695D0008EB49000801490248BA
:104B9400FFF782BF00440040540200202DE9F04199
:104BA40006460D4601EB02080C464445A4EB0507F6
:104BB40007D0336814F8011B1B6830469847002857
:104BC400F3D13846BDE8F08170B505460C46084679
:104BD40049B1FBF713FB2B680246214628465B6864
:104BE400BDE87040184770BD08B5FFF7EDFF08BD7C
:104BF40010B50446FDF76CFEE06023682046DB68D0
:104C04009847002808DAFDF763FEE368C01AA36832
:104C14009842F2D34FF0FF3010BD2DE9F0418046A9
:104C24000D468F180C46BC42A4EB050607D040463F
:104C3400FFF7DEFF002802DB04F8010BF3E7304640
:104C4400BDE8F0812DE9F8438046894616461C46A6
:104C54007BB1D7181546AF42A5EB060409D04046F0
:104C6400FFF7C6FF002804DB484502D005F8010B16
:104C7400F1E72046BDE8F883836810B5044613B114
:104C8400032201469847204610BD000008B5044B96
:104C94002BB10448FFF77EFE08B1AFF3008008BDD6
:104CA4000000000054020020FEE7704708B503200E
:104CB400FEF79AFABDE80840FDF707BE08B5FFF70E
:104CC400F4FFFBF73BFC044CFBF728FC002CFBD067
:104CD400FFF7DCFFF8E700BF914C0008064838B541
:104CE400A0F5A074A0F114051038FFF7C5FFA54284
:104CF4002846F7D138BD00BF9804002000230128BE
:104D040003F1010202D040081346F8E71421DBB294
:104D14004B43044A181D1044816811B11A441369A5
:104D240018477047580300200120FEF7FBBA022001
:104D3400FEF7F8BA0420FEF7F5BA0820FEF7F2BA37
:104D44001020FEF7EFBA38B505242025A8B2FEF7E7
:104D5400E9FA013C4FEA4505F8D138BD38B50624D7
:104D64004FF48065A8B2FEF7DDFA013C4FEA450531
:104D7400F8D138BD224B234906221A7007221A752E
:104D8400082283F82820092283F83C200A2283F889
:104D940050201722002083F8642083F8782083F8B9
:104DA4008C2083F8A02083F8B420282283F8C8201C
:104DB40083F8DC2083F8F02083F8042183F8182199
:104DC40083F82C21D860186258639864D8651867F2
:104DD400C3F88400C3F89800C3F8AC00C3F8C0005B
:104DE400C3F8D400C3F8E800C3F8FC00C3F810010A
:104DF400C3F82401C3F83801034A00F007B800BF20
:104E040058030020E14C0008000000200B46014636
:104E1400184600F001B8000010B5054C13462CB13B
:104E24000A4601460220AFF3008010BD204610BDA3
:104E34000000000070B50D4E0D4CA41BA4100025FD
:104E4400A54209D10B4E0C4C00F018F8A41BA41079
:104E54000025A54205D170BD56F825309847013587
:104E6400EEE756F8253098470135F2E7005E000872
:104E7400005E0008005E0008185E0008F8B500BF78
:104E8400F8BC08BC9E467047F8B500BFF8BC08BC27
:044E94009E4670477F
:104E980043414C454E4441520054687572736461F5
:104EA80079202D2032382053657074656D626572E3
:104EB80020323031370053554E20204D4F4E2020A0
:104EC8005455452020574544202054485520204615
:104ED8005249202053415400202020202020202007
:104EE80020202020202020202020202020202020BA
:104EF8002020312020202032200020332020202094
:104F08003420202020352020202036202020203743
:104F18002020202038202020203920003130202057
:104F28002031312020203132202020313320202010
:104F38003134202020313520202031362000203106
:104F480037202020313820202031392020203230CD
:104F580020202032312020203232202020323300FD
:104F680020323420202032352020203236202020C4
:104F780032372020202020202020323920202033C2
:104F8800300032380000000000003E5B4F5B3E3EC0
:104F98006B4F6B3E1C3E7C3E1C183C7E3C181C57DD
:104FA8007D571C1C5E7F5E1C00183C1800FFE7C381
:104FB800E7FF0018241800FFE7DBE7FF30483A0650
:104FC8000E2629792926407F050507407F05253FBC
:104FD8005A3CE73C5A7F3E1C1C08081C1C3E7F14A8
:104FE800227F22145F5F005F5F06097F017F0066F2
:104FF80089956A606060606094A2FFA29408047E4C
:10500800040810207E201008082A1C08081C2A08FA
:10501800081E101010100C1E0C1E0C30383E3830B4
:10502800060E3E0E06000000000000005F000000B3
:1050380007000700147F147F14242A7F2A122313E1
:1050480008646236495620500008070300001C22F5
:1050580041000041221C002A1C7F1C2A08083E0827
:105068000800807030000808080808000060600028
:1050780020100804023E5149453E00427F4000721C
:10508800494949462141494D331814127F10274593
:105098004545393C4A4949314121110907364949B1
:1050A8004936464949291E000014000000403400D2
:1050B8000000081422411414141414004122140886
:1050C80002015909063E415D594E7C1211127C7F3E
:1050D800494949363E414141227F4141413E7F494C
:1050E8004949417F090909013E414151737F080837
:1050F800087F00417F41002040413F017F08142282
:10510800417F404040407F021C027F7F0408107F9F
:105118003E4141413E7F090909063E4151215E7FDA
:1051280009192946264949493203017F01033F40AD
:1051380040403F1F2040201F3F4038403F63140835
:10514800146303047804036159494D43007F4141C6
:10515800410204081020004141417F040201020479
:105168004040404040000307080020545478407FE6
:10517800284444383844444428384444287F385420
:1051880054541800087E090218A4A49C787F0804C7
:10519800047800447D40002040403D007F102844B2
:1051A8000000417F40007C047804787C080404787F
:1051B8003844444438FC1824241818242418FC7C47
:1051C80008040408485454542404043F44243C402C
:1051D80040207C1C2040201C3C4030403C4428108F
:1051E80028444C9090907C4464544C4400083641C8
:1051F80000000077000000413608000201020402A6
:105208003C2623263C1EA1A161123A4040207A3850
:1052180054545559215555794122545478422155B1
:1052280054784020545579400C1E52721239555505
:105238005559395454545939555454580000457CDB
:10524800410002457D420001457C407D1211127DDE
:10525800F0282528F07C545545002054547C547C73
:105268000A097F4932494949323A4444443A324A60
:105278004848303A4141217A3A42402078009DA07E
:10528800A07D3D4242423D3D4040403D3C24FF24FC
:1052980024487E4943662B2FFC2F2BFF0929F62033
:1052A800C0887E090320545479410000447D413070
:1052B80048484A32384040227A007A0A0A727D0DFC
:1052C80019317D2629292F28262929292630484DB4
:1052D8004020380808080808080808382F10C8AC03
:1052E800BA2F102834FA00007B000008142A142270
:1052F80022142A14085500550055AA55AA55AAFF84
:1053080055FF55FF000000FF00101010FF00141497
:1053180014FF001010FF00FF1010F010F014141408
:10532800FC001414F700FF0000FF00FF1414F4043D
:10533800FC141417101F10101F101F1414141F0032
:10534800101010F0000000001F101010101F101097
:105358001010F010000000FF1010101010101010A6
:1053680010FF10000000FF140000FF00FF00001FE6
:1053780010170000FC04F414141710171414F40484
:10538800F40000FF00F714141414141414F700F7B1
:10539800141414171410101F101F141414F41410DC
:1053A80010F010F000001F101F0000001F14000074
:1053B80000FC140000F010F01010FF10FF1414147B
:1053C800FF141010101F00000000F010FFFFFFFF77
:1053D800FFF0F0F0F0F0FFFFFF0000000000FFFF1B
:1053E8000F0F0F0F0F3844443844FC4A4A4A347EA2
:1053F80002020606027E027E026355494163384472
:10540800443C04407E201E2006027E020299A5E745
:10541800A5991C2A492A1C4C7201724C304A4D4DE0
:10542800303048784830BC625A463D3E49494900C8
:105438007E0101017E2A2A2A2A2A44445F444440E4
:10544800514A444040444A51400000FF0103E08073
:10545800FF000008086B6B083612362436060F0961
:105468000F06000018180000001010003040FF015F
:1054780001001F01011E00191D1712003C3C3C3C95
:105488000000000000000000000000000000000014
:10549800910D0008A14B0008AD4C0008CF0800088A
:1054A80085080008B708000893080008A508000840
:1054B800C5070008CF080008A70A0008A50A0008C1
:1054C800D10800080F090008490900088F090008D9
:1054D800AB0900082D0A00080000000000000000C9
:1054E800910D0008A14B0008691B0008CF080008AF
:1054F80085080008B708000893080008A5080008F0
:10550800C5070008CF080008252000084912000830
:10551800A50E0008BB0E0008C11B0008D10E00082C
:10552800AB0900082D0A0008F20B16160308080834
:105538000810041616FD03110235B00100B0010071
:10554800C0010AB00103E2013FC00122E2010000EC
:10555800FF000100F3000800000001000100000145
:1055680002000007030030100800020309000000D1
:1055780010000000110007001200000013000000D6
:10558800FFFF32001000B014FFFF0A0011000700EF
:10559800FFFF0A0012008E001300000C29001500FE
:1055A800FFFF0A0030000000310007013200000050
:1055B80035000302360002043700000038000702F5
:1055C800390000003C0003023D000304600000A70E
:1055D800610001009000290007003301FFFF32003D
:1055E800B2050C0C003333B70135BB012BC00104E5
:1055F800C20201FFC30111C40120C6010FD002A4D9
:10560800A1E00ED000050E150D37434709151216F7
:1056180019E10ED000050D0C062D44400E1C18167D
:10562800197F0100E5000080000001000100000171
:105638000200000703003010040000000800020206
:10564800090000000A0000000C0000000D00000026
:105658000F000000100000001100070012000000F9
:1056680013000000FFFF32001000B0171100070000
:10567800FFFF0A0012003A01FFFF0A001300001A98
:1056880029000C00FFFF0A0030000000310005056A
:105698003200040035000600360007073700050110
:1056A80038000200390007073C0004073D000708DE
:1056B800600000A7610001006A00000021000000EE
:1056C800200000008000000081000000820000002F
:1056D8008300000084000000850000009000100096
:1056E800920000009300030095001001970000004D
:1056F8009800000007007301FFFF3200E500F07812
:105708000100000102000002030030100400000044
:105718000500000008000702090000000A00000058
:105728000C0000000D0000000F0000001000000039
:10573800110007001200000013000000070001001C
:10574800FFFFC8001000901611002702FFFF32006B
:1057580012000D00FFFF32001300001229000A009A
:105768002B000D00FFFF3200200000002100000088
:105778003000000031000404320003003500050445
:105788003600080837000704380003033900070704
:105798003C0004053D000808600000276100010086
:1057A8006A00000080000000810000008200000004
:1057B80083000000840000008500000090001000B5
:1057C8009200000007003301B00100C1041010026C
:1057D80002C006003500000102C50104D20201041E
:1057E800CA0100EA0180360100B00100B3040200DA
:1057F8000000B40100D003074218D103000710D2FB
:10580800020102D3020102D4020102C005123B00C8
:105818000211C103101088C50103C60102C80C009B
:105828003236450616377577540C00CC0100C00295
:105838000D0DC1024300C20100C50400480048B470
:105848000100B60302023BE00F0F211C0B0E0849B2
:105858009838091103141000E10F0F2F2B0C0E06B6
:10586800477637071104231E007F0A000000000056
:10587800000000000000000000000100A40001007A
:10588800FFFF0A0060000027080008083000140223
:1058980031001537320004063300160E3400112289
:1058A8003500001536000785370007143800031443
:1058B8003900200090001500100010041100370274
:1058C800290046002A00460007000000120089014E
:1058D80013000011FFFF96001200B901010000013A
:1058E8000200000203003010090001000A00000055
:1058F8000D0000000E003000610001006A00000089
:10590800800000008100000082005F00920000011A
:1059180093000107FFFF500007000001000000008E
:10592800000000000000000000000000FFFF0F0062
:1059380000040062080008080003000C01030B5A69
:1059480002030609030317100403002305030017C5
:10595800060309630703090C08030C100903322224
:1059680010001600110001011200000013000100D0
:1059780000013003010137020301000D80020061BC
:105988000201B0C1FFFF3200010000010200000166
:1059980003003010090001000C0000009000008096
:1059A8000F000000100200001102EF0012020000B8
:1059B80013028F01000500000105000002055F00C9
:1059C8000104010004040000FFFF32000700000189
:1059D800FFFF3200000200000102000011001A005F
:1059E8001200213113006C00140049421000000815
:1059F800FFFF0A0011001A01FFFF0A0011001A0335
:105A0800FFFF0A0011001A07FFFF0A0011001A0F12
:105A1800FFFF0A0011003A0FFFFF1E0001002801D6
:105A280002000001030030100700121008000303F1
:105A38000B0000110C0000000F00011815002000D9
:105A480050000101510003065200080453000000F1
:105A580054000506550006045600030357000303C7
:105A6800580010005900001007001200FFFF28001E
:105A78000700130007001700150030009A001000F7
:105A88001100200010002834120002001300381002
:105A9800FFFF280012001200FFFF2800100020342A
:105AA80013004530FFFF46003000000031000204BB
:105AB80032000703330004033400040035000104F6
:105AC80036000707370005033800100639001006AE
