:100000000C94A20F0C94D30F0C94D30F0C94D30F19
:100010000C94D30F0C94D30F0C94D30F0C94D30FD8
:100020000C94D30F0C94D30F0C94D30F0C94D30FC8
:100030000C94D30F0C94D30F0C94D30F0C94D30FB8
:100040000C94D30F0C94D30F0C94D30F0C94D30FA8
:100050000C94D30F0C94D30F0C94D30F0C94122E3A
:100060000C94D30F0C94F32C0C94CA2C0C94D30F37
:100070000C94D30F0C94D30F0C94D30F0C94D30F78
:100080000C94D30F0C94D30F0C94D30F0C94D30F68
:100090000C94942C0C946B2C0C94D30F0C945C2E1D
:1000A0000C94D30F0C94D30F0C94D30F0C94D30F48
:1000B0000C94D30F0C94D30F0C94D30F0C94D30F38
:1000C0000C94D30F0C94D30F0C94D30F0C94D30F28
:1000D0000C94D30F0C94D30F0C94D30F0C94D30F18
:1000E0000C94D30F342B372B262B2A2B302B6E2B33
:1000F0003B2B3F2B452B492B4D2B532B572B5B2B4E
:100100006E2B612B652B692B00000000060001009F
:100110000002120803EF050006060801F00A000DB0
:10012000100D00F124000B140D01EF400014111507
:1001300001F06B000E111001F0890002060501F0BC
:100140008B0005170802EF9A0005170801EFA900B8
:1001500007070901EFB0000A0B0E02F6BE00020607
:100160000702FFC00006020801F9C20002020602EF
:10017000FFC30007120700EFD3000B110D01F0EBD6
:100180000005110D03F0F6000B110D01F00E010B2F
:10019000110D01F026010B110D01F03E010B110DA7
:1001A00001F056010B110D01F06E010B110D01F064
:1001B00086010B110D01F09E010B110D01F0B6012E
:1001C000020D0602F4BA0102100602F5BE010C0C83
:1001D0000E01F5D0010C060E01F8D9010C0C0E0130
:1001E000F5EB010A120D02EF020216151801EF3CA1
:1001F0000210121000EF60020D121002EF7E020FCB
:10020000121101EFA0020E121102EFC0020C120F28
:1002100002EFDB020B120E02EFF40210121201EFDA
:1002200018030D121102EF360302120702EF3B030F
:1002300009120D01EF50030E121002EF70030A12A3
:100240000E02EF870310121402EFAB030D1212021D
:10025000EFC90311121301EFF0030C121002EF0BA0
:100260000411131301EF34040E121102EF54040EA3
:10027000121001EF74040C120F01EF8F040D121114
:1002800002EFAD040F120F00EFCF0416121600EFAD
:1002900001050F121000EF230510121000EF4705A3
:1002A0000D120F01EF650504170702EF7105071224
:1002B0000700EF810504170701EF8D0509090B0100
:1002C000F098050F010DFF049A0505040601EF9D46
:1002D000050C0D0D01F4B1050C120D01EFCC050A52
:1002E0000D0C01F4DD050B120D01EFF6050B0D0DE4
:1002F00001F4080605120701EF14060B120D01F4B4
:100300002D060A120D01EF440602120502EF4906FE
:1003100004170600EF55060B120C01EF6E060212D1
:100320000501EF7306110D1301F48F060A0D0D017F
:10033000F4A0060B0D0D01F4B2060C110D01F4CC66
:10034000060B110D01F4E406060D0801F4EE060A91
:100350000D0C01F4FF0605100701F109070A0D0D48
:1003600001F41A070C0D0C00F42E07110D1100F406
:100370004A070B0D0B00F45C070B120B00F475071A
:100380000A0D0C01F4860705170801EF95070217FF
:100390000602EF9B0705170802EFAA070A050C01E2
:1003A000F6FFFFFFF0F0CF3CF38A20063031031850
:1003B00018C7FFBFFC31031818C7FFBFFC31011875
:1003C00018C0C606300403E1FF726C4788F10720AD
:1003D0007E03F017023C4788F11B267FC3E0100222
:1003E00000000603C0407E0C0E7080C3180C310064
:1003F000E73007E6003C40000C7C008FE019C701A5
:1004000018303183021C7040FE0407C00F007E03C9
:100410009C0C3030C0E701F803803E01CC6E19B06F
:100420007CC0F303CE1F9FE61E1CFFA0088C663124
:1004300098C6318C63086308610C208218C318C306
:1004400018C6318C623188C4620010235BE38D9141
:10045000000C0300C030FFFFF0C0300C0300C0F5FB
:1004600060FFF0F0020C1020C1020C1020C1020C41
:100470001020C1001F07F1C7306E0F80F01E03C0AF
:10048000780F01E03C0EC19C71FC1F0008CFFF8C6F
:100490006318C6318C63181F0FF987607C0600C093
:1004A000180701C0F0781C0600803007FFFFE03F0E
:1004B0000FF387606C0C0180707C0F801801803C0A
:1004C0000780D873FC1F000180700E03C0D81B0684
:1004D000618C218C33067FFFFE0300600C01803F9E
:1004E000CFF980300600DE1FE70E00E00C018030FF
:1004F0000781F873FC1F000F07F9C33074018033C4
:10050000C7FEF0DC1F01E03C06C1DC71FC1F00FFF0
:10051000FFFC010060180200C030060180300401B9
:10052000803006018030001F07F1C730660CC18C97
:1005300061FC3F8E3B01E03C0780D831FC1F001F6F
:1005400007F1C7706C0780F01E0761EFFC798030FF
:1005500005819873FC1E00F00003C0F0000F5600E8
:10056000000701E0F83C0F00E007C00F003C00F07E
:1005700001FFFFFF000000FFFFFF000E007801F009
:1005800007C00F00701E0F03C0F008001F1FEE1BF6
:1005900003C0C0300C060381C0E0300C0300000033
:1005A0000C030000FE000FFE00F03E07003C380088
:1005B00030C1E0660FD9D861C3C3070F1C1C3C6073
:1005C00060F18183C6061B1838EE71E718FDF871DB
:1005D000E7C0E00001E00001FFC001FC0003C00330
:1005E000C003C007E0066006600E700C300C301CC3
:1005F0003818181FF83FFC301C300C700E60066075
:1006000006FFC7FF3019806C03601B00D80CFFC7C2
:10061000FF300D803C01E00F007806FFF7FE000779
:10062000E03FF0E0738066006C0030006000C001C5
:10063000800300060006006C00DC031E0E1FF80F8E
:10064000C0FF83FF8C07300EC01B007C00F003C08E
:100650000F003C00F003C01F006C03B01CFFE3FF61
:1006600000FFFFFFC00C00C00C00C00C00FFEFFE3D
:10067000C00C00C00C00C00C00FFFFFFFFFFFF001C
:10068000600C0180300600FFDFFB00600C01803051
:100690000600C0180007F01FFC3C1E70066003E057
:1006A00000C000C000C07FC07FC003C00360036003
:1006B00007300F3C1F1FFB07E1C01E00F007803C06
:1006C00001E00F007803FFFFFFF007803C01E00F1F
:1006D000007803C01E00C0FFFFFFFFF00180C06074
:1006E00030180C06030180C0603C1E0F07C77F1F37
:1006F00000C03B01CC0E3070C3831C0CE03380DEA5
:1007000003DC0E383060C1C3038C06301CC03B00D4
:1007100060C0300C0300C0300C0300C0300C03007C
:10072000C0300C0300FFFFF0E007E007F00FF00F10
:10073000D00FD81BD81BD81BCC33CC33CC33C663DB
:10074000C663C663C3C3C3C3C3C3C183E01F00FC86
:1007500007E03D81EE0F3079C3C61E18F0E7833CF9
:100760001DE06F01F80FC03E01C003E00FFC0F0752
:100770008600C60033001B00078003C001E000F0C4
:100780000078003600330018C018783C1FFC03F8CE
:1007900000FF8FFEC06C03C03C03C03C07FFEFFCB2
:1007A000C00C00C00C00C00C00C00C0003E00FFC2B
:1007B0000F078600C60033001B00078003C001E05E
:1007C00000F00078003600330198C0FC783C1FFF31
:1007D00003F9800040FFC3FFCC03B006C01B006CD0
:1007E00001B00CFFE3FFCC03B006C01B006C01B0EE
:1007F00006C01B00700FE07FC3839C07600D80065E
:10080000001E003F803FC00F8007C00F003E00DE8B
:100810000E3FF03F80FFFFFF06006006006006000D
:10082000600600600600600600600600600600606A
:10083000C01E00F007803C01E00F007803C01E00DE
:10084000F007803C01E00F80EE0E3FE07C00600688
:10085000C01DC031806301C70306060C1C1C301884
:100860006031C073006600DC01F001E003C00700E6
:10087000E0301D80E0760781D81E06707C18C1B07C
:10088000E30CC38C330C38C6306718C19867066117
:10089000D81D83603C0D80F03E03C0700F01C0186E
:1008A0000700700E6038E060E1C0C301CC01F801C0
:1008B000E0038007801F003300E70386060E1C0E4E
:1008C000700CC01C6006700E301C38181C380C30C0
:1008D0000E70066003C003C00180018001800180AA
:1008E0000180018001800180FFFFFFC00E00E00E4B
:1008F000006007007007003003803803801801C0D3
:100900001C00FFFFFFC0FFCCCCCCCCCCCCCCCCCCE3
:10091000CFF0818102060408181020604081810216
:100920000604FF3333333333333333333FF00C0EAA
:100930000586C321198C83C180FFFEE38C303F07FD
:10094000F8E1CC0C00C01C3FCF8CC0CC0CE3C7EF4F
:100950003C70C00C00C00C00C00CF8DFCF0EE07C77
:1009600003C03C03C03C03E06F0EDFCCF81F0FE771
:100970001B83C0300C0300C038371CFE1F00006012
:100980000C018030063CCFFB8FE0F80F01E03C0704
:1009900080F83B8F3F63CC1F07F1C7703C07FFFF18
:1009A000FE00C01C0DC31FE1F03BD8C67FEC6318EE
:1009B000C6318C63001E67FDC7F07C0780F01E0304
:1009C000C07C1DC79FB1E600C03E0E7FC7E0C030AF
:1009D0000C0300C033CDFBC7E0F03C0F03C0F03C7C
:1009E0000F03C0F030F03FFFFFF033000333333329
:1009F000333333333FE0C0180300600C018330C64B
:100A000030CC1B83F0770C618E30E60CC1D818FF18
:100A1000FFFFFFF0CF1F6FDFFC78FC183C0C1E06B9
:100A20000F03078183C0C1E060F03078183C0C18D8
:100A3000CF37EF1F83C0F03C0F03C0F03C0F03C063
:100A4000C01F07F1C7707C0780F01E03C07C1DC764
:100A50001FC1F0CF8DFCF0EE06C03C03C03C03C0CC
:100A60003E07F0EFFCCF8C00C00C00C0001E67FDFD
:100A7000C7F07C0780F01E03C07C1DC79FF1E60015
:100A8000C018030060CF7F38C30C30C30C30C03EA9
:100A90001FEE1B00C03C07F03E01F03E1DFE3E0075
:100AA0006319FFB18C6318C631E7C0F03C0F03C077
:100AB000F03C0F03C0F07E3DFB3CC0E06606606783
:100AC0000C30C30C3981981981F00F00E00E00C181
:100AD000C1B0E1D870CC2C6636319B18CD98646CCF
:100AE00016360F1A078F038380C1C060EE18C60C3C
:100AF000C1F01C0180781B0330C7306606E06C0D26
:100B00008338630C630E60CC1B03603C0700E01865
:100B10000300E0780E00FFFFF0180C070381C060AF
:100B200030180E03FFFFC019CC6318C63199861820
:100B3000C6318C631C60FFFFFFFFFFFCC718C63186
:100B40008C630C33318C6318C67300703E09E41F4C
:100B5000038011007F96290001007F9628003A014A
:100B600055C0021010C10141C50400228040360169
:100B700068B00100B102B011B40102B60302023B39
:100B8000B701C63A0155F704A9512C82C0020D0DD8
:100B9000C1024300C20100C50400480048B401007E
:100BA000B60302023BE00F0F211C0B0E08499838D8
:100BB000091103141000E10F0F2F2B0C0E064776BE
:100BC00037071104231E00B00100B3040200000027
:100BD000B40100D003074218D103000710D202016C
:100BE00002D3020102D4020102C005123B0002112D
:100BF000C103101088C50103C60102C80C003236BB
:100C0000450616377577540C00CC0100F603010138
:100C100000CF03008130ED0464031281E8038510E6
:100C200078CB05392C003402F70120EA020000B02D
:100C30000100B102001BB40100C00121C10111C5B6
:100C4000023F3CC701B5360148F20100260101E030
:100C50000F0F26240B0E0954A8460C17090F070086
:100C6000E10F00191B0410072A4739030606303824
:100C70000F360100B00100C10410100202C00600CE
:100C80003500000102C50104D2020104CA0100EAD4
:100C90000180B903FF83577F967F96B60125C00672
:100CA0005050013C1E08B4070240002A2A0D787FEC
:100CB00001F20B1616030808080810041616FD03A7
:100CC000110235B2050C0C003333B70135BB012BD3
:100CD000C00104C20201FFC30111C40120C6010FFB
:100CE000D002A4A1E00ED000050E150D3743470930
:100CF00015121619E10ED000050D0C062D44400EFC
:100D00001C1816193A01557F0AB00103E2013FC0D1
:100D10000122E20100B00100C0010AB001000000A0
:100D20000000000000000000000000000000FFFFC5
:100D30000F0000040062080008080003000C010313
:100D40000B5A0203060903031710040300230503CB
:100D50000017060309630703090C08030C100903B5
:100D600032221000160011000101120000001300D1
:100D7000010000013003010137020301000D800270
:100D800000610201B0C1FFFF32000100000102005A
:100D9000000103003010090001000C000000900069
:100DA00000800F000000100200001102EF0012028C
:100DB000000013028F01000500000105000002057C
:100DC0005F000104010004040000FFFF320007007F
:100DD0000001FFFF320000020000010200000000DD
:100DE0000000000000000000000000000100A4005E
:100DF0000100FFFF0A00600000270800080830001B
:100E0000140231001537320004063300160E340088
:100E10001122350000153600078537000714380009
:100E20000314390020009000150010001004110078
:100E30003702290046002A00460007000000120081
:100E4000890113000011FFFF96001200B901010093
:100E500000010200000203003010090001000A0036
:100E600000000D0000000E003000610001006A006B
:100E70000000800000008100000082005F009200FE
:100E8000000193000107FFFF500007000001E5008B
:100E9000F07801000001020000020300301004009D
:100EA00000000500000008000702090000000A0019
:100EB00000000C0000000D0000000F0000001000FA
:100EC00000001100070012000000130000000700DE
:100ED0000100FFFFC8001000901611002702FFFF5D
:100EE000320012000D00FFFF320013000012290033
:100EF0000A002B000D00FFFF32002000000021003F
:100F0000000030000000310004043200030035000E
:100F100005043600080837000704380003033900C9
:100F200007073C0004053D00080860000027610039
:100F300001006A00000080000000810000008200C3
:100F40000000830000008400000085000000900085
:100F500010009200000007003301E500008000004F
:100F6000010001000001020000070300301004002E
:100F7000000008000202090000000A0000000C0046
:100F800000000D0000000F00000010000000110024
:100F900007001200000013000000FFFF32001000E5
:100FA000B01711000700FFFF0A0012003A01FFFF0F
:100FB0000A001300001A29000C00FFFF0A0030008D
:100FC000000031000505320004003500060036003F
:100FD00007073700050138000200390007073C0009
:100FE00004073D000708600000A7610001006A00D7
:100FF00000002100000020000000800000008100AF
:1010000000008200000083000000840000008500D2
:101010000000900010009200000093000300950073
:101020001001970000009800000007007301FFFF07
:101030003200FF000100F300080000000100010081
:10104000000102000007030030100800020309003D
:101050000000100000001100070012000000130043
:101060000000FFFF32001000B014FFFF0A00110063
:101070000700FFFF0A0012008E001300000C290079
:101080001500FFFF0A0030000000310007013200A8
:10109000000035000302360002043700000038006B
:1010A0000702390000003C0003023D000304600019
:1010B00000A7610001009000290007003301FFFF35
:1010C0003200150030009A001000110020001000BE
:1010D00028341200020013003810FFFF280012000D
:1010E0001200FFFF28001000203413004530FFFFDE
:1010F00046003000000031000204320007033300D4
:1011000004033400040035000104360007073700EB
:101110000503380010063900100601000001020026
:10112000000303003010080008080A0008006000EF
:1011300000276100010090003E0192000001930031
:101140000001A0000030A30010000700010007000C
:1011500021000700230007003300070033011100BE
:101160001A001200213113006C00140049421000D3
:101170000008FFFF0A0011001A01FFFF0A0011001A
:101180001A03FFFF0A0011001A07FFFF0A001100EF
:101190001A0FFFFF0A0011003A0FFFFF1E000100A7
:1011A000280102000001030030100700121008009F
:1011B00003030B0000110C0000000F0001181500C4
:1011C00020005000010151000306520008045300A2
:1011D000000054000506550006045600030357009E
:1011E0000303580010005900001007001200FFFF11
:1011F00028000700130007001700A1030801207E44
:101200001D00002100240027002A002D003000339B
:101210000001010000040107010A01000020002371
:1012200000260029002C002F0032000001000003DE
:10123000010601090100000A0B02090C0D0E080746
:101240000304010000000000000000000000000096
:10125000000000000000000000000000000000008E
:10126000001211100000000000000000000000004B
:101270000000000000000000000000000000000569
:1012800000010000020D0602F4040005040601F44A
:1012900007000A0C0A00F5160009100A01F32800DD
:1012A000100D1001F442000B0D0C01F45400020467
:1012B0000401F4550004110601F45E000411060156
:1012C000F4670005050701F46B0006080B03F971CC
:1012D000000204050200720004010601FC73000212
:1012E000010501007400050D0500F47D00080D0ADC
:1012F00001F48A00040D0A03F49100090D0A01F4B7
:10130000A000080D0A01F4AD00070D0A02F4B900AF
:10131000090D0A01F4C800090D0A01F4D700080DEF
:101320000A00F4E400090D0A01F4F300080D0A01B3
:10133000F40001020A0501F70301030C0501F80896
:101340000109090B01F8130109040B01FB1801093C
:10135000090B01F82301090D0A01F43201111012E1
:1013600001F454010C0D0C00F468010B0D0C01F498
:101370007A010B0D0D01F48C010B0D0D01F49E0192
:10138000090D0B01F4AD01080D0B01F4BA010C0DB0
:101390000E01F4CE010B0D0D01F4E001020D05026A
:1013A000F4E401070D0A01F4F0010B0D0C01F40245
:1013B00002080D0A01F40F020D0D0F01F425020BB6
:1013C0000D0D01F437020D0D0E01F44D020A0D0C46
:1013D00001F45E020D0E0E01F475020C0D0D01F408
:1013E00089020A0D0C01F49A02090D0B01F4A902FD
:1013F0000B0D0D01F4BB020B0D0C00F4CD02110D11
:101400001100F4E9020C0D0C00F4FD020C0D0C00AF
:10141000F411030A0D0B01F4220303110501F42951
:1014200003050D0500F4320303110500F439030729
:10143000070801F440030A010A00034203040305FC
:1014400000F44403090A0A01F75003090D0A01F4E4
:101450005F03080A0901F76903080D0A01F476031E
:10146000080A0A01F78003040D0501F48703080E3A
:101470000A01F79503080D0A01F4A203020D040105
:10148000F4A60304110400F4AF03090D0901F4BE2E
:1014900003020D0401F4C2030D0A0F01F7D3030880
:1014A0000A0A01F7DD03080A0A01F7E703090D0A32
:1014B00001F7F603080D0A01F70304050A0601F710
:1014C0000A04080A0901F71404040C0501F51A04BA
:1014D000080A0A01F72404090A0900F730040D0A72
:1014E0000D00F74104080A0900F74B04090E090032
:1014F000F75B04070A0901F7640404110601F46D9F
:101500000402110402F4720404110601F47B0407BE
:10151000030901F9FFFFF8C0DEF72009864191FFBA
:101520001304C320C8FF89826190101F14DA3D1E86
:101530008340781708F47A3533F040203810EC20D7
:10154000C620C640C6406C803900013C0277026369
:1015500004630477083C0E0660CC1981E0180F0381
:1015600036C2D8730631E3C4FE13266CCCCCC466F5
:1015700023108C4663333332664C80257EA50030C1
:10158000C33F30C30CD6F0C0084421108442110878
:10159000003C6642C3C3C3C3C3C3C342663C113FDE
:1015A00033333333303E31B07830181C1C1C1818DC
:1015B000100807F83C66C3C303061C0703C3C366D1
:1015C0003C0C187162C9A346FE183060C07F201021
:1015D000080807F38C030180F06C63E01E319878F3
:1015E0000C06F38D83C1E0D06C63E0FF03020604B8
:1015F0000C081818181030303E31B0783C1B18F821
:10160000C6C1E0F06C63E03C66C2C3C3C3673B0382
:1016100003C2663CC00030C0000064A00081C78ED9
:101620000C0780700E0180FF80001FF000700E011B
:10163000C0183871C080003E31B0783018183818A2
:10164000180C0000018003F0060E06018600661DDE
:10165000BB31CF18C79863CC31E611B399CCF7866C
:101660000001800070400FE00600F00F009019812B
:101670009810830C3FC204606606C030FF18330325
:10168000606C0D833FC606C0780F01E06FF81F86BF
:101690001981A03C0180300600C0680D831861F0FC
:1016A000FF183303603C0780F01E03C0780F03600F
:1016B000CFF0FFE030180C0603FD80C06030180F3B
:1016C000F8FFC0C0C0C0C0FEC0C0C0C0C0C00F8353
:1016D0000E606603C00C00C1FC03C0360360730FCC
:1016E0000F10C0780F01E03C0780FFFE03C0780FA9
:1016F00001E03C06FFFFFFC0060C183060C1830705
:101700008F1E2780C0D8330C630CC1B83F0730C38D
:10171000186306606C0CC0C0C0C0C0C0C0C0C0C0F0
:10172000C0C0FFE03F01FC1FE0FD05EC6F637913D3
:10173000CD9E6CF1478E3C7180E07C0FC1E83D8707
:1017400098F11E33C3786F07E07C0E0F8183180C6D
:10175000C06C01E00F007803C01B01980C60C0F85A
:1017600000FF306C0F03C0F06FF300C0300C0300BB
:10177000C0000F8183180CC06C01E00F007803C01B
:101780001B01986C60C0FB0008FF8C0EC06C06C08B
:101790006C0CFF8C0EC06C06C06C06C0703F186CE1
:1017A0000F03C01E01F00E00F03C0D863F00FF86C7
:1017B000030180C06030180C06030180C0C0780FA0
:1017C00001E03C0780F01E03C0780F01B061F0C05B
:1017D0006C0D8110630C610460CC1901603C070042
:1017E00060C18130E19870CC286626211330C898FA
:1017F0006C4C14340A1A0707030380818060630C61
:1018000030C1980F00E00600F019019830C60E6054
:1018100060C0360630C30C1981D80F006006006026
:101820000600600600FFC060300C060301C0603097
:1018300018060300FFC0FB6DB6DB6DB6E0841084B4
:10184000108410841080EDB6DB6DB6DBE03060A252
:1018500044D8A180FFC0C6307E71B0C060F3DB0DFC
:1018600086C73DC0C060301BCE360F0783C1E0F095
:101870007C6DE03C66C3C0C0C0C0C3663C030303CC
:101880003B67C3C3C3C3C3C3673B3C66C3C3FFC09B
:10189000C0C3663C366F66666666603B67C3C3C39B
:1018A000C3C3C3673B0303C67CC0C0C0DEE3C3C37E
:1018B000C3C3C3C3C3C3C3FFFFC030033333333316
:1018C0003333E0C06030184C466361F0EC6231980D
:1018D0006C30FFFFFFC0DEF71CF0C7863C31E18FA4
:1018E0000C7863C31E18C0DEE3C3C3C3C3C3C3C342
:1018F000C33C66C3C3C3C3C3C3663CDE71B0783C9C
:101900001E0F0783E36F30180C003B67C3C3C3C3CC
:10191000C3C3673B030303DF318C6318C6003EE398
:10192000C0C0E03C07C3E37E66F666666667C3C375
:10193000C3C3C3C3C3C3C77BC1A098CC4221B0D02B
:10194000281C0C00C61E3891C4CA66D316D0A687C0
:101950001C38C0C6004362361C181C3C266243C1BA
:101960002198CC4261B0D0381C0C0603010300FE64
:101970000C30C1861820C1FC3666666ECE6666667F
:1019800030FFFFFFFFC0C666666737666666C061E8
:10199000243814157B12207E16010210202008081E
:1019A00010204010204080020102010804020101C1
:1019B00002040810204080804020100804020180AA
:1019C0000402018040201008040201080402010101
:1019D000020408102040800102040810204080000A
:1019E000002200250028002B002E003100340002C8
:1019F000010000050108010B0105050505070508A3
:101A0000080808020202020A0A0808040404040181
:101A100001010101010101030303030303030304A3
:101A20000707070C0C0C0C0C0C0C0C020202020633
:101A3000060606060606060B0B0B0B0B0B0B0B0024
:101A4000000000003E5B4F5B3E3E6B4F6B3E1C3E1A
:101A50007C3E1C183C7E3C181C577D571C1C5E7F2E
:101A60005E1C00183C1800FFE7C3E7FF00182418AD
:101A700000FFE7DBE7FF30483A060E2629792926E2
:101A8000407F050507407F05253F5A3CE73C5A7FCC
:101A90003E1C1C08081C1C3E7F14227F22145F5F22
:101AA000005F5F06097F017F006689956A6060605C
:101AB000606094A2FFA29408047E040810207E2097
:101AC0001008082A1C08081C2A08081E10101010EC
:101AD0000C1E0C1E0C30383E3830060E3E0E060032
:101AE0000000000000005F00000007000700147FF6
:101AF000147F14242A7F2A1223130864623649565D
:101B000020500008070300001C2241000041221C55
:101B1000002A1C7F1C2A08083E080800807030003C
:101B20000808080808000060600020100804023E51
:101B30005149453E00427F40007249494946214192
:101B4000494D331814127F1027454545393C4A4901
:101B50004931412111090736494949364649492940
:101B60001E00001400000040340000000814224150
:101B70001414141414004122140802015909063ED9
:101B8000415D594E7C1211127C7F494949363E41D4
:101B90004141227F4141413E7F494949417F0909F5
:101BA00009013E414151737F0808087F00417F4190
:101BB000002040413F017F081422417F40404040C7
:101BC0007F021C027F7F0408107F3E4141413E7F1F
:101BD000090909063E4151215E7F09192946264916
:101BE00049493203017F01033F4040403F1F2040ED
:101BF000201F3F4038403F631408146303047804F7
:101C0000036159494D43007F4141410204081020BE
:101C1000004141417F040201020440404040400035
:101C20000307080020545478407F2844443838443F
:101C3000444428384444287F385454541800087EBB
:101C4000090218A4A49C787F0804047800447D400D
:101C5000002040403D007F1028440000417F4000AC
:101C60007C047804787C080404783844444438FCC4
:101C70001824241818242418FC7C08040408485448
:101C800054542404043F44243C4040207C1C204005
:101C9000201C3C4030403C44281028444C909090FC
:101CA0007C4464544C440008364100000077000036
:101CB000004136080002010204023C2623263C1E95
:101CC000A1A161123A4040207A3854545559215507
:101CD0005579412254547842215554784020545526
:101CE00079400C1E52721239555555593954545475
:101CF0005939555454580000457C410002457D42F5
:101D00000001457C407D1211127DF0282528F07CD1
:101D1000545545002054547C547C0A097F4932496B
:101D20004949323A4444443A324A4848303A4141B7
:101D3000217A3A42402078009DA0A07D3D42424257
:101D40003D3D4040403D3C24FF2424487E494366BD
:101D50002B2FFC2F2BFF0929F620C0887E0903209A
:101D6000545479410000447D413048484A3238405B
:101D700040227A007A0A0A727D0D19317D262929BE
:101D80002F28262929292630484D402038080808C0
:101D90000808080808382F10C8ACBA2F102834FAE1
:101DA00000007B000008142A142222142A1408556B
:101DB00000550055AA55AA55AAFF55FF55FF00002A
:101DC00000FF00101010FF00141414FF001010FF8B
:101DD00000FF1010F010F0141414FC001414F7009D
:101DE000FF0000FF00FF1414F404FC141417101F6C
:101DF00010101F101F1414141F00101010F00000FA
:101E000000001F101010101F10101010F010000014
:101E100000FF101010101010101010FF1000000024
:101E2000FF140000FF00FF00001F10170000FC045B
:101E3000F414141710171414F404F40000FF00F73E
:101E400014141414141414F700F7141414171410A1
:101E5000101F101F141414F4141010F010F00000D0
:101E60001F101F0000001F14000000FC140000F0F1
:101E700010F01010FF10FF141414FF141010101F96
:101E800000000000F010FFFFFFFFFFF0F0F0F0F0A7
:101E9000FFFFFF0000000000FFFF0F0F0F0F0F38C4
:101EA00044443844FC4A4A4A347E02020606027E12
:101EB000027E0263554941633844443C04407E201D
:101EC0001E2006027E020299A5E7A5991C2A492A2E
:101ED0001C4C7201724C304A4D4D303048784830BD
:101EE000BC625A463D3E494949007E0101017E2AB5
:101EF0002A2A2A2A44445F444440514A44404044E8
:101F00004A51400000FF0103E080FF000008086B19
:101F10006B083612362436060F090F060000181813
:101F20000000001010003040FF0101001F01011EE1
:101F300000191D1712003C3C3C3C00000000000052
:101F40003557F95611241FBECFEFD1E2DEBFCDBF0A
:101F500000E00CBF10E1A0E0B2E0EEE1FBEB00E03E
:101F60000BBF02C007900D92A432B107D9F727E149
:101F7000A4E2B0E101C01D92A03BB207E1F71FE06F
:101F8000C1EADFE000E006C021970109802FFE01D1
:101F90000E943E5BC03AD10780E00807A9F70E9483
:101FA0006D480C947E5D0C9400002F923F924F92EE
:101FB0005F926F927F928F929F92AF92BF92CF92D9
:101FC000DF92EF92FF920F931F93CF93DF93CDB7E2
:101FD000DEB72A970FB6F894DEBF0FBECDBF8BE7F2
:101FE00091E10E94993D60E080E090E00E943944D8
:101FF000883024E5920709F4C4C0803234E59307A1
:1020000009F4C2C08938994809F4C1C060E087E684
:1020100090E00E9439448734974409F4BBC081EAB8
:1020200090E00E947645613081E6780709F4B5C0FA
:102030006F3F7F4F19F406E215E1DDC08FEB90E0B2
:102040000E9447456735A3E87A0709F4A9C06138BB
:10205000B4E97B0709F4A7C06131E5E17E0709F423
:10206000A5C06032F5E17F0709F4A3C0663225E11F
:10207000720709F3613835E1730709F49DC06115F2
:10208000744109F49CC084ED90E00E947645603173
:10209000734509F497C087ED90E00E94764561335F
:1020A000704809F492C08FEE90E00E944745673275
:1020B000734909F48DC08EEF90E00E947645BB27EE
:1020C000A92F982F872F8335904209F484C084E08C
:1020D00090E00E9476459B01811124C0211560E8A3
:1020E000360701F58091750290917602A0917702F2
:1020F00089839A83AB83AE014F5F5F4F63E089EBC7
:1021000090E00E94B73160E080ED90E00E94394499
:10211000893929F08039A1F400E910E96CC009E996
:1021200010E069C0263275E1370709F484CF223503
:1021300085E8380709F452C021313C4A09F451C0FE
:1021400083ED90E00E9476453DE6370F323008F48B
:102150004BC0783909F448C0773709F445C0763167
:1021600009F442C0633D710509F440C0633D734DFD
:1021700009F43FC060E080E090E00E9439448C01A7
:102180003AC008E014E537C000E214E534C009E8BD
:1021900012E131C007E413E82EC003E619E12BC0B9
:1021A00007E513E828C001E814E925C001E115E1BD
:1021B00022C000E215E11FC001E815E11CC004E1E6
:1021C00018E619C000E113E516C001E310E813C0DA
:1021D00007E213E910C003E510E20DC009E817E7B4
:1021E0000AC001E11CEA07C08B0105C003ED10E045
:1021F00002C003ED13ED62EF72E08BE791E10E9404
:102200006A2CA80160E070E020E18BE791E10E9478
:10221000222C6EEF72E08BE791E10E940D2C8091F1
:102220007615843101F5809175158531E1F481E0F1
:1022300080937E1561E084E10E94512D61E085E18B
:102240000E94512D8091B9008E7F8093B9008091BA
:10225000B9008D7F8093B9008CE08093B80085E051
:102260008093BC0007C010927E1561E080917515C7
:102270000E947F2D61E08EE10E947F2D61E08FE161
:102280000E947F2D61E08EE10E94512D60E08FE180
:102290000E94512D60E081E20E947F2D8EED90E141
:1022A0000E94993D0E940A4410929A151092991525
:1022B00010939E1500939D150735B3E81B0709F48D
:1022C0009FC108F0E8C00533F5E41F0709F482C197
:1022D00008F06CC0003235E1130709F46FC108F053
:1022E00043C0043571E0170709F45DC1E0F4093912
:1022F000110509F03CC283E194E190939C15809311
:102300009B1580EE91E0909386158093851580E46F
:1023100091E09093841580938315BDE1EB2EF12C11
:1023200002E91CE02AC2053095E1190709F480C1D1
:102330000131154109F01BC283E090E090939C1598
:1023400080939B1580EE91E0909386158093851580
:1023500080E491E0909384158093831553E0E52EFB
:10236000F12C0BE11DE009C20138B5E11B0709F4AE
:10237000A8C180F40632154109F0F9C183E194E067
:1023800090939C1580939B153CE0E32EF12C09E083
:102390001DE0F3C1023026E1120709F47DC10335C7
:1023A000104209F0E4C187E194E181C1033867E795
:1023B000160709F41AC108F043C0083084E518076D
:1023C00009F436C1E0F40031134509F0D0C183E1CE
:1023D0009EE090939C1580939B1580EE91E09093E6
:1023E00086158093851580E491E090938415809301
:1023F000831522E0E22EF12C07E01DE0BEC109307A
:10240000B8E61B0709F41FC10431184609F0AFC133
:1024100083E094E090939C1580939B1580EE91E06F
:10242000909386158093851580E491E090938415B0
:102430008093831593E0E92EF12C04E01DE09DC10B
:102440000339F7E71F0709F47FC180F409381747FC
:1024500009F08DC183E194E090939C1580939B15C6
:1024600081E4E82EF12C03EC1CE087C1063967E714
:10247000160709F441C10133104809F078C183E11E
:1024800094E190939C1580939B1502E1E02EF12C32
:1024900001EB1CE072C1083383E9180709F402C19B
:1024A00070F50732A3E91A0709F4DEC0B8F4023068
:1024B000E3E91E0709F4F3C038F40039104909F0C4
:1024C00056C183E194E19EC0003233E9130709F459
:1024D000AFC00532134909F4B9C049C1093273E9E3
:1024E000170709F4E2C008F4B1C0013393E91907F2
:1024F00009F4AFC00533134909F4ABC038C109383A
:10250000B4E91B07C8F50738E4E91E0708F0F7C06F
:102510000138F4E91F0709F4D7C090F400541349B7
:102520000230110508F023C183E194E090939C15DB
:1025300080939B15E5E6EE2EF12C0CE01CE01DC10E
:102540000638144909F013C183E094E090939C1578
:1025500080939B1580EE91E090938615809385156E
:1025600080E491E090938415809383156BE3E62ECD
:10257000F12C0CE81BE001C1053065EB160709F4EE
:10258000D6C038F401311C4A09F0F1C083E194E16E
:102590008EC0093095EB190709F4D6C00530154CEB
:1025A00009F4C5C0E4C082E090E190939C1580934B
:1025B0009B156CE970E08EE591E1C3C083E194E086
:1025C00090939C1580939B1546E0E42EF12C05E139
:1025D0001DE0D3C080E090E190939C1580939B1503
:1025E0006CE970E082EC90E1ACC082E091E1909304
:1025F0009C1580939B1560E970E082E390E1A1C097
:1026000083E094E190939C1580939B1580EE91E07C
:10261000909386158093851580E491E090938415BE
:102620008093831512E0E12EF12C0FEA1CE0A5C087
:1026300084E090E190939C1580939B1568ED70E089
:102640008AE59FE07EC082E091E105C080E091E1F3
:1026500002C080E090E190939C1580939B156CECF8
:1026600070E08EE89EE06DC083E094E090939C154E
:1026700080939B1580E991E0909386158093851552
:1026800080EF90E09093841580938315AEE1EA2E5D
:10269000F12C04E71CE071C083E195E008C083E001
:1026A00094E005C083E194E002C083E096E190935A
:1026B0009C1580939B15F3E0EF2EF12C01E71CE0B5
:1026C0005CC083E194E002C087E094E090939C15A5
:1026D00080939B1580EE91E09093861580938515ED
:1026E00080E491E0909384158093831575E4E72E40
:1026F000F12C07EC1BE041C083E094E002C083E1D1
:1027000094E090939C1580939B1580EE91E09093BC
:1027100086158093851580E491E0909384158093CD
:1027200083155BE2E52EF12C01E61BE026C088E074
:1027300090E190939C1580939B1560EB70E08EED7B
:102740009DE00E94F63A17C080E090E190939C15BE
:1027500080939B1560EC70E08EE19DE00E94F63A5C
:1027600080E991E0909386158093851504C01092BE
:1027700084151092831500E010E020919C15822FA3
:1027800082958F7090E0817099279093A015809327
:102790009F150115110581F069E070E088E59BE067
:1027A0000E941A3BB701C8010E941A3B66E070E024
:1027B00082E59BE00E941A3B60E08FE795E10E9472
:1027C0003A3460E08FE795E10E94B13A80919D151F
:1027D00090919E158838944909F05AC21092DC10E5
:1027E00020EE3FEF40E050E060E070E08FE795E1E1
:1027F0000E940134E090A915F090AA158091DD1097
:10280000811107C080919B1580FF03C04EE2E42E2A
:10281000F12C00E010E020E030E040E050E060E02B
:1028200070E08FE795E10E94663B80919B1580FDEB
:1028300010C060E070E08091A5159091A6150E94EF
:102840000E3360E070E08091A7159091A8150E946A
:102850000E338B988A9880910201877880930201C9
:10286000A5988EB1877C8EB9409102018F2D992752
:102870009C012370332755E0220F331F5A95E1F74F
:10288000242B209302014EB19C012C703327220F80
:10289000331F220F331F242B2EB944B39C01207108
:1028A0003327220F331F242B24BB4EB19C012072EF
:1028B00033273595279535952795242B2EB92091CB
:1028C0000201807C9927F3E095958795FA95E1F7C9
:1028D000822B809302018998899A809102018778DE
:1028E00080930201A5988EB1877C8EB92091020158
:1028F000C70183709927A5E0880F991FAA95E1F772
:10290000822B809302012EB1C7018C709927880F0A
:10291000991F880F991F822B8EB924B3C70180712C
:102920009927880F991F822B84BB2EB1C701807213
:1029300099279595879595958795822B8EB92091A6
:102940000201C701807C992733E0959587953A95D8
:10295000E1F7822B809302018998899A8A9A809163
:1029600001018778809301019D988DB1877C8DB995
:1029700040919B1550919C1580919D1590919E15AD
:1029800046FD1EC0889A88988898889820910001F2
:102990002CB122B32CB120910001889A40FD10C0C7
:1029A0008938E2E19E0761F0889A8898889888982B
:1029B000209100012CB122B32CB120910001889A02
:1029C0008131954161F4889A889888988898809197
:1029D00000018CB182B38CB180910001889AFA0118
:1029E000E470FF27889A88988898889844FF8CC05C
:1029F000609100018CB192B37CB13091000160769E
:102A0000262F229526952770807386958695682FA8
:102A1000622B9072892F90E095958795862B672F72
:102A20006870660F660F862B632F687128E0629FBF
:102A3000B0011124682B889A889A88988898889879
:102A4000809100012CB192B37CB1A09100018076FD
:102A5000382F329536953770207326952695822F1C
:102A6000832B9072292F30E035952795282B872FBF
:102A70008870880F880F282B8A2F887138E0839FF1
:102A800070011124822F8E29889A889A88988898B4
:102A9000889870910001ACB132B32CB190910001D3
:102AA0007076B72FB295B695B770A073A695A69518
:102AB0007A2F7B2B3072A32FB0E0B595A795A72B6B
:102AC0002870220F220FA22B987178E0979F900117
:102AD00011242A2B889A8C7FEF2B59F0287F98E0BD
:102AE000899F70011124F22A669566956695E62AFB
:102AF0007CC0687FA8E08A9F70011124F62A269581
:102B000026952695E22A71C0D09000018CB192B32F
:102B1000BCB1A0910001889A889A88988898889872
:102B2000309100012CB102B36CB1C090000130763D
:102B3000E32EF12C15E0F594E7941A95E1F7207354
:102B400030E03595279535952795E22AF32A0072CE
:102B500010E015950795E02AF12A687070E0660F7D
:102B6000771F660F771F9701262B372B6C2D687107
:102B700078E0679F70011124E22AF32A889A2D2DAC
:102B80002076322F329536953770807386958695EC
:102B9000282F232B9072892F90E095958795822B73
:102BA000B870BB0FBB0F8B2B2A2F287198E0299F81
:102BB00090011124822BF82A43FF03C0FE24EF2446
:102BC000FE24EF2B91F09701207E3770C701892FEB
:102BD0009927869586958695822B932BFE2CEE243D
:102BE000FF0CFF0CFF0CE82AF92A8091DC108823E7
:102BF00099F09701207CC70188279470E5E09695AD
:102C00008795EA95E1F7AFE3EA22FF24F694E7948B
:102C1000E82AF92AE22AF32A889A8B9A80910101FC
:102C20008867809301019D9A8DB188638DB940FDBD
:102C300014C00091891510918A1501501109209135
:102C40008715309188152150310940E050E060E04F
:102C500070E08FE795E10E94663BBFE1EB16BFEFA6
:102C6000FB06B1F486E08983AE014F5F5F4F61E000
:102C70008AE390E00E94B73180919B1590919C155A
:102C80008F7E90939C1580939B1581E08093DC1040
:102C900060E08FE795E10E943A348091590290916B
:102CA0005A028735944009F0D4C260E070E08FE7A3
:102CB00095E10E94B14780913010909131100196BA
:102CC000909331108093301001E013E022E939E154
:102CD00043E050E066E970E081E090E00E94CE477A
:102CE0000BE013E022E939E143E050E066E970E0EF
:102CF0008FE090E00E94CE4768EE73E080E090E0C5
:102D00000E94DA2D67E173E08EED90E10E94494167
:102D100068EE73E080E090E00E94DA2D61E273E0FB
:102D20008EED90E10E946A2C20915C1030915D1034
:102D3000F901EE0FFF1FEC5AFF4E8081918108E1EF
:102D4000089FF001099FF00D112418E7129FC001A0
:102D5000139F900D1124E80FF91FE154FA4E64817E
:102D60008EED90E10E94062C20915C1030915D1058
:102D7000F901EE0FFF1FEC5AFF4E80819181089FF1
:102D8000F001099FF00D1124129FC001139F900DB7
:102D90001124E80FF91FE154FA4E65818EED90E1A0
:102DA0000E94062C20915C1030915D10F901EE0F0D
:102DB000FF1FEC5AFF4E80819181089FF001099F0F
:102DC000F00D1124129FC001139F900D1124E80FE4
:102DD000F91FE154FA4E66818EED90E10E94062CB7
:102DE00020915C1030915D10F901EE0FFF1FEC5A3D
:102DF000FF4E80819181089FF001099FF00D112401
:102E0000129FC001139F900D1124E80FF91FE15488
:102E1000FA4E67818EED90E10E94062C20915C10A5
:102E200030915D10F901EE0FFF1FEC5AFF4E8081CB
:102E30009181089FF001099FF00D1124129FC0019C
:102E4000139F900D1124E80FF91FE154FA4E60858D
:102E50008EED90E10E94062C20915C1030915D1067
:102E6000F901EE0FFF1FEC5AFF4E80819181089F00
:102E7000F001099FF00D1124129FC001139F900DC6
:102E80001124E80FF91FE154FA4E61858EED90E1AF
:102E90000E94062C20915C1030915D10F901EE0F1C
:102EA000FF1FEC5AFF4E80819181089FF001099F1E
:102EB000F00D1124129FC001139F900D1124E80FF3
:102EC000F91FE154FA4E62858EED90E10E94062CC6
:102ED00020915C1030915D10F901EE0FFF1FEC5A4C
:102EE000FF4E80819181089FF001099FF00D112410
:102EF000129FC001139F900D1124E80FF91FE15498
:102F0000FA4E63858EED90E10E94062C20915C10B4
:102F100030915D10F901EE0FFF1FEC5AFF4E8081DA
:102F20009181089FF001099FF00D1124129FC001AB
:102F3000139F900D1124E80FF91FE154FA4E648598
:102F40008EED90E10E94062C20915C1030915D1076
:102F5000F901EE0FFF1FEC5AFF4E80819181089F0F
:102F6000F001099FF00D1124129FC001139F900DD5
:102F70001124E80FF91FE154FA4E65858EED90E1BA
:102F80000E94062C68E775E08EED90E10E946A2CA5
:102F90006EEF72E08EED90E10E940D2C68EE73E012
:102FA00080E090E00E94DA2D6EE273E08EED90E119
:102FB0000E94494160E073E08EED90E10E9449413A
:102FC00060E473E08EED90E10E94494169E573E0B1
:102FD0008EED90E10E94494160E073E08EED90E15A
:102FE0000E94494167E673E08EED90E10E946A2CF1
:102FF00020915C1030915D10F901EE0FFF1FEC5A2B
:10300000FF4E80819181089FF001099FF00D1124EE
:10301000129FC001139F900D1124E80FF91FE15476
:10302000FA4E66858EED90E10E94062C20915C1090
:1030300030915D10F901EE0FFF1FEC5AFF4E8081B9
:103040009181089FF001099FF00D1124129FC0018A
:10305000139F900D1124E80FF91FE154FA4E678574
:103060008EED90E10E94062C20915C1030915D1055
:10307000F901EE0FFF1FEC5AFF4E80819181089FEE
:10308000F001099FF00D1124129FC001139F900DB4
:103090001124E80FF91FE154FA4E60898EED90E19A
:1030A0000E94062C20915C1030915D10F901EE0F0A
:1030B000FF1FEC5AFF4E80819181089FF001099F0C
:1030C000F00D1124129FC001139F900D1124E80FE1
:1030D000F91FE154FA4E61898EED90E10E94062CB1
:1030E00060E073E08EED90E10E9449416EE673E08E
:1030F0008EED90E10E946A2C20915C1030915D1061
:10310000F901EE0FFF1FEC5AFF4E80819181089F5D
:10311000F001099FF00D1124129FC001139F900D23
:103120001124E80FF91FE154FA4E82819381009730
:1031300019F467E773E010C08130910519F464E871
:1031400073E00AC08230910519F46EE873E004C0A0
:10315000039731F468E973E08EED90E10E946A2CE8
:1031600060E073E08EED90E10E94494162EA73E015
:103170008EED90E10E946A2C20915C1030915D10E0
:10318000F901EE0FFF1FEC5AFF4E8081918148E15B
:10319000489FF001499FF00D112448E7429FC0016C
:1031A000439F900D1124E80FF91FE154FA4E8689D0
:1031B00097898130910519F46AEA73E004C0029797
:1031C00031F46FEA73E08EED90E10E946A2C60E0CA
:1031D00073E08EED90E10E94494163EB73E08EED68
:1031E00090E10E946A2C0E947943BC018EED90E12F
:1031F0000E94494160E073E08EED90E10E944941F8
:1032000061EC73E08EED90E10E946A2C0E940D4308
:10321000BC018EED90E10E94494160E073E08EEDCB
:1032200090E10E94494164E670E080E090E00E94F5
:10323000DA2D0E94364160E777E180E090E00E945D
:10324000DA2D85E090E090935A02809359020E9413
:10325000D50F8091590290915A028139910509F058
:10326000C7C060E070E08FE795E10E94B14729ECAC
:1032700033E043E050E062E370E081E090E00E94E0
:10328000163F03ED13E022E939E142E050E06AE540
:1032900070E081E090E00E94CE4780E090E00E94E4
:1032A000F63E88E290E090934715809346154FEAEA
:1032B000842E912C909249158092481554E6A52EA3
:1032C000B12CB0924B15A0924A1562E3C62ED12CB8
:1032D000D0924D15C0924C1580EE97E0909350150A
:1032E00080934F1590935215809351151092541559
:1032F0001092531573E0F72EF0924E150FE715E17B
:10330000109345150093441549E050E06CEE73E0CE
:1033100085E595E10E946F5D84EB90E090932A151E
:103320008093291590922C1580922B15B0922E1512
:10333000A0922D15D0923015C0922F1580E098EFF5
:1033400090933315809332159093351580933415EF
:103350008FEF9FEF9093371580933615F0923115CC
:10336000109328150093271549E050E060EF73E0B3
:1033700088E395E10E946F5D82E999E10E94F63E43
:1033800081E090E090938C1580938B1584E091E020
:1033900090938E1580938D1580EE9FEF90939215EC
:1033A000809391159093901580938F1581E0809371
:1033B000931563EF73E0C8010E946A2C80E090E0EF
:1033C0000E94F63E05EB14E022E939E141E050E0CD
:1033D00060E971E081E090E00E94CE4760E084E423
:1033E00095E10E94B52F60E087E295E10E94B52F3C
:1033F0008091590290915A028539904209F0BEC0DD
:1034000060E070E08FE795E10E94B14701E013E0D2
:1034100022E939E143E050E066E970E081E090E0C4
:103420000E94CE470FE115E022E939E143E050E088
:1034300066E970E08FE090E00E94CE470AE215E076
:1034400022E939E142E050E067ED70E08FE090E082
:103450000E94CE472DE335E041E050E063E171E0AA
:103460008FE090E00E94163F68EE73E080E090E00D
:103470000E94DA2D67E173E08EED90E10E944941F0
:1034800068EE73E080E090E00E94DA2D62E675E07D
:103490008EED90E10E94494168EE73E080E090E09B
:1034A0000E94DA2D0E940D43BC018EED90E10E9436
:1034B0006A2C6BE775E08EED90E10E946A2C0E9409
:1034C0007943BC018EED90E10E94494160E073E0D8
:1034D0008EED90E10E94494160E875E08EED90E14B
:1034E0000E946A2C60912E1070912F108EED90E149
:1034F0000E94054460E073E08EED90E10E94494136
:1035000062EA75E08EED90E10E946A2C60912C10C9
:1035100070912D108EED90E10E94054460E073E003
:103520008EED90E10E9449416CEB75E08EED90E1EB
:103530000E946A2C60913010709131108EED90E1F4
:103540000E94054460E073E08EED90E10E944941E5
:1035500064E670E080E090E00E94DA2D0E9436413F
:1035600060E777E180E090E00E94DA2D81E090E072
:1035700090935A02809359020E94D50F809159026C
:1035800090915A02019709F01DC160E070E08FE749
:1035900095E10E94B1470BED15E022E939E143E0E6
:1035A00050E062E370E081E090E00E94CE4723EEBD
:1035B00035E043E050E062E370E08FE090E00E948D
:1035C000163F0EEE15E022E939E143E050E063E7F3
:1035D00070E08FE090E00E94CE4780E090E00E9493
:1035E000F63EFAE06F2E712C70920D1560920C155C
:1035F00088E191E090930F1580930E15A4E68A2E32
:10360000912C909211158092101502E310E0109306
:10361000131500931215B0EECB2EDD24DA94D09260
:103620001615C0921515D0921815C0921715109244
:103630001A151092191583E0B82EB09214159FE751
:10364000E92E95E1F92EF0920B15E0920A1549E06A
:1036500050E06CE273E08BE195E10E946F5D709247
:10366000F0146092EF1483E691E09093F21480934B
:10367000F1149092F4148092F3141093F6140093C2
:10368000F5148FE198EF9093F9148093F8149093C8
:10369000FB148093FA140FEF1FEF1093FD140093A7
:1036A000FC14B092F714F092EE14E092ED1449E09D
:1036B00050E066EF75E08EEF94E10E946F5D28E7C1
:1036C000E22EF12CF0928C15E0928B158DE191E0B9
:1036D00090938E1580938D15D0929215C09291156E
:1036E000D0929015C0928F1532E0D32ED0929315C0
:1036F00068EF75E08FE795E10E946A2CF0928C15D7
:10370000E0928B1583E391E090938E1580938D1555
:1037100062E076E08FE795E10E946A2CF0928C15CA
:10372000E0928B158AE691E090938E1580938D152B
:1037300010939215009391151093901500938F1587
:10374000D092931561E176E08FE795E10E946A2CB3
:10375000F0928C15E0928B1580E891E090938E1595
:1037600080938D1566EB7EE08FE795E10E946A2CD1
:10377000109354020093530210935202009351028B
:103780001093500200934F0210934E0200934D028B
:1037900010935D1000935C10109358020093570231
:1037A000109356020093550210934A10009349104B
:1037B00060E08AE095E10E94B52F60E08DEE94E133
:1037C0000E94B52F8091590290915A02029709F0F8
:1037D0000DC160E070E08FE795E10E94B1470BE119
:1037E00016E022E939E142E050E06EE170E088E263
:1037F00090E00E94CE470BE216E020E030E041E08E
:1038000050E06AE270E081E090E00E94CE4780E004
:1038100090E00E94F63E80EF90E09093D314809366
:10382000D2145DEB852E992493949092D5148092B6
:10383000D41460E5A62EB12CB092D714A092D61461
:103840007EE1C72ED12CD092D914C092D81480EE2C
:1038500097E09093DC148093DB149093DE148093B4
:10386000DD141092E0141092DF14E2E0FE2EF092CC
:10387000DA140FE715E11093D1140093D01449E046
:1038800050E06DE377E081EE94E10E946F5D81E0AE
:1038900090E09093B6148093B5149092B8148092EF
:1038A000B714B092BA14A092B914D092BC14C092BA
:1038B000BB1480E098EF9093BF148093BE14909354
:1038C000C1148093C0148FEF9FEF9093C314809323
:1038D000C214F092BD141093B4140093B31449E0D1
:1038E00050E060E477E084EC94E10E946F5D8091A9
:1038F000541090915510059791F480915610909125
:103900005710059761F480915810909159100597C0
:1039100031F480915A1090915B10059729F060E086
:1039200080ED94E10E94B52F60E083EB94E10E946A
:10393000B52FEE24EA94FE2C0CE310E02CE330E0EB
:103940004EE650E06AE070E08FE795E10E945B3759
:103950002CE330E04EEB50E06AE070E08FE795E159
:103960000E945B372CE330E04EE051E06AE070E00B
:103970008FE795E10E945B372CE330E04EE551E0A4
:103980006AE070E08FE795E10E945B3705E417E09D
:1039900022E939E141E050E06BE770E085E590E035
:1039A0000E94CE4708E917E022E939E141E050E002
:1039B0006BEC70E085E590E00E94CE470AEE17E0E0
:1039C00022E939E141E050E06BE171E085E590E00A
:1039D0000E94CE470CE318E022E939E141E050E0D3
:1039E0006BE671E085E590E00E94CE478091590238
:1039F00090915A02479709F02DC160E070E08FE77F
:103A000095E10E94B14701E918E022E939E142E07D
:103A100050E06EE170E08DE290E00E94CE472EE92A
:103A200038E041E050E06AE370E081E090E00E941D
:103A3000163F80E090E00E94F63E6DE0862E912CCD
:103A400090922514809224148EE690E0909327148F
:103A5000809326147BE4A72EB12CB0922914A09257
:103A60002814E2E3CE2ED12CD0922B14C0922A142B
:103A70000FEF1FEF10932E1400932D14F0E26F2E12
:103A8000FDEF7F2E7092301460922F141093321439
:103A900000933114A3E05A2E50922C14BFE7EB2E62
:103AA000B5E1FB2EF0922314E092221449E050E09D
:103AB0006CE273E083E394E10E946F5D90920814DE
:103AC000809207148EEB90E090930A14809309146F
:103AD000B0920C14A0920B14D0920E14C0920D143C
:103AE0001093111400931014709213146092121416
:103AF000109315140093141450920F14F09206149E
:103B0000E092051449E050E066EF75E086E194E14B
:103B10000E946F5D80EF90E09093D3148093D21455
:103B20008DEB682E772473947092D5146092D41420
:103B300090E5892E912C9092D7148092D6142EE184
:103B4000A22EB12CB092D914A092D81480EE97E096
:103B50009093DC148093DB149093DE148093DD1437
:103B60001092E0141092DF1432E0D32ED092DA14C7
:103B7000F092D114E092D01449E050E06DE377E088
:103B800081EE94E10E946F5D81E090E09093B61425
:103B90008093B5147092B8146092B7149092BA14CE
:103BA0008092B914B092BC14A092BB1480E098EF3C
:103BB0009093BF148093BE149093C1148093C0144B
:103BC0001093C3140093C214D092BD14F092B41495
:103BD000E092B31449E050E060E477E084EC94E1D3
:103BE0000E946F5D60E082E294E10E94B52F60E088
:103BF00085E094E10E94B52F60E080ED94E10E94A1
:103C0000B52F60E083EB94E10E94B52F03EE18E03E
:103C100022E939E141E050E06DE770E082E690E0B2
:103C20000E94CE470FE019E022E939E141E050E07F
:103C30006DEC70E082E690E00E94CE470AE319E066
:103C400022E939E141E050E069E071E081E090E093
:103C50000E94CE478091590290915A02039709F031
:103C60009BC160E070E08FE795E10E94B1470DE4F1
:103C70001AE022E939E142E050E06EE170E088E2CA
:103C800090E00E94CE472CE53AE041E050E067E347
:103C900070E081E090E00E94163F80E090E00E949A
:103CA000F63EEDE08E2E912C90929914809298140D
:103CB0008DE790E090939B1480939A14FBE4AF2ED1
:103CC000B12CB0929D14A0929C14A2E3CA2ED12CC8
:103CD000D0929F14C0929E140FEF1FEF1093A21466
:103CE0000093A114B0E26B2EBDEF7B2E7092A41452
:103CF0006092A3141093A6140093A51483E0582E89
:103D00005092A0149FE7E92E95E1F92EF0929714B6
:103D1000E092961449E050E06CE273E087EA94E1A7
:103D20000E946F5D90927C1480927B148DEC90E0E9
:103D300090937E1480937D14B0928014A0927F148F
:103D4000D0928214C092811410938514009384142D
:103D500070928714609286141093891400938814CB
:103D600050928314F0927A14E092791449E050E072
:103D700066EF75E08AE894E10E946F5D90925F14AF
:103D800080925E148DE191E09093611480936014B1
:103D9000B0926314A0926214D0926514C09264141D
:103DA000109368140093671470926A1460926914F7
:103DB00010936C1400936B1450926614F0925D147F
:103DC000E0925C1449E050E060E675E08DE694E135
:103DD0000E946F5D90924214809241148DE691E0B2
:103DE0009093441480934314B0924614A0924514C7
:103DF000D0924814C092471410934B1400934A1465
:103E000070924D1460924C1410934F1400934E1402
:103E100050924914F0924014E0923F1449E050E06F
:103E20006DEB7AE080E594E10E946F5D80EF90E0B9
:103E30009093D3148093D2142DEB622E7724739435
:103E40007092D5146092D41430E5832E912C909208
:103E5000D7148092D6144EE1A42EB12CB092D9146E
:103E6000A092D81480EE97E09093DC148093DB143A
:103E70009093DE148093DD141092E0141092DF14FE
:103E800052E0D52ED092DA14F092D114E092D014F0
:103E900049E050E06DE377E081EE94E10E946F5DD0
:103EA00081E090E09093B6148093B5147092B814AA
:103EB0006092B7149092BA148092B914B092BC1464
:103EC000A092BB1480E098EF9093BF148093BE142F
:103ED0009093C1148093C0141093C3140093C21420
:103EE000D092BD14F092B414E092B31449E050E0C3
:103EF00060E477E084EC94E10E946F5D60E086E925
:103F000094E10E94B52F60E089E794E10E94B52F0B
:103F100060E08CE594E10E94B52F60E08FE394E1CE
:103F20000E94B52F60E080ED94E10E94B52F60E023
:103F300083EB94E10E94B52F0FEB1AE022E939E1FF
:103F400041E050E065E870E082E690E00E94CE47F4
:103F50000AE11BE022E939E141E050E065ED70E063
:103F600082E690E00E94CE4702E71BE022E939E1B9
:103F700041E050E065E271E082E690E00E94CE47C9
:103F80000AEC1BE022E939E141E050E065E771E02D
:103F900082E690E00E94CE478091590290915A02A9
:103FA000049709F000C160E070E08FE795E10E949E
:103FB000B14703E21CE02AEF31E142E050E068E261
:103FC00070E08BE490E00E94CE4780E090E00E9499
:103FD000F63E89EB90E09093D3148093D21488EB53
:103FE00091E09093D5148093D41486E990E0909357
:103FF000D7148093D61488E290E09093D9148093DC
:10400000D81480EE97E09093DC148093DB149093A7
:10401000DE148093DD141092E0141092DF1462E03D
:10402000F62EF092DA140FE715E11093D1140093F5
:10403000D01449E050E06CE37CE081EE94E10E9412
:104040006F5D81E090E09093B6148093B5148DEB92
:1040500091E09093B8148093B71480E590E090932A
:10406000BA148093B9148EE190E09093BC148093BD
:10407000BB1480E098EF9093BF148093BE1490938C
:10408000C1148093C014CC24CA94DC2CD092C314E5
:10409000C092C214F092BD141093B4140093B314E0
:1040A00049E050E060E477E084EC94E10E946F5DC9
:1040B00089E690E09093EB138093EA138DEC90E007
:1040C0009093ED138093EC138EE690E09093EF13B2
:1040D0008093EE1382E390E09093F1138093F013BA
:1040E000D092F413C092F31380E29DEF9093F613F5
:1040F0008093F513D092F813C092F713F092F21355
:104100001093E9130093E81349E050E064E47CE085
:1041100089EF93E10E946F5D60E083EB94E10E9480
:10412000B52F60E088EE93E10E94B52F2BE43CE0D0
:1041300041E050E065E870E081E090E00E94163FC9
:104140008091521090915310019769F50BE410E1A2
:1041500020E030E042E050E068E271E08AE390E085
:104160000E94CE475FEEE52E5BE7F52E02E310E0FE
:104170002CED30E048E151E062E370E08FE795E13B
:104180000E945B3702ED1CE022E939E141E050E09A
:1041900060E971E081E190E00E94CE4760E080ED4F
:1041A00094E10E94B52F8091590290915A028D9707
:1041B00009F0FFC060E070E08FE795E10E94B14731
:1041C0000CEE1CE02AEF31E142E050E068E270E0E2
:1041D0008BE490E00E94CE4780E090E00E94F63EA3
:1041E00029EBA22EB12CB092D314A092D21488EB5A
:1041F00091E09093D5148093D41486E990E0909345
:10420000D7148093D61488E290E09093D9148093C9
:10421000D81480EE97E09093DC148093DB14909395
:10422000DE148093DD141092E0141092DF1432E05B
:10423000F32EF092DA140FE715E11093D1140093E6
:10424000D01449E050E06CE37CE081EE94E10E9400
:104250006F5D81E090E09093B6148093B5148DEB80
:1042600091E09093B8148093B71480E590E0909318
:10427000BA148093B9148EE190E09093BC148093AB
:10428000BB1480E098EF9093BF148093BE1490937A
:10429000C1148093C014CC24CA94DC2CD092C314D3
:1042A000C092C214F092BD141093B4140093B314CE
:1042B00049E050E060E477E084EC94E10E946F5DB7
:1042C00089E690E09093EB138093EA13B092ED139C
:1042D000A092EC138EE690E09093EF138093EE1390
:1042E00082E390E09093F1138093F013D092F41353
:1042F000C092F31380E29DEF9093F6138093F51331
:10430000D092F813C092F713F092F2131093E913BE
:104310000093E81349E050E064E47CE089EF93E126
:104320000E946F5D60E083EB94E10E94B52F60E036
:1043300088EE93E10E94B52F20E03DE041E050E09F
:1043400065E870E081E090E00E94163F809149109E
:1043500090914A10019769F50EE310E120E030E0FA
:1043600042E050E062E171E08AE390E00E94CE47D3
:104370009FEEE92E9BE7F92E02E310E02CED30E0F2
:1043800044E051E062E370E08FE795E10E945B3723
:104390000BE31DE022E939E141E050E060E971E022
:1043A00081E190E00E94CE4760E080ED94E10E94C0
:1043B000B52F8091590290915A02059709F092C049
:1043C00020915C1030915D10F901EE0FFF1FEC5A47
:1043D000FF4E8081918148E1489FF001499FF00D97
:1043E000112448E7429FC001439F900D1124E80F1C
:1043F000F91FE154FA4E80819181099749F4809127
:1044000030109091311001969093311080933010BC
:1044100060E070E08FE795E10E94B1472EE53DE056
:1044200043E050E062E370E081E090E00E94163FDC
:1044300009E61DE022E939E141E050E06FE570E076
:1044400081E090E00E94CE4703E51EE022E939E1D9
:1044500042E050E060E971E081E490E00E94CE47E4
:1044600080E090E00E94F63E85E590E09093CE13C8
:104470008093CD1383E191E09093D0138093CF1379
:1044800086E990E09093D2138093D11382E390E079
:104490009093D4138093D3138FEF9FEF9093D71300
:1044A0008093D6132FE130E03093D9132093D813A3
:1044B0009093DB138093DA1383E08093D5138FE717
:1044C00095E19093CC138093CB1349E050E06FE5D6
:1044D0007EE08CED93E10E946F5D60E08BEC93E1F8
:1044E0000E94B52F8091590290915A02099709F0C4
:1044F000AFC060E070E08FE795E10E94B147A8E7A8
:104500008A2EA2E09A2EB8E1AB2EB2E1BB2E12E6C3
:10451000612E712CE12CF12C0DE2202E312C850125
:104520009A868986C12CD12CFDE24F2E512CA9856B
:10453000BA858D919D91BA87A987F80153824282ED
:10454000758264822CE330E0378326836DE270E06D
:104550007187608714861386968785878FEF9FEF14
:10456000908B878792E09287AFE7B5E1B183A08314
:10457000B6016E0D7F1D6E5F7D4F49E050E0C801B2
:1045800041960E946F5D30921B1220921A12E2E651
:10459000F0E0F0931D12E0931C122CE330E0309316
:1045A0001F1220931E12309221122092201210927C
:1045B00024121092231260EE77E07093261260931B
:1045C0002512109228121092271272E07093221274
:1045D0008FE795E1909319128093181249E050E00B
:1045E00062E072E089E292E10E946F5D60E0C801E2
:1045F0000E94B52F95E5490E511C035E1F4FA5E0A3
:10460000CA0ED11CBFE0CB16D10409F090CFE6E072
:104610008E0E911CF7E5AF0EB11C2FE0E20EF11CDF
:104620003CE3630E711C6BE4E616F10409F077CFEE
:10463000EFEEEE2EEBE7FE2E02E310E02CED30E085
:104640004EE150E062E370E08FE795E10E945B3756
:104650008091590290915A028F3D934009F0AFC06A
:1046600060E070E08FE795E10E94B14748E7842E53
:1046700042E0942E58E1A52E52E1B52E62E6662E58
:10468000712CE12CF12C7DE2272E312C85019A86AC
:104690008986C12CD12C3DE2432E512CA985BA85A7
:1046A0008D919D91BA87A987F801538242827582C4
:1046B00064822CE330E0378326836DE270E07187FB
:1046C000608714861386968785878FEF9FEF908B80
:1046D000878792E09287AFE7B5E1B183A083B60107
:1046E0006E0D7F1D6E5F7D4F49E050E0C801419621
:1046F0000E946F5D30921B1220921A12E2E6F0E0E7
:10470000F0931D12E0931C122CE330E030931F1243
:1047100020931E1230922112209220121092241205
:104720001092231260EE77E07093261260932512A8
:10473000109228121092271272E0709322128FE7C3
:1047400095E1909319128093181249E050E062E0CD
:1047500072E089E292E10E946F5D60E0C8010E9410
:10476000B52F95E5490E511C035E1F4FA5E0CA0EFB
:10477000D11CBFE0CB16D10409F090CFE6E08E0E3D
:10478000911CF7E5AF0EB11C2FE0E20EF11C3CE3EB
:10479000630E711C6BE4E616F10409F077CF2FEE7F
:1047A000E22E2BE7F22E02E310E02CED30E04EE19A
:1047B00050E062E370E08FE795E10E945B37809103
:1047C000590290915A028B35910509F0AFC060E013
:1047D00070E08FE795E10E94B14718E7812E12E063
:1047E000912E08E1A02E02E1B02E82E6682E712CF7
:1047F000E12CF12C9DE2292E312C85019A868986A7
:10480000C12CD12CBDE24B2E512CA985BA858D919E
:104810009D91BA87A987F80153824282758264828A
:104820002CE330E0378326836DE270E07187608788
:1048300014861386968785878FEF9FEF908B8787E7
:1048400092E09287AFE7B5E1B183A083B6016E0D28
:104850007F1D6E5F7D4F49E050E0C80141960E9488
:104860006F5D30921B1220921A12E2E6F0E0F09394
:104870001D12E0931C122CE330E030931F122093A2
:104880001E123092211220922012109224121092A5
:10489000231260EE77E07093261260932512109237
:1048A00028121092271272E0709322128FE795E17E
:1048B000909319128093181249E050E062E072E080
:1048C00089E292E10E946F5D60E0C8010E94B52F0D
:1048D00095E5490E511C035E1F4FA5E0CA0ED11C81
:1048E000BFE0CB16D10409F090CFE6E08E0E911C0C
:1048F000F7E5AF0EB11C2FE0E20EF11C3CE3630EB6
:10490000711C6BE4E616F10409F077CFAFEEEA2EE6
:10491000ABE7FA2E02E310E02CED30E04EE150E080
:1049200062E370E08FE795E10E945B378091590266
:1049300090915A02459709F0FFC060E070E08FE760
:1049400095E10E94B14703E21CE02AEF31E142E029
:1049500050E068E270E08BE490E00E94CE4780E097
:1049600090E00E94F63E79EBA72EB12CB092D314C2
:10497000A092D21488EB91E09093D5148093D41434
:1049800086E990E09093D7148093D61488E290E063
:104990009093D9148093D81480EE97E09093DC1410
:1049A0008093DB149093DE148093DD141092E01456
:1049B0001092DF14E2E0FE2EF092DA140FE715E118
:1049C0001093D1140093D01449E050E06CE37CE0E4
:1049D00081EE94E10E946F5D81E090E09093B614C7
:1049E0008093B5148DEB91E09093B8148093B71435
:1049F00080E590E09093BA148093B9148EE190E032
:104A00009093BC148093BB1480E098EF9093BF14F4
:104A10008093BE149093C1148093C014CC24CA9484
:104A2000DC2CD092C314C092C214F092BD14109327
:104A3000B4140093B31449E050E060E477E084ECF0
:104A400094E10E946F5D89E690E09093EB13809370
:104A5000EA13B092ED13A092EC138EE690E09093DF
:104A6000EF138093EE1382E390E09093F113809321
:104A7000F013D092F413C092F31380E29DEF909361
:104A8000F6138093F513D092F813C092F713F092B7
:104A9000F2131093E9130093E81349E050E064E443
:104AA0007CE089EF93E10E946F5D60E083EB94E12D
:104AB0000E94B52F60E088EE93E10E94B52F26E6B4
:104AC0003EE041E050E065E870E081E090E00E9467
:104AD000163F8091361090913710019769F508E3E1
:104AE00010E120E030E042E050E062E171E08AE372
:104AF00090E00E94CE476FEEE62E6BE7F62E02E3C3
:104B000010E02CED30E044E051E062E370E08FE72C
:104B100095E10E945B3707E91EE022E939E141E0B7
:104B200050E060E971E085E090E00E94CE4760E0EF
:104B300080ED94E10E94B52F8091590290915A0224
:104B4000469709F0C3C360E070E08FE795E10E94EB
:104B5000B1470E94BB41122FF32FE42F29833A83E0
:104B60004B835C836D837E838F839887CE80DF80C9
:104B7000452F50E020E0E62EF12C71E0E71AF10815
:104B8000822F90E08E159F0544F48A569D4FDC01DC
:104B90008C91480F511D2F5FF3CF633038F0C60161
:104BA00083709927892B11F44F5F5F4F96012D5C1D
:104BB000374036952795369527956DE671E0C69E68
:104BC000C001C79E900DD69E900D1124815993422D
:104BD000280F391F240F351FA8E1B0E00E94035AA7
:104BE0009B01AC01210F311D411D511DACE3B0E013
:104BF0000E94D1599B01AC012F0F311D411D511D48
:104C00000E94D159DC01CB018E0F911DA11DB11D58
:104C1000BC01CD0160587C4B8249974C20E137E2C2
:104C200040E050E00E94B55960932810709329101D
:104C300080932A1090932B102EE53DE043E050E046
:104C400062E370E081E090E00E94163F0EEB1EE010
:104C500022E939E141E050E06FE570E081E090E069
:104C60000E94CE4703E51EE022E939E142E050E030
:104C70006EEB70E081E490E00E94CE4780912E10B0
:104C800090912F10019690932F1080932E10809169
:104C90003010909131100197909331108093301023
:104CA00080E090E00E94F63E2FE13FE041E050E0DE
:104CB0006BE371E081E090E00E94163F8AEF91E1A2
:104CC0000E94F63E99E7E92EF12CF0928C15E092C5
:104CD0008B158BE391E090938E1580938D150FEFDC
:104CE0001FEF109392150093911510939015009358
:104CF0008F15DD24D394D09293158091321090912A
:104D00003310209134103091351048E1B42EB89E04
:104D1000F001B99EF00D112458E7C52EC29EC001C6
:104D2000C39E900D1124E80FF91FE154FA4E4091F3
:104D300028105091291060912A1070912B108289AF
:104D40009389A489B589481B590B6A0B7B0B409347
:104D500024105093251060932610709327108FE72E
:104D600095E10E94D34380E090E00E94F63E2DE260
:104D70003FE041E050E063E671E081E090E00E94B6
:104D8000163F809132109091331020913410309161
:104D90003510B89EF001B99EF00D1124C29EC001DD
:104DA000C39E900D1124E80FF91FE154FA4E868935
:104DB00097898230910541F58AEF91E10E94F63E94
:104DC000F0928C15E0928B1587E791E090938E1509
:104DD00080938D1510939215009391151093901553
:104DE00000938F15D09293156EE170E08FE795E1F7
:104DF0000E94054480E090E00E94F63E80912C10D5
:104E000090912D104E9629C0019759F58AEF91E1A6
:104E10000E94F63EF0928C15E0928B1587E791E0A8
:104E200090938E1580938D15109392150093911584
:104E30001093901500938F15D092931569E170E04F
:104E40008FE795E10E94054480E090E00E94F63EE5
:104E500080912C1090912D10499690932D10809355
:104E60002C10809132109091331020913410309199
:104E7000351008E1089FF001099FF00D112418E793
:104E8000129FC001139F900D1124E80FF91FE154E8
:104E9000FA4E808191818130910509F0BEC168EEA2
:104EA00073E080E090E086D667E173E08EED90E1FC
:104EB0000E94494168EE73E080E090E07BD661E2B9
:104EC00073E08EED90E106D5809132109091331011
:104ED0002091341030913510089FF001099FF00D9A
:104EE0001124129FC001139F900D1124E80FF91F88
:104EF000E154FA4E64818EED90E188D480913210B5
:104F0000909133102091341030913510089FF001AA
:104F1000099FF00D1124129FC001139F900D1124C1
:104F2000E80FF91FE154FA4E65818EED90E16ED4E1
:104F300080913210909133102091341030913510BF
:104F4000089FF001099FF00D1124129FC001139FCB
:104F5000900D1124E80FF91FE154FA4E66818EED91
:104F600090E154D4809132109091331020913410FC
:104F700030913510089FF001099FF00D1124129F08
:104F8000C001139F900D1124E80FF91FE154FA4E50
:104F900067818EED90E13AD4809132109091331078
:104FA0002091341030913510089FF001099FF00DC9
:104FB0001124129FC001139F900D1124E80FF91FB7
:104FC000E154FA4E60858EED90E120D4809132104C
:104FD000909133102091341030913510089FF001DA
:104FE000099FF00D1124129FC001139F900D1124F1
:104FF000E80FF91FE154FA4E61858EED90E106D479
:1050000080913210909133102091341030913510EE
:10501000089FF001099FF00D1124129FC001139FFA
:10502000900D1124E80FF91FE154FA4E62858EEDC0
:1050300090E1ECD380913210909133102091341094
:1050400030913510089FF001099FF00D1124129F37
:10505000C001139F900D1124E80FF91FE154FA4E7F
:1050600063858EED90E1D2D3809132109091331010
:105070002091341030913510089FF001099FF00DF8
:105080001124129FC001139F900D1124E80FF91FE6
:10509000E154FA4E64858EED90E1B8D380913210E0
:1050A000909133102091341030913510089FF00109
:1050B000099FF00D1124129FC001139F900D112420
:1050C000E80FF91FE154FA4E65858EED90E19ED30D
:1050D00068E775E08EED90E1FDD36EEF72E08EED46
:1050E00090E19BD368EE73E080E090E063D56EE2E0
:1050F00073E08EED90E10E94494160E073E08EED37
:1051000090E10E94494160E473E08EED90E10E94DD
:10511000494163E47FE08EED90E10E94494160E007
:1051200073E08EED90E10E94494160E57FE08EEDF5
:1051300090E1D0D340912410509125106091261019
:10514000709127108EED90E10E94D34360E073E0F0
:105150008EED90E10E9449416DE57FE08EED90E19A
:10516000B9D3809132109091331020913410309146
:105170003510089FF001099FF00D1124129FC00106
:10518000139F900D1124E80FF91FE154FA4E868900
:1051900097898130910519F462E77FE004C0029796
:1051A00029F469E77FE08EED90E194D360E073E04D
:1051B0008EED90E10E94494160E87FE08EED90E144
:1051C00089D30E947943BC018EED90E10E94494150
:1051D00060E073E08EED90E10E94494161EC73E084
:1051E0008EED90E177D30E940D43BC018EED90E1EE
:1051F0000E94494160E073E08EED90E10E944941D8
:1052000064E670E080E090E0D5D40E94364160E42E
:105210007FE180E090E0CED402C00997E9F585E512
:1052200090E09093CE138093CD1389EA91E0909310
:10523000D0138093CF1386E990E09093D21380939C
:10524000D11382E390E09093D4138093D3138FEF24
:105250009FEF9093D7138093D6132FE130E03093D4
:10526000D9132093D8139093DB138093DA1383E040
:105270008093D5138FE795E19093CC138093CB1354
:1052800049E050E06FE57EE08CED93E10E946F5DB8
:1052900060E08BEC93E169D6E8E3F0E180E090E038
:1052A00020E22193019684309105D9F79093511013
:1052B0008093501010923D108FEF9FEF9093351018
:1052C0008093341090933310809332108091590260
:1052D00090915A028C3D910509F057C060E070E052
:1052E0008FE795E10E94B1470DE81FE022E939E11F
:1052F00042E050E064E670E081E090E00E94CE473A
:1053000080E090E00E94F63E81E090E09093B61439
:105310008093B5148DEB91E09093B8148093B714FB
:1053200080E590E09093BA148093B9148EE190E0F8
:105330009093BC148093BB1480E098EF9093BF14BB
:105340008093BE149093C1148093C0148FEF9FEF8D
:105350009093C3148093C21482E08093BD148FE7AE
:1053600095E19093B4148093B31449E050E060E465
:1053700077E084EC94E10E946F5D60E083EB94E160
:10538000F4D510923710109236102A960FB6F89472
:10539000DEBF0FBECDBFDF91CF911F910F91FF9068
:1053A000EF90DF90CF90BF90AF909F908F907F90C5
:1053B0006F905F904F903F902F900895CF92DF9223
:1053C000EF92FF920F931F93CF93DF936C017A01BB
:1053D0008B01C0E0D0E0CE15DF0581F0D8016D91E2
:1053E0008D01D601ED91FC910190F081E02DC60177
:1053F0001995892B11F02196EECF7E01C701DF911F
:10540000CF911F910F91FF90EF90DF90CF90089573
:10541000FC01538D448D252F30E0842F90E0821BBA
:10542000930B541710F0CF96089501970895FC013F
:10543000918D828D981761F0828DDF01A80FB11DCB
:105440005D968C91928D9F5F9F73928F90E00895EF
:105450008FEF9FEF0895FC01918D828D981731F0A9
:10546000828DE80FF11D858D90E008958FEF9FEFFD
:105470000895FC01918D228D892F90E0805C9F4FD3
:10548000821B91098F73992708958EED90E1F1DFCA
:1054900021E0892B09F420E0822F08958BE791E128
:1054A000E8DF21E0892B09F420E0822F0895FC0138
:1054B000848DDF01A80FB11DA35ABF4F2C91848D9D
:1054C00090E001968F739927848FA689B7892C93D2
:1054D000A089B1898C91837080648C93938D848D25
:1054E000981306C00288F389E02D80818F7D808328
:1054F0000895EF92FF920F931F93CF93DF93EC01E8
:1055000081E0888F9B8D8C8D981305C0E889F9897F
:10551000808185FD25C0F62E0B8D10E00F5F1F4F9B
:105520000F731127E02E8C8DE8120BC00FB607FC0D
:10553000FACFE889F989808185FFF5CFCE01B7DF01
:10554000F2CF8B8DFE01E80FF11DE35AFF4FF08281
:105550009FB7F8940B8FEA89FB89808180620AC02B
:105560009FB7F894EE89FF896083E889F989808183
:105570008370806480839FBF81E090E0DF91CF9152
:105580001F910F91FF90EF900895CF93DF93EC015F
:10559000888D8823C1F0EA89FB89808185FD05C05B
:1055A000A889B9898C9186FD0EC00FB607FCF5CF8E
:1055B000808185FFF2CFA889B9898C9185FFEDCFD5
:1055C000CE0175DFE8CFDF91CF91089580E090E0C4
:1055D000892B19F063DF811120C080E090E0892BD6
:1055E00019F053DF81111CC080E090E0892B41F05D
:1055F00080E090E0892B21F00E940000811113C00F
:1056000080E090E0892BA1F080E090E0892B81F090
:105610000E94000081110AC008950E940000DDCFA1
:105620000E940000E1CF0E940000EACF0C9400002D
:10563000089590E0FC013197E231F10508F04EC089
:105640008827EE58FF4F8F4F0C943E5B809180006F
:105650008F7703C0809180008F7D809380000895B4
:1056600080918000877FF9CF84B58F7702C084B5A1
:105670008F7D84BD08958091B0008F7703C08091A5
:10568000B0008F7D8093B0000895809190008F7757
:1056900007C0809190008F7D03C080919000877F2C
:1056A0008093900008958091A0008F7707C080912B
:1056B000A0008F7D03C08091A000877F8093A00011
:1056C0000895809120018F7707C0809120018F7D00
:1056D00003C080912001877F8093200108953FB708
:1056E000F8948091D8109091D910A091DA10B091CF
:1056F000DB1026B5A89B05C02F3F19F00196A11D10
:10570000B11D3FBFBA2FA92F982F8827820F911D57
:10571000A11DB11DBC01CD0142E0660F771F881F9E
:10572000991F4A95D1F7089585ED8093BC0080912B
:10573000BC0084FDFCCF1092AD10089540918910FB
:10574000262F30E0240F311D21323105DCF4209169
:10575000AD102430C9F4FC0180E090E0861758F4C5
:10576000309189102191DC01A759BF4EA30FB11DC3
:105770002C930196F3CF80918910680F6093891064
:1057800080E0089581E0089582E0089508958FEF04
:105790009FEF08958FEF9FEF08958091681090E03C
:1057A0009195819591090895CF93DF93CB01EA01FB
:1057B000642FC4DFCE01DF91CF910895CF93DF93A3
:1057C0001F92CDB7DEB7698361E0CE010196B6DFE7
:1057D00081E090E00F90DF91CF9108950895FC0152
:1057E0006370658B8481958126813781613039F0C2
:1057F000633029F091878087338722870895318726
:1058000020879387828708950E945B5DDC01ED917C
:10581000FC910190F081E02D19946115710579F0EA
:10582000FB0101900020E9F73197AF01461B570BB0
:10583000DC01ED91FC910280F381E02D199480E070
:1058400090E008958F929F92AF92BF92EF92FF9255
:105850000F931F93CF93DF93CDB7DEB7A1970FB60A
:10586000F894DEBF0FBECDBF7C01FA01CB0119A2B7
:10587000223008F42AE08E010F5D1F4F822E912CFA
:10588000A12CB12CBF01A50194010E94E159F9019D
:10589000CA01015011096A3014F4605D01C0695CED
:1058A000D8016C93232B242B252B61F7B801C7015A
:1058B000B4DFA1960FB6F894DEBF0FBECDBFDF9167
:1058C000CF911F910F91FF90EF90BF90AF909F905D
:1058D0008F900895A2CF1F920F920FB60F921124AE
:1058E0000BB60F922F933F934F935F936F937F93DA
:1058F0008F939F93AF93BF93EF93FF938EED90E1C0
:10590000D6DDFF91EF91BF91AF919F918F917F91E4
:105910006F915F914F913F912F910F900BBE0F9020
:105920000FBE0F901F9018951F920F920FB60F92F7
:1059300011240BB60F922F938F939F93EF93FF93A6
:10594000E091EE10F091EF108081E091F410F09171
:10595000F51082FD12C090818091F7108F5F8F73D8
:105960002091F810821751F0E091F710F0E0E25228
:10597000FF4E958F8093F71001C08081FF91EF91CA
:105980009F918F912F910F900BBE0F900FBE0F9094
:105990001F9018951F920F920FB60F9211240BB6FD
:1059A0000F922F933F934F935F936F937F938F93B8
:1059B0009F93AF93BF93EF93FF938BE791E177DDD5
:1059C000FF91EF91BF91AF919F918F917F916F91D7
:1059D0005F914F913F912F910F900BBE0F900FBE93
:1059E0000F901F9018951F920F920FB60F921124CF
:1059F0000BB60F922F938F939F93EF93FF93E091AA
:105A00008B11F0918C118081E0919111F0919211A4
:105A100082FD12C09081809194118F5F8F732091CD
:105A20009511821751F0E0919411F0E0E558FE4E87
:105A3000958F8093941101C08081FF91EF919F9188
:105A40008F912F910F900BBE0F900FBE0F901F9054
:105A50001895CF93DF93282F30E0F901EB5CFD4ED2
:105A60008491F901E756F64ED491F901E750F64ECC
:105A7000C491CC2389F08111DCDDEC2FF0E0EE0F36
:105A8000FF1FE55EFD4EA591B491EC91ED2381E001
:105A900090E021F480E002C080E090E0DF91CF91BF
:105AA00008951F93CF93DF93282F30E0F901EB5C2B
:105AB000FD4E8491F901E756F64ED491F901E75075
:105AC000F64EC491CC23B9F0162F8111B2DDEC2F24
:105AD000F0E0EE0FFF1FE152F64EA591B4919FB793
