:020000040800F2
:1000000000800120F50700084508000845080008A1
:1000100045080008450800084508000800000000E1
:10002000000000000000000000000000450800087B
:1000300045080008000000004508000843090008C2
:10004000450800084508000845080008450800085C
:1000500045080008450800081D2D0008232D00084C
:10006000292D00082F2D0008352D0008450800080F
:10007000450800084508000845080008450800082C
:100080004508000845080008450800080000000071
:100090000000000000000000000000003B2D0008F0
:1000A000310C0008D10B0008410C0008450800087D
:1000B000F10B0008010C0008110C0008FD0C0008F1
:1000C000090D0008150D0008210D0008450800085D
:1000D0004508000879100008911000080000000091
:1000E000512D0008550B00084508000800000000CD
:1000F00000000000000000000000000045080008AB
:100100000000000045080008210C00084508000810
:1001100000000000000000000000000000000000DF
:10012000450800084508000845080008450800087B
:10013000450800080000000000000000000000006A
:10014000000000000000000000000000450800085A
:10015000450800084508000845080008A9100008DF
:100160002D0D0008390D00080000000000000000FF
:10017000000000000000000000000000000000007F
:10018000000000004508000800000000000000001A
:040190004508000816
:1001940010B5054C237833B9044B13B10448AFF3BD
:1001A40000800123237010BD100000200000000017
:1001B400702E00080C4B43B10C480D4910B5AFF339
:1001C40000800C48036823B910BD0A48036833B99A
:1001D4007047094B002BF7D0BDE810401847064B79
:1001E400002BF5D0184700BF00000000702E000857
:1001F400140000201000002000000000034613F843
:10020400012B002AFBD1181A0138704753B94AB997
:10021400002908BF00281CBF4FF0FF314FF0FF300A
:1002240000F07AB9ADF1080C6DE904CE00F006F8DF
:10023400DDF804E0DDE9022304B070472DE9F0475E
:100244008C460D460446089E002B51D18A4217461F
:100254006DD9B2FA82FEBEF1000F0BD0CEF1200CA4
:1002640001FA0EF520FA0CFC02FA0EF74CEA050C22
:1002740000FA0EF44FEA174A250CBCFBFAF81FFAF1
:1002840087F90AFB18CC45EA0C4508FB09F3AB4295
:100294000AD9ED1908F1FF3280F02381AB4240F214
:1002A4002081A8F102083D44ED1AA4B2B5FBFAF08E
:1002B4000AFB105544EA054400FB09F9A14509D994
:1002C400E41900F1FF3380F00A81A14540F207816F
:1002D40002383C44A4EB090440EA08400021002E03
:1002E40061D024FA0EF4002334607360BDE8F08713
:1002F4008B4207D9002E54D0002186E821000846FD
:10030400BDE8F087B3FA83F1002940F08E80AB4258
:1003140002D3824200F2FA80841A65EB03050120BD
:10032400AC46002E3FD086E81010BDE8F08712B925
:100334000127B7FBF2F7B7FA87FEBEF1000F34D1FD
:10034400EB1B3A0C1FFA87FC0121B3FBF2F8250CD6
:1003540002FB183345EA03450CFB08F3AB4207D90B
:10036400ED1908F1FF3002D2AB4200F2D180804691
:10037400ED1AA3B2B5FBF2F002FB105543EA0544B3
:100384000CFB00FCA44507D9E41900F1FF3302D2A9
:10039400A44500F2B8801846A4EB0C0440EA0840D7
:1003A4009DE731463046BDE8F087CEF1200405FADA
:1003B4000EF307FA0EF720FA04F83A0C25FA04F4BF
:1003C40048EA0308B4FBF2F14FEA184502FB114472
:1003D4001FFA87FC45EA044501FB0CF3AB4200FA23
:1003E4000EF409D9ED1901F1FF3080F08A80AB4297
:1003F40040F2878002393D44EB1A1FFA88F5B3FBBB
:10040400F2F002FB103345EA034500FB0CF3AB4268
:1004140007D9ED1900F1FF386FD2AB426DD902381C
:100424003D44EB1A40EA01418FE7C1F1200722FA6B
:1004340007F88B4005FA01F448EA030320FA07FEA3
:100444004FEA134CFD404EEA040EB5FBFCF94FEAAB
:100454001E440CFB19551FFA83F844EA054509FBB1
:1004640008F4AC4202FA01F200FA01FA08D9ED18D4
:1004740009F1FF3043D2AC4241D9A9F102091D442C
:100484002D1B1FFA8EFEB5FBFCF00CFB10554EEA3B
:10049400054400FB08F8A04507D9E41800F1FF352E
:1004A40029D2A04527D902381C4440EA0940A4EBCC
:1004B4000804A0FB02894C45C6464D4615D312D00C
:1004C40056B1BAEB0E0364EB050404FA07F7CB400C
:1004D4001F43CC40376074600021BDE8F0871846A4
:1004E400F8E69046E0E6C245EAD2B8EB020E69EBC4
:1004F40003050138E4E72846D7E7404691E78146FB
:10050400BEE7014678E702383C4445E7084608E779
:10051400A8F102083D442BE7704700BF10B5184C02
:10052400184806224FF4165102F0C2FA0622204659
:100534004FF4165102F0BCFA1349204602F03CFB7A
:100544001249204602F038FB1149204602F034FBE0
:100554001049204602F030FB0F49204602F02CFBE4
:100564000E49204602F028FB0D49204602F024FBE8
:10057400204602F019FB6420BDE8104000F066B983
:10058400880200202C000020082F00081A2F0008E1
:100594003E2F0008572F00086D2F0008812F0008F8
:1005A400942F000810B5114C1149204602F004FBA9
:1005B4004FF47A7000F04AF90E49204602F0FCFA32
:1005C4004FF47A7000F042F90B49204602F0F4FA35
:1005D400642000F03BF920461A2102F0F7FA4FF4A8
:1005E4007A70BDE8104000F031B900BF2C00002043
:1005F400AB2E0008B52E0008CE2E000808B507491A
:10060400074802F0D9FA0749074802F0D5FA4FF42F
:100614007A70BDE8084000F019B900BFEC2E00085C
:100624002C000020FE2E00088802002008B507498F
:10063400074802F0C1FA0749074802F0BDFA4FF42F
:100644007A70BDE8084000F001B900BF882E0008A8
:100654002C0000208C2E00088802002008B50749D1
:10066400074802F0A9FA0749074802F0A5FA4FF42F
:100674007A70BDE8084000F0E9B800BF982E000881
:100684002C0000209D2E0008880200202522242111
:10069400014802F0BDB900BF2C00002010B50A4C7F
:1006A4000A49204602F088FA4FF47A7000F0CEF836
:1006B400204602F040F9064BC1B219700548BDE866
:1006C400104002F06DBA00BF2C000020A72E0008D5
:1006D400300100208802002008B5184802F016F9FD
:1006E400002809DD154802F026F968281CD011DC21
:1006F400632816D065281AD0114802F007F900289B
:100704001BDD0F4802F017F9BDE80840C1B20B48E1
:1007140002F042B969280DD07328EDD1FFF742FFEA
:10072400EAE7FFF76BFFE7E7FFF780FFE4E7FFF790
:1007340095FFE1E7FFF7B2FFDEE708BD880200207E
:100744002C00002030B595B00022274B0192196C83
:1007540041F0805119641B6C244903F080530193C8
:10076400019B02920B6823F4404343F400430B6063
:100774000B680F9203F440430293029B01230B93F3
:1007840010230C9310934FF4A8730224119304259F
:10079400072308A808940E941295139301F0E0FA25
:1007A40000B1FEE70F23039305904FF480530790A5
:1007B400214603A80494069301F082FC044600B188
:1007C400FEE701F017FD4FF47A73B0FBF3F000F08D
:1007D4001BFD284600F03EFD224621464FF0FF3027
:1007E40000F0D0FC15B030BD00380240007000406D
:1007F400DFF834D0002103E00C4B5B584350043144
:100804000B480C4B42189A42F6D30B4A02E00023E1
:1008140042F8043B094B9A42F9D300F0A1F902F0E3
:1008240001FB02F043FA704700800120E431000824
:10083400000000201000002010000020D004002040
:10084400FEE700F084B8704700F076B838B5044687
:1008540048B100F071F80546FFF7F5FF00F06CF8B9
:10086400401B8442F8D838BD86B00023052853D8ED
:10087400DFE800F003111E2B38450093274B28486E
:100884001A6B42F001021A631B6B03F0010300931D
:10089400009B06B070470193204B22481A6B42F02C
:1008A40002021A631B6B03F002030193019BF0E73E
:1008B40002931A4B1C481A6B42F004021A631B6B16
:1008C40003F004030293029BE3E70393134B1748DB
:1008D4001A6B42F008021A631B6B03F008030393BC
:1008E400039BD6E704930D4B11481A6B42F0100298
:1008F4001A631B6B03F010030493049BC9E705936D
:10090400064B0C481A6B42F080021A631B6B03F00F
:1009140080030593059BBCE70020BAE7003802403A
:10092400000002400004024000080240000C0240A3
:1009340000100240001C024000F00CBC704708B5D7
:1009440000F0FCFB00F093FCFFF7F8FF08BD08B5CE
:1009540000F0DAFBBDE80840FFF7F4BE30B5C36829
:1009640091FAA1F4B4FA84F491FAA1F10325B1FA4D
:1009740081F1640005FA04F4490023EA040302FA4D
:1009840001F11943C16030BD2DE9F041474B00F03E
:100994000F08C0F3031401300E4601F0070753F8A3
:1009A400285003D14321424800F0D8F82046FFF7ED
:1009B4005BFF0446826895FAA5F3B3FA83F395FACC
:1009C400A5F103205B00B1FA81F100FA03F322EAF6
:1009D40003034A0000FA02F21343A360874236D8A5
:1009E400DFE807F01D1D021DB8F1070FC6F306204E
:1009F40017D9626A2B0A93FAA3F1B1FA81F193FA37
:100A0400A3F34FF00F0EB3FA83F389000EFA01F14A
:100A14009B0022EA010200FA03F3134363623B469C
:100A24001AE0226A95FAA5F3B3FA83F395FAA5F1CD
:100A34004FF00F0EB1FA81F19B000EFA03F3890017
:100A440022EA030200FA01F313432362E7E76A216F
:100A5400174800F083F80023226895FAA5F0B0FA4D
:100A640080F095FAA5F14FF0030EB1FA81F1400040
:100A74000EFA00F0490022EA00028B40013F1343C2
:100A8400012F236005D8636832074CBF2B43AB4367
:100A94006360C6F30112012A02D0022A18BF0022A1
:100AA40029462046BDE8F041FFF758BFD43000087E
:100AB4006F300008431C06D17047984202D1896800
:100AC400FFF762BF0C3191F900305A1CF5D1922125
:100AD400014800F043B800BF6F30000891F90030BE
:100AE4005A1C01D100207047834201D148687047E5
:100AF4000C31F3E7431C01D0FFF7F0BF002070472F
:100B04004B6813B94FF0FF307047834202D191F91B
:100B1400000070470C31F3E708B1FFF7F1BF4FF065
:100B2400FF307047884204D018B100290CBF014639
:100B34000021084670470000034B1B6813B1034AA9
:100B440010681847704700BF340100205801002086
:100B5400014801F075BB00BF38010020FEE700002A
:100B64000F49D1F8883043F47003C1F888300D4B35
:100B74001A68002042F001021A6098601A6822F094
:100B8400847222F480321A60074A5A601A6822F486
:100B940080221A60D8604FF000638B60704700BFFA
:100BA40000ED00E00038024010300024436C2BB10B
:100BB400027E012A02D100210438184770470346F7
:100BC40004381B6C03B118477047000010B5064C7D
:100BD400206808B101F062FB606A18B1BDE81040FA
:100BE40001F05CBB10BD00BF5C010020024B5868E3
:100BF40008B101F053BB70475C010020024B9868B8
:100C040008B101F04BBB70475C010020024BD8686F
:100C140008B101F043BB70475C010020024B186926
:100C240008B101F03BBB70475C010020024B186A1D
:100C340008B101F033BB70475C010020024B986A95
:100C440008B101F02BBB70475C010020C3689A42D5
:100C540010B504461CD171B9436E80F8581003B125
:100C6400984794F8882004F1680120460823BDE8D9
:100C7400104000F01FBB00230122C36580F85820F8
:100C8400C16D014402236831BDE8104000F04EBB41
:100C940010BD036E10B5044643B190F85820012AE4
:100CA40004D1C26D12B1C16D68309847022384F833
:100CB40058300023E3652046BDE8104000F072BBC5
:100CC400C36D1F2BDEBFC36D0133C36590F858207D
:100CD400D2B2012A05D1C16D01440223683100F06A
:100CE40025BB7047002380F88830704790F859304E
:100CF4000BB900F057BB7047014B186800F006BCF5
:100D0400B4010020014B186800F06ABFB401002050
:100D1400014B586800F0FABBB4010020014B58683D
:100D240000F05EBFB4010020014B986800F0EEBBF8
:100D3400B4010020014B986800F052BFB4010020B8
:100D440030B5044685B0002854D0484990F958007D
:100D5400FFF7D0FE4649054694F95900FFF7CAFE4D
:100D64000146002846D0002D44D02846FFF7DAFE7D
:100D7400206000283ED03F4B98423DD103F5943388
:100D840000215A6A42F010025A625A6A22F0100292
:100D94005A6201915A6C42F010025A645B6C84F8F6
:100DA400441003F010030193019B252384F85A3067
:100DB4002E4994F95800FFF77DFE94F959002C4907
:100DC400FFF778FE2C4B94F84420251D43F822505D
:100DD40023686360A36CA360E36CE360236D236109
:100DE400636D63610C23A3610023E36123622846DE
:100DF40001F021FC05B030BD204B984219D103F518
:100E0400FA331A6A42F400321A621A6A22F400327D
:100E14001A62002202921A6C42F400321A641B6CA9
:100E240003F400330293029B012384F84430262305
:100E3400BCE7134B9842BBD103F592335A6A42F094
:100E440020025A625A6A22F020025A620022039255
:100E54005A6C42F020025A645B6C03F02003039343
:100E6400039B052384F8443047239FE7EC2F0008B5
:100E7400A42F00080010014060020020004400403C
:100E84000014014008B5074B90F8442053F82200A1
:100E940001F024FD00F02200A0F122035842584141
:100EA40008BD00BF6002002008B5074B90F844203D
:100EB40053F8220001F012FD00F02100A0F12103FB
:100EC4005842584108BD00BF6002002070B50E466C
:100ED400054610B94FF0FF3070BDFFF7D3FF04464D
:100EE4000028F7D12946064B11F8452F327095F8A2
:100EF4004400012253F8200001F0EAFB204670BDB3
:100F04006002002038B50D46044600B3FFF7BAFF6F
:100F1400E8B994F844300E4A42F823500D4A014689
:100F240042F8234094F95A00012200F02BF994F975
:100F34005A0000F05BF994F84400074B04F14501B2
:100F440053F820000122BDE8384001F0C1BB38BD90
:100F5400C0010020E80100206002002010B5044612
:100F640000B390F84430104A42F823100F4A00218D
:100F740042F82300022290F95A0000F003F994F990
:100F84005A0000F033F9636EB4F86A1094F8440020
:100F940013FA81F1064B012253F82000BDE81040FA
:100FA40001F077BB10BD00BF100200203802002002
:100FB4006002002010B548B10649002351F82340CF
:100FC400A042DAB203D001330A2BF7D10A22104629
:100FD40010BD00BF6002002010B5FFF7EBFF092829
:100FE40008D8054B054A53F8203052F82000BDE8D4
:100FF4001040184710BD00BFC0010020E8010020C8
:1010040010B5FFF7D7FF092818D80D4B53F8204027
:101014000C4B53F820302046984701300ED0636EB5
:10102400B4F86A1094F8440013FA81F1064B0122D3
:1010340053F82000BDE8104001F02BBB10BD00BFE9
:1010440038020020100200206002002003681A68A1
:10105400D20782B002D55B68019308E01A68900752
:10106400F9D41A685107F6D41A681207F3D4019B0D
:1010740002B0704708B5252000F0DCF8024B186870
:10108400BDE8084001F082BB6002002008B52620BC
:1010940000F0D0F8024B5868BDE8084001F076BB78
:1010A4006002002008B5472000F0C4F8024B5869DC
:1010B400BDE8084001F06ABB6002002070470000F0
:1010C40038B50E4A0E4B054618784FF47A73B3FBC5
:1010D400F0F31068B0FBF3F000F096F8044658B94A
:1010E4000F2D09D8024629464FF0FF3000F04AF888
:1010F400044B20461D6038BD012038BD040000208B
:10110400080000200C00002008B50B4B1A6842F4BC
:1011140000721A601A6842F480621A601A6842F413
:1011240080721A60032000F01BF80F20FFF7C8FF3D
:10113400FFF7C4FF002008BD003C0240034A044BF3
:1011440011681B780B441360704700BFCC04002067
:1011540008000020014B1868704700BFCC04002031
:10116400074AD36823F4E0631B041B0C43F0BF63FA
:10117400000243F4003300F4E0600343D36070479B
:1011840000ED00E0174B30B5DC68C4F30224C4F171
:101194000703251D042B28BF0423062D4FF001054A
:1011A40005FA03F303F1FF338CBF033C0024194019
:1011B400A14005FA04F4013C2240002842EA01025D
:1011C4004FEA0212ADBF00F1604000F00F00064B81
:1011D40000F56140B5BFD2B2D2B21A5480F80023F0
:1011E40030BD00BF00ED00E014ED00E0002808DB96
:1011F4004209012300F01F0003FA00F0014B43F8F9
:101204002200704700E100E00138B0F1807F0AD28B
:10121400064B074A5860F02182F823100020072269
:1012240098601A6070470120704700BF10E000E02A
:1012340000ED00E0002809DB4309012200F01F0053
:1012440002FA00F06033024A42F82300704700BFFC
:1012540000E100E0044B1A6804280CBF42F00402C9
:1012640022F004021A60704710E000E0704708B5ED
:10127400FFF7FCFF08BD90F83530022B03D0802324
:101284004365012070470268052380F835301368F0
:1012940023F00103136000207047000008B5044BDD
:1012A4005969014202D0586101F020FD08BD00BF18
:1012B400003C014037B590F83D40282C34D100293A
:1012C40030D0002A2ED090F83C40012C2CD0056858
:1012D400012480F83C402C68E4075EBF2C6844F08D
:1012E40001042C602C6824F400642C60292480F808
:1012F4003D40202480F83E40002404644285C362BB
:10130400438D019403856B690193AB690193019B40
:101314006B68416243F4E06380F83C406B602046B4
:1013240003B030BD0120FBE70220F9E737B590F8A0
:101334003D40282C34D1002930D0002A2ED090F8FA
:101344003C40012C2CD00568012480F83C402C68DA
:10135400E4075EBF2C6844F001042C602C6824F47C
:1013640000642C602A2480F83D40202480F83E400C
:10137400002404644285C362438D019403856B6930
:101384000193AB690193019B6B68416243F4E06391
:1013940080F83C406B60204603B030BD0120FBE781
:1013A4000220F9E790F83D30202B14D1282380F84F
:1013B4003D3003681A68D2075EBF1A6842F0010222
:1013C4001A601A6842F480621A605A6842F44072E1
:1013D4005A6000207047022070477047704770477A
:1013E4007047704790F83D30293B012B10B50368D6
:1013F400044639D800220263282280F83D201A6866
:1014040022F400621A605A6812F4006254D05A68D6
:10141400606B22F400625A6090F83530012B394B2E
:1014240031D00365FFF727FF50B12268606B136862
:1014340023F001031360202384F83D30036D9847A3
:1014440094F83D30282B0ED1236C5B070BD52E4B23
:10145400E362202200232363204684F83D2084F89D
:101464003E30FFF716FC10BD90F83D20602A05D0F1
:101474005A6812055CBF202280F83D2000222263B6
:1014840084F83E20BBE7A06B0365FFF7F4FE002859
:10149400D6D022685369580604D5636A1269591C68
:1014A40061621A702268A06B136823F00103136051
:1014B400202384F83D30C1E794F83D10602914D10D
:1014C400202184F83D1022645A69510604D5626AC9
:1014D4001B69511C616213702268136823F00103B5
:1014E40013602046FFF77DFFAAE75A69520604D528
:1014F400626A1B69511C616213702046FFF7F6FB98
:101504009EE700BF191D00080000FFFF0368F0B547
:101514009D6959695A6890F83E40E4B2102C8DB028
:1015240002D0402C40F0558211F0011F66D097057F
:1015340064D590F83E40402C43D1046D002C3BD13F
:10154400446C04F0FE041C61984E994C2E400C40EF
:10155400002E00F09F81974D0D40002D00F0668114
:10156400550540F16381002C40F0608190F83D20E6
:10157400058D90F83E10C46AD2B2C9B2002D40F075
:101584000581212A40F00481042C00F06C81082C90
:1015940000F0698114F5803F00F065815A6822F4F7
:1015A400E0625A601123036380F83E50202380F8E0
:1015B4003D30FFF712FFF6E0446C44F00104E4B25E
:1015C400C1E70469B4F5804F05D190F83D40212C62
:1015D400446CF2D1B5E7046D34B9446CE41104F001
:1015E400060444F0F004AEE7046D012CACD1446C65
:1015F400E41104F0060444F0F104A4E76E4C0C403A
:101604001CB1960501D5446CD9E76C4C0C40002CF8
:101614009AD0940598D590F83E40C66AD0F830E048
:1016240090F83D70222FE4B240F0A880076D47B9CE
:10163400402C06D101975C6901949C690194019C3A
:1016440082E7046D8CB90769B7F5404F0DD1029458
:101654005C6902949C690294029C1C6844F4807442
:101664001C60046D013404656EE7448DA4B254B962
:1016740003945C6903949C690394039C1C6844F47C
:1016840000741C6019E0448DA4B2012C42D116F5FB
:10169400803F1BD11C6824F480641C605C6814F4D3
:1016A40000640CD01C6824F480641C60002404943E
:1016B4005C6904949C690494049C0024D3E7059415
:1016C4005C6905949C690594059CD7E7042E15D0A4
:1016D400082E13D0BEF1120F10D0C46A022C1C685D
:1016E40014BF24F4806444F480641C6000240694D1
:1016F4005C6906949C690694069CDEE71C6824F4E5
:1017040080641C60002407945C6907949C690794B6
:10171400079CB3E7448DA4B2022C1CD1C46A022CEA
:101724001C681DBF24F480641C601C6844F480643D
:1017340018BF44F400641C605C68270542BF5C6801
:1017440044F480545C60002408945C6908949C69A7
:101754000894089CB1E71C6844F480641C605C68CD
:10176400260542BF5C6844F480545C6000240994FC
:101774005C6909949C690994099C9EE700240A9475
:101784005C690A949C690A940A9CDDE6212A03D0C8
:10179400402908D1222A06D1428D92B282B95A68D0
:1017A40022F480625A600DB0F0BD00BF0400100046
:1017B4000400010080000100080001000200010093
:1017C40090F83E20402A27D1026D7AB9C26C012AD2
:1017D400826C05D1D2B21A61036D02330365E2E76C
:1017E400C2F307221A61036D0133F7E7026D012A80
:1017F40002D1826CD2B2F5E7026D022AD3D190F8FD
:101804003D20222A04D11A6842F480721A60CAE781
:1018140090F83D20212AC6D1426A511C41621278B7
:101824001A61438D013B9BB24385BCE7002CBAD0BF
:101834009405B8D5C16A90F83D20212AB3D1428DD0
:1018440092B2002AE8D104290DD008290BD011F551
:10185400803F08D0596821F4E06159601123036383
:1018640080F83E20A2E65A6822F4E0625A601A68C0
:1018740042F400721A6000232022036380F83D20A2
:1018840090F83E2080F83E30402A7FF492AEFFF775
:10189400A6FD88E7904D0D40002D41D051053FD560
:1018A400002C3DD190F83D20222A7FF47CAF428D5C
:1018B40092B2032A13D9426A1B69511C4162137004
:1018C400438D013B9BB24385438D9BB2032B7FF435
:1018D4006AAF0268536823F48063536063E7012AA4
:1018E4003FF661AF1A6822F480621A605A6822F4E3
:1018F400E0625A60426A1B69511C41621370438D55
:10190400013B9BB24385202380F83D30046390F86B
:101914003E3080F83E40402B58D1FFF761FD42E74E
:10192400002C3FF440AF97057FF53DAFC16A428D6F
:1019340092B2042A426A08D1596821F4806159603C
:10194400511C1B69416213706BE7448DA4B2032CD4
:1019540008D1596821F480615960196821F48061C3
:101964001960EDE7448DA4B2022CE9D101390129B3
:1019740019689DBF21F480611960196841F40071F0
:1019840098BF41F4807119601B69511C4162137046
:10199400438D013B9BB24385436A5A1C42620268F1
:1019A40012691A70438D0268013B9BB243855368E8
:1019B40023F440735360202380F83D3000230363F5
:1019C40090F83E2080F83E30402AA5E7FFF706FD58
:1019D400E9E6424C0C4074B196050CD599699B69B3
:1019E40081F004011D06C1F3800154BF8289028B7A
:1019F400FFF72CF9D7E63A4C0C40002C74D0940530
:101A040072D590F83D20596821F4E06159600021B5
:101A14000B9159690B91196841F0010119600B99F7
:101A2400196821F48061196059680905D2B20CD58E
:101A340090F83D10222903D090F83D102A2929D18D
:101A4400816B0968496889B24185418D89B2E1B1E8
:101A540059694F0708D5416A1B694C1C44620B70D5
:101A6400438D013B9BB2438501684B695E0608D5F3
:101A7400436A09695C1C44621970438D013B9BB243
:101A84004385036C43F004030364036C23B1FFF741
:101A9400A9FC88E6416BD4E7A2F1280102290AD8FF
:101AA400104AC2622022036380F83D2080F83E3051
:101AB400FFF7EFF877E6036B222B02D0222A7FF49C
:101AC40072AE00232022036380F83D2080F83E306C
:101AD400FFF7F6F867E600BF4000010002000100CE
:101AE400100001000000FFFF394E3A4C2E400C401C
:101AF400002E36D0384D0D403DB3550525D524BBB9
:101B040090F83D10428D92B2C9B2002A3FF44BAE18
:101B1400426A541C446212781A61428D013A92B2AC
:101B24004285428D92B2002A7FF43DAE29297FF48A
:101B34003AAE5A6822F480625A6021230363282350
:101B440080F83D30FFF7CEF82DE6002C3FF42BAEA5
:101B540094057FF528AE428D92B2002A7FF45CAEE4
:101B640021E61E4D0D4035B3510524D51CBB90F81C
:101B74003D20418D89B2D2B200293FF414AE416AAE
:101B84001B694C1C44620B70438D013B9BB2438523
:101B9400438D9BB2002B7FF406AE2A2A7FF403AE5A
:101BA4000268536823F48063536022230363282369
:101BB40080F83D308CE7002C3FF4F5AD92057FF5BD
:101BC400F2AD428D92B2002A3FF4EDAD426AB7E61F
:101BD4000400100004000100800001004000010026
:101BE400F8B50368494A5E695D681642044608D040
:101BF400E80506D5226C42F0010222646FF480727B
:101C04005A6116F4813F08D0E90506D5226C42F0EA
:101C1400020222646FF400725A6116F4823F36D0D5
:101C2400EA0534D594F83E70618D94F83D20206B1C
:101C3400202F89B2D2B258D1002956D102F0F7012F
:101C4400212903D0282A50D121284ED194F83D20AF
:101C5400E16A0429D2B201D008292CD1282A2AD138
:101C64002B4AE2625A6822F4E0625A606FF480629E
:101C74005A611A6822F480621A60002320222363C6
:101C8400204684F83D2084F83E30FFF702F816F42D
:101C9400843F09D0EB0507D5236C43F00803236484
:101CA40023686FF400625A61236C73B32046BDE865
:101CB400F840FFF797BB212A23D11549E16222633B
:101CC400202284F83D20002284F83E205A6822F421
:101CD400E0625A606FF480625A611A6822F480628A
:101CE4001A602046FEF7FEFFD1E7226C42F00402A0
:101CF400226494F83E20102A02BF1A6842F400724B
:101D04001A606FF480625A61C1E7F8BD00010100F6
:101D14000000FFFF806B08B50368416B1A6822F46A
:101D240080621A60002242850A65816B0A6590F818
:101D34003D1060294FF0200180F83D1080F83E20CE
:101D440007D102641A6822F001021A60FFF749FB06
:101D540008BD1A6822F001021A60FEF7C7FF08BD29
:101D64002DE9F341044618B9012002B0BDE8F08121
:101D74000368DD0710D42368980758D423681A072A
:101D840000F19A8023685B0700F1B880A269002AF9
:101D940040F019810020E8E7A64B9A6802F00C0293
:101DA400042A07D09A6802F00C02082A0AD15B6858
:101DB400590207D59F4B1B689A03DCD56368002B37
:101DC400D9D1D1E763689B4DB3F5803F11D12B681E
:101DD40043F480332B60FFF7BDF9964D06462B681C
:101DE4009B03C8D4FFF7B6F9801B6428F7D90320F6
:101DF400BBE7B3F5A02F04D12B6843F480232B60F9
:101E0400E5E72A6822F480322A602A6822F48022D4
:101E14002A60002BDFD1FFF79DF906462B689F034C
:101E2400A9D5FFF797F9801B6428F7D9DFE7814B21
:101E34009A6812F00C0F07D09A6802F00C02082A74
:101E440011D15B685E020ED47A4B1A68950702D5ED
:101E5400E268012A88D11A68216922F0F80242EA6C
:101E6400C1021A608AE7E268734BB2B101221A60B8
:101E7400FFF770F96F4D06462B68980707D52B6856
:101E8400226923F0F80343EAC2032B6076E7FFF7E5
:101E940061F9801B0228EFD9A9E71A60FFF75AF904
:101EA400644D06462B6899077FF568AFFFF752F932
:101EB400801B0228F6D99AE76269604B7AB1012245
:101EC4001A60FFF747F95B4D06466B6F9F073FF5B6
:101ED40059AFFFF73FF9801B0228F6D987E71A604C
:101EE400FFF738F9534D06466B6F98077FF54AAFF5
:101EF400FFF730F9801B0228F6D978E74D4B1A6CAE
:101F040012F0805228D101921A6C42F080521A6465
:101F14001B6C03F080530193019B0126484D2B68F1
:101F2400D9051BD5A368434D012B27D12B6F43F053
:101F340001032B67FFF70EF93E4D074641F288383F
:101F44002B6F9B0739D5002E3FF420AF394A136C11
:101F540023F08053136419E70026DFE72B6843F46A
:101F640080732B60FFF7F6F807462B68DA05D9D49F
:101F7400FFF7F0F8C01B0228F7D938E7052B04D186
:101F84002B6F43F004032B67D0E72A6F22F0010282
:101F94002A672A6F22F004022A67002BCAD1FFF7AE
:101FA400D9F841F2883807462B6F9807CBD5FFF74D
:101FB400D1F8C01B4045F7D919E7FFF7CBF8C01B90
:101FC4004045BDD913E71B4DAB6803F00C03082B48
:101FD4003FF4CAAE1B4E0023022A336034D1FFF70C
:101FE400B9F807462B6899011ED4226AE3691343A2
:101FF400626A43EA8213E26A43EA0263A26A0D4C0C
:102004005208013A43EA02436B6001233360FFF74D
:10201400A1F8054623689A013FF5BCAEFFF79AF88C
:10202400401B0228F6D9E2E6FFF794F8C01B022809
:10203400D8D9DCE60038024000004742800E47420F
:102044000070004060004742FFF784F804462B68A4
:102054009B017FF59FAEFFF77DF8001B0228F6D9A0
:10206400C5E600BF134908B58B6803F00C03042BC5
:1020740003D0082B03D0104808BD104808BD4A6897
:102084004B68496813F4800314BF0C480A48C1F331
:10209400881118BF002302F03F02A1FB0001FEF7E4
:1020A400B5F8044B5B68C3F3014301335B00B0FB39
:1020B400F3F008BD003802400024F40000127A0056
:1020C4002DE9F0410D46044610B90120BDE8F08128
:1020D400444B1A6802F00F028A4228D321688F0702
:1020E4002DD4C80740D43F4B1A6802F00F02954222
:1020F40066D3226851076CD4130707D53A4A21697D
:10210400936823F4604343EAC1039360FFF7AAFF93
:10211400354B364A9B68C3F30313D35CD840344B26
:1021240018600F20FEF7CCFF0020BDE8F081CAB292
:102134001A701B6803F00F039942C6D1CEE72A4BED
:1021440011F0040F1EBF9A6842F4E0529A600E0721
:1021540042BF9A6842F460429A609A68A06822F08A
:10216400F00202439A60BCE762681F4B012A1DD14A
:102174001B6813F4003FA8D01B4EB36823F003037D
:102184001343B360FEF7E6FF41F288380746B368AD
:10219400626803F00C03B3EB820FA4D0FEF7DAFFFE
:1021A400C01B4045F3D90320BDE8F081911E0129ED
:1021B4001B6802D813F0007FDDE713F0020FDAE7A3
:1021C400EAB21A701B6803F00F039D427FF47DAFDF
:1021D4008FE70549E0688B6823F4E05303438B6081
:1021E4008AE700BF003C0240003802401431000876
:1021F40004000020014B1868704700BF0400002051
:10220400044B054A9B68C3F38223D35C034A1068DA
:10221400D8407047003802402431000804000020F0
:10222400044B054A9B68C3F34233D35C034A1068EA
:10223400D8407047003802402431000804000020D0
:102244000368DA68D20510B504460AD59B68D90438
:1022540007D5FEF771FC2268D368DBB263F4C07360
:10226400D3602368DA6892050BD59B689B0408D574
:10227400204600F00FF82268D368DBB263F42073C1
:10228400D360034B4FF400325A610123637710BDCE
:10229400003C0140704770477047704703681A69F3
:1022A400910710B504460ED5DA6892070BD56FF086
:1022B40002021A619B6901229B07027677D0FFF71D
:1022C400EAFF0023237623681A69500710D5DA68D9
:1022D40051070DD56FF004021A619B69022213F4B1
:1022E400407F2276204668D0FFF7D5FF002323766F
:1022F40023681A6912070FD5DA6810070CD56FF036
:1023040008021A61DB6904229907227620465AD012
:10231400FFF7C1FF0023237623681A69D20610D57C
:10232400DA68D0060DD56FF010021A61DB69082255
:1023340013F4407F227620464BD0FFF7ACFF0023F6
:10234400237623681A69D10708D5DA68D20705D538
:102354006FF001021A612046FEF731FC23681A6906
:10236400100608D5DA68110605D56FF080021A61E7
:10237400204600F036F823681A69520608D5DA6850
:10238400500605D56FF040021A612046FFF785FF1D
:1023940023681A69910622D5DA6892061FD56FF070
:1023A400200220461A61BDE8104000F019B8FEF77B
:1023B400FDFB2046FFF770FF83E7FEF7F7FB20469F
:1023C400FFF76AFF92E7FEF7F1FB2046FFF764FF91
:1023D400A0E7FEF7EBFB2046FFF75EFFAFE710BD7B
:1023E400704770470368DA6822F49072DA605A69B9
:1023F40022F001025A61202380F83A30704700002D
:102404002DE9F0470668C2683369C16923F4405373
:1024140013433361044683680069F26803436069C7
:1024240022F41642034322F00C020B431343F360DD
:102434007369A26923F440731343B1F5004F7361C8
:102444007A4B7CD19E4203D003F580639E4244D1F3
:10245400FFF7E6FE192505FB00F360684FF06409F9
:102464004000B3FBF0F3B3FBF9F34FEA0318FFF7B3
:10247400D7FE636868435B00B0FBF3F7FFF7D0FE59
:10248400636868435B00B0FBF3F3B3FBF9F309FB48
:102494001373DB003233B3FBF9F35B0003F4F87717
:1024A400FFF7BEFE626868435200B0FBF2FAFFF722
:1024B400B7FE636868435B00B0FBF3F3B3FBF9F367
:1024C40009FB13A3DB003233B3FBF9F303F0070377
:1024D40043443B44B360BDE8F087FFF791FE192500
:1024E40005FB00F360684FF064094000B3FBF0F3B0
:1024F400B3FBF9F34FEA0318FFF782FE63686843FE
:102504005B00B0FBF3F7FFF77BFE636868435B0097
:10251400B0FBF3F3B3FBF9F309FB1373DB003233C2
:10252400B3FBF9F35B0003F4F877FFF769FE626825
:1025340068435200B0FBF2FAFFF762FEB9E79E422D
:1025440002D03B4B9E4240D1FFF76AFE67681925D3
:102554004FF0640905FB00F3BF00B3FBF7F3B3FBD3
:10256400F9F31F01FFF75CFE636868439B00B0FB4F
:10257400F3F8FFF755FE636868439B00B0FBF3F381
:10258400B3FBF9F309FB13831B013233B3FBF9F3F8
:1025940003F0F008FFF744FE626868439200B0FB62
:1025A400F2FAFFF73DFE636868439B00B0FBF3F368
:1025B400B3FBF9F309FB13A31B013233B3FBF9F3A8
:1025C40003F00F0343EA080383E7FFF719FE676884
:1025D40019254FF0640905FB00F3BF00B3FBF7F3C3
:1025E400B3FBF9F31F01FFF70BFE636868439B001D
:1025F400B0FBF3F8FFF704FE636868439B00B0FB8D
:10260400F3F3B3FBF9F309FB13831B013233B3FB7D
:10261400F9F303F0F008FFF7F3FD626868439200F2
:10262400B0FBF2FAFFF7ECFDBDE700BF001001407C
:1026340000140140704710B5044640B390F8393097
:1026440003F0FF021BB980F83820FFF7F3FF22687C
:10265400242384F83930D36823F40053D36020460C
:10266400FFF7CEFE23681A6922F490421A615A6970
:1026740022F02A025A61DA6842F40052DA60002039
:102684002023E06384F8393084F83A3010BD012007
:1026940010BD90F83930202B18D1A9B1A2B190F80F
:1026A4003830012B12D0C284016282840023016875
:1026B400C363212280F83920CA6880F8383042F098
:1026C4008002CA6018467047012070470220704794
:1026D40090F83A30202B1CD1C9B1C2B190F83830EF
:1026E400012B16D0C285828500232222C36380F881
:1026F4003A2002688162516980F8383041F0010162
:102704005161D16841F49071D1601846704701203D
:1027140070470220704790F83A30222B10B532D11E
:10272400836801690268B3F5805F836A1FD15268C8
:10273400C9B9C2F3080223F8022B8362C48D013C99
:10274400A4B2C4856CB90368DA6822F49072DA60C2
:102754005A6922F001025A61202380F83A30FEF7C8
:102764003BFC002010BDD2B223F8012BE5E721B9D0
:10277400591C526881621A70E0E75268591C8162E0
:1027840002F07F02F7E7022010BD000003681A6818
:10279400D96870B5160704465D6907D196065AD5FF
:1027A4008D0658D5BDE87040FFF7B5BF15F001059B
:1027B40002D111F4907F4ED0D30705D5CE0542BF88
:1027C400E36B43F00103E363500704D51DB1E36BEE
:1027D40043F00203E363930704D51DB1E36B43F0B5
:1027E4000403E363160704D51DB1E36B43F0080348
:1027F400E363E36B002B66D0950604D5880602D507
:102804002046FFF788FF23685D69E26B11072046C5
:1028140002D415F040051AD0FFF7E4FD23685A6985
:10282400520610D55A69606B22F040025A6150B1C9
:10283400254B0365FEF71FFD002844D0606BBDE8FF
:102844007040036D18472046FEF700FC70BDFEF78C
:10285400FDFBE56370BD160627D50D0625D594F856
:102864003920212A2FD1A268B2F5805F226A17D1BC
:102874001188C1F308015960216979B902322262D1
:10288400E28C013A92B2E284EAB9DA6822F0800278
:10289400DA60DA6842F04002DA6070BD0132EEE7D5
:1028A400511C216212785A60EAE750060BD54A0699
:1028B40009D5DA6822F04002DA60202384F839303E
:1028C4002046FEF79DFB70BDD128000808B5806B3B
:1028D4000023C385C384FEF7B9FB08BD90F83920F3
:1028E40090F83A0010437047B0F86A30013303F0AF
:1028F4003F03A0F86A30B0F86A30B0F868009BB2C1
:1029040098424FF0FF3018BF00207047B0F8F43001
:10291400B0F8F600181A00F03F007047B0F8F43031
:10292400B0F8F6209BB293421ABFD0F8F030985C0E
:102934004FF0FF307047B0F8F420B0F8F63092B2A0
:102944009A421FBFD0F8F020D25C013303F03F035A
:102954001ABFA0F8F63010464FF0FF30704713B599
:102964000DF107010446FEF7B1FA90B9B4F86030EE
:10297400B4F86220013303F03F03934209D0B4F862
:102984006020E16D9DF8070092B29BB28854A4F8D0
:10299400603002B010BD000010B5B0F8FC40012357
:1029A4000374E31803F03F03B0F8FE2092B293429D
:1029B400FAD0D0F8F820115500F19404A0F8FC30B6
:1029C4002046FEF771FA18B902492046FEF7C6FA06
:1029D400012010BDED280008037C33B1B0F8FC20C1
:1029E400B0F8FE309BB29A42FAD1704700F111035D
:1029F400C0F8F03000F151020023A0F8F430A0F840
:102A0400F630C0F8F820A0F8FC30A0F8FE3070478B
:102A1400002343604FF47A733A2983600A4B0360BE
:102A240096BF0A4B4FF0FF335B5680F8ED303A2ADD
:102A340010B596BF054B4FF0FF339B5680F8EC3032
:102A4400FFF7D4FF10BD00BFA031000834300008E8
:102A540038B5002343604FF47A7383600F4B0360EF
:102A64000F4B984204460D460BD10E4B1A785B78F7
:102A740080F8ED2080F8EC302046FFF7B7FF2046C1
:102A840038BD09492846FEF747F8084984F8ED009F
:102A94002846FEF741F884F8EC00EDE7A031000881
:102AA4008802002034300008A42F0008EC2F00080E
:102AB40002F00703023BDBB2042B10B5C0F8DC10B4
:102AC40098BF1D4980F8002198BFCB5C02F030010B
:102AD40088BF00233029044615D14FF4C061C4F8DF
:102AE400E810013312F0080218BF4FF40052082B0B
:102AF400C4F8E42010D0092B1BD040F25B110F481E
:102B0400FEF72CF80BE012F0200102D04FF48061A4
:102B1400E5E7C0F8E810E5E70023C4F8E0309434B2
:102B24002046FEF70DF920460549BDE81040FEF7A2
:102B3400E9B94FF48053F0E72C3100083131000833
:102B44006329000801490248FFF782BF004400409E
:102B5400880200202DE9F04106460D4601EB0208EB
:102B64000C464445A4EB050707D0336814F8011B51
:102B74001B68304698470028F3D13846BDE8F081F9
:102B840070B505460C46084649B1FDF737FB2B687E
:102B94000246214628465B68BDE87040184770BD70
:102BA40003681B681847000008B50249FFF7E8FFEF
:102BB40008BD00BFC031000838B50546FFF7E0FF87
:102BC40004462846FFF7F0FF204438BD38B50546D3
:102BD400FFF7E6FF04462846FFF7E6FF204438BD2A
:102BE40010B50446FDF730FEE06023682046DB683C
:102BF4009847002808DAFDF727FEE368C01AA3689F
:102C04009842F2D34FF0FF3010BD2DE9F0418046D9
:102C14000D468F180C46BC42A4EB050607D040466F
:102C2400FFF7DEFF002802DB04F8010BF3E7304670
:102C3400BDE8F0812DE9F8438046894616461C46D6
:102C44007BB1D7181546AF42A5EB060409D0404620
:102C5400FFF7C6FF002804DB484502D005F8010B46
:102C6400F1E72046BDE8F883836810B5044613B144
:102C7400032201469847204610BD000008B5044BC6
:102C84002BB10448FFF742FE08B1AFF3008008BD42
:102C94000000000088020020704708B50320FEF7FA
:102CA4005FFABDE80840FDF7CCBD000008B5FFF7AA
:102CB400F3FFFDF733FC044CFDF70EFD002CFBD0B5
:102CC400FFF7DCFFF8E700BF812C0008064838B5A1
:102CD400A0F5A074A0F114051038FFF7C5FFA542B4
:102CE4002846F7D138BD00BFCC04002000230128BA
:102CF40003F1010202D040081346F8E71421DBB2C5
:102D04004B43044A181D1044816811B11A441369D5
:102D1400184770478C0300200120FEF7BFBA022039
:102D2400FEF7BCBA0420FEF7B9BA0820FEF7B6BA1B
:102D34001020FEF7B3BA38B505242025A8B2FEF753
:102D4400ADFA013C4FEA4505F8D138BD38B5062443
:102D54004FF48065A8B2FEF7A1FA013C4FEA45059D
:102D6400F8D138BD224B234906221A7007221A755E
:102D7400082283F82820092283F83C200A2283F8B9
:102D840050201722002083F8642083F8782083F8E9
:102D94008C2083F8A02083F8B420282283F8C8204C
:102DA40083F8DC2083F8F02083F8042183F81821C9
:102DB40083F82C21D860186258639864D865186722
:102DC400C3F88400C3F89800C3F8AC00C3F8C0008B
:102DD400C3F8D400C3F8E800C3F8FC00C3F810013A
:102DE400C3F82401C3F83801034A00F007B800BF50
:102DF4008C030020D12C0008000000200B46014663
:102E0400184600F001B8000010B5054C13462CB16B
:102E14000A4601460220AFF3008010BD204610BDD3
:102E24000000000070B50D4E0D4CA41BA41000252D
:102E3400A54209D10B4E0C4C00F018F8A41BA410A9
:102E44000025A54205D170BD56F8253098470135B7
:102E5400EEE756F8253098470135F2E7CC31000803
:102E6400CC310008CC310008E0310008F8B500BFCF
:102E7400F8BC08BC9E467047F8B500BFF8BC08BC57
:042E84009E467047AF
:102E88004154480048616E6775702043616C6C005E
:102E98004154444C0052656469616C696E67004135
:102EA80054410041542B434D47463D310041542B7A
:102EB800434D47533D222B39313739303838343870
:102EC800313539220D0054686973206973206120F7
:102ED800534D532066726F6D2053494D204D6F64DA
:102EE800756C65004154442B3931383936373036E2
:102EF800383737323B0043616C6C696E67202000BD
:102F080047534D2053494D393030412042454749B8
:102F18004E00456E74657220636861726163746502
:102F28007220666F7220636F6E74726F6C206F70A0
:102F380074696F6E3A0068203A20746F2064697370
:102F4800636F6E6E65637420612063616C6C0069E9
:102F5800203A20746F207265636569766520612068
:102F680063616C6C0073203A20746F2073656E6423
:102F7800206D6573736167650063203A20746F2064
:102F88006D616B6520612063616C6C0065203A207F
:102F9800746F2072656469616C00000003000000B2
:102FA80000440040120700000A0000000010014021
:102FB800120700000C000000001401401208000075
:102FC8001700000000100140120700002700000051
:102FD8000014014012080000FF000000000000007B
:102FE800000000000200000000440040120700003A
:102FF8000900000000100140120700000B0000004B
:1030080000140140120800001600000000100140E2
:1030180012070000260000000014014012080000FA
:10302800FF000000000000000000000003020A1377
:1030380015141A0809271607060519182A2CFF0D52
:103048000E0F172D2E2F505122232B3229282625DB
:103058000C0B1C1B12111F1E1D2400010410212023
:1030680007062223251124443A5C41726475696E6F
:103078006F2D53544D33322D41524D2D4D345C70CC
:103088006F727461626C655C7061636B61676573B4
:103098005C53544D33325C68617264776172655C6D
:1030A80073746D33325C312E352E305C636F72650C
:1030B800735C61726475696E6F5C73746D33325CD6
:1030C80070696E6D61702E630000000001000000E1
:1030D80002000000040000000800000010000000CA
:1030E80020000000400000008000000000010000F7
:1030F80000020000000400000008000000100000AA
:1031080000200000004000000080000000000000D7
:10311800000000000102030406070809000000007F
:10312800010203040600070008443A5C4172647512
:10313800696E6F2D53544D33322D41524D2D4D3400
:103148005C706F727461626C655C7061636B6167FF
:1031580065735C53544D33325C6861726477617295
:10316800655C73746D33325C312E352E305C636F61
:103178007265735C61726475696E6F5C48617264D4
:103188007761726553657269616C2E6370700000B7
:1031980000000000000000009D290008592B0008CD
:1031A800112900083B29000821290008DD29000809
:0C31B8000F2C0008392C00080D0A000044
:0831C4007CD0FF7F0100000038
:1031CC009F2C0008B901000891060008492B000843
:0431DC00692D000851
:0431E000950100084D
:1031E400000000000024F4000100000010000000B2
:04000005080007F5F3
:00000001FF
